{
	"contracts/contracts/FundraiserFactory.sol": {
		"FundraiserFactory": {
			"abi": [
				{
					"anonymous": false,
					"inputs": [
						{
							"indexed": false,
							"internalType": "address",
							"name": "fundraiserAddress",
							"type": "address"
						}
					],
					"name": "FundraiserCreated",
					"type": "event"
				},
				{
					"inputs": [
						{
							"internalType": "string",
							"name": "_name",
							"type": "string"
						},
						{
							"internalType": "uint256",
							"name": "_targetAmount",
							"type": "uint256"
						},
						{
							"internalType": "uint256",
							"name": "_finishTime",
							"type": "uint256"
						},
						{
							"internalType": "string",
							"name": "_description",
							"type": "string"
						},
						{
							"components": [
								{
									"internalType": "string",
									"name": "name",
									"type": "string"
								},
								{
									"internalType": "uint256",
									"name": "quantity",
									"type": "uint256"
								},
								{
									"internalType": "uint256",
									"name": "price",
									"type": "uint256"
								}
							],
							"internalType": "struct FundraisingLib.Item[]",
							"name": "items",
							"type": "tuple[]"
						}
					],
					"name": "createFundraiser",
					"outputs": [],
					"stateMutability": "nonpayable",
					"type": "function"
				},
				{
					"inputs": [
						{
							"internalType": "uint256",
							"name": "",
							"type": "uint256"
						}
					],
					"name": "fundraisers",
					"outputs": [
						{
							"internalType": "contract Fundraiser",
							"name": "",
							"type": "address"
						}
					],
					"stateMutability": "view",
					"type": "function"
				},
				{
					"inputs": [],
					"name": "getFundraisers",
					"outputs": [
						{
							"internalType": "contract Fundraiser[]",
							"name": "",
							"type": "address[]"
						}
					],
					"stateMutability": "view",
					"type": "function"
				}
			],
			"devdoc": {
				"kind": "dev",
				"methods": {},
				"version": 1
			},
			"evm": {
				"assembly": "    /* \"contracts/contracts/FundraiserFactory.sol\":116:824  contract FundraiserFactory {... */\n  mstore(0x40, 0x80)\n  callvalue\n  dup1\n  iszero\n  tag_1\n  jumpi\n  0x00\n  dup1\n  revert\ntag_1:\n  pop\n  dataSize(sub_0)\n  dup1\n  dataOffset(sub_0)\n  0x00\n  codecopy\n  0x00\n  return\nstop\n\nsub_0: assembly {\n        /* \"contracts/contracts/FundraiserFactory.sol\":116:824  contract FundraiserFactory {... */\n      mstore(0x40, 0x80)\n      callvalue\n      dup1\n      iszero\n      tag_1\n      jumpi\n      0x00\n      dup1\n      revert\n    tag_1:\n      pop\n      jumpi(tag_2, lt(calldatasize, 0x04))\n      shr(0xe0, calldataload(0x00))\n      dup1\n      0x8e028d40\n      eq\n      tag_3\n      jumpi\n      dup1\n      0xb9a9489c\n      eq\n      tag_4\n      jumpi\n      dup1\n      0xf38f72fb\n      eq\n      tag_5\n      jumpi\n    tag_2:\n      0x00\n      dup1\n      revert\n        /* \"contracts/contracts/FundraiserFactory.sol\":719:822  function getFundraisers() public view returns (Fundraiser[] memory) {... */\n    tag_3:\n      tag_6\n      tag_7\n      jump\t// in\n    tag_6:\n      mload(0x40)\n      tag_8\n      swap2\n      swap1\n      tag_9\n      jump\t// in\n    tag_8:\n      mload(0x40)\n      dup1\n      swap2\n      sub\n      swap1\n      return\n        /* \"contracts/contracts/FundraiserFactory.sol\":294:713  function createFundraiser(... */\n    tag_4:\n      tag_10\n      0x04\n      dup1\n      calldatasize\n      sub\n      dup2\n      add\n      swap1\n      tag_11\n      swap2\n      swap1\n      tag_12\n      jump\t// in\n    tag_11:\n      tag_13\n      jump\t// in\n    tag_10:\n      stop\n        /* \"contracts/contracts/FundraiserFactory.sol\":200:231  Fundraiser[] public fundraisers */\n    tag_5:\n      tag_14\n      0x04\n      dup1\n      calldatasize\n      sub\n      dup2\n      add\n      swap1\n      tag_15\n      swap2\n      swap1\n      tag_16\n      jump\t// in\n    tag_15:\n      tag_17\n      jump\t// in\n    tag_14:\n      mload(0x40)\n      tag_18\n      swap2\n      swap1\n      tag_19\n      jump\t// in\n    tag_18:\n      mload(0x40)\n      dup1\n      swap2\n      sub\n      swap1\n      return\n        /* \"contracts/contracts/FundraiserFactory.sol\":719:822  function getFundraisers() public view returns (Fundraiser[] memory) {... */\n    tag_7:\n        /* \"contracts/contracts/FundraiserFactory.sol\":766:785  Fundraiser[] memory */\n      0x60\n        /* \"contracts/contracts/FundraiserFactory.sol\":804:815  fundraisers */\n      0x00\n        /* \"contracts/contracts/FundraiserFactory.sol\":797:815  return fundraisers */\n      dup1\n      sload\n      dup1\n      0x20\n      mul\n      0x20\n      add\n      mload(0x40)\n      swap1\n      dup2\n      add\n      0x40\n      mstore\n      dup1\n      swap3\n      swap2\n      swap1\n      dup2\n      dup2\n      mstore\n      0x20\n      add\n      dup3\n      dup1\n      sload\n      dup1\n      iszero\n      tag_21\n      jumpi\n      0x20\n      mul\n      dup3\n      add\n      swap2\n      swap1\n      0x00\n      mstore\n      keccak256(0x00, 0x20)\n      swap1\n    tag_22:\n      dup2\n      0x00\n      swap1\n      sload\n      swap1\n      0x0100\n      exp\n      swap1\n      div\n      0xffffffffffffffffffffffffffffffffffffffff\n      and\n      0xffffffffffffffffffffffffffffffffffffffff\n      and\n      dup2\n      mstore\n      0x20\n      add\n      swap1\n      0x01\n      add\n      swap1\n      dup1\n      dup4\n      gt\n      tag_22\n      jumpi\n    tag_21:\n      pop\n      pop\n      pop\n      pop\n      pop\n      swap1\n      pop\n        /* \"contracts/contracts/FundraiserFactory.sol\":719:822  function getFundraisers() public view returns (Fundraiser[] memory) {... */\n      swap1\n      jump\t// out\n        /* \"contracts/contracts/FundraiserFactory.sol\":294:713  function createFundraiser(... */\n    tag_13:\n        /* \"contracts/contracts/FundraiserFactory.sol\":512:536  Fundraiser newFundraiser */\n      0x00\n        /* \"contracts/contracts/FundraiserFactory.sol\":554:559  _name */\n      dup6\n        /* \"contracts/contracts/FundraiserFactory.sol\":561:574  _targetAmount */\n      dup6\n        /* \"contracts/contracts/FundraiserFactory.sol\":576:587  _finishTime */\n      dup6\n        /* \"contracts/contracts/FundraiserFactory.sol\":589:601  _description */\n      dup6\n        /* \"contracts/contracts/FundraiserFactory.sol\":603:608  items */\n      dup6\n        /* \"contracts/contracts/FundraiserFactory.sol\":539:609  new Fundraiser(_name, _targetAmount, _finishTime, _description, items) */\n      mload(0x40)\n      tag_24\n      swap1\n      tag_25\n      jump\t// in\n    tag_24:\n      tag_26\n      swap6\n      swap5\n      swap4\n      swap3\n      swap2\n      swap1\n      tag_27\n      jump\t// in\n    tag_26:\n      mload(0x40)\n      dup1\n      swap2\n      sub\n      swap1\n      0x00\n      create\n      dup1\n      iszero\n      dup1\n      iszero\n      tag_28\n      jumpi\n      returndatasize\n      0x00\n      dup1\n      returndatacopy\n      revert(0x00, returndatasize)\n    tag_28:\n      pop\n        /* \"contracts/contracts/FundraiserFactory.sol\":512:609  Fundraiser newFundraiser = new Fundraiser(_name, _targetAmount, _finishTime, _description, items) */\n      swap1\n      pop\n        /* \"contracts/contracts/FundraiserFactory.sol\":619:630  fundraisers */\n      0x00\n        /* \"contracts/contracts/FundraiserFactory.sol\":636:649  newFundraiser */\n      dup2\n        /* \"contracts/contracts/FundraiserFactory.sol\":619:650  fundraisers.push(newFundraiser) */\n      swap1\n      dup1\n      0x01\n      dup2\n      sload\n      add\n      dup1\n      dup3\n      sstore\n      dup1\n      swap2\n      pop\n      pop\n      0x01\n      swap1\n      sub\n      swap1\n      0x00\n      mstore\n      keccak256(0x00, 0x20)\n      add\n      0x00\n      swap1\n      swap2\n      swap1\n      swap2\n      swap1\n      swap2\n      0x0100\n      exp\n      dup2\n      sload\n      dup2\n      0xffffffffffffffffffffffffffffffffffffffff\n      mul\n      not\n      and\n      swap1\n      dup4\n      0xffffffffffffffffffffffffffffffffffffffff\n      and\n      mul\n      or\n      swap1\n      sstore\n      pop\n        /* \"contracts/contracts/FundraiserFactory.sol\":665:706  FundraiserCreated(address(newFundraiser)) */\n      0x2557643b2d3fb1068494cb23ac8d1b3b2a857564fe606f86020e33e2351e42dc\n        /* \"contracts/contracts/FundraiserFactory.sol\":691:704  newFundraiser */\n      dup2\n        /* \"contracts/contracts/FundraiserFactory.sol\":665:706  FundraiserCreated(address(newFundraiser)) */\n      mload(0x40)\n      tag_30\n      swap2\n      swap1\n      tag_31\n      jump\t// in\n    tag_30:\n      mload(0x40)\n      dup1\n      swap2\n      sub\n      swap1\n      log1\n        /* \"contracts/contracts/FundraiserFactory.sol\":502:713  {... */\n      pop\n        /* \"contracts/contracts/FundraiserFactory.sol\":294:713  function createFundraiser(... */\n      pop\n      pop\n      pop\n      pop\n      pop\n      jump\t// out\n        /* \"contracts/contracts/FundraiserFactory.sol\":200:231  Fundraiser[] public fundraisers */\n    tag_17:\n      0x00\n      dup2\n      dup2\n      sload\n      dup2\n      lt\n      tag_32\n      jumpi\n      0x00\n      dup1\n      revert\n    tag_32:\n      swap1\n      0x00\n      mstore\n      keccak256(0x00, 0x20)\n      add\n      0x00\n      swap2\n      pop\n      sload\n      swap1\n      0x0100\n      exp\n      swap1\n      div\n      0xffffffffffffffffffffffffffffffffffffffff\n      and\n      dup2\n      jump\t// out\n    tag_25:\n      dataSize(sub_0)\n      dup1\n      dataOffset(sub_0)\n      dup4\n      codecopy\n      add\n      swap1\n      jump\t// out\n        /* \"#utility.yul\":7:139   */\n    tag_34:\n        /* \"#utility.yul\":92:98   */\n      0x00\n        /* \"#utility.yul\":126:131   */\n      dup2\n        /* \"#utility.yul\":120:132   */\n      mload\n        /* \"#utility.yul\":110:132   */\n      swap1\n      pop\n        /* \"#utility.yul\":7:139   */\n      swap2\n      swap1\n      pop\n      jump\t// out\n        /* \"#utility.yul\":145:329   */\n    tag_35:\n        /* \"#utility.yul\":244:255   */\n      0x00\n        /* \"#utility.yul\":278:284   */\n      dup3\n        /* \"#utility.yul\":273:276   */\n      dup3\n        /* \"#utility.yul\":266:285   */\n      mstore\n        /* \"#utility.yul\":318:322   */\n      0x20\n        /* \"#utility.yul\":313:316   */\n      dup3\n        /* \"#utility.yul\":309:323   */\n      add\n        /* \"#utility.yul\":294:323   */\n      swap1\n      pop\n        /* \"#utility.yul\":145:329   */\n      swap3\n      swap2\n      pop\n      pop\n      jump\t// out\n        /* \"#utility.yul\":335:485   */\n    tag_36:\n        /* \"#utility.yul\":420:424   */\n      0x00\n        /* \"#utility.yul\":443:446   */\n      dup2\n        /* \"#utility.yul\":435:446   */\n      swap1\n      pop\n        /* \"#utility.yul\":473:477   */\n      0x20\n        /* \"#utility.yul\":468:471   */\n      dup3\n        /* \"#utility.yul\":464:478   */\n      add\n        /* \"#utility.yul\":456:478   */\n      swap1\n      pop\n        /* \"#utility.yul\":335:485   */\n      swap2\n      swap1\n      pop\n      jump\t// out\n        /* \"#utility.yul\":491:617   */\n    tag_37:\n        /* \"#utility.yul\":528:535   */\n      0x00\n        /* \"#utility.yul\":568:610   */\n      0xffffffffffffffffffffffffffffffffffffffff\n        /* \"#utility.yul\":561:566   */\n      dup3\n        /* \"#utility.yul\":557:611   */\n      and\n        /* \"#utility.yul\":546:611   */\n      swap1\n      pop\n        /* \"#utility.yul\":491:617   */\n      swap2\n      swap1\n      pop\n      jump\t// out\n        /* \"#utility.yul\":623:683   */\n    tag_38:\n        /* \"#utility.yul\":651:654   */\n      0x00\n        /* \"#utility.yul\":672:677   */\n      dup2\n        /* \"#utility.yul\":665:677   */\n      swap1\n      pop\n        /* \"#utility.yul\":623:683   */\n      swap2\n      swap1\n      pop\n      jump\t// out\n        /* \"#utility.yul\":689:831   */\n    tag_39:\n        /* \"#utility.yul\":739:748   */\n      0x00\n        /* \"#utility.yul\":772:825   */\n      tag_94\n        /* \"#utility.yul\":790:824   */\n      tag_95\n        /* \"#utility.yul\":799:823   */\n      tag_96\n        /* \"#utility.yul\":817:822   */\n      dup5\n        /* \"#utility.yul\":799:823   */\n      tag_37\n      jump\t// in\n    tag_96:\n        /* \"#utility.yul\":790:824   */\n      tag_38\n      jump\t// in\n    tag_95:\n        /* \"#utility.yul\":772:825   */\n      tag_37\n      jump\t// in\n    tag_94:\n        /* \"#utility.yul\":759:825   */\n      swap1\n      pop\n        /* \"#utility.yul\":689:831   */\n      swap2\n      swap1\n      pop\n      jump\t// out\n        /* \"#utility.yul\":837:963   */\n    tag_40:\n        /* \"#utility.yul\":887:896   */\n      0x00\n        /* \"#utility.yul\":920:957   */\n      tag_98\n        /* \"#utility.yul\":951:956   */\n      dup3\n        /* \"#utility.yul\":920:957   */\n      tag_39\n      jump\t// in\n    tag_98:\n        /* \"#utility.yul\":907:957   */\n      swap1\n      pop\n        /* \"#utility.yul\":837:963   */\n      swap2\n      swap1\n      pop\n      jump\t// out\n        /* \"#utility.yul\":969:1113   */\n    tag_41:\n        /* \"#utility.yul\":1037:1046   */\n      0x00\n        /* \"#utility.yul\":1070:1107   */\n      tag_100\n        /* \"#utility.yul\":1101:1106   */\n      dup3\n        /* \"#utility.yul\":1070:1107   */\n      tag_40\n      jump\t// in\n    tag_100:\n        /* \"#utility.yul\":1057:1107   */\n      swap1\n      pop\n        /* \"#utility.yul\":969:1113   */\n      swap2\n      swap1\n      pop\n      jump\t// out\n        /* \"#utility.yul\":1119:1276   */\n    tag_42:\n        /* \"#utility.yul\":1214:1269   */\n      tag_102\n        /* \"#utility.yul\":1263:1268   */\n      dup2\n        /* \"#utility.yul\":1214:1269   */\n      tag_41\n      jump\t// in\n    tag_102:\n        /* \"#utility.yul\":1209:1212   */\n      dup3\n        /* \"#utility.yul\":1202:1270   */\n      mstore\n        /* \"#utility.yul\":1119:1276   */\n      pop\n      pop\n      jump\t// out\n        /* \"#utility.yul\":1282:1497   */\n    tag_43:\n        /* \"#utility.yul\":1369:1379   */\n      0x00\n        /* \"#utility.yul\":1390:1454   */\n      tag_104\n        /* \"#utility.yul\":1450:1453   */\n      dup4\n        /* \"#utility.yul\":1442:1448   */\n      dup4\n        /* \"#utility.yul\":1390:1454   */\n      tag_42\n      jump\t// in\n    tag_104:\n        /* \"#utility.yul\":1486:1490   */\n      0x20\n        /* \"#utility.yul\":1481:1484   */\n      dup4\n        /* \"#utility.yul\":1477:1491   */\n      add\n        /* \"#utility.yul\":1463:1491   */\n      swap1\n      pop\n        /* \"#utility.yul\":1282:1497   */\n      swap3\n      swap2\n      pop\n      pop\n      jump\t// out\n        /* \"#utility.yul\":1503:1634   */\n    tag_44:\n        /* \"#utility.yul\":1591:1595   */\n      0x00\n        /* \"#utility.yul\":1623:1627   */\n      0x20\n        /* \"#utility.yul\":1618:1621   */\n      dup3\n        /* \"#utility.yul\":1614:1628   */\n      add\n        /* \"#utility.yul\":1606:1628   */\n      swap1\n      pop\n        /* \"#utility.yul\":1503:1634   */\n      swap2\n      swap1\n      pop\n      jump\t// out\n        /* \"#utility.yul\":1682:2504   */\n    tag_45:\n        /* \"#utility.yul\":1819:1822   */\n      0x00\n        /* \"#utility.yul\":1848:1920   */\n      tag_107\n        /* \"#utility.yul\":1914:1919   */\n      dup3\n        /* \"#utility.yul\":1848:1920   */\n      tag_34\n      jump\t// in\n    tag_107:\n        /* \"#utility.yul\":1936:2022   */\n      tag_108\n        /* \"#utility.yul\":2015:2021   */\n      dup2\n        /* \"#utility.yul\":2010:2013   */\n      dup6\n        /* \"#utility.yul\":1936:2022   */\n      tag_35\n      jump\t// in\n    tag_108:\n        /* \"#utility.yul\":1929:2022   */\n      swap4\n      pop\n        /* \"#utility.yul\":2046:2120   */\n      tag_109\n        /* \"#utility.yul\":2114:2119   */\n      dup4\n        /* \"#utility.yul\":2046:2120   */\n      tag_36\n      jump\t// in\n    tag_109:\n        /* \"#utility.yul\":2143:2150   */\n      dup1\n        /* \"#utility.yul\":2174:2175   */\n      0x00\n        /* \"#utility.yul\":2159:2479   */\n    tag_110:\n        /* \"#utility.yul\":2184:2190   */\n      dup4\n        /* \"#utility.yul\":2181:2182   */\n      dup2\n        /* \"#utility.yul\":2178:2191   */\n      lt\n        /* \"#utility.yul\":2159:2479   */\n      iszero\n      tag_112\n      jumpi\n        /* \"#utility.yul\":2260:2266   */\n      dup2\n        /* \"#utility.yul\":2254:2267   */\n      mload\n        /* \"#utility.yul\":2287:2368   */\n      tag_113\n        /* \"#utility.yul\":2364:2367   */\n      dup9\n        /* \"#utility.yul\":2349:2362   */\n      dup3\n        /* \"#utility.yul\":2287:2368   */\n      tag_43\n      jump\t// in\n    tag_113:\n        /* \"#utility.yul\":2280:2368   */\n      swap8\n      pop\n        /* \"#utility.yul\":2391:2469   */\n      tag_114\n        /* \"#utility.yul\":2462:2468   */\n      dup4\n        /* \"#utility.yul\":2391:2469   */\n      tag_44\n      jump\t// in\n    tag_114:\n        /* \"#utility.yul\":2381:2469   */\n      swap3\n      pop\n        /* \"#utility.yul\":2219:2479   */\n      pop\n        /* \"#utility.yul\":2206:2207   */\n      0x01\n        /* \"#utility.yul\":2203:2204   */\n      dup2\n        /* \"#utility.yul\":2199:2208   */\n      add\n        /* \"#utility.yul\":2194:2208   */\n      swap1\n      pop\n        /* \"#utility.yul\":2159:2479   */\n      jump(tag_110)\n    tag_112:\n        /* \"#utility.yul\":2163:2177   */\n      pop\n        /* \"#utility.yul\":2495:2498   */\n      dup6\n        /* \"#utility.yul\":2488:2498   */\n      swap4\n      pop\n        /* \"#utility.yul\":1824:2504   */\n      pop\n      pop\n      pop\n        /* \"#utility.yul\":1682:2504   */\n      swap3\n      swap2\n      pop\n      pop\n      jump\t// out\n        /* \"#utility.yul\":2510:2919   */\n    tag_9:\n        /* \"#utility.yul\":2671:2675   */\n      0x00\n        /* \"#utility.yul\":2709:2711   */\n      0x20\n        /* \"#utility.yul\":2698:2707   */\n      dup3\n        /* \"#utility.yul\":2694:2712   */\n      add\n        /* \"#utility.yul\":2686:2712   */\n      swap1\n      pop\n        /* \"#utility.yul\":2758:2767   */\n      dup2\n        /* \"#utility.yul\":2752:2756   */\n      dup2\n        /* \"#utility.yul\":2748:2768   */\n      sub\n        /* \"#utility.yul\":2744:2745   */\n      0x00\n        /* \"#utility.yul\":2733:2742   */\n      dup4\n        /* \"#utility.yul\":2729:2746   */\n      add\n        /* \"#utility.yul\":2722:2769   */\n      mstore\n        /* \"#utility.yul\":2786:2912   */\n      tag_116\n        /* \"#utility.yul\":2907:2911   */\n      dup2\n        /* \"#utility.yul\":2898:2904   */\n      dup5\n        /* \"#utility.yul\":2786:2912   */\n      tag_45\n      jump\t// in\n    tag_116:\n        /* \"#utility.yul\":2778:2912   */\n      swap1\n      pop\n        /* \"#utility.yul\":2510:2919   */\n      swap3\n      swap2\n      pop\n      pop\n      jump\t// out\n        /* \"#utility.yul\":2925:3000   */\n    tag_46:\n        /* \"#utility.yul\":2958:2964   */\n      0x00\n        /* \"#utility.yul\":2991:2993   */\n      0x40\n        /* \"#utility.yul\":2985:2994   */\n      mload\n        /* \"#utility.yul\":2975:2994   */\n      swap1\n      pop\n        /* \"#utility.yul\":2925:3000   */\n      swap1\n      jump\t// out\n        /* \"#utility.yul\":3006:3123   */\n    tag_47:\n        /* \"#utility.yul\":3115:3116   */\n      0x00\n        /* \"#utility.yul\":3112:3113   */\n      dup1\n        /* \"#utility.yul\":3105:3117   */\n      revert\n        /* \"#utility.yul\":3129:3246   */\n    tag_48:\n        /* \"#utility.yul\":3238:3239   */\n      0x00\n        /* \"#utility.yul\":3235:3236   */\n      dup1\n        /* \"#utility.yul\":3228:3240   */\n      revert\n        /* \"#utility.yul\":3252:3369   */\n    tag_49:\n        /* \"#utility.yul\":3361:3362   */\n      0x00\n        /* \"#utility.yul\":3358:3359   */\n      dup1\n        /* \"#utility.yul\":3351:3363   */\n      revert\n        /* \"#utility.yul\":3375:3492   */\n    tag_50:\n        /* \"#utility.yul\":3484:3485   */\n      0x00\n        /* \"#utility.yul\":3481:3482   */\n      dup1\n        /* \"#utility.yul\":3474:3486   */\n      revert\n        /* \"#utility.yul\":3498:3600   */\n    tag_51:\n        /* \"#utility.yul\":3539:3545   */\n      0x00\n        /* \"#utility.yul\":3590:3592   */\n      0x1f\n        /* \"#utility.yul\":3586:3593   */\n      not\n        /* \"#utility.yul\":3581:3583   */\n      0x1f\n        /* \"#utility.yul\":3574:3579   */\n      dup4\n        /* \"#utility.yul\":3570:3584   */\n      add\n        /* \"#utility.yul\":3566:3594   */\n      and\n        /* \"#utility.yul\":3556:3594   */\n      swap1\n      pop\n        /* \"#utility.yul\":3498:3600   */\n      swap2\n      swap1\n      pop\n      jump\t// out\n        /* \"#utility.yul\":3606:3786   */\n    tag_52:\n        /* \"#utility.yul\":3654:3731   */\n      0x4e487b7100000000000000000000000000000000000000000000000000000000\n        /* \"#utility.yul\":3651:3652   */\n      0x00\n        /* \"#utility.yul\":3644:3732   */\n      mstore\n        /* \"#utility.yul\":3751:3755   */\n      0x41\n        /* \"#utility.yul\":3748:3749   */\n      0x04\n        /* \"#utility.yul\":3741:3756   */\n      mstore\n        /* \"#utility.yul\":3775:3779   */\n      0x24\n        /* \"#utility.yul\":3772:3773   */\n      0x00\n        /* \"#utility.yul\":3765:3780   */\n      revert\n        /* \"#utility.yul\":3792:4073   */\n    tag_53:\n        /* \"#utility.yul\":3875:3902   */\n      tag_125\n        /* \"#utility.yul\":3897:3901   */\n      dup3\n        /* \"#utility.yul\":3875:3902   */\n      tag_51\n      jump\t// in\n    tag_125:\n        /* \"#utility.yul\":3867:3873   */\n      dup2\n        /* \"#utility.yul\":3863:3903   */\n      add\n        /* \"#utility.yul\":4005:4011   */\n      dup2\n        /* \"#utility.yul\":3993:4003   */\n      dup2\n        /* \"#utility.yul\":3990:4012   */\n      lt\n        /* \"#utility.yul\":3969:3987   */\n      0xffffffffffffffff\n        /* \"#utility.yul\":3957:3967   */\n      dup3\n        /* \"#utility.yul\":3954:3988   */\n      gt\n        /* \"#utility.yul\":3951:4013   */\n      or\n        /* \"#utility.yul\":3948:4036   */\n      iszero\n      tag_126\n      jumpi\n        /* \"#utility.yul\":4016:4034   */\n      tag_127\n      tag_52\n      jump\t// in\n    tag_127:\n        /* \"#utility.yul\":3948:4036   */\n    tag_126:\n        /* \"#utility.yul\":4056:4066   */\n      dup1\n        /* \"#utility.yul\":4052:4054   */\n      0x40\n        /* \"#utility.yul\":4045:4067   */\n      mstore\n        /* \"#utility.yul\":3835:4073   */\n      pop\n        /* \"#utility.yul\":3792:4073   */\n      pop\n      pop\n      jump\t// out\n        /* \"#utility.yul\":4079:4208   */\n    tag_54:\n        /* \"#utility.yul\":4113:4119   */\n      0x00\n        /* \"#utility.yul\":4140:4160   */\n      tag_129\n      tag_46\n      jump\t// in\n    tag_129:\n        /* \"#utility.yul\":4130:4160   */\n      swap1\n      pop\n        /* \"#utility.yul\":4169:4202   */\n      tag_130\n        /* \"#utility.yul\":4197:4201   */\n      dup3\n        /* \"#utility.yul\":4189:4195   */\n      dup3\n        /* \"#utility.yul\":4169:4202   */\n      tag_53\n      jump\t// in\n    tag_130:\n        /* \"#utility.yul\":4079:4208   */\n      swap2\n      swap1\n      pop\n      jump\t// out\n        /* \"#utility.yul\":4214:4522   */\n    tag_55:\n        /* \"#utility.yul\":4276:4280   */\n      0x00\n        /* \"#utility.yul\":4366:4384   */\n      0xffffffffffffffff\n        /* \"#utility.yul\":4358:4364   */\n      dup3\n        /* \"#utility.yul\":4355:4385   */\n      gt\n        /* \"#utility.yul\":4352:4408   */\n      iszero\n      tag_132\n      jumpi\n        /* \"#utility.yul\":4388:4406   */\n      tag_133\n      tag_52\n      jump\t// in\n    tag_133:\n        /* \"#utility.yul\":4352:4408   */\n    tag_132:\n        /* \"#utility.yul\":4426:4455   */\n      tag_134\n        /* \"#utility.yul\":4448:4454   */\n      dup3\n        /* \"#utility.yul\":4426:4455   */\n      tag_51\n      jump\t// in\n    tag_134:\n        /* \"#utility.yul\":4418:4455   */\n      swap1\n      pop\n        /* \"#utility.yul\":4510:4514   */\n      0x20\n        /* \"#utility.yul\":4504:4508   */\n      dup2\n        /* \"#utility.yul\":4500:4515   */\n      add\n        /* \"#utility.yul\":4492:4515   */\n      swap1\n      pop\n        /* \"#utility.yul\":4214:4522   */\n      swap2\n      swap1\n      pop\n      jump\t// out\n        /* \"#utility.yul\":4528:4676   */\n    tag_56:\n        /* \"#utility.yul\":4626:4632   */\n      dup3\n        /* \"#utility.yul\":4621:4624   */\n      dup2\n        /* \"#utility.yul\":4616:4619   */\n      dup4\n        /* \"#utility.yul\":4603:4633   */\n      calldatacopy\n        /* \"#utility.yul\":4667:4668   */\n      0x00\n        /* \"#utility.yul\":4658:4664   */\n      dup4\n        /* \"#utility.yul\":4653:4656   */\n      dup4\n        /* \"#utility.yul\":4649:4665   */\n      add\n        /* \"#utility.yul\":4642:4669   */\n      mstore\n        /* \"#utility.yul\":4528:4676   */\n      pop\n      pop\n      pop\n      jump\t// out\n        /* \"#utility.yul\":4682:5107   */\n    tag_57:\n        /* \"#utility.yul\":4760:4765   */\n      0x00\n        /* \"#utility.yul\":4785:4851   */\n      tag_137\n        /* \"#utility.yul\":4801:4850   */\n      tag_138\n        /* \"#utility.yul\":4843:4849   */\n      dup5\n        /* \"#utility.yul\":4801:4850   */\n      tag_55\n      jump\t// in\n    tag_138:\n        /* \"#utility.yul\":4785:4851   */\n      tag_54\n      jump\t// in\n    tag_137:\n        /* \"#utility.yul\":4776:4851   */\n      swap1\n      pop\n        /* \"#utility.yul\":4874:4880   */\n      dup3\n        /* \"#utility.yul\":4867:4872   */\n      dup2\n        /* \"#utility.yul\":4860:4881   */\n      mstore\n        /* \"#utility.yul\":4912:4916   */\n      0x20\n        /* \"#utility.yul\":4905:4910   */\n      dup2\n        /* \"#utility.yul\":4901:4917   */\n      add\n        /* \"#utility.yul\":4950:4953   */\n      dup5\n        /* \"#utility.yul\":4941:4947   */\n      dup5\n        /* \"#utility.yul\":4936:4939   */\n      dup5\n        /* \"#utility.yul\":4932:4948   */\n      add\n        /* \"#utility.yul\":4929:4954   */\n      gt\n        /* \"#utility.yul\":4926:5038   */\n      iszero\n      tag_139\n      jumpi\n        /* \"#utility.yul\":4957:5036   */\n      tag_140\n      tag_50\n      jump\t// in\n    tag_140:\n        /* \"#utility.yul\":4926:5038   */\n    tag_139:\n        /* \"#utility.yul\":5047:5101   */\n      tag_141\n        /* \"#utility.yul\":5094:5100   */\n      dup5\n        /* \"#utility.yul\":5089:5092   */\n      dup3\n        /* \"#utility.yul\":5084:5087   */\n      dup6\n        /* \"#utility.yul\":5047:5101   */\n      tag_56\n      jump\t// in\n    tag_141:\n        /* \"#utility.yul\":4766:5107   */\n      pop\n        /* \"#utility.yul\":4682:5107   */\n      swap4\n      swap3\n      pop\n      pop\n      pop\n      jump\t// out\n        /* \"#utility.yul\":5127:5467   */\n    tag_58:\n        /* \"#utility.yul\":5183:5188   */\n      0x00\n        /* \"#utility.yul\":5232:5235   */\n      dup3\n        /* \"#utility.yul\":5225:5229   */\n      0x1f\n        /* \"#utility.yul\":5217:5223   */\n      dup4\n        /* \"#utility.yul\":5213:5230   */\n      add\n        /* \"#utility.yul\":5209:5236   */\n      slt\n        /* \"#utility.yul\":5199:5321   */\n      tag_143\n      jumpi\n        /* \"#utility.yul\":5240:5319   */\n      tag_144\n      tag_49\n      jump\t// in\n    tag_144:\n        /* \"#utility.yul\":5199:5321   */\n    tag_143:\n        /* \"#utility.yul\":5357:5363   */\n      dup2\n        /* \"#utility.yul\":5344:5364   */\n      calldataload\n        /* \"#utility.yul\":5382:5461   */\n      tag_145\n        /* \"#utility.yul\":5457:5460   */\n      dup5\n        /* \"#utility.yul\":5449:5455   */\n      dup3\n        /* \"#utility.yul\":5442:5446   */\n      0x20\n        /* \"#utility.yul\":5434:5440   */\n      dup7\n        /* \"#utility.yul\":5430:5447   */\n      add\n        /* \"#utility.yul\":5382:5461   */\n      tag_57\n      jump\t// in\n    tag_145:\n        /* \"#utility.yul\":5373:5461   */\n      swap2\n      pop\n        /* \"#utility.yul\":5189:5467   */\n      pop\n        /* \"#utility.yul\":5127:5467   */\n      swap3\n      swap2\n      pop\n      pop\n      jump\t// out\n        /* \"#utility.yul\":5473:5550   */\n    tag_59:\n        /* \"#utility.yul\":5510:5517   */\n      0x00\n        /* \"#utility.yul\":5539:5544   */\n      dup2\n        /* \"#utility.yul\":5528:5544   */\n      swap1\n      pop\n        /* \"#utility.yul\":5473:5550   */\n      swap2\n      swap1\n      pop\n      jump\t// out\n        /* \"#utility.yul\":5556:5678   */\n    tag_60:\n        /* \"#utility.yul\":5629:5653   */\n      tag_148\n        /* \"#utility.yul\":5647:5652   */\n      dup2\n        /* \"#utility.yul\":5629:5653   */\n      tag_59\n      jump\t// in\n    tag_148:\n        /* \"#utility.yul\":5622:5627   */\n      dup2\n        /* \"#utility.yul\":5619:5654   */\n      eq\n        /* \"#utility.yul\":5609:5672   */\n      tag_149\n      jumpi\n        /* \"#utility.yul\":5668:5669   */\n      0x00\n        /* \"#utility.yul\":5665:5666   */\n      dup1\n        /* \"#utility.yul\":5658:5670   */\n      revert\n        /* \"#utility.yul\":5609:5672   */\n    tag_149:\n        /* \"#utility.yul\":5556:5678   */\n      pop\n      jump\t// out\n        /* \"#utility.yul\":5684:5823   */\n    tag_61:\n        /* \"#utility.yul\":5730:5735   */\n      0x00\n        /* \"#utility.yul\":5768:5774   */\n      dup2\n        /* \"#utility.yul\":5755:5775   */\n      calldataload\n        /* \"#utility.yul\":5746:5775   */\n      swap1\n      pop\n        /* \"#utility.yul\":5784:5817   */\n      tag_151\n        /* \"#utility.yul\":5811:5816   */\n      dup2\n        /* \"#utility.yul\":5784:5817   */\n      tag_60\n      jump\t// in\n    tag_151:\n        /* \"#utility.yul\":5684:5823   */\n      swap3\n      swap2\n      pop\n      pop\n      jump\t// out\n        /* \"#utility.yul\":5829:6161   */\n    tag_62:\n        /* \"#utility.yul\":5927:5931   */\n      0x00\n        /* \"#utility.yul\":6017:6035   */\n      0xffffffffffffffff\n        /* \"#utility.yul\":6009:6015   */\n      dup3\n        /* \"#utility.yul\":6006:6036   */\n      gt\n        /* \"#utility.yul\":6003:6059   */\n      iszero\n      tag_153\n      jumpi\n        /* \"#utility.yul\":6039:6057   */\n      tag_154\n      tag_52\n      jump\t// in\n    tag_154:\n        /* \"#utility.yul\":6003:6059   */\n    tag_153:\n        /* \"#utility.yul\":6089:6093   */\n      0x20\n        /* \"#utility.yul\":6081:6087   */\n      dup3\n        /* \"#utility.yul\":6077:6094   */\n      mul\n        /* \"#utility.yul\":6069:6094   */\n      swap1\n      pop\n        /* \"#utility.yul\":6149:6153   */\n      0x20\n        /* \"#utility.yul\":6143:6147   */\n      dup2\n        /* \"#utility.yul\":6139:6154   */\n      add\n        /* \"#utility.yul\":6131:6154   */\n      swap1\n      pop\n        /* \"#utility.yul\":5829:6161   */\n      swap2\n      swap1\n      pop\n      jump\t// out\n        /* \"#utility.yul\":6167:6284   */\n    tag_63:\n        /* \"#utility.yul\":6276:6277   */\n      0x00\n        /* \"#utility.yul\":6273:6274   */\n      dup1\n        /* \"#utility.yul\":6266:6278   */\n      revert\n        /* \"#utility.yul\":6290:6407   */\n    tag_64:\n        /* \"#utility.yul\":6399:6400   */\n      0x00\n        /* \"#utility.yul\":6396:6397   */\n      dup1\n        /* \"#utility.yul\":6389:6401   */\n      revert\n        /* \"#utility.yul\":6413:6530   */\n    tag_65:\n        /* \"#utility.yul\":6522:6523   */\n      0x00\n        /* \"#utility.yul\":6519:6520   */\n      dup1\n        /* \"#utility.yul\":6512:6524   */\n      revert\n        /* \"#utility.yul\":6570:7476   */\n    tag_66:\n        /* \"#utility.yul\":6640:6645   */\n      0x00\n        /* \"#utility.yul\":6684:6688   */\n      0x60\n        /* \"#utility.yul\":6672:6681   */\n      dup3\n        /* \"#utility.yul\":6667:6670   */\n      dup5\n        /* \"#utility.yul\":6663:6682   */\n      sub\n        /* \"#utility.yul\":6659:6689   */\n      slt\n        /* \"#utility.yul\":6656:6773   */\n      iszero\n      tag_159\n      jumpi\n        /* \"#utility.yul\":6692:6771   */\n      tag_160\n      tag_64\n      jump\t// in\n    tag_160:\n        /* \"#utility.yul\":6656:6773   */\n    tag_159:\n        /* \"#utility.yul\":6791:6812   */\n      tag_161\n        /* \"#utility.yul\":6807:6811   */\n      0x60\n        /* \"#utility.yul\":6791:6812   */\n      tag_54\n      jump\t// in\n    tag_161:\n        /* \"#utility.yul\":6782:6812   */\n      swap1\n      pop\n        /* \"#utility.yul\":6899:6900   */\n      0x00\n        /* \"#utility.yul\":6888:6897   */\n      dup3\n        /* \"#utility.yul\":6884:6901   */\n      add\n        /* \"#utility.yul\":6871:6902   */\n      calldataload\n        /* \"#utility.yul\":6929:6947   */\n      0xffffffffffffffff\n        /* \"#utility.yul\":6921:6927   */\n      dup2\n        /* \"#utility.yul\":6918:6948   */\n      gt\n        /* \"#utility.yul\":6915:7032   */\n      iszero\n      tag_162\n      jumpi\n        /* \"#utility.yul\":6951:7030   */\n      tag_163\n      tag_65\n      jump\t// in\n    tag_163:\n        /* \"#utility.yul\":6915:7032   */\n    tag_162:\n        /* \"#utility.yul\":7071:7130   */\n      tag_164\n        /* \"#utility.yul\":7126:7129   */\n      dup5\n        /* \"#utility.yul\":7117:7123   */\n      dup3\n        /* \"#utility.yul\":7106:7115   */\n      dup6\n        /* \"#utility.yul\":7102:7124   */\n      add\n        /* \"#utility.yul\":7071:7130   */\n      tag_58\n      jump\t// in\n    tag_164:\n        /* \"#utility.yul\":7064:7068   */\n      0x00\n        /* \"#utility.yul\":7057:7062   */\n      dup4\n        /* \"#utility.yul\":7053:7069   */\n      add\n        /* \"#utility.yul\":7046:7131   */\n      mstore\n        /* \"#utility.yul\":6822:7142   */\n      pop\n        /* \"#utility.yul\":7205:7207   */\n      0x20\n        /* \"#utility.yul\":7246:7295   */\n      tag_165\n        /* \"#utility.yul\":7291:7294   */\n      dup5\n        /* \"#utility.yul\":7282:7288   */\n      dup3\n        /* \"#utility.yul\":7271:7280   */\n      dup6\n        /* \"#utility.yul\":7267:7289   */\n      add\n        /* \"#utility.yul\":7246:7295   */\n      tag_61\n      jump\t// in\n    tag_165:\n        /* \"#utility.yul\":7239:7243   */\n      0x20\n        /* \"#utility.yul\":7232:7237   */\n      dup4\n        /* \"#utility.yul\":7228:7244   */\n      add\n        /* \"#utility.yul\":7221:7296   */\n      mstore\n        /* \"#utility.yul\":7152:7307   */\n      pop\n        /* \"#utility.yul\":7367:7369   */\n      0x40\n        /* \"#utility.yul\":7408:7457   */\n      tag_166\n        /* \"#utility.yul\":7453:7456   */\n      dup5\n        /* \"#utility.yul\":7444:7450   */\n      dup3\n        /* \"#utility.yul\":7433:7442   */\n      dup6\n        /* \"#utility.yul\":7429:7451   */\n      add\n        /* \"#utility.yul\":7408:7457   */\n      tag_61\n      jump\t// in\n    tag_166:\n        /* \"#utility.yul\":7401:7405   */\n      0x40\n        /* \"#utility.yul\":7394:7399   */\n      dup4\n        /* \"#utility.yul\":7390:7406   */\n      add\n        /* \"#utility.yul\":7383:7458   */\n      mstore\n        /* \"#utility.yul\":7317:7469   */\n      pop\n        /* \"#utility.yul\":6570:7476   */\n      swap3\n      swap2\n      pop\n      pop\n      jump\t// out\n        /* \"#utility.yul\":7518:8496   */\n    tag_67:\n        /* \"#utility.yul\":7635:7640   */\n      0x00\n        /* \"#utility.yul\":7660:7762   */\n      tag_168\n        /* \"#utility.yul\":7676:7761   */\n      tag_169\n        /* \"#utility.yul\":7754:7760   */\n      dup5\n        /* \"#utility.yul\":7676:7761   */\n      tag_62\n      jump\t// in\n    tag_169:\n        /* \"#utility.yul\":7660:7762   */\n      tag_54\n      jump\t// in\n    tag_168:\n        /* \"#utility.yul\":7651:7762   */\n      swap1\n      pop\n        /* \"#utility.yul\":7782:7787   */\n      dup1\n        /* \"#utility.yul\":7811:7817   */\n      dup4\n        /* \"#utility.yul\":7804:7809   */\n      dup3\n        /* \"#utility.yul\":7797:7818   */\n      mstore\n        /* \"#utility.yul\":7845:7849   */\n      0x20\n        /* \"#utility.yul\":7838:7843   */\n      dup3\n        /* \"#utility.yul\":7834:7850   */\n      add\n        /* \"#utility.yul\":7827:7850   */\n      swap1\n      pop\n        /* \"#utility.yul\":7898:7902   */\n      0x20\n        /* \"#utility.yul\":7890:7896   */\n      dup5\n        /* \"#utility.yul\":7886:7903   */\n      mul\n        /* \"#utility.yul\":7878:7884   */\n      dup4\n        /* \"#utility.yul\":7874:7904   */\n      add\n        /* \"#utility.yul\":7927:7930   */\n      dup6\n        /* \"#utility.yul\":7919:7925   */\n      dup2\n        /* \"#utility.yul\":7916:7931   */\n      gt\n        /* \"#utility.yul\":7913:8035   */\n      iszero\n      tag_170\n      jumpi\n        /* \"#utility.yul\":7946:8025   */\n      tag_171\n      tag_63\n      jump\t// in\n    tag_171:\n        /* \"#utility.yul\":7913:8035   */\n    tag_170:\n        /* \"#utility.yul\":8061:8067   */\n      dup4\n        /* \"#utility.yul\":8044:8490   */\n    tag_172:\n        /* \"#utility.yul\":8078:8084   */\n      dup2\n        /* \"#utility.yul\":8073:8076   */\n      dup2\n        /* \"#utility.yul\":8070:8085   */\n      lt\n        /* \"#utility.yul\":8044:8490   */\n      iszero\n      tag_174\n      jumpi\n        /* \"#utility.yul\":8167:8170   */\n      dup1\n        /* \"#utility.yul\":8154:8171   */\n      calldataload\n        /* \"#utility.yul\":8203:8221   */\n      0xffffffffffffffff\n        /* \"#utility.yul\":8190:8201   */\n      dup2\n        /* \"#utility.yul\":8187:8222   */\n      gt\n        /* \"#utility.yul\":8184:8306   */\n      iszero\n      tag_175\n      jumpi\n        /* \"#utility.yul\":8225:8304   */\n      tag_176\n      tag_49\n      jump\t// in\n    tag_176:\n        /* \"#utility.yul\":8184:8306   */\n    tag_175:\n        /* \"#utility.yul\":8349:8360   */\n      dup1\n        /* \"#utility.yul\":8341:8347   */\n      dup7\n        /* \"#utility.yul\":8337:8361   */\n      add\n        /* \"#utility.yul\":8387:8445   */\n      tag_177\n        /* \"#utility.yul\":8441:8444   */\n      dup10\n        /* \"#utility.yul\":8429:8439   */\n      dup3\n        /* \"#utility.yul\":8387:8445   */\n      tag_66\n      jump\t// in\n    tag_177:\n        /* \"#utility.yul\":8382:8385   */\n      dup6\n        /* \"#utility.yul\":8375:8446   */\n      mstore\n        /* \"#utility.yul\":8475:8479   */\n      0x20\n        /* \"#utility.yul\":8470:8473   */\n      dup6\n        /* \"#utility.yul\":8466:8480   */\n      add\n        /* \"#utility.yul\":8459:8480   */\n      swap5\n      pop\n        /* \"#utility.yul\":8120:8490   */\n      pop\n      pop\n        /* \"#utility.yul\":8104:8108   */\n      0x20\n        /* \"#utility.yul\":8099:8102   */\n      dup2\n        /* \"#utility.yul\":8095:8109   */\n      add\n        /* \"#utility.yul\":8088:8109   */\n      swap1\n      pop\n        /* \"#utility.yul\":8044:8490   */\n      jump(tag_172)\n    tag_174:\n        /* \"#utility.yul\":8048:8069   */\n      pop\n        /* \"#utility.yul\":7641:8496   */\n      pop\n      pop\n        /* \"#utility.yul\":7518:8496   */\n      swap4\n      swap3\n      pop\n      pop\n      pop\n      jump\t// out\n        /* \"#utility.yul\":8538:8950   */\n    tag_68:\n        /* \"#utility.yul\":8630:8635   */\n      0x00\n        /* \"#utility.yul\":8679:8682   */\n      dup3\n        /* \"#utility.yul\":8672:8676   */\n      0x1f\n        /* \"#utility.yul\":8664:8670   */\n      dup4\n        /* \"#utility.yul\":8660:8677   */\n      add\n        /* \"#utility.yul\":8656:8683   */\n      slt\n        /* \"#utility.yul\":8646:8768   */\n      tag_179\n      jumpi\n        /* \"#utility.yul\":8687:8766   */\n      tag_180\n      tag_49\n      jump\t// in\n    tag_180:\n        /* \"#utility.yul\":8646:8768   */\n    tag_179:\n        /* \"#utility.yul\":8804:8810   */\n      dup2\n        /* \"#utility.yul\":8791:8811   */\n      calldataload\n        /* \"#utility.yul\":8829:8944   */\n      tag_181\n        /* \"#utility.yul\":8940:8943   */\n      dup5\n        /* \"#utility.yul\":8932:8938   */\n      dup3\n        /* \"#utility.yul\":8925:8929   */\n      0x20\n        /* \"#utility.yul\":8917:8923   */\n      dup7\n        /* \"#utility.yul\":8913:8930   */\n      add\n        /* \"#utility.yul\":8829:8944   */\n      tag_67\n      jump\t// in\n    tag_181:\n        /* \"#utility.yul\":8820:8944   */\n      swap2\n      pop\n        /* \"#utility.yul\":8636:8950   */\n      pop\n        /* \"#utility.yul\":8538:8950   */\n      swap3\n      swap2\n      pop\n      pop\n      jump\t// out\n        /* \"#utility.yul\":8956:10479   */\n    tag_12:\n        /* \"#utility.yul\":9117:9123   */\n      0x00\n        /* \"#utility.yul\":9125:9131   */\n      dup1\n        /* \"#utility.yul\":9133:9139   */\n      0x00\n        /* \"#utility.yul\":9141:9147   */\n      dup1\n        /* \"#utility.yul\":9149:9155   */\n      0x00\n        /* \"#utility.yul\":9198:9201   */\n      0xa0\n        /* \"#utility.yul\":9186:9195   */\n      dup7\n        /* \"#utility.yul\":9177:9184   */\n      dup9\n        /* \"#utility.yul\":9173:9196   */\n      sub\n        /* \"#utility.yul\":9169:9202   */\n      slt\n        /* \"#utility.yul\":9166:9286   */\n      iszero\n      tag_183\n      jumpi\n        /* \"#utility.yul\":9205:9284   */\n      tag_184\n      tag_47\n      jump\t// in\n    tag_184:\n        /* \"#utility.yul\":9166:9286   */\n    tag_183:\n        /* \"#utility.yul\":9353:9354   */\n      0x00\n        /* \"#utility.yul\":9342:9351   */\n      dup7\n        /* \"#utility.yul\":9338:9355   */\n      add\n        /* \"#utility.yul\":9325:9356   */\n      calldataload\n        /* \"#utility.yul\":9383:9401   */\n      0xffffffffffffffff\n        /* \"#utility.yul\":9375:9381   */\n      dup2\n        /* \"#utility.yul\":9372:9402   */\n      gt\n        /* \"#utility.yul\":9369:9486   */\n      iszero\n      tag_185\n      jumpi\n        /* \"#utility.yul\":9405:9484   */\n      tag_186\n      tag_48\n      jump\t// in\n    tag_186:\n        /* \"#utility.yul\":9369:9486   */\n    tag_185:\n        /* \"#utility.yul\":9510:9573   */\n      tag_187\n        /* \"#utility.yul\":9565:9572   */\n      dup9\n        /* \"#utility.yul\":9556:9562   */\n      dup3\n        /* \"#utility.yul\":9545:9554   */\n      dup10\n        /* \"#utility.yul\":9541:9563   */\n      add\n        /* \"#utility.yul\":9510:9573   */\n      tag_58\n      jump\t// in\n    tag_187:\n        /* \"#utility.yul\":9500:9573   */\n      swap6\n      pop\n        /* \"#utility.yul\":9296:9583   */\n      pop\n        /* \"#utility.yul\":9622:9624   */\n      0x20\n        /* \"#utility.yul\":9648:9701   */\n      tag_188\n        /* \"#utility.yul\":9693:9700   */\n      dup9\n        /* \"#utility.yul\":9684:9690   */\n      dup3\n        /* \"#utility.yul\":9673:9682   */\n      dup10\n        /* \"#utility.yul\":9669:9691   */\n      add\n        /* \"#utility.yul\":9648:9701   */\n      tag_61\n      jump\t// in\n    tag_188:\n        /* \"#utility.yul\":9638:9701   */\n      swap5\n      pop\n        /* \"#utility.yul\":9593:9711   */\n      pop\n        /* \"#utility.yul\":9750:9752   */\n      0x40\n        /* \"#utility.yul\":9776:9829   */\n      tag_189\n        /* \"#utility.yul\":9821:9828   */\n      dup9\n        /* \"#utility.yul\":9812:9818   */\n      dup3\n        /* \"#utility.yul\":9801:9810   */\n      dup10\n        /* \"#utility.yul\":9797:9819   */\n      add\n        /* \"#utility.yul\":9776:9829   */\n      tag_61\n      jump\t// in\n    tag_189:\n        /* \"#utility.yul\":9766:9829   */\n      swap4\n      pop\n        /* \"#utility.yul\":9721:9839   */\n      pop\n        /* \"#utility.yul\":9906:9908   */\n      0x60\n        /* \"#utility.yul\":9895:9904   */\n      dup7\n        /* \"#utility.yul\":9891:9909   */\n      add\n        /* \"#utility.yul\":9878:9910   */\n      calldataload\n        /* \"#utility.yul\":9937:9955   */\n      0xffffffffffffffff\n        /* \"#utility.yul\":9929:9935   */\n      dup2\n        /* \"#utility.yul\":9926:9956   */\n      gt\n        /* \"#utility.yul\":9923:10040   */\n      iszero\n      tag_190\n      jumpi\n        /* \"#utility.yul\":9959:10038   */\n      tag_191\n      tag_48\n      jump\t// in\n    tag_191:\n        /* \"#utility.yul\":9923:10040   */\n    tag_190:\n        /* \"#utility.yul\":10064:10127   */\n      tag_192\n        /* \"#utility.yul\":10119:10126   */\n      dup9\n        /* \"#utility.yul\":10110:10116   */\n      dup3\n        /* \"#utility.yul\":10099:10108   */\n      dup10\n        /* \"#utility.yul\":10095:10117   */\n      add\n        /* \"#utility.yul\":10064:10127   */\n      tag_58\n      jump\t// in\n    tag_192:\n        /* \"#utility.yul\":10054:10127   */\n      swap3\n      pop\n        /* \"#utility.yul\":9849:10137   */\n      pop\n        /* \"#utility.yul\":10204:10207   */\n      0x80\n        /* \"#utility.yul\":10193:10202   */\n      dup7\n        /* \"#utility.yul\":10189:10208   */\n      add\n        /* \"#utility.yul\":10176:10209   */\n      calldataload\n        /* \"#utility.yul\":10236:10254   */\n      0xffffffffffffffff\n        /* \"#utility.yul\":10228:10234   */\n      dup2\n        /* \"#utility.yul\":10225:10255   */\n      gt\n        /* \"#utility.yul\":10222:10339   */\n      iszero\n      tag_193\n      jumpi\n        /* \"#utility.yul\":10258:10337   */\n      tag_194\n      tag_48\n      jump\t// in\n    tag_194:\n        /* \"#utility.yul\":10222:10339   */\n    tag_193:\n        /* \"#utility.yul\":10363:10462   */\n      tag_195\n        /* \"#utility.yul\":10454:10461   */\n      dup9\n        /* \"#utility.yul\":10445:10451   */\n      dup3\n        /* \"#utility.yul\":10434:10443   */\n      dup10\n        /* \"#utility.yul\":10430:10452   */\n      add\n        /* \"#utility.yul\":10363:10462   */\n      tag_68\n      jump\t// in\n    tag_195:\n        /* \"#utility.yul\":10353:10462   */\n      swap2\n      pop\n        /* \"#utility.yul\":10147:10472   */\n      pop\n        /* \"#utility.yul\":8956:10479   */\n      swap3\n      swap6\n      pop\n      swap3\n      swap6\n      swap1\n      swap4\n      pop\n      jump\t// out\n        /* \"#utility.yul\":10485:10814   */\n    tag_16:\n        /* \"#utility.yul\":10544:10550   */\n      0x00\n        /* \"#utility.yul\":10593:10595   */\n      0x20\n        /* \"#utility.yul\":10581:10590   */\n      dup3\n        /* \"#utility.yul\":10572:10579   */\n      dup5\n        /* \"#utility.yul\":10568:10591   */\n      sub\n        /* \"#utility.yul\":10564:10596   */\n      slt\n        /* \"#utility.yul\":10561:10680   */\n      iszero\n      tag_197\n      jumpi\n        /* \"#utility.yul\":10599:10678   */\n      tag_198\n      tag_47\n      jump\t// in\n    tag_198:\n        /* \"#utility.yul\":10561:10680   */\n    tag_197:\n        /* \"#utility.yul\":10719:10720   */\n      0x00\n        /* \"#utility.yul\":10744:10797   */\n      tag_199\n        /* \"#utility.yul\":10789:10796   */\n      dup5\n        /* \"#utility.yul\":10780:10786   */\n      dup3\n        /* \"#utility.yul\":10769:10778   */\n      dup6\n        /* \"#utility.yul\":10765:10787   */\n      add\n        /* \"#utility.yul\":10744:10797   */\n      tag_61\n      jump\t// in\n    tag_199:\n        /* \"#utility.yul\":10734:10797   */\n      swap2\n      pop\n        /* \"#utility.yul\":10690:10807   */\n      pop\n        /* \"#utility.yul\":10485:10814   */\n      swap3\n      swap2\n      pop\n      pop\n      jump\t// out\n        /* \"#utility.yul\":10820:10987   */\n    tag_69:\n        /* \"#utility.yul\":10925:10980   */\n      tag_201\n        /* \"#utility.yul\":10974:10979   */\n      dup2\n        /* \"#utility.yul\":10925:10980   */\n      tag_41\n      jump\t// in\n    tag_201:\n        /* \"#utility.yul\":10920:10923   */\n      dup3\n        /* \"#utility.yul\":10913:10981   */\n      mstore\n        /* \"#utility.yul\":10820:10987   */\n      pop\n      pop\n      jump\t// out\n        /* \"#utility.yul\":10993:11251   */\n    tag_19:\n        /* \"#utility.yul\":11104:11108   */\n      0x00\n        /* \"#utility.yul\":11142:11144   */\n      0x20\n        /* \"#utility.yul\":11131:11140   */\n      dup3\n        /* \"#utility.yul\":11127:11145   */\n      add\n        /* \"#utility.yul\":11119:11145   */\n      swap1\n      pop\n        /* \"#utility.yul\":11155:11244   */\n      tag_203\n        /* \"#utility.yul\":11241:11242   */\n      0x00\n        /* \"#utility.yul\":11230:11239   */\n      dup4\n        /* \"#utility.yul\":11226:11243   */\n      add\n        /* \"#utility.yul\":11217:11223   */\n      dup5\n        /* \"#utility.yul\":11155:11244   */\n      tag_69\n      jump\t// in\n    tag_203:\n        /* \"#utility.yul\":10993:11251   */\n      swap3\n      swap2\n      pop\n      pop\n      jump\t// out\n        /* \"#utility.yul\":11257:11356   */\n    tag_70:\n        /* \"#utility.yul\":11309:11315   */\n      0x00\n        /* \"#utility.yul\":11343:11348   */\n      dup2\n        /* \"#utility.yul\":11337:11349   */\n      mload\n        /* \"#utility.yul\":11327:11349   */\n      swap1\n      pop\n        /* \"#utility.yul\":11257:11356   */\n      swap2\n      swap1\n      pop\n      jump\t// out\n        /* \"#utility.yul\":11362:11531   */\n    tag_71:\n        /* \"#utility.yul\":11446:11457   */\n      0x00\n        /* \"#utility.yul\":11480:11486   */\n      dup3\n        /* \"#utility.yul\":11475:11478   */\n      dup3\n        /* \"#utility.yul\":11468:11487   */\n      mstore\n        /* \"#utility.yul\":11520:11524   */\n      0x20\n        /* \"#utility.yul\":11515:11518   */\n      dup3\n        /* \"#utility.yul\":11511:11525   */\n      add\n        /* \"#utility.yul\":11496:11525   */\n      swap1\n      pop\n        /* \"#utility.yul\":11362:11531   */\n      swap3\n      swap2\n      pop\n      pop\n      jump\t// out\n        /* \"#utility.yul\":11537:11676   */\n    tag_72:\n        /* \"#utility.yul\":11626:11632   */\n      dup3\n        /* \"#utility.yul\":11621:11624   */\n      dup2\n        /* \"#utility.yul\":11616:11619   */\n      dup4\n        /* \"#utility.yul\":11610:11633   */\n      mcopy\n        /* \"#utility.yul\":11667:11668   */\n      0x00\n        /* \"#utility.yul\":11658:11664   */\n      dup4\n        /* \"#utility.yul\":11653:11656   */\n      dup4\n        /* \"#utility.yul\":11649:11665   */\n      add\n        /* \"#utility.yul\":11642:11669   */\n      mstore\n        /* \"#utility.yul\":11537:11676   */\n      pop\n      pop\n      pop\n      jump\t// out\n        /* \"#utility.yul\":11682:12059   */\n    tag_73:\n        /* \"#utility.yul\":11770:11773   */\n      0x00\n        /* \"#utility.yul\":11798:11837   */\n      tag_208\n        /* \"#utility.yul\":11831:11836   */\n      dup3\n        /* \"#utility.yul\":11798:11837   */\n      tag_70\n      jump\t// in\n    tag_208:\n        /* \"#utility.yul\":11853:11924   */\n      tag_209\n        /* \"#utility.yul\":11917:11923   */\n      dup2\n        /* \"#utility.yul\":11912:11915   */\n      dup6\n        /* \"#utility.yul\":11853:11924   */\n      tag_71\n      jump\t// in\n    tag_209:\n        /* \"#utility.yul\":11846:11924   */\n      swap4\n      pop\n        /* \"#utility.yul\":11933:11998   */\n      tag_210\n        /* \"#utility.yul\":11991:11997   */\n      dup2\n        /* \"#utility.yul\":11986:11989   */\n      dup6\n        /* \"#utility.yul\":11979:11983   */\n      0x20\n        /* \"#utility.yul\":11972:11977   */\n      dup7\n        /* \"#utility.yul\":11968:11984   */\n      add\n        /* \"#utility.yul\":11933:11998   */\n      tag_72\n      jump\t// in\n    tag_210:\n        /* \"#utility.yul\":12023:12052   */\n      tag_211\n        /* \"#utility.yul\":12045:12051   */\n      dup2\n        /* \"#utility.yul\":12023:12052   */\n      tag_51\n      jump\t// in\n    tag_211:\n        /* \"#utility.yul\":12018:12021   */\n      dup5\n        /* \"#utility.yul\":12014:12053   */\n      add\n        /* \"#utility.yul\":12007:12053   */\n      swap2\n      pop\n        /* \"#utility.yul\":11774:12059   */\n      pop\n        /* \"#utility.yul\":11682:12059   */\n      swap3\n      swap2\n      pop\n      pop\n      jump\t// out\n        /* \"#utility.yul\":12065:12183   */\n    tag_74:\n        /* \"#utility.yul\":12152:12176   */\n      tag_213\n        /* \"#utility.yul\":12170:12175   */\n      dup2\n        /* \"#utility.yul\":12152:12176   */\n      tag_59\n      jump\t// in\n    tag_213:\n        /* \"#utility.yul\":12147:12150   */\n      dup3\n        /* \"#utility.yul\":12140:12177   */\n      mstore\n        /* \"#utility.yul\":12065:12183   */\n      pop\n      pop\n      jump\t// out\n        /* \"#utility.yul\":12189:12324   */\n    tag_75:\n        /* \"#utility.yul\":12277:12283   */\n      0x00\n        /* \"#utility.yul\":12311:12316   */\n      dup2\n        /* \"#utility.yul\":12305:12317   */\n      mload\n        /* \"#utility.yul\":12295:12317   */\n      swap1\n      pop\n        /* \"#utility.yul\":12189:12324   */\n      swap2\n      swap1\n      pop\n      jump\t// out\n        /* \"#utility.yul\":12330:12535   */\n    tag_76:\n        /* \"#utility.yul\":12450:12461   */\n      0x00\n        /* \"#utility.yul\":12484:12490   */\n      dup3\n        /* \"#utility.yul\":12479:12482   */\n      dup3\n        /* \"#utility.yul\":12472:12491   */\n      mstore\n        /* \"#utility.yul\":12524:12528   */\n      0x20\n        /* \"#utility.yul\":12519:12522   */\n      dup3\n        /* \"#utility.yul\":12515:12529   */\n      add\n        /* \"#utility.yul\":12500:12529   */\n      swap1\n      pop\n        /* \"#utility.yul\":12330:12535   */\n      swap3\n      swap2\n      pop\n      pop\n      jump\t// out\n        /* \"#utility.yul\":12541:12694   */\n    tag_77:\n        /* \"#utility.yul\":12629:12633   */\n      0x00\n        /* \"#utility.yul\":12652:12655   */\n      dup2\n        /* \"#utility.yul\":12644:12655   */\n      swap1\n      pop\n        /* \"#utility.yul\":12682:12686   */\n      0x20\n        /* \"#utility.yul\":12677:12680   */\n      dup3\n        /* \"#utility.yul\":12673:12687   */\n      add\n        /* \"#utility.yul\":12665:12687   */\n      swap1\n      pop\n        /* \"#utility.yul\":12541:12694   */\n      swap2\n      swap1\n      pop\n      jump\t// out\n        /* \"#utility.yul\":12700:12859   */\n    tag_78:\n        /* \"#utility.yul\":12774:12785   */\n      0x00\n        /* \"#utility.yul\":12808:12814   */\n      dup3\n        /* \"#utility.yul\":12803:12806   */\n      dup3\n        /* \"#utility.yul\":12796:12815   */\n      mstore\n        /* \"#utility.yul\":12848:12852   */\n      0x20\n        /* \"#utility.yul\":12843:12846   */\n      dup3\n        /* \"#utility.yul\":12839:12853   */\n      add\n        /* \"#utility.yul\":12824:12853   */\n      swap1\n      pop\n        /* \"#utility.yul\":12700:12859   */\n      swap3\n      swap2\n      pop\n      pop\n      jump\t// out\n        /* \"#utility.yul\":12865:13222   */\n    tag_79:\n        /* \"#utility.yul\":12943:12946   */\n      0x00\n        /* \"#utility.yul\":12971:13010   */\n      tag_219\n        /* \"#utility.yul\":13004:13009   */\n      dup3\n        /* \"#utility.yul\":12971:13010   */\n      tag_70\n      jump\t// in\n    tag_219:\n        /* \"#utility.yul\":13026:13087   */\n      tag_220\n        /* \"#utility.yul\":13080:13086   */\n      dup2\n        /* \"#utility.yul\":13075:13078   */\n      dup6\n        /* \"#utility.yul\":13026:13087   */\n      tag_78\n      jump\t// in\n    tag_220:\n        /* \"#utility.yul\":13019:13087   */\n      swap4\n      pop\n        /* \"#utility.yul\":13096:13161   */\n      tag_221\n        /* \"#utility.yul\":13154:13160   */\n      dup2\n        /* \"#utility.yul\":13149:13152   */\n      dup6\n        /* \"#utility.yul\":13142:13146   */\n      0x20\n        /* \"#utility.yul\":13135:13140   */\n      dup7\n        /* \"#utility.yul\":13131:13147   */\n      add\n        /* \"#utility.yul\":13096:13161   */\n      tag_72\n      jump\t// in\n    tag_221:\n        /* \"#utility.yul\":13186:13215   */\n      tag_222\n        /* \"#utility.yul\":13208:13214   */\n      dup2\n        /* \"#utility.yul\":13186:13215   */\n      tag_51\n      jump\t// in\n    tag_222:\n        /* \"#utility.yul\":13181:13184   */\n      dup5\n        /* \"#utility.yul\":13177:13216   */\n      add\n        /* \"#utility.yul\":13170:13216   */\n      swap2\n      pop\n        /* \"#utility.yul\":12947:13222   */\n      pop\n        /* \"#utility.yul\":12865:13222   */\n      swap3\n      swap2\n      pop\n      pop\n      jump\t// out\n        /* \"#utility.yul\":13228:13336   */\n    tag_80:\n        /* \"#utility.yul\":13305:13329   */\n      tag_224\n        /* \"#utility.yul\":13323:13328   */\n      dup2\n        /* \"#utility.yul\":13305:13329   */\n      tag_59\n      jump\t// in\n    tag_224:\n        /* \"#utility.yul\":13300:13303   */\n      dup3\n        /* \"#utility.yul\":13293:13330   */\n      mstore\n        /* \"#utility.yul\":13228:13336   */\n      pop\n      pop\n      jump\t// out\n        /* \"#utility.yul\":13406:14173   */\n    tag_81:\n        /* \"#utility.yul\":13507:13510   */\n      0x00\n        /* \"#utility.yul\":13543:13547   */\n      0x60\n        /* \"#utility.yul\":13538:13541   */\n      dup4\n        /* \"#utility.yul\":13534:13548   */\n      add\n        /* \"#utility.yul\":13630:13634   */\n      0x00\n        /* \"#utility.yul\":13623:13628   */\n      dup4\n        /* \"#utility.yul\":13619:13635   */\n      add\n        /* \"#utility.yul\":13613:13636   */\n      mload\n        /* \"#utility.yul\":13683:13686   */\n      dup5\n        /* \"#utility.yul\":13677:13681   */\n      dup3\n        /* \"#utility.yul\":13673:13687   */\n      sub\n        /* \"#utility.yul\":13666:13670   */\n      0x00\n        /* \"#utility.yul\":13661:13664   */\n      dup7\n        /* \"#utility.yul\":13657:13671   */\n      add\n        /* \"#utility.yul\":13650:13688   */\n      mstore\n        /* \"#utility.yul\":13709:13782   */\n      tag_226\n        /* \"#utility.yul\":13777:13781   */\n      dup3\n        /* \"#utility.yul\":13763:13775   */\n      dup3\n        /* \"#utility.yul\":13709:13782   */\n      tag_79\n      jump\t// in\n    tag_226:\n        /* \"#utility.yul\":13701:13782   */\n      swap2\n      pop\n        /* \"#utility.yul\":13558:13793   */\n      pop\n        /* \"#utility.yul\":13879:13883   */\n      0x20\n        /* \"#utility.yul\":13872:13877   */\n      dup4\n        /* \"#utility.yul\":13868:13884   */\n      add\n        /* \"#utility.yul\":13862:13885   */\n      mload\n        /* \"#utility.yul\":13898:13961   */\n      tag_227\n        /* \"#utility.yul\":13955:13959   */\n      0x20\n        /* \"#utility.yul\":13950:13953   */\n      dup7\n        /* \"#utility.yul\":13946:13960   */\n      add\n        /* \"#utility.yul\":13932:13944   */\n      dup3\n        /* \"#utility.yul\":13898:13961   */\n      tag_80\n      jump\t// in\n    tag_227:\n        /* \"#utility.yul\":13803:13971   */\n      pop\n        /* \"#utility.yul\":14054:14058   */\n      0x40\n        /* \"#utility.yul\":14047:14052   */\n      dup4\n        /* \"#utility.yul\":14043:14059   */\n      add\n        /* \"#utility.yul\":14037:14060   */\n      mload\n        /* \"#utility.yul\":14073:14136   */\n      tag_228\n        /* \"#utility.yul\":14130:14134   */\n      0x40\n        /* \"#utility.yul\":14125:14128   */\n      dup7\n        /* \"#utility.yul\":14121:14135   */\n      add\n        /* \"#utility.yul\":14107:14119   */\n      dup3\n        /* \"#utility.yul\":14073:14136   */\n      tag_80\n      jump\t// in\n    tag_228:\n        /* \"#utility.yul\":13981:14146   */\n      pop\n        /* \"#utility.yul\":14163:14167   */\n      dup1\n        /* \"#utility.yul\":14156:14167   */\n      swap2\n      pop\n        /* \"#utility.yul\":13512:14173   */\n      pop\n        /* \"#utility.yul\":13406:14173   */\n      swap3\n      swap2\n      pop\n      pop\n      jump\t// out\n        /* \"#utility.yul\":14179:14419   */\n    tag_82:\n        /* \"#utility.yul\":14290:14300   */\n      0x00\n        /* \"#utility.yul\":14325:14413   */\n      tag_230\n        /* \"#utility.yul\":14409:14412   */\n      dup4\n        /* \"#utility.yul\":14401:14407   */\n      dup4\n        /* \"#utility.yul\":14325:14413   */\n      tag_81\n      jump\t// in\n    tag_230:\n        /* \"#utility.yul\":14311:14413   */\n      swap1\n      pop\n        /* \"#utility.yul\":14179:14419   */\n      swap3\n      swap2\n      pop\n      pop\n      jump\t// out\n        /* \"#utility.yul\":14425:14559   */\n    tag_83:\n        /* \"#utility.yul\":14516:14520   */\n      0x00\n        /* \"#utility.yul\":14548:14552   */\n      0x20\n        /* \"#utility.yul\":14543:14546   */\n      dup3\n        /* \"#utility.yul\":14539:14553   */\n      add\n        /* \"#utility.yul\":14531:14553   */\n      swap1\n      pop\n        /* \"#utility.yul\":14425:14559   */\n      swap2\n      swap1\n      pop\n      jump\t// out\n        /* \"#utility.yul\":14633:15712   */\n    tag_84:\n        /* \"#utility.yul\":14794:14797   */\n      0x00\n        /* \"#utility.yul\":14823:14898   */\n      tag_233\n        /* \"#utility.yul\":14892:14897   */\n      dup3\n        /* \"#utility.yul\":14823:14898   */\n      tag_75\n      jump\t// in\n    tag_233:\n        /* \"#utility.yul\":14914:15021   */\n      tag_234\n        /* \"#utility.yul\":15014:15020   */\n      dup2\n        /* \"#utility.yul\":15009:15012   */\n      dup6\n        /* \"#utility.yul\":14914:15021   */\n      tag_76\n      jump\t// in\n    tag_234:\n        /* \"#utility.yul\":14907:15021   */\n      swap4\n      pop\n        /* \"#utility.yul\":15047:15050   */\n      dup4\n        /* \"#utility.yul\":15092:15096   */\n      0x20\n        /* \"#utility.yul\":15084:15090   */\n      dup3\n        /* \"#utility.yul\":15080:15097   */\n      mul\n        /* \"#utility.yul\":15075:15078   */\n      dup6\n        /* \"#utility.yul\":15071:15098   */\n      add\n        /* \"#utility.yul\":15122:15199   */\n      tag_235\n        /* \"#utility.yul\":15193:15198   */\n      dup6\n        /* \"#utility.yul\":15122:15199   */\n      tag_77\n      jump\t// in\n    tag_235:\n        /* \"#utility.yul\":15222:15229   */\n      dup1\n        /* \"#utility.yul\":15253:15254   */\n      0x00\n        /* \"#utility.yul\":15238:15667   */\n    tag_236:\n        /* \"#utility.yul\":15263:15269   */\n      dup6\n        /* \"#utility.yul\":15260:15261   */\n      dup2\n        /* \"#utility.yul\":15257:15270   */\n      lt\n        /* \"#utility.yul\":15238:15667   */\n      iszero\n      tag_238\n      jumpi\n        /* \"#utility.yul\":15334:15343   */\n      dup5\n        /* \"#utility.yul\":15328:15332   */\n      dup5\n        /* \"#utility.yul\":15324:15344   */\n      sub\n        /* \"#utility.yul\":15319:15322   */\n      dup10\n        /* \"#utility.yul\":15312:15345   */\n      mstore\n        /* \"#utility.yul\":15385:15391   */\n      dup2\n        /* \"#utility.yul\":15379:15392   */\n      mload\n        /* \"#utility.yul\":15413:15519   */\n      tag_239\n        /* \"#utility.yul\":15514:15518   */\n      dup6\n        /* \"#utility.yul\":15499:15512   */\n      dup3\n        /* \"#utility.yul\":15413:15519   */\n      tag_82\n      jump\t// in\n    tag_239:\n        /* \"#utility.yul\":15405:15519   */\n      swap5\n      pop\n        /* \"#utility.yul\":15542:15623   */\n      tag_240\n        /* \"#utility.yul\":15616:15622   */\n      dup4\n        /* \"#utility.yul\":15542:15623   */\n      tag_83\n      jump\t// in\n    tag_240:\n        /* \"#utility.yul\":15532:15623   */\n      swap3\n      pop\n        /* \"#utility.yul\":15652:15656   */\n      0x20\n        /* \"#utility.yul\":15647:15650   */\n      dup11\n        /* \"#utility.yul\":15643:15657   */\n      add\n        /* \"#utility.yul\":15636:15657   */\n      swap10\n      pop\n        /* \"#utility.yul\":15298:15667   */\n      pop\n        /* \"#utility.yul\":15285:15286   */\n      0x01\n        /* \"#utility.yul\":15282:15283   */\n      dup2\n        /* \"#utility.yul\":15278:15287   */\n      add\n        /* \"#utility.yul\":15273:15287   */\n      swap1\n      pop\n        /* \"#utility.yul\":15238:15667   */\n      jump(tag_236)\n    tag_238:\n        /* \"#utility.yul\":15242:15256   */\n      pop\n        /* \"#utility.yul\":15683:15687   */\n      dup3\n        /* \"#utility.yul\":15676:15687   */\n      swap8\n      pop\n        /* \"#utility.yul\":15703:15706   */\n      dup8\n        /* \"#utility.yul\":15696:15706   */\n      swap6\n      pop\n        /* \"#utility.yul\":14799:15712   */\n      pop\n      pop\n      pop\n      pop\n      pop\n        /* \"#utility.yul\":14633:15712   */\n      swap3\n      swap2\n      pop\n      pop\n      jump\t// out\n        /* \"#utility.yul\":15718:16799   */\n    tag_27:\n        /* \"#utility.yul\":16055:16059   */\n      0x00\n        /* \"#utility.yul\":16093:16096   */\n      0xa0\n        /* \"#utility.yul\":16082:16091   */\n      dup3\n        /* \"#utility.yul\":16078:16097   */\n      add\n        /* \"#utility.yul\":16070:16097   */\n      swap1\n      pop\n        /* \"#utility.yul\":16143:16152   */\n      dup2\n        /* \"#utility.yul\":16137:16141   */\n      dup2\n        /* \"#utility.yul\":16133:16153   */\n      sub\n        /* \"#utility.yul\":16129:16130   */\n      0x00\n        /* \"#utility.yul\":16118:16127   */\n      dup4\n        /* \"#utility.yul\":16114:16131   */\n      add\n        /* \"#utility.yul\":16107:16154   */\n      mstore\n        /* \"#utility.yul\":16171:16249   */\n      tag_242\n        /* \"#utility.yul\":16244:16248   */\n      dup2\n        /* \"#utility.yul\":16235:16241   */\n      dup9\n        /* \"#utility.yul\":16171:16249   */\n      tag_73\n      jump\t// in\n    tag_242:\n        /* \"#utility.yul\":16163:16249   */\n      swap1\n      pop\n        /* \"#utility.yul\":16259:16331   */\n      tag_243\n        /* \"#utility.yul\":16327:16329   */\n      0x20\n        /* \"#utility.yul\":16316:16325   */\n      dup4\n        /* \"#utility.yul\":16312:16330   */\n      add\n        /* \"#utility.yul\":16303:16309   */\n      dup8\n        /* \"#utility.yul\":16259:16331   */\n      tag_74\n      jump\t// in\n    tag_243:\n        /* \"#utility.yul\":16341:16413   */\n      tag_244\n        /* \"#utility.yul\":16409:16411   */\n      0x40\n        /* \"#utility.yul\":16398:16407   */\n      dup4\n        /* \"#utility.yul\":16394:16412   */\n      add\n        /* \"#utility.yul\":16385:16391   */\n      dup7\n        /* \"#utility.yul\":16341:16413   */\n      tag_74\n      jump\t// in\n    tag_244:\n        /* \"#utility.yul\":16460:16469   */\n      dup2\n        /* \"#utility.yul\":16454:16458   */\n      dup2\n        /* \"#utility.yul\":16450:16470   */\n      sub\n        /* \"#utility.yul\":16445:16447   */\n      0x60\n        /* \"#utility.yul\":16434:16443   */\n      dup4\n        /* \"#utility.yul\":16430:16448   */\n      add\n        /* \"#utility.yul\":16423:16471   */\n      mstore\n        /* \"#utility.yul\":16488:16566   */\n      tag_245\n        /* \"#utility.yul\":16561:16565   */\n      dup2\n        /* \"#utility.yul\":16552:16558   */\n      dup6\n        /* \"#utility.yul\":16488:16566   */\n      tag_73\n      jump\t// in\n    tag_245:\n        /* \"#utility.yul\":16480:16566   */\n      swap1\n      pop\n        /* \"#utility.yul\":16614:16623   */\n      dup2\n        /* \"#utility.yul\":16608:16612   */\n      dup2\n        /* \"#utility.yul\":16604:16624   */\n      sub\n        /* \"#utility.yul\":16598:16601   */\n      0x80\n        /* \"#utility.yul\":16587:16596   */\n      dup4\n        /* \"#utility.yul\":16583:16602   */\n      add\n        /* \"#utility.yul\":16576:16625   */\n      mstore\n        /* \"#utility.yul\":16642:16792   */\n      tag_246\n        /* \"#utility.yul\":16787:16791   */\n      dup2\n        /* \"#utility.yul\":16778:16784   */\n      dup5\n        /* \"#utility.yul\":16642:16792   */\n      tag_84\n      jump\t// in\n    tag_246:\n        /* \"#utility.yul\":16634:16792   */\n      swap1\n      pop\n        /* \"#utility.yul\":15718:16799   */\n      swap7\n      swap6\n      pop\n      pop\n      pop\n      pop\n      pop\n      pop\n      jump\t// out\n        /* \"#utility.yul\":16805:16901   */\n    tag_85:\n        /* \"#utility.yul\":16842:16849   */\n      0x00\n        /* \"#utility.yul\":16871:16895   */\n      tag_248\n        /* \"#utility.yul\":16889:16894   */\n      dup3\n        /* \"#utility.yul\":16871:16895   */\n      tag_37\n      jump\t// in\n    tag_248:\n        /* \"#utility.yul\":16860:16895   */\n      swap1\n      pop\n        /* \"#utility.yul\":16805:16901   */\n      swap2\n      swap1\n      pop\n      jump\t// out\n        /* \"#utility.yul\":16907:17025   */\n    tag_86:\n        /* \"#utility.yul\":16994:17018   */\n      tag_250\n        /* \"#utility.yul\":17012:17017   */\n      dup2\n        /* \"#utility.yul\":16994:17018   */\n      tag_85\n      jump\t// in\n    tag_250:\n        /* \"#utility.yul\":16989:16992   */\n      dup3\n        /* \"#utility.yul\":16982:17019   */\n      mstore\n        /* \"#utility.yul\":16907:17025   */\n      pop\n      pop\n      jump\t// out\n        /* \"#utility.yul\":17031:17253   */\n    tag_31:\n        /* \"#utility.yul\":17124:17128   */\n      0x00\n        /* \"#utility.yul\":17162:17164   */\n      0x20\n        /* \"#utility.yul\":17151:17160   */\n      dup3\n        /* \"#utility.yul\":17147:17165   */\n      add\n        /* \"#utility.yul\":17139:17165   */\n      swap1\n      pop\n        /* \"#utility.yul\":17175:17246   */\n      tag_252\n        /* \"#utility.yul\":17243:17244   */\n      0x00\n        /* \"#utility.yul\":17232:17241   */\n      dup4\n        /* \"#utility.yul\":17228:17245   */\n      add\n        /* \"#utility.yul\":17219:17225   */\n      dup5\n        /* \"#utility.yul\":17175:17246   */\n      tag_86\n      jump\t// in\n    tag_252:\n        /* \"#utility.yul\":17031:17253   */\n      swap3\n      swap2\n      pop\n      pop\n      jump\t// out\n    stop\n\n    sub_0: assembly {\n            /* \"contracts/contracts/Fundraiser.sol\":89:2095  contract Fundraiser {... */\n          mstore(0x40, 0x80)\n            /* \"contracts/contracts/Fundraiser.sol\":420:421  0 */\n          0x00\n            /* \"contracts/contracts/Fundraiser.sol\":390:421  uint256 public raisedAmount = 0 */\n          0x06\n          sstore\n            /* \"contracts/contracts/Fundraiser.sol\":554:1047  constructor(... */\n          callvalue\n          dup1\n          iszero\n          tag_1\n          jumpi\n          0x00\n          dup1\n          revert\n        tag_1:\n          pop\n          mload(0x40)\n          sub(codesize, bytecodeSize)\n          dup1\n          bytecodeSize\n          dup4\n          codecopy\n          dup2\n          dup2\n          add\n          0x40\n          mstore\n          dup2\n          add\n          swap1\n          tag_2\n          swap2\n          swap1\n          tag_3\n          jump\t// in\n        tag_2:\n            /* \"contracts/contracts/Fundraiser.sol\":760:770  msg.sender */\n          caller\n            /* \"contracts/contracts/Fundraiser.sol\":752:757  owner */\n          0x00\n          dup1\n            /* \"contracts/contracts/Fundraiser.sol\":752:770  owner = msg.sender */\n          0x0100\n          exp\n          dup2\n          sload\n          dup2\n          0xffffffffffffffffffffffffffffffffffffffff\n          mul\n          not\n          and\n          swap1\n          dup4\n          0xffffffffffffffffffffffffffffffffffffffff\n          and\n          mul\n          or\n          swap1\n          sstore\n          pop\n            /* \"contracts/contracts/Fundraiser.sol\":787:792  _name */\n          dup5\n            /* \"contracts/contracts/Fundraiser.sol\":780:784  name */\n          0x01\n            /* \"contracts/contracts/Fundraiser.sol\":780:792  name = _name */\n          swap1\n          dup2\n          tag_6\n          swap2\n          swap1\n          tag_7\n          jump\t// in\n        tag_6:\n          pop\n            /* \"contracts/contracts/Fundraiser.sol\":817:830  _targetAmount */\n          dup4\n            /* \"contracts/contracts/Fundraiser.sol\":802:814  targetAmount */\n          0x02\n            /* \"contracts/contracts/Fundraiser.sol\":802:830  targetAmount = _targetAmount */\n          dup2\n          swap1\n          sstore\n          pop\n            /* \"contracts/contracts/Fundraiser.sol\":853:864  _finishTime */\n          dup3\n            /* \"contracts/contracts/Fundraiser.sol\":840:850  finishTime */\n          0x03\n            /* \"contracts/contracts/Fundraiser.sol\":840:864  finishTime = _finishTime */\n          dup2\n          swap1\n          sstore\n          pop\n            /* \"contracts/contracts/Fundraiser.sol\":932:944  _description */\n          dup2\n            /* \"contracts/contracts/Fundraiser.sol\":918:929  description */\n          0x04\n            /* \"contracts/contracts/Fundraiser.sol\":918:944  description = _description */\n          swap1\n          dup2\n          tag_8\n          swap2\n          swap1\n          tag_7\n          jump\t// in\n        tag_8:\n          pop\n            /* \"contracts/contracts/Fundraiser.sol\":959:965  uint i */\n          0x00\n            /* \"contracts/contracts/Fundraiser.sol\":954:1041  for (uint i = 0; i < _items.length; i++) {... */\n        tag_9:\n            /* \"contracts/contracts/Fundraiser.sol\":975:981  _items */\n          dup2\n            /* \"contracts/contracts/Fundraiser.sol\":975:988  _items.length */\n          mload\n            /* \"contracts/contracts/Fundraiser.sol\":971:972  i */\n          dup2\n            /* \"contracts/contracts/Fundraiser.sol\":971:988  i < _items.length */\n          lt\n            /* \"contracts/contracts/Fundraiser.sol\":954:1041  for (uint i = 0; i < _items.length; i++) {... */\n          iszero\n          tag_10\n          jumpi\n            /* \"contracts/contracts/Fundraiser.sol\":1009:1014  items */\n          0x05\n            /* \"contracts/contracts/Fundraiser.sol\":1020:1026  _items */\n          dup3\n            /* \"contracts/contracts/Fundraiser.sol\":1027:1028  i */\n          dup3\n            /* \"contracts/contracts/Fundraiser.sol\":1020:1029  _items[i] */\n          dup2\n          mload\n          dup2\n          lt\n          tag_12\n          jumpi\n          tag_13\n          tag_14\n          jump\t// in\n        tag_13:\n        tag_12:\n          0x20\n          mul\n          0x20\n          add\n          add\n          mload\n            /* \"contracts/contracts/Fundraiser.sol\":1009:1030  items.push(_items[i]) */\n          swap1\n          dup1\n          0x01\n          dup2\n          sload\n          add\n          dup1\n          dup3\n          sstore\n          dup1\n          swap2\n          pop\n          pop\n          0x01\n          swap1\n          sub\n          swap1\n          0x00\n          mstore\n          keccak256(0x00, 0x20)\n          swap1\n          0x03\n          mul\n          add\n          0x00\n          swap1\n          swap2\n          swap1\n          swap2\n          swap1\n          swap2\n          pop\n          0x00\n          dup3\n          add\n          mload\n          dup2\n          0x00\n          add\n          swap1\n          dup2\n          tag_16\n          swap2\n          swap1\n          tag_7\n          jump\t// in\n        tag_16:\n          pop\n          0x20\n          dup3\n          add\n          mload\n          dup2\n          0x01\n          add\n          sstore\n          0x40\n          dup3\n          add\n          mload\n          dup2\n          0x02\n          add\n          sstore\n          pop\n          pop\n            /* \"contracts/contracts/Fundraiser.sol\":990:993  i++ */\n          dup1\n          dup1\n          0x01\n          add\n          swap2\n          pop\n          pop\n            /* \"contracts/contracts/Fundraiser.sol\":954:1041  for (uint i = 0; i < _items.length; i++) {... */\n          jump(tag_9)\n        tag_10:\n          pop\n            /* \"contracts/contracts/Fundraiser.sol\":554:1047  constructor(... */\n          pop\n          pop\n          pop\n          pop\n          pop\n            /* \"contracts/contracts/Fundraiser.sol\":89:2095  contract Fundraiser {... */\n          jump(tag_17)\n            /* \"#utility.yul\":7:82   */\n        tag_18:\n            /* \"#utility.yul\":40:46   */\n          0x00\n            /* \"#utility.yul\":73:75   */\n          0x40\n            /* \"#utility.yul\":67:76   */\n          mload\n            /* \"#utility.yul\":57:76   */\n          swap1\n          pop\n            /* \"#utility.yul\":7:82   */\n          swap1\n          jump\t// out\n            /* \"#utility.yul\":88:205   */\n        tag_19:\n            /* \"#utility.yul\":197:198   */\n          0x00\n            /* \"#utility.yul\":194:195   */\n          dup1\n            /* \"#utility.yul\":187:199   */\n          revert\n            /* \"#utility.yul\":211:328   */\n        tag_20:\n            /* \"#utility.yul\":320:321   */\n          0x00\n            /* \"#utility.yul\":317:318   */\n          dup1\n            /* \"#utility.yul\":310:322   */\n          revert\n            /* \"#utility.yul\":334:451   */\n        tag_21:\n            /* \"#utility.yul\":443:444   */\n          0x00\n            /* \"#utility.yul\":440:441   */\n          dup1\n            /* \"#utility.yul\":433:445   */\n          revert\n            /* \"#utility.yul\":457:574   */\n        tag_22:\n            /* \"#utility.yul\":566:567   */\n          0x00\n            /* \"#utility.yul\":563:564   */\n          dup1\n            /* \"#utility.yul\":556:568   */\n          revert\n            /* \"#utility.yul\":580:682   */\n        tag_23:\n            /* \"#utility.yul\":621:627   */\n          0x00\n            /* \"#utility.yul\":672:674   */\n          0x1f\n            /* \"#utility.yul\":668:675   */\n          not\n            /* \"#utility.yul\":663:665   */\n          0x1f\n            /* \"#utility.yul\":656:661   */\n          dup4\n            /* \"#utility.yul\":652:666   */\n          add\n            /* \"#utility.yul\":648:676   */\n          and\n            /* \"#utility.yul\":638:676   */\n          swap1\n          pop\n            /* \"#utility.yul\":580:682   */\n          swap2\n          swap1\n          pop\n          jump\t// out\n            /* \"#utility.yul\":688:868   */\n        tag_24:\n            /* \"#utility.yul\":736:813   */\n          0x4e487b7100000000000000000000000000000000000000000000000000000000\n            /* \"#utility.yul\":733:734   */\n          0x00\n            /* \"#utility.yul\":726:814   */\n          mstore\n            /* \"#utility.yul\":833:837   */\n          0x41\n            /* \"#utility.yul\":830:831   */\n          0x04\n            /* \"#utility.yul\":823:838   */\n          mstore\n            /* \"#utility.yul\":857:861   */\n          0x24\n            /* \"#utility.yul\":854:855   */\n          0x00\n            /* \"#utility.yul\":847:862   */\n          revert\n            /* \"#utility.yul\":874:1155   */\n        tag_25:\n            /* \"#utility.yul\":957:984   */\n          tag_68\n            /* \"#utility.yul\":979:983   */\n          dup3\n            /* \"#utility.yul\":957:984   */\n          tag_23\n          jump\t// in\n        tag_68:\n            /* \"#utility.yul\":949:955   */\n          dup2\n            /* \"#utility.yul\":945:985   */\n          add\n            /* \"#utility.yul\":1087:1093   */\n          dup2\n            /* \"#utility.yul\":1075:1085   */\n          dup2\n            /* \"#utility.yul\":1072:1094   */\n          lt\n            /* \"#utility.yul\":1051:1069   */\n          0xffffffffffffffff\n            /* \"#utility.yul\":1039:1049   */\n          dup3\n            /* \"#utility.yul\":1036:1070   */\n          gt\n            /* \"#utility.yul\":1033:1095   */\n          or\n            /* \"#utility.yul\":1030:1118   */\n          iszero\n          tag_69\n          jumpi\n            /* \"#utility.yul\":1098:1116   */\n          tag_70\n          tag_24\n          jump\t// in\n        tag_70:\n            /* \"#utility.yul\":1030:1118   */\n        tag_69:\n            /* \"#utility.yul\":1138:1148   */\n          dup1\n            /* \"#utility.yul\":1134:1136   */\n          0x40\n            /* \"#utility.yul\":1127:1149   */\n          mstore\n            /* \"#utility.yul\":917:1155   */\n          pop\n            /* \"#utility.yul\":874:1155   */\n          pop\n          pop\n          jump\t// out\n            /* \"#utility.yul\":1161:1290   */\n        tag_26:\n            /* \"#utility.yul\":1195:1201   */\n          0x00\n            /* \"#utility.yul\":1222:1242   */\n          tag_72\n          tag_18\n          jump\t// in\n        tag_72:\n            /* \"#utility.yul\":1212:1242   */\n          swap1\n          pop\n            /* \"#utility.yul\":1251:1284   */\n          tag_73\n            /* \"#utility.yul\":1279:1283   */\n          dup3\n            /* \"#utility.yul\":1271:1277   */\n          dup3\n            /* \"#utility.yul\":1251:1284   */\n          tag_25\n          jump\t// in\n        tag_73:\n            /* \"#utility.yul\":1161:1290   */\n          swap2\n          swap1\n          pop\n          jump\t// out\n            /* \"#utility.yul\":1296:1604   */\n        tag_27:\n            /* \"#utility.yul\":1358:1362   */\n          0x00\n            /* \"#utility.yul\":1448:1466   */\n          0xffffffffffffffff\n            /* \"#utility.yul\":1440:1446   */\n          dup3\n            /* \"#utility.yul\":1437:1467   */\n          gt\n            /* \"#utility.yul\":1434:1490   */\n          iszero\n          tag_75\n          jumpi\n            /* \"#utility.yul\":1470:1488   */\n          tag_76\n          tag_24\n          jump\t// in\n        tag_76:\n            /* \"#utility.yul\":1434:1490   */\n        tag_75:\n            /* \"#utility.yul\":1508:1537   */\n          tag_77\n            /* \"#utility.yul\":1530:1536   */\n          dup3\n            /* \"#utility.yul\":1508:1537   */\n          tag_23\n          jump\t// in\n        tag_77:\n            /* \"#utility.yul\":1500:1537   */\n          swap1\n          pop\n            /* \"#utility.yul\":1592:1596   */\n          0x20\n            /* \"#utility.yul\":1586:1590   */\n          dup2\n            /* \"#utility.yul\":1582:1597   */\n          add\n            /* \"#utility.yul\":1574:1597   */\n          swap1\n          pop\n            /* \"#utility.yul\":1296:1604   */\n          swap2\n          swap1\n          pop\n          jump\t// out\n            /* \"#utility.yul\":1610:1749   */\n        tag_28:\n            /* \"#utility.yul\":1699:1705   */\n          dup3\n            /* \"#utility.yul\":1694:1697   */\n          dup2\n            /* \"#utility.yul\":1689:1692   */\n          dup4\n            /* \"#utility.yul\":1683:1706   */\n          mcopy\n            /* \"#utility.yul\":1740:1741   */\n          0x00\n            /* \"#utility.yul\":1731:1737   */\n          dup4\n            /* \"#utility.yul\":1726:1729   */\n          dup4\n            /* \"#utility.yul\":1722:1738   */\n          add\n            /* \"#utility.yul\":1715:1742   */\n          mstore\n            /* \"#utility.yul\":1610:1749   */\n          pop\n          pop\n          pop\n          jump\t// out\n            /* \"#utility.yul\":1755:2189   */\n        tag_29:\n            /* \"#utility.yul\":1844:1849   */\n          0x00\n            /* \"#utility.yul\":1869:1935   */\n          tag_80\n            /* \"#utility.yul\":1885:1934   */\n          tag_81\n            /* \"#utility.yul\":1927:1933   */\n          dup5\n            /* \"#utility.yul\":1885:1934   */\n          tag_27\n          jump\t// in\n        tag_81:\n            /* \"#utility.yul\":1869:1935   */\n          tag_26\n          jump\t// in\n        tag_80:\n            /* \"#utility.yul\":1860:1935   */\n          swap1\n          pop\n            /* \"#utility.yul\":1958:1964   */\n          dup3\n            /* \"#utility.yul\":1951:1956   */\n          dup2\n            /* \"#utility.yul\":1944:1965   */\n          mstore\n            /* \"#utility.yul\":1996:2000   */\n          0x20\n            /* \"#utility.yul\":1989:1994   */\n          dup2\n            /* \"#utility.yul\":1985:2001   */\n          add\n            /* \"#utility.yul\":2034:2037   */\n          dup5\n            /* \"#utility.yul\":2025:2031   */\n          dup5\n            /* \"#utility.yul\":2020:2023   */\n          dup5\n            /* \"#utility.yul\":2016:2032   */\n          add\n            /* \"#utility.yul\":2013:2038   */\n          gt\n            /* \"#utility.yul\":2010:2122   */\n          iszero\n          tag_82\n          jumpi\n            /* \"#utility.yul\":2041:2120   */\n          tag_83\n          tag_22\n          jump\t// in\n        tag_83:\n            /* \"#utility.yul\":2010:2122   */\n        tag_82:\n            /* \"#utility.yul\":2131:2183   */\n          tag_84\n            /* \"#utility.yul\":2176:2182   */\n          dup5\n            /* \"#utility.yul\":2171:2174   */\n          dup3\n            /* \"#utility.yul\":2166:2169   */\n          dup6\n            /* \"#utility.yul\":2131:2183   */\n          tag_28\n          jump\t// in\n        tag_84:\n            /* \"#utility.yul\":1850:2189   */\n          pop\n            /* \"#utility.yul\":1755:2189   */\n          swap4\n          swap3\n          pop\n          pop\n          pop\n          jump\t// out\n            /* \"#utility.yul\":2209:2564   */\n        tag_30:\n            /* \"#utility.yul\":2276:2281   */\n          0x00\n            /* \"#utility.yul\":2325:2328   */\n          dup3\n            /* \"#utility.yul\":2318:2322   */\n          0x1f\n            /* \"#utility.yul\":2310:2316   */\n          dup4\n            /* \"#utility.yul\":2306:2323   */\n          add\n            /* \"#utility.yul\":2302:2329   */\n          slt\n            /* \"#utility.yul\":2292:2414   */\n          tag_86\n          jumpi\n            /* \"#utility.yul\":2333:2412   */\n          tag_87\n          tag_21\n          jump\t// in\n        tag_87:\n            /* \"#utility.yul\":2292:2414   */\n        tag_86:\n            /* \"#utility.yul\":2443:2449   */\n          dup2\n            /* \"#utility.yul\":2437:2450   */\n          mload\n            /* \"#utility.yul\":2468:2558   */\n          tag_88\n            /* \"#utility.yul\":2554:2557   */\n          dup5\n            /* \"#utility.yul\":2546:2552   */\n          dup3\n            /* \"#utility.yul\":2539:2543   */\n          0x20\n            /* \"#utility.yul\":2531:2537   */\n          dup7\n            /* \"#utility.yul\":2527:2544   */\n          add\n            /* \"#utility.yul\":2468:2558   */\n          tag_29\n          jump\t// in\n        tag_88:\n            /* \"#utility.yul\":2459:2558   */\n          swap2\n          pop\n            /* \"#utility.yul\":2282:2564   */\n          pop\n            /* \"#utility.yul\":2209:2564   */\n          swap3\n          swap2\n          pop\n          pop\n          jump\t// out\n            /* \"#utility.yul\":2570:2647   */\n        tag_31:\n            /* \"#utility.yul\":2607:2614   */\n          0x00\n            /* \"#utility.yul\":2636:2641   */\n          dup2\n            /* \"#utility.yul\":2625:2641   */\n          swap1\n          pop\n            /* \"#utility.yul\":2570:2647   */\n          swap2\n          swap1\n          pop\n          jump\t// out\n            /* \"#utility.yul\":2653:2775   */\n        tag_32:\n            /* \"#utility.yul\":2726:2750   */\n          tag_91\n            /* \"#utility.yul\":2744:2749   */\n          dup2\n            /* \"#utility.yul\":2726:2750   */\n          tag_31\n          jump\t// in\n        tag_91:\n            /* \"#utility.yul\":2719:2724   */\n          dup2\n            /* \"#utility.yul\":2716:2751   */\n          eq\n            /* \"#utility.yul\":2706:2769   */\n          tag_92\n          jumpi\n            /* \"#utility.yul\":2765:2766   */\n          0x00\n            /* \"#utility.yul\":2762:2763   */\n          dup1\n            /* \"#utility.yul\":2755:2767   */\n          revert\n            /* \"#utility.yul\":2706:2769   */\n        tag_92:\n            /* \"#utility.yul\":2653:2775   */\n          pop\n          jump\t// out\n            /* \"#utility.yul\":2781:2924   */\n        tag_33:\n            /* \"#utility.yul\":2838:2843   */\n          0x00\n            /* \"#utility.yul\":2869:2875   */\n          dup2\n            /* \"#utility.yul\":2863:2876   */\n          mload\n            /* \"#utility.yul\":2854:2876   */\n          swap1\n          pop\n            /* \"#utility.yul\":2885:2918   */\n          tag_94\n            /* \"#utility.yul\":2912:2917   */\n          dup2\n            /* \"#utility.yul\":2885:2918   */\n          tag_32\n          jump\t// in\n        tag_94:\n            /* \"#utility.yul\":2781:2924   */\n          swap3\n          swap2\n          pop\n          pop\n          jump\t// out\n            /* \"#utility.yul\":2930:3262   */\n        tag_34:\n            /* \"#utility.yul\":3028:3032   */\n          0x00\n            /* \"#utility.yul\":3118:3136   */\n          0xffffffffffffffff\n            /* \"#utility.yul\":3110:3116   */\n          dup3\n            /* \"#utility.yul\":3107:3137   */\n          gt\n            /* \"#utility.yul\":3104:3160   */\n          iszero\n          tag_96\n          jumpi\n            /* \"#utility.yul\":3140:3158   */\n          tag_97\n          tag_24\n          jump\t// in\n        tag_97:\n            /* \"#utility.yul\":3104:3160   */\n        tag_96:\n            /* \"#utility.yul\":3190:3194   */\n          0x20\n            /* \"#utility.yul\":3182:3188   */\n          dup3\n            /* \"#utility.yul\":3178:3195   */\n          mul\n            /* \"#utility.yul\":3170:3195   */\n          swap1\n          pop\n            /* \"#utility.yul\":3250:3254   */\n          0x20\n            /* \"#utility.yul\":3244:3248   */\n          dup2\n            /* \"#utility.yul\":3240:3255   */\n          add\n            /* \"#utility.yul\":3232:3255   */\n          swap1\n          pop\n            /* \"#utility.yul\":2930:3262   */\n          swap2\n          swap1\n          pop\n          jump\t// out\n            /* \"#utility.yul\":3268:3385   */\n        tag_35:\n            /* \"#utility.yul\":3377:3378   */\n          0x00\n            /* \"#utility.yul\":3374:3375   */\n          dup1\n            /* \"#utility.yul\":3367:3379   */\n          revert\n            /* \"#utility.yul\":3391:3508   */\n        tag_36:\n            /* \"#utility.yul\":3500:3501   */\n          0x00\n            /* \"#utility.yul\":3497:3498   */\n          dup1\n            /* \"#utility.yul\":3490:3502   */\n          revert\n            /* \"#utility.yul\":3514:3631   */\n        tag_37:\n            /* \"#utility.yul\":3623:3624   */\n          0x00\n            /* \"#utility.yul\":3620:3621   */\n          dup1\n            /* \"#utility.yul\":3613:3625   */\n          revert\n            /* \"#utility.yul\":3671:4614   */\n        tag_38:\n            /* \"#utility.yul\":3752:3757   */\n          0x00\n            /* \"#utility.yul\":3796:3800   */\n          0x60\n            /* \"#utility.yul\":3784:3793   */\n          dup3\n            /* \"#utility.yul\":3779:3782   */\n          dup5\n            /* \"#utility.yul\":3775:3794   */\n          sub\n            /* \"#utility.yul\":3771:3801   */\n          slt\n            /* \"#utility.yul\":3768:3885   */\n          iszero\n          tag_102\n          jumpi\n            /* \"#utility.yul\":3804:3883   */\n          tag_103\n          tag_36\n          jump\t// in\n        tag_103:\n            /* \"#utility.yul\":3768:3885   */\n        tag_102:\n            /* \"#utility.yul\":3903:3924   */\n          tag_104\n            /* \"#utility.yul\":3919:3923   */\n          0x60\n            /* \"#utility.yul\":3903:3924   */\n          tag_26\n          jump\t// in\n        tag_104:\n            /* \"#utility.yul\":3894:3924   */\n          swap1\n          pop\n            /* \"#utility.yul\":4004:4005   */\n          0x00\n            /* \"#utility.yul\":3993:4002   */\n          dup3\n            /* \"#utility.yul\":3989:4006   */\n          add\n            /* \"#utility.yul\":3983:4007   */\n          mload\n            /* \"#utility.yul\":4034:4052   */\n          0xffffffffffffffff\n            /* \"#utility.yul\":4026:4032   */\n          dup2\n            /* \"#utility.yul\":4023:4053   */\n          gt\n            /* \"#utility.yul\":4020:4137   */\n          iszero\n          tag_105\n          jumpi\n            /* \"#utility.yul\":4056:4135   */\n          tag_106\n          tag_37\n          jump\t// in\n        tag_106:\n            /* \"#utility.yul\":4020:4137   */\n        tag_105:\n            /* \"#utility.yul\":4176:4246   */\n          tag_107\n            /* \"#utility.yul\":4242:4245   */\n          dup5\n            /* \"#utility.yul\":4233:4239   */\n          dup3\n            /* \"#utility.yul\":4222:4231   */\n          dup6\n            /* \"#utility.yul\":4218:4240   */\n          add\n            /* \"#utility.yul\":4176:4246   */\n          tag_30\n          jump\t// in\n        tag_107:\n            /* \"#utility.yul\":4169:4173   */\n          0x00\n            /* \"#utility.yul\":4162:4167   */\n          dup4\n            /* \"#utility.yul\":4158:4174   */\n          add\n            /* \"#utility.yul\":4151:4247   */\n          mstore\n            /* \"#utility.yul\":3934:4258   */\n          pop\n            /* \"#utility.yul\":4321:4323   */\n          0x20\n            /* \"#utility.yul\":4362:4422   */\n          tag_108\n            /* \"#utility.yul\":4418:4421   */\n          dup5\n            /* \"#utility.yul\":4409:4415   */\n          dup3\n            /* \"#utility.yul\":4398:4407   */\n          dup6\n            /* \"#utility.yul\":4394:4416   */\n          add\n            /* \"#utility.yul\":4362:4422   */\n          tag_33\n          jump\t// in\n        tag_108:\n            /* \"#utility.yul\":4355:4359   */\n          0x20\n            /* \"#utility.yul\":4348:4353   */\n          dup4\n            /* \"#utility.yul\":4344:4360   */\n          add\n            /* \"#utility.yul\":4337:4423   */\n          mstore\n            /* \"#utility.yul\":4268:4434   */\n          pop\n            /* \"#utility.yul\":4494:4496   */\n          0x40\n            /* \"#utility.yul\":4535:4595   */\n          tag_109\n            /* \"#utility.yul\":4591:4594   */\n          dup5\n            /* \"#utility.yul\":4582:4588   */\n          dup3\n            /* \"#utility.yul\":4571:4580   */\n          dup6\n            /* \"#utility.yul\":4567:4589   */\n          add\n            /* \"#utility.yul\":4535:4595   */\n          tag_33\n          jump\t// in\n        tag_109:\n            /* \"#utility.yul\":4528:4532   */\n          0x40\n            /* \"#utility.yul\":4521:4526   */\n          dup4\n            /* \"#utility.yul\":4517:4533   */\n          add\n            /* \"#utility.yul\":4510:4596   */\n          mstore\n            /* \"#utility.yul\":4444:4607   */\n          pop\n            /* \"#utility.yul\":3671:4614   */\n          swap3\n          swap2\n          pop\n          pop\n          jump\t// out\n            /* \"#utility.yul\":4656:5649   */\n        tag_39:\n            /* \"#utility.yul\":4784:4789   */\n          0x00\n            /* \"#utility.yul\":4809:4911   */\n          tag_111\n            /* \"#utility.yul\":4825:4910   */\n          tag_112\n            /* \"#utility.yul\":4903:4909   */\n          dup5\n            /* \"#utility.yul\":4825:4910   */\n          tag_34\n          jump\t// in\n        tag_112:\n            /* \"#utility.yul\":4809:4911   */\n          tag_26\n          jump\t// in\n        tag_111:\n            /* \"#utility.yul\":4800:4911   */\n          swap1\n          pop\n            /* \"#utility.yul\":4931:4936   */\n          dup1\n            /* \"#utility.yul\":4960:4966   */\n          dup4\n            /* \"#utility.yul\":4953:4958   */\n          dup3\n            /* \"#utility.yul\":4946:4967   */\n          mstore\n            /* \"#utility.yul\":4994:4998   */\n          0x20\n            /* \"#utility.yul\":4987:4992   */\n          dup3\n            /* \"#utility.yul\":4983:4999   */\n          add\n            /* \"#utility.yul\":4976:4999   */\n          swap1\n          pop\n            /* \"#utility.yul\":5047:5051   */\n          0x20\n            /* \"#utility.yul\":5039:5045   */\n          dup5\n            /* \"#utility.yul\":5035:5052   */\n          mul\n            /* \"#utility.yul\":5027:5033   */\n          dup4\n            /* \"#utility.yul\":5023:5053   */\n          add\n            /* \"#utility.yul\":5076:5079   */\n          dup6\n            /* \"#utility.yul\":5068:5074   */\n          dup2\n            /* \"#utility.yul\":5065:5080   */\n          gt\n            /* \"#utility.yul\":5062:5184   */\n          iszero\n          tag_113\n          jumpi\n            /* \"#utility.yul\":5095:5174   */\n          tag_114\n          tag_35\n          jump\t// in\n        tag_114:\n            /* \"#utility.yul\":5062:5184   */\n        tag_113:\n            /* \"#utility.yul\":5210:5216   */\n          dup4\n            /* \"#utility.yul\":5193:5643   */\n        tag_115:\n            /* \"#utility.yul\":5227:5233   */\n          dup2\n            /* \"#utility.yul\":5222:5225   */\n          dup2\n            /* \"#utility.yul\":5219:5234   */\n          lt\n            /* \"#utility.yul\":5193:5643   */\n          iszero\n          tag_117\n          jumpi\n            /* \"#utility.yul\":5309:5312   */\n          dup1\n            /* \"#utility.yul\":5303:5313   */\n          mload\n            /* \"#utility.yul\":5345:5363   */\n          0xffffffffffffffff\n            /* \"#utility.yul\":5332:5343   */\n          dup2\n            /* \"#utility.yul\":5329:5364   */\n          gt\n            /* \"#utility.yul\":5326:5448   */\n          iszero\n          tag_118\n          jumpi\n            /* \"#utility.yul\":5367:5446   */\n          tag_119\n          tag_21\n          jump\t// in\n        tag_119:\n            /* \"#utility.yul\":5326:5448   */\n        tag_118:\n            /* \"#utility.yul\":5491:5502   */\n          dup1\n            /* \"#utility.yul\":5483:5489   */\n          dup7\n            /* \"#utility.yul\":5479:5503   */\n          add\n            /* \"#utility.yul\":5529:5598   */\n          tag_120\n            /* \"#utility.yul\":5594:5597   */\n          dup10\n            /* \"#utility.yul\":5582:5592   */\n          dup3\n            /* \"#utility.yul\":5529:5598   */\n          tag_38\n          jump\t// in\n        tag_120:\n            /* \"#utility.yul\":5524:5527   */\n          dup6\n            /* \"#utility.yul\":5517:5599   */\n          mstore\n            /* \"#utility.yul\":5628:5632   */\n          0x20\n            /* \"#utility.yul\":5623:5626   */\n          dup6\n            /* \"#utility.yul\":5619:5633   */\n          add\n            /* \"#utility.yul\":5612:5633   */\n          swap5\n          pop\n            /* \"#utility.yul\":5269:5643   */\n          pop\n          pop\n            /* \"#utility.yul\":5253:5257   */\n          0x20\n            /* \"#utility.yul\":5248:5251   */\n          dup2\n            /* \"#utility.yul\":5244:5258   */\n          add\n            /* \"#utility.yul\":5237:5258   */\n          swap1\n          pop\n            /* \"#utility.yul\":5193:5643   */\n          jump(tag_115)\n        tag_117:\n            /* \"#utility.yul\":5197:5218   */\n          pop\n            /* \"#utility.yul\":4790:5649   */\n          pop\n          pop\n            /* \"#utility.yul\":4656:5649   */\n          swap4\n          swap3\n          pop\n          pop\n          pop\n          jump\t// out\n            /* \"#utility.yul\":5691:6118   */\n        tag_40:\n            /* \"#utility.yul\":5794:5799   */\n          0x00\n            /* \"#utility.yul\":5843:5846   */\n          dup3\n            /* \"#utility.yul\":5836:5840   */\n          0x1f\n            /* \"#utility.yul\":5828:5834   */\n          dup4\n            /* \"#utility.yul\":5824:5841   */\n          add\n            /* \"#utility.yul\":5820:5847   */\n          slt\n            /* \"#utility.yul\":5810:5932   */\n          tag_122\n          jumpi\n            /* \"#utility.yul\":5851:5930   */\n          tag_123\n          tag_21\n          jump\t// in\n        tag_123:\n            /* \"#utility.yul\":5810:5932   */\n        tag_122:\n            /* \"#utility.yul\":5961:5967   */\n          dup2\n            /* \"#utility.yul\":5955:5968   */\n          mload\n            /* \"#utility.yul\":5986:6112   */\n          tag_124\n            /* \"#utility.yul\":6108:6111   */\n          dup5\n            /* \"#utility.yul\":6100:6106   */\n          dup3\n            /* \"#utility.yul\":6093:6097   */\n          0x20\n            /* \"#utility.yul\":6085:6091   */\n          dup7\n            /* \"#utility.yul\":6081:6098   */\n          add\n            /* \"#utility.yul\":5986:6112   */\n          tag_39\n          jump\t// in\n        tag_124:\n            /* \"#utility.yul\":5977:6112   */\n          swap2\n          pop\n            /* \"#utility.yul\":5800:6118   */\n          pop\n            /* \"#utility.yul\":5691:6118   */\n          swap3\n          swap2\n          pop\n          pop\n          jump\t// out\n            /* \"#utility.yul\":6124:7692   */\n        tag_3:\n            /* \"#utility.yul\":6296:6302   */\n          0x00\n            /* \"#utility.yul\":6304:6310   */\n          dup1\n            /* \"#utility.yul\":6312:6318   */\n          0x00\n            /* \"#utility.yul\":6320:6326   */\n          dup1\n            /* \"#utility.yul\":6328:6334   */\n          0x00\n            /* \"#utility.yul\":6377:6380   */\n          0xa0\n            /* \"#utility.yul\":6365:6374   */\n          dup7\n            /* \"#utility.yul\":6356:6363   */\n          dup9\n            /* \"#utility.yul\":6352:6375   */\n          sub\n            /* \"#utility.yul\":6348:6381   */\n          slt\n            /* \"#utility.yul\":6345:6465   */\n          iszero\n          tag_126\n          jumpi\n            /* \"#utility.yul\":6384:6463   */\n          tag_127\n          tag_19\n          jump\t// in\n        tag_127:\n            /* \"#utility.yul\":6345:6465   */\n        tag_126:\n            /* \"#utility.yul\":6525:6526   */\n          0x00\n            /* \"#utility.yul\":6514:6523   */\n          dup7\n            /* \"#utility.yul\":6510:6527   */\n          add\n            /* \"#utility.yul\":6504:6528   */\n          mload\n            /* \"#utility.yul\":6555:6573   */\n          0xffffffffffffffff\n            /* \"#utility.yul\":6547:6553   */\n          dup2\n            /* \"#utility.yul\":6544:6574   */\n          gt\n            /* \"#utility.yul\":6541:6658   */\n          iszero\n          tag_128\n          jumpi\n            /* \"#utility.yul\":6577:6656   */\n          tag_129\n          tag_20\n          jump\t// in\n        tag_129:\n            /* \"#utility.yul\":6541:6658   */\n        tag_128:\n            /* \"#utility.yul\":6682:6756   */\n          tag_130\n            /* \"#utility.yul\":6748:6755   */\n          dup9\n            /* \"#utility.yul\":6739:6745   */\n          dup3\n            /* \"#utility.yul\":6728:6737   */\n          dup10\n            /* \"#utility.yul\":6724:6746   */\n          add\n            /* \"#utility.yul\":6682:6756   */\n          tag_30\n          jump\t// in\n        tag_130:\n            /* \"#utility.yul\":6672:6756   */\n          swap6\n          pop\n            /* \"#utility.yul\":6475:6766   */\n          pop\n            /* \"#utility.yul\":6805:6807   */\n          0x20\n            /* \"#utility.yul\":6831:6895   */\n          tag_131\n            /* \"#utility.yul\":6887:6894   */\n          dup9\n            /* \"#utility.yul\":6878:6884   */\n          dup3\n            /* \"#utility.yul\":6867:6876   */\n          dup10\n            /* \"#utility.yul\":6863:6885   */\n          add\n            /* \"#utility.yul\":6831:6895   */\n          tag_33\n          jump\t// in\n        tag_131:\n            /* \"#utility.yul\":6821:6895   */\n          swap5\n          pop\n            /* \"#utility.yul\":6776:6905   */\n          pop\n            /* \"#utility.yul\":6944:6946   */\n          0x40\n            /* \"#utility.yul\":6970:7034   */\n          tag_132\n            /* \"#utility.yul\":7026:7033   */\n          dup9\n            /* \"#utility.yul\":7017:7023   */\n          dup3\n            /* \"#utility.yul\":7006:7015   */\n          dup10\n            /* \"#utility.yul\":7002:7024   */\n          add\n            /* \"#utility.yul\":6970:7034   */\n          tag_33\n          jump\t// in\n        tag_132:\n            /* \"#utility.yul\":6960:7034   */\n          swap4\n          pop\n            /* \"#utility.yul\":6915:7044   */\n          pop\n            /* \"#utility.yul\":7104:7106   */\n          0x60\n            /* \"#utility.yul\":7093:7102   */\n          dup7\n            /* \"#utility.yul\":7089:7107   */\n          add\n            /* \"#utility.yul\":7083:7108   */\n          mload\n            /* \"#utility.yul\":7135:7153   */\n          0xffffffffffffffff\n            /* \"#utility.yul\":7127:7133   */\n          dup2\n            /* \"#utility.yul\":7124:7154   */\n          gt\n            /* \"#utility.yul\":7121:7238   */\n          iszero\n          tag_133\n          jumpi\n            /* \"#utility.yul\":7157:7236   */\n          tag_134\n          tag_20\n          jump\t// in\n        tag_134:\n            /* \"#utility.yul\":7121:7238   */\n        tag_133:\n            /* \"#utility.yul\":7262:7336   */\n          tag_135\n            /* \"#utility.yul\":7328:7335   */\n          dup9\n            /* \"#utility.yul\":7319:7325   */\n          dup3\n            /* \"#utility.yul\":7308:7317   */\n          dup10\n            /* \"#utility.yul\":7304:7326   */\n          add\n            /* \"#utility.yul\":7262:7336   */\n          tag_30\n          jump\t// in\n        tag_135:\n            /* \"#utility.yul\":7252:7336   */\n          swap3\n          pop\n            /* \"#utility.yul\":7054:7346   */\n          pop\n            /* \"#utility.yul\":7406:7409   */\n          0x80\n            /* \"#utility.yul\":7395:7404   */\n          dup7\n            /* \"#utility.yul\":7391:7410   */\n          add\n            /* \"#utility.yul\":7385:7411   */\n          mload\n            /* \"#utility.yul\":7438:7456   */\n          0xffffffffffffffff\n            /* \"#utility.yul\":7430:7436   */\n          dup2\n            /* \"#utility.yul\":7427:7457   */\n          gt\n            /* \"#utility.yul\":7424:7541   */\n          iszero\n          tag_136\n          jumpi\n            /* \"#utility.yul\":7460:7539   */\n          tag_137\n          tag_20\n          jump\t// in\n        tag_137:\n            /* \"#utility.yul\":7424:7541   */\n        tag_136:\n            /* \"#utility.yul\":7565:7675   */\n          tag_138\n            /* \"#utility.yul\":7667:7674   */\n          dup9\n            /* \"#utility.yul\":7658:7664   */\n          dup3\n            /* \"#utility.yul\":7647:7656   */\n          dup10\n            /* \"#utility.yul\":7643:7665   */\n          add\n            /* \"#utility.yul\":7565:7675   */\n          tag_40\n          jump\t// in\n        tag_138:\n            /* \"#utility.yul\":7555:7675   */\n          swap2\n          pop\n            /* \"#utility.yul\":7356:7685   */\n          pop\n            /* \"#utility.yul\":6124:7692   */\n          swap3\n          swap6\n          pop\n          swap3\n          swap6\n          swap1\n          swap4\n          pop\n          jump\t// out\n            /* \"#utility.yul\":7698:7797   */\n        tag_41:\n            /* \"#utility.yul\":7750:7756   */\n          0x00\n            /* \"#utility.yul\":7784:7789   */\n          dup2\n            /* \"#utility.yul\":7778:7790   */\n          mload\n            /* \"#utility.yul\":7768:7790   */\n          swap1\n          pop\n            /* \"#utility.yul\":7698:7797   */\n          swap2\n          swap1\n          pop\n          jump\t// out\n            /* \"#utility.yul\":7803:7983   */\n        tag_42:\n            /* \"#utility.yul\":7851:7928   */\n          0x4e487b7100000000000000000000000000000000000000000000000000000000\n            /* \"#utility.yul\":7848:7849   */\n          0x00\n            /* \"#utility.yul\":7841:7929   */\n          mstore\n            /* \"#utility.yul\":7948:7952   */\n          0x22\n            /* \"#utility.yul\":7945:7946   */\n          0x04\n            /* \"#utility.yul\":7938:7953   */\n          mstore\n            /* \"#utility.yul\":7972:7976   */\n          0x24\n            /* \"#utility.yul\":7969:7970   */\n          0x00\n            /* \"#utility.yul\":7962:7977   */\n          revert\n            /* \"#utility.yul\":7989:8309   */\n        tag_43:\n            /* \"#utility.yul\":8033:8039   */\n          0x00\n            /* \"#utility.yul\":8070:8071   */\n          0x02\n            /* \"#utility.yul\":8064:8068   */\n          dup3\n            /* \"#utility.yul\":8060:8072   */\n          div\n            /* \"#utility.yul\":8050:8072   */\n          swap1\n          pop\n            /* \"#utility.yul\":8117:8118   */\n          0x01\n            /* \"#utility.yul\":8111:8115   */\n          dup3\n            /* \"#utility.yul\":8107:8119   */\n          and\n            /* \"#utility.yul\":8138:8156   */\n          dup1\n            /* \"#utility.yul\":8128:8209   */\n          tag_142\n          jumpi\n            /* \"#utility.yul\":8194:8198   */\n          0x7f\n            /* \"#utility.yul\":8186:8192   */\n          dup3\n            /* \"#utility.yul\":8182:8199   */\n          and\n            /* \"#utility.yul\":8172:8199   */\n          swap2\n          pop\n            /* \"#utility.yul\":8128:8209   */\n        tag_142:\n            /* \"#utility.yul\":8256:8258   */\n          0x20\n            /* \"#utility.yul\":8248:8254   */\n          dup3\n            /* \"#utility.yul\":8245:8259   */\n          lt\n            /* \"#utility.yul\":8225:8243   */\n          dup2\n            /* \"#utility.yul\":8222:8260   */\n          sub\n            /* \"#utility.yul\":8219:8303   */\n          tag_143\n          jumpi\n            /* \"#utility.yul\":8275:8293   */\n          tag_144\n          tag_42\n          jump\t// in\n        tag_144:\n            /* \"#utility.yul\":8219:8303   */\n        tag_143:\n            /* \"#utility.yul\":8040:8309   */\n          pop\n            /* \"#utility.yul\":7989:8309   */\n          swap2\n          swap1\n          pop\n          jump\t// out\n            /* \"#utility.yul\":8315:8456   */\n        tag_44:\n            /* \"#utility.yul\":8364:8368   */\n          0x00\n            /* \"#utility.yul\":8387:8390   */\n          dup2\n            /* \"#utility.yul\":8379:8390   */\n          swap1\n          pop\n            /* \"#utility.yul\":8410:8413   */\n          dup2\n            /* \"#utility.yul\":8407:8408   */\n          0x00\n            /* \"#utility.yul\":8400:8414   */\n          mstore\n            /* \"#utility.yul\":8444:8448   */\n          0x20\n            /* \"#utility.yul\":8441:8442   */\n          0x00\n            /* \"#utility.yul\":8431:8449   */\n          keccak256\n            /* \"#utility.yul\":8423:8449   */\n          swap1\n          pop\n            /* \"#utility.yul\":8315:8456   */\n          swap2\n          swap1\n          pop\n          jump\t// out\n            /* \"#utility.yul\":8462:8555   */\n        tag_45:\n            /* \"#utility.yul\":8499:8505   */\n          0x00\n            /* \"#utility.yul\":8546:8548   */\n          0x20\n            /* \"#utility.yul\":8541:8543   */\n          0x1f\n            /* \"#utility.yul\":8534:8539   */\n          dup4\n            /* \"#utility.yul\":8530:8544   */\n          add\n            /* \"#utility.yul\":8526:8549   */\n          div\n            /* \"#utility.yul\":8516:8549   */\n          swap1\n          pop\n            /* \"#utility.yul\":8462:8555   */\n          swap2\n          swap1\n          pop\n          jump\t// out\n            /* \"#utility.yul\":8561:8668   */\n        tag_46:\n            /* \"#utility.yul\":8605:8613   */\n          0x00\n            /* \"#utility.yul\":8655:8660   */\n          dup3\n            /* \"#utility.yul\":8649:8653   */\n          dup3\n            /* \"#utility.yul\":8645:8661   */\n          shl\n            /* \"#utility.yul\":8624:8661   */\n          swap1\n          pop\n            /* \"#utility.yul\":8561:8668   */\n          swap3\n          swap2\n          pop\n          pop\n          jump\t// out\n            /* \"#utility.yul\":8674:9067   */\n        tag_47:\n            /* \"#utility.yul\":8743:8749   */\n          0x00\n            /* \"#utility.yul\":8793:8794   */\n          0x08\n            /* \"#utility.yul\":8781:8791   */\n          dup4\n            /* \"#utility.yul\":8777:8795   */\n          mul\n            /* \"#utility.yul\":8816:8913   */\n          tag_149\n            /* \"#utility.yul\":8846:8912   */\n          0xffffffffffffffffffffffffffffffffffffffffffffffffffffffffffffffff\n            /* \"#utility.yul\":8835:8844   */\n          dup3\n            /* \"#utility.yul\":8816:8913   */\n          tag_46\n          jump\t// in\n        tag_149:\n            /* \"#utility.yul\":8934:8973   */\n          tag_150\n            /* \"#utility.yul\":8964:8972   */\n          dup7\n            /* \"#utility.yul\":8953:8962   */\n          dup4\n            /* \"#utility.yul\":8934:8973   */\n          tag_46\n          jump\t// in\n        tag_150:\n            /* \"#utility.yul\":8922:8973   */\n          swap6\n          pop\n            /* \"#utility.yul\":9006:9010   */\n          dup1\n            /* \"#utility.yul\":9002:9011   */\n          not\n            /* \"#utility.yul\":8995:9000   */\n          dup5\n            /* \"#utility.yul\":8991:9012   */\n          and\n            /* \"#utility.yul\":8982:9012   */\n          swap4\n          pop\n            /* \"#utility.yul\":9055:9059   */\n          dup1\n            /* \"#utility.yul\":9045:9053   */\n          dup7\n            /* \"#utility.yul\":9041:9060   */\n          and\n            /* \"#utility.yul\":9034:9039   */\n          dup5\n            /* \"#utility.yul\":9031:9061   */\n          or\n            /* \"#utility.yul\":9021:9061   */\n          swap3\n          pop\n            /* \"#utility.yul\":8750:9067   */\n          pop\n          pop\n            /* \"#utility.yul\":8674:9067   */\n          swap4\n          swap3\n          pop\n          pop\n          pop\n          jump\t// out\n            /* \"#utility.yul\":9073:9133   */\n        tag_48:\n            /* \"#utility.yul\":9101:9104   */\n          0x00\n            /* \"#utility.yul\":9122:9127   */\n          dup2\n            /* \"#utility.yul\":9115:9127   */\n          swap1\n          pop\n            /* \"#utility.yul\":9073:9133   */\n          swap2\n          swap1\n          pop\n          jump\t// out\n            /* \"#utility.yul\":9139:9281   */\n        tag_49:\n            /* \"#utility.yul\":9189:9198   */\n          0x00\n            /* \"#utility.yul\":9222:9275   */\n          tag_153\n            /* \"#utility.yul\":9240:9274   */\n          tag_154\n            /* \"#utility.yul\":9249:9273   */\n          tag_155\n            /* \"#utility.yul\":9267:9272   */\n          dup5\n            /* \"#utility.yul\":9249:9273   */\n          tag_31\n          jump\t// in\n        tag_155:\n            /* \"#utility.yul\":9240:9274   */\n          tag_48\n          jump\t// in\n        tag_154:\n            /* \"#utility.yul\":9222:9275   */\n          tag_31\n          jump\t// in\n        tag_153:\n            /* \"#utility.yul\":9209:9275   */\n          swap1\n          pop\n            /* \"#utility.yul\":9139:9281   */\n          swap2\n          swap1\n          pop\n          jump\t// out\n            /* \"#utility.yul\":9287:9362   */\n        tag_50:\n            /* \"#utility.yul\":9330:9333   */\n          0x00\n            /* \"#utility.yul\":9351:9356   */\n          dup2\n            /* \"#utility.yul\":9344:9356   */\n          swap1\n          pop\n            /* \"#utility.yul\":9287:9362   */\n          swap2\n          swap1\n          pop\n          jump\t// out\n            /* \"#utility.yul\":9368:9637   */\n        tag_51:\n            /* \"#utility.yul\":9478:9517   */\n          tag_158\n            /* \"#utility.yul\":9509:9516   */\n          dup4\n            /* \"#utility.yul\":9478:9517   */\n          tag_49\n          jump\t// in\n        tag_158:\n            /* \"#utility.yul\":9539:9630   */\n          tag_159\n            /* \"#utility.yul\":9588:9629   */\n          tag_160\n            /* \"#utility.yul\":9612:9628   */\n          dup3\n            /* \"#utility.yul\":9588:9629   */\n          tag_50\n          jump\t// in\n        tag_160:\n            /* \"#utility.yul\":9580:9586   */\n          dup5\n            /* \"#utility.yul\":9573:9577   */\n          dup5\n            /* \"#utility.yul\":9567:9578   */\n          sload\n            /* \"#utility.yul\":9539:9630   */\n          tag_47\n          jump\t// in\n        tag_159:\n            /* \"#utility.yul\":9533:9537   */\n          dup3\n            /* \"#utility.yul\":9526:9631   */\n          sstore\n            /* \"#utility.yul\":9444:9637   */\n          pop\n            /* \"#utility.yul\":9368:9637   */\n          pop\n          pop\n          pop\n          jump\t// out\n            /* \"#utility.yul\":9643:9716   */\n        tag_52:\n            /* \"#utility.yul\":9688:9691   */\n          0x00\n            /* \"#utility.yul\":9643:9716   */\n          swap1\n          jump\t// out\n            /* \"#utility.yul\":9722:9911   */\n        tag_53:\n            /* \"#utility.yul\":9799:9831   */\n          tag_163\n          tag_52\n          jump\t// in\n        tag_163:\n            /* \"#utility.yul\":9840:9905   */\n          tag_164\n            /* \"#utility.yul\":9898:9904   */\n          dup2\n            /* \"#utility.yul\":9890:9896   */\n          dup5\n            /* \"#utility.yul\":9884:9888   */\n          dup5\n            /* \"#utility.yul\":9840:9905   */\n          tag_51\n          jump\t// in\n        tag_164:\n            /* \"#utility.yul\":9775:9911   */\n          pop\n            /* \"#utility.yul\":9722:9911   */\n          pop\n          pop\n          jump\t// out\n            /* \"#utility.yul\":9917:10103   */\n        tag_54:\n            /* \"#utility.yul\":9977:10097   */\n        tag_166:\n            /* \"#utility.yul\":9994:9997   */\n          dup2\n            /* \"#utility.yul\":9987:9992   */\n          dup2\n            /* \"#utility.yul\":9984:9998   */\n          lt\n            /* \"#utility.yul\":9977:10097   */\n          iszero\n          tag_168\n          jumpi\n            /* \"#utility.yul\":10048:10087   */\n          tag_169\n            /* \"#utility.yul\":10085:10086   */\n          0x00\n            /* \"#utility.yul\":10078:10083   */\n          dup3\n            /* \"#utility.yul\":10048:10087   */\n          tag_53\n          jump\t// in\n        tag_169:\n            /* \"#utility.yul\":10021:10022   */\n          0x01\n            /* \"#utility.yul\":10014:10019   */\n          dup2\n            /* \"#utility.yul\":10010:10023   */\n          add\n            /* \"#utility.yul\":10001:10023   */\n          swap1\n          pop\n            /* \"#utility.yul\":9977:10097   */\n          jump(tag_166)\n        tag_168:\n            /* \"#utility.yul\":9917:10103   */\n          pop\n          pop\n          jump\t// out\n            /* \"#utility.yul\":10109:10652   */\n        tag_55:\n            /* \"#utility.yul\":10210:10212   */\n          0x1f\n            /* \"#utility.yul\":10205:10208   */\n          dup3\n            /* \"#utility.yul\":10202:10213   */\n          gt\n            /* \"#utility.yul\":10199:10645   */\n          iszero\n          tag_171\n          jumpi\n            /* \"#utility.yul\":10244:10282   */\n          tag_172\n            /* \"#utility.yul\":10276:10281   */\n          dup2\n            /* \"#utility.yul\":10244:10282   */\n          tag_44\n          jump\t// in\n        tag_172:\n            /* \"#utility.yul\":10328:10357   */\n          tag_173\n            /* \"#utility.yul\":10346:10356   */\n          dup5\n            /* \"#utility.yul\":10328:10357   */\n          tag_45\n          jump\t// in\n        tag_173:\n            /* \"#utility.yul\":10318:10326   */\n          dup2\n            /* \"#utility.yul\":10314:10358   */\n          add\n            /* \"#utility.yul\":10511:10513   */\n          0x20\n            /* \"#utility.yul\":10499:10509   */\n          dup6\n            /* \"#utility.yul\":10496:10514   */\n          lt\n            /* \"#utility.yul\":10493:10542   */\n          iszero\n          tag_174\n          jumpi\n            /* \"#utility.yul\":10532:10540   */\n          dup2\n            /* \"#utility.yul\":10517:10540   */\n          swap1\n          pop\n            /* \"#utility.yul\":10493:10542   */\n        tag_174:\n            /* \"#utility.yul\":10555:10635   */\n          tag_175\n            /* \"#utility.yul\":10611:10633   */\n          tag_176\n            /* \"#utility.yul\":10629:10632   */\n          dup6\n            /* \"#utility.yul\":10611:10633   */\n          tag_45\n          jump\t// in\n        tag_176:\n            /* \"#utility.yul\":10601:10609   */\n          dup4\n            /* \"#utility.yul\":10597:10634   */\n          add\n            /* \"#utility.yul\":10584:10595   */\n          dup3\n            /* \"#utility.yul\":10555:10635   */\n          tag_54\n          jump\t// in\n        tag_175:\n            /* \"#utility.yul\":10214:10645   */\n          pop\n          pop\n            /* \"#utility.yul\":10199:10645   */\n        tag_171:\n            /* \"#utility.yul\":10109:10652   */\n          pop\n          pop\n          pop\n          jump\t// out\n            /* \"#utility.yul\":10658:10775   */\n        tag_56:\n            /* \"#utility.yul\":10712:10720   */\n          0x00\n            /* \"#utility.yul\":10762:10767   */\n          dup3\n            /* \"#utility.yul\":10756:10760   */\n          dup3\n            /* \"#utility.yul\":10752:10768   */\n          shr\n            /* \"#utility.yul\":10731:10768   */\n          swap1\n          pop\n            /* \"#utility.yul\":10658:10775   */\n          swap3\n          swap2\n          pop\n          pop\n          jump\t// out\n            /* \"#utility.yul\":10781:10950   */\n        tag_57:\n            /* \"#utility.yul\":10825:10831   */\n          0x00\n            /* \"#utility.yul\":10858:10909   */\n          tag_179\n            /* \"#utility.yul\":10906:10907   */\n          0x00\n            /* \"#utility.yul\":10902:10908   */\n          not\n            /* \"#utility.yul\":10894:10899   */\n          dup5\n            /* \"#utility.yul\":10891:10892   */\n          0x08\n            /* \"#utility.yul\":10887:10900   */\n          mul\n            /* \"#utility.yul\":10858:10909   */\n          tag_56\n          jump\t// in\n        tag_179:\n            /* \"#utility.yul\":10854:10910   */\n          not\n            /* \"#utility.yul\":10939:10943   */\n          dup1\n            /* \"#utility.yul\":10933:10937   */\n          dup4\n            /* \"#utility.yul\":10929:10944   */\n          and\n            /* \"#utility.yul\":10919:10944   */\n          swap2\n          pop\n            /* \"#utility.yul\":10832:10950   */\n          pop\n            /* \"#utility.yul\":10781:10950   */\n          swap3\n          swap2\n          pop\n          pop\n          jump\t// out\n            /* \"#utility.yul\":10955:11250   */\n        tag_58:\n            /* \"#utility.yul\":11031:11035   */\n          0x00\n            /* \"#utility.yul\":11177:11206   */\n          tag_181\n            /* \"#utility.yul\":11202:11205   */\n          dup4\n            /* \"#utility.yul\":11196:11200   */\n          dup4\n            /* \"#utility.yul\":11177:11206   */\n          tag_57\n          jump\t// in\n        tag_181:\n            /* \"#utility.yul\":11169:11206   */\n          swap2\n          pop\n            /* \"#utility.yul\":11239:11242   */\n          dup3\n            /* \"#utility.yul\":11236:11237   */\n          0x02\n            /* \"#utility.yul\":11232:11243   */\n          mul\n            /* \"#utility.yul\":11226:11230   */\n          dup3\n            /* \"#utility.yul\":11223:11244   */\n          or\n            /* \"#utility.yul\":11215:11244   */\n          swap1\n          pop\n            /* \"#utility.yul\":10955:11250   */\n          swap3\n          swap2\n          pop\n          pop\n          jump\t// out\n            /* \"#utility.yul\":11255:12650   */\n        tag_7:\n            /* \"#utility.yul\":11372:11409   */\n          tag_183\n            /* \"#utility.yul\":11405:11408   */\n          dup3\n            /* \"#utility.yul\":11372:11409   */\n          tag_41\n          jump\t// in\n        tag_183:\n            /* \"#utility.yul\":11474:11492   */\n          0xffffffffffffffff\n            /* \"#utility.yul\":11466:11472   */\n          dup2\n            /* \"#utility.yul\":11463:11493   */\n          gt\n            /* \"#utility.yul\":11460:11516   */\n          iszero\n          tag_184\n          jumpi\n            /* \"#utility.yul\":11496:11514   */\n          tag_185\n          tag_24\n          jump\t// in\n        tag_185:\n            /* \"#utility.yul\":11460:11516   */\n        tag_184:\n            /* \"#utility.yul\":11540:11578   */\n          tag_186\n            /* \"#utility.yul\":11572:11576   */\n          dup3\n            /* \"#utility.yul\":11566:11577   */\n          sload\n            /* \"#utility.yul\":11540:11578   */\n          tag_43\n          jump\t// in\n        tag_186:\n            /* \"#utility.yul\":11625:11692   */\n          tag_187\n            /* \"#utility.yul\":11685:11691   */\n          dup3\n            /* \"#utility.yul\":11677:11683   */\n          dup3\n            /* \"#utility.yul\":11671:11675   */\n          dup6\n            /* \"#utility.yul\":11625:11692   */\n          tag_55\n          jump\t// in\n        tag_187:\n            /* \"#utility.yul\":11719:11720   */\n          0x00\n            /* \"#utility.yul\":11743:11747   */\n          0x20\n            /* \"#utility.yul\":11730:11747   */\n          swap1\n          pop\n            /* \"#utility.yul\":11775:11777   */\n          0x1f\n            /* \"#utility.yul\":11767:11773   */\n          dup4\n            /* \"#utility.yul\":11764:11778   */\n          gt\n            /* \"#utility.yul\":11792:11793   */\n          0x01\n            /* \"#utility.yul\":11787:12405   */\n          dup2\n          eq\n          tag_189\n          jumpi\n            /* \"#utility.yul\":12449:12450   */\n          0x00\n            /* \"#utility.yul\":12466:12472   */\n          dup5\n            /* \"#utility.yul\":12463:12540   */\n          iszero\n          tag_190\n          jumpi\n            /* \"#utility.yul\":12515:12524   */\n          dup3\n            /* \"#utility.yul\":12510:12513   */\n          dup8\n            /* \"#utility.yul\":12506:12525   */\n          add\n            /* \"#utility.yul\":12500:12526   */\n          mload\n            /* \"#utility.yul\":12491:12526   */\n          swap1\n          pop\n            /* \"#utility.yul\":12463:12540   */\n        tag_190:\n            /* \"#utility.yul\":12566:12633   */\n          tag_191\n            /* \"#utility.yul\":12626:12632   */\n          dup6\n            /* \"#utility.yul\":12619:12624   */\n          dup3\n            /* \"#utility.yul\":12566:12633   */\n          tag_58\n          jump\t// in\n        tag_191:\n            /* \"#utility.yul\":12560:12564   */\n          dup7\n            /* \"#utility.yul\":12553:12634   */\n          sstore\n            /* \"#utility.yul\":12422:12644   */\n          pop\n            /* \"#utility.yul\":11757:12644   */\n          jump(tag_188)\n            /* \"#utility.yul\":11787:12405   */\n        tag_189:\n            /* \"#utility.yul\":11839:11843   */\n          0x1f\n            /* \"#utility.yul\":11835:11844   */\n          not\n            /* \"#utility.yul\":11827:11833   */\n          dup5\n            /* \"#utility.yul\":11823:11845   */\n          and\n            /* \"#utility.yul\":11873:11910   */\n          tag_192\n            /* \"#utility.yul\":11905:11909   */\n          dup7\n            /* \"#utility.yul\":11873:11910   */\n          tag_44\n          jump\t// in\n        tag_192:\n            /* \"#utility.yul\":11932:11933   */\n          0x00\n            /* \"#utility.yul\":11946:12154   */\n        tag_193:\n            /* \"#utility.yul\":11960:11967   */\n          dup3\n            /* \"#utility.yul\":11957:11958   */\n          dup2\n            /* \"#utility.yul\":11954:11968   */\n          lt\n            /* \"#utility.yul\":11946:12154   */\n          iszero\n          tag_195\n          jumpi\n            /* \"#utility.yul\":12039:12048   */\n          dup5\n            /* \"#utility.yul\":12034:12037   */\n          dup10\n            /* \"#utility.yul\":12030:12049   */\n          add\n            /* \"#utility.yul\":12024:12050   */\n          mload\n            /* \"#utility.yul\":12016:12022   */\n          dup3\n            /* \"#utility.yul\":12009:12051   */\n          sstore\n            /* \"#utility.yul\":12090:12091   */\n          0x01\n            /* \"#utility.yul\":12082:12088   */\n          dup3\n            /* \"#utility.yul\":12078:12092   */\n          add\n            /* \"#utility.yul\":12068:12092   */\n          swap2\n          pop\n            /* \"#utility.yul\":12137:12139   */\n          0x20\n            /* \"#utility.yul\":12126:12135   */\n          dup6\n            /* \"#utility.yul\":12122:12140   */\n          add\n            /* \"#utility.yul\":12109:12140   */\n          swap5\n          pop\n            /* \"#utility.yul\":11983:11987   */\n          0x20\n            /* \"#utility.yul\":11980:11981   */\n          dup2\n            /* \"#utility.yul\":11976:11988   */\n          add\n            /* \"#utility.yul\":11971:11988   */\n          swap1\n          pop\n            /* \"#utility.yul\":11946:12154   */\n          jump(tag_193)\n        tag_195:\n            /* \"#utility.yul\":12182:12188   */\n          dup7\n            /* \"#utility.yul\":12173:12180   */\n          dup4\n            /* \"#utility.yul\":12170:12189   */\n          lt\n            /* \"#utility.yul\":12167:12346   */\n          iszero\n          tag_196\n          jumpi\n            /* \"#utility.yul\":12240:12249   */\n          dup5\n            /* \"#utility.yul\":12235:12238   */\n          dup10\n            /* \"#utility.yul\":12231:12250   */\n          add\n            /* \"#utility.yul\":12225:12251   */\n          mload\n            /* \"#utility.yul\":12283:12331   */\n          tag_197\n            /* \"#utility.yul\":12325:12329   */\n          0x1f\n            /* \"#utility.yul\":12317:12323   */\n          dup10\n            /* \"#utility.yul\":12313:12330   */\n          and\n            /* \"#utility.yul\":12302:12311   */\n          dup3\n            /* \"#utility.yul\":12283:12331   */\n          tag_57\n          jump\t// in\n        tag_197:\n            /* \"#utility.yul\":12275:12281   */\n          dup4\n            /* \"#utility.yul\":12268:12332   */\n          sstore\n            /* \"#utility.yul\":12190:12346   */\n          pop\n            /* \"#utility.yul\":12167:12346   */\n        tag_196:\n            /* \"#utility.yul\":12392:12393   */\n          0x01\n            /* \"#utility.yul\":12388:12389   */\n          0x02\n            /* \"#utility.yul\":12380:12386   */\n          dup9\n            /* \"#utility.yul\":12376:12390   */\n          mul\n            /* \"#utility.yul\":12372:12394   */\n          add\n            /* \"#utility.yul\":12366:12370   */\n          dup9\n            /* \"#utility.yul\":12359:12395   */\n          sstore\n            /* \"#utility.yul\":11794:12405   */\n          pop\n          pop\n          pop\n            /* \"#utility.yul\":11757:12644   */\n        tag_188:\n          pop\n            /* \"#utility.yul\":11347:12650   */\n          pop\n          pop\n          pop\n            /* \"#utility.yul\":11255:12650   */\n          pop\n          pop\n          jump\t// out\n            /* \"#utility.yul\":12656:12836   */\n        tag_14:\n            /* \"#utility.yul\":12704:12781   */\n          0x4e487b7100000000000000000000000000000000000000000000000000000000\n            /* \"#utility.yul\":12701:12702   */\n          0x00\n            /* \"#utility.yul\":12694:12782   */\n          mstore\n            /* \"#utility.yul\":12801:12805   */\n          0x32\n            /* \"#utility.yul\":12798:12799   */\n          0x04\n            /* \"#utility.yul\":12791:12806   */\n          mstore\n            /* \"#utility.yul\":12825:12829   */\n          0x24\n            /* \"#utility.yul\":12822:12823   */\n          0x00\n            /* \"#utility.yul\":12815:12830   */\n          revert\n            /* \"contracts/contracts/Fundraiser.sol\":89:2095  contract Fundraiser {... */\n        tag_17:\n          dataSize(sub_0)\n          dup1\n          dataOffset(sub_0)\n          0x00\n          codecopy\n          0x00\n          return\n        stop\n\n        sub_0: assembly {\n                /* \"contracts/contracts/Fundraiser.sol\":89:2095  contract Fundraiser {... */\n              mstore(0x40, 0x80)\n              jumpi(tag_1, lt(calldatasize, 0x04))\n              shr(0xe0, calldataload(0x00))\n              dup1\n              0x953b8fb8\n              gt\n              tag_14\n              jumpi\n              dup1\n              0x953b8fb8\n              eq\n              tag_8\n              jumpi\n              dup1\n              0xbfb231d2\n              eq\n              tag_9\n              jumpi\n              dup1\n              0xc59ee1dc\n              eq\n              tag_10\n              jumpi\n              dup1\n              0xcc6cb19a\n              eq\n              tag_11\n              jumpi\n              dup1\n              0xed88c68e\n              eq\n              tag_12\n              jumpi\n              dup1\n              0xffdd5cf1\n              eq\n              tag_13\n              jumpi\n              jump(tag_1)\n            tag_14:\n              dup1\n              0x06fdde03\n              eq\n              tag_2\n              jumpi\n              dup1\n              0x3129e773\n              eq\n              tag_3\n              jumpi\n              dup1\n              0x3ccfd60b\n              eq\n              tag_4\n              jumpi\n              dup1\n              0x5958611e\n              eq\n              tag_5\n              jumpi\n              dup1\n              0x7284e416\n              eq\n              tag_6\n              jumpi\n              dup1\n              0x8da5cb5b\n              eq\n              tag_7\n              jumpi\n            tag_1:\n              0x00\n              dup1\n              revert\n                /* \"contracts/contracts/Fundraiser.sol\":192:210  string public name */\n            tag_2:\n              callvalue\n              dup1\n              iszero\n              tag_15\n              jumpi\n              0x00\n              dup1\n              revert\n            tag_15:\n              pop\n              tag_16\n              tag_17\n              jump\t// in\n            tag_16:\n              mload(0x40)\n              tag_18\n              swap2\n              swap1\n              tag_19\n              jump\t// in\n            tag_18:\n              mload(0x40)\n              dup1\n              swap2\n              sub\n              swap1\n              return\n                /* \"contracts/contracts/Fundraiser.sol\":1913:2093  function getItem(uint index) public view returns (FundraisingLib.Item memory) {... */\n            tag_3:\n              callvalue\n              dup1\n              iszero\n              tag_20\n              jumpi\n              0x00\n              dup1\n              revert\n            tag_20:\n              pop\n              tag_21\n              0x04\n              dup1\n              calldatasize\n              sub\n              dup2\n              add\n              swap1\n              tag_22\n              swap2\n              swap1\n              tag_23\n              jump\t// in\n            tag_22:\n              tag_24\n              jump\t// in\n            tag_21:\n              mload(0x40)\n              tag_25\n              swap2\n              swap1\n              tag_26\n              jump\t// in\n            tag_25:\n              mload(0x40)\n              dup1\n              swap2\n              sub\n              swap1\n              return\n                /* \"contracts/contracts/Fundraiser.sol\":1331:1682  function withdraw() external {... */\n            tag_4:\n              callvalue\n              dup1\n              iszero\n              tag_27\n              jumpi\n              0x00\n              dup1\n              revert\n            tag_27:\n              pop\n              tag_28\n              tag_29\n              jump\t// in\n            tag_28:\n              stop\n                /* \"contracts/contracts/Fundraiser.sol\":249:274  uint256 public finishTime */\n            tag_5:\n              callvalue\n              dup1\n              iszero\n              tag_30\n              jumpi\n              0x00\n              dup1\n              revert\n            tag_30:\n              pop\n              tag_31\n              tag_32\n              jump\t// in\n            tag_31:\n              mload(0x40)\n              tag_33\n              swap2\n              swap1\n              tag_34\n              jump\t// in\n            tag_33:\n              mload(0x40)\n              dup1\n              swap2\n              sub\n              swap1\n              return\n                /* \"contracts/contracts/Fundraiser.sol\":280:305  string public description */\n            tag_6:\n              callvalue\n              dup1\n              iszero\n              tag_35\n              jumpi\n              0x00\n              dup1\n              revert\n            tag_35:\n              pop\n              tag_36\n              tag_37\n              jump\t// in\n            tag_36:\n              mload(0x40)\n              tag_38\n              swap2\n              swap1\n              tag_19\n              jump\t// in\n            tag_38:\n              mload(0x40)\n              dup1\n              swap2\n              sub\n              swap1\n              return\n                /* \"contracts/contracts/Fundraiser.sol\":166:186  address public owner */\n            tag_7:\n              callvalue\n              dup1\n              iszero\n              tag_39\n              jumpi\n              0x00\n              dup1\n              revert\n            tag_39:\n              pop\n              tag_40\n              tag_41\n              jump\t// in\n            tag_40:\n              mload(0x40)\n              tag_42\n              swap2\n              swap1\n              tag_43\n              jump\t// in\n            tag_42:\n              mload(0x40)\n              dup1\n              swap2\n              sub\n              swap1\n              return\n                /* \"contracts/contracts/Fundraiser.sol\":216:243  uint256 public targetAmount */\n            tag_8:\n              callvalue\n              dup1\n              iszero\n              tag_44\n              jumpi\n              0x00\n              dup1\n              revert\n            tag_44:\n              pop\n              tag_45\n              tag_46\n              jump\t// in\n            tag_45:\n              mload(0x40)\n              tag_47\n              swap2\n              swap1\n              tag_34\n              jump\t// in\n            tag_47:\n              mload(0x40)\n              dup1\n              swap2\n              sub\n              swap1\n              return\n                /* \"contracts/contracts/Fundraiser.sol\":312:346  FundraisingLib.Item[] public items */\n            tag_9:\n              callvalue\n              dup1\n              iszero\n              tag_48\n              jumpi\n              0x00\n              dup1\n              revert\n            tag_48:\n              pop\n              tag_49\n              0x04\n              dup1\n              calldatasize\n              sub\n              dup2\n              add\n              swap1\n              tag_50\n              swap2\n              swap1\n              tag_23\n              jump\t// in\n            tag_50:\n              tag_51\n              jump\t// in\n            tag_49:\n              mload(0x40)\n              tag_52\n              swap4\n              swap3\n              swap2\n              swap1\n              tag_53\n              jump\t// in\n            tag_52:\n              mload(0x40)\n              dup1\n              swap2\n              sub\n              swap1\n              return\n                /* \"contracts/contracts/Fundraiser.sol\":390:421  uint256 public raisedAmount = 0 */\n            tag_10:\n              callvalue\n              dup1\n              iszero\n              tag_54\n              jumpi\n              0x00\n              dup1\n              revert\n            tag_54:\n              pop\n              tag_55\n              tag_56\n              jump\t// in\n            tag_55:\n              mload(0x40)\n              tag_57\n              swap2\n              swap1\n              tag_34\n              jump\t// in\n            tag_57:\n              mload(0x40)\n              dup1\n              swap2\n              sub\n              swap1\n              return\n                /* \"contracts/contracts/Fundraiser.sol\":427:471  mapping(address => uint256) public donations */\n            tag_11:\n              callvalue\n              dup1\n              iszero\n              tag_58\n              jumpi\n              0x00\n              dup1\n              revert\n            tag_58:\n              pop\n              tag_59\n              0x04\n              dup1\n              calldatasize\n              sub\n              dup2\n              add\n              swap1\n              tag_60\n              swap2\n              swap1\n              tag_61\n              jump\t// in\n            tag_60:\n              tag_62\n              jump\t// in\n            tag_59:\n              mload(0x40)\n              tag_63\n              swap2\n              swap1\n              tag_34\n              jump\t// in\n            tag_63:\n              mload(0x40)\n              dup1\n              swap2\n              sub\n              swap1\n              return\n                /* \"contracts/contracts/Fundraiser.sol\":1053:1325  function donate() external payable {... */\n            tag_12:\n              tag_64\n              tag_65\n              jump\t// in\n            tag_64:\n              stop\n                /* \"contracts/contracts/Fundraiser.sol\":1688:1850  function getInfo(address _address) public view returns (uint256) {... */\n            tag_13:\n              callvalue\n              dup1\n              iszero\n              tag_66\n              jumpi\n              0x00\n              dup1\n              revert\n            tag_66:\n              pop\n              tag_67\n              0x04\n              dup1\n              calldatasize\n              sub\n              dup2\n              add\n              swap1\n              tag_68\n              swap2\n              swap1\n              tag_61\n              jump\t// in\n            tag_68:\n              tag_69\n              jump\t// in\n            tag_67:\n              mload(0x40)\n              tag_70\n              swap2\n              swap1\n              tag_34\n              jump\t// in\n            tag_70:\n              mload(0x40)\n              dup1\n              swap2\n              sub\n              swap1\n              return\n                /* \"contracts/contracts/Fundraiser.sol\":192:210  string public name */\n            tag_17:\n              0x01\n              dup1\n              sload\n              tag_71\n              swap1\n              tag_72\n              jump\t// in\n            tag_71:\n              dup1\n              0x1f\n              add\n              0x20\n              dup1\n              swap2\n              div\n              mul\n              0x20\n              add\n              mload(0x40)\n              swap1\n              dup2\n              add\n              0x40\n              mstore\n              dup1\n              swap3\n              swap2\n              swap1\n              dup2\n              dup2\n              mstore\n              0x20\n              add\n              dup3\n              dup1\n              sload\n              tag_73\n              swap1\n              tag_72\n              jump\t// in\n            tag_73:\n              dup1\n              iszero\n              tag_74\n              jumpi\n              dup1\n              0x1f\n              lt\n              tag_75\n              jumpi\n              0x0100\n              dup1\n              dup4\n              sload\n              div\n              mul\n              dup4\n              mstore\n              swap2\n              0x20\n              add\n              swap2\n              jump(tag_74)\n            tag_75:\n              dup3\n              add\n              swap2\n              swap1\n              0x00\n              mstore\n              keccak256(0x00, 0x20)\n              swap1\n            tag_76:\n              dup2\n              sload\n              dup2\n              mstore\n              swap1\n              0x01\n              add\n              swap1\n              0x20\n              add\n              dup1\n              dup4\n              gt\n              tag_76\n              jumpi\n              dup3\n              swap1\n              sub\n              0x1f\n              and\n              dup3\n              add\n              swap2\n            tag_74:\n              pop\n              pop\n              pop\n              pop\n              pop\n              dup2\n              jump\t// out\n                /* \"contracts/contracts/Fundraiser.sol\":1913:2093  function getItem(uint index) public view returns (FundraisingLib.Item memory) {... */\n            tag_24:\n                /* \"contracts/contracts/Fundraiser.sol\":1963:1989  FundraisingLib.Item memory */\n              tag_77\n              tag_78\n              jump\t// in\n            tag_77:\n                /* \"contracts/contracts/Fundraiser.sol\":2017:2022  items */\n              0x05\n                /* \"contracts/contracts/Fundraiser.sol\":2017:2029  items.length */\n              dup1\n              sload\n              swap1\n              pop\n                /* \"contracts/contracts/Fundraiser.sol\":2009:2014  index */\n              dup3\n                /* \"contracts/contracts/Fundraiser.sol\":2009:2029  index < items.length */\n              lt\n                /* \"contracts/contracts/Fundraiser.sol\":2001:2057  require(index < items.length, \"Item index out of range\") */\n              tag_80\n              jumpi\n              mload(0x40)\n              0x08c379a000000000000000000000000000000000000000000000000000000000\n              dup2\n              mstore\n              0x04\n              add\n              tag_81\n              swap1\n              tag_82\n              jump\t// in\n            tag_81:\n              mload(0x40)\n              dup1\n              swap2\n              sub\n              swap1\n              revert\n            tag_80:\n                /* \"contracts/contracts/Fundraiser.sol\":2074:2079  items */\n              0x05\n                /* \"contracts/contracts/Fundraiser.sol\":2080:2085  index */\n              dup3\n                /* \"contracts/contracts/Fundraiser.sol\":2074:2086  items[index] */\n              dup2\n              sload\n              dup2\n              lt\n              tag_83\n              jumpi\n              tag_84\n              tag_85\n              jump\t// in\n            tag_84:\n            tag_83:\n              swap1\n              0x00\n              mstore\n              keccak256(0x00, 0x20)\n              swap1\n              0x03\n              mul\n              add\n                /* \"contracts/contracts/Fundraiser.sol\":2067:2086  return items[index] */\n              mload(0x40)\n              dup1\n              0x60\n              add\n              0x40\n              mstore\n              swap1\n              dup2\n              0x00\n              dup3\n              add\n              dup1\n              sload\n              tag_87\n              swap1\n              tag_72\n              jump\t// in\n            tag_87:\n              dup1\n              0x1f\n              add\n              0x20\n              dup1\n              swap2\n              div\n              mul\n              0x20\n              add\n              mload(0x40)\n              swap1\n              dup2\n              add\n              0x40\n              mstore\n              dup1\n              swap3\n              swap2\n              swap1\n              dup2\n              dup2\n              mstore\n              0x20\n              add\n              dup3\n              dup1\n              sload\n              tag_88\n              swap1\n              tag_72\n              jump\t// in\n            tag_88:\n              dup1\n              iszero\n              tag_89\n              jumpi\n              dup1\n              0x1f\n              lt\n              tag_90\n              jumpi\n              0x0100\n              dup1\n              dup4\n              sload\n              div\n              mul\n              dup4\n              mstore\n              swap2\n              0x20\n              add\n              swap2\n              jump(tag_89)\n            tag_90:\n              dup3\n              add\n              swap2\n              swap1\n              0x00\n              mstore\n              keccak256(0x00, 0x20)\n              swap1\n            tag_91:\n              dup2\n              sload\n              dup2\n              mstore\n              swap1\n              0x01\n              add\n              swap1\n              0x20\n              add\n              dup1\n              dup4\n              gt\n              tag_91\n              jumpi\n              dup3\n              swap1\n              sub\n              0x1f\n              and\n              dup3\n              add\n              swap2\n            tag_89:\n              pop\n              pop\n              pop\n              pop\n              pop\n              dup2\n              mstore\n              0x20\n              add\n              0x01\n              dup3\n              add\n              sload\n              dup2\n              mstore\n              0x20\n              add\n              0x02\n              dup3\n              add\n              sload\n              dup2\n              mstore\n              pop\n              pop\n              swap1\n              pop\n                /* \"contracts/contracts/Fundraiser.sol\":1913:2093  function getItem(uint index) public view returns (FundraisingLib.Item memory) {... */\n              swap2\n              swap1\n              pop\n              jump\t// out\n                /* \"contracts/contracts/Fundraiser.sol\":1331:1682  function withdraw() external {... */\n            tag_29:\n                /* \"contracts/contracts/Fundraiser.sol\":1392:1397  owner */\n              0x00\n              dup1\n              sload\n              swap1\n              0x0100\n              exp\n              swap1\n              div\n              0xffffffffffffffffffffffffffffffffffffffff\n              and\n                /* \"contracts/contracts/Fundraiser.sol\":1378:1397  msg.sender == owner */\n              0xffffffffffffffffffffffffffffffffffffffff\n              and\n                /* \"contracts/contracts/Fundraiser.sol\":1378:1388  msg.sender */\n              caller\n                /* \"contracts/contracts/Fundraiser.sol\":1378:1397  msg.sender == owner */\n              0xffffffffffffffffffffffffffffffffffffffff\n              and\n              eq\n                /* \"contracts/contracts/Fundraiser.sol\":1370:1425  require(msg.sender == owner, \"Only owner can withdraw\") */\n              tag_93\n              jumpi\n              mload(0x40)\n              0x08c379a000000000000000000000000000000000000000000000000000000000\n              dup2\n              mstore\n              0x04\n              add\n              tag_94\n              swap1\n              tag_95\n              jump\t// in\n            tag_94:\n              mload(0x40)\n              dup1\n              swap2\n              sub\n              swap1\n              revert\n            tag_93:\n                /* \"contracts/contracts/Fundraiser.sol\":1458:1459  0 */\n              0x00\n                /* \"contracts/contracts/Fundraiser.sol\":1443:1455  raisedAmount */\n              sload(0x06)\n                /* \"contracts/contracts/Fundraiser.sol\":1443:1459  raisedAmount > 0 */\n              gt\n                /* \"contracts/contracts/Fundraiser.sol\":1435:1484  require(raisedAmount > 0, \"No funds to withdraw\") */\n              tag_96\n              jumpi\n              mload(0x40)\n              0x08c379a000000000000000000000000000000000000000000000000000000000\n              dup2\n              mstore\n              0x04\n              add\n              tag_97\n              swap1\n              tag_98\n              jump\t// in\n            tag_97:\n              mload(0x40)\n              dup1\n              swap2\n              sub\n              swap1\n              revert\n            tag_96:\n                /* \"contracts/contracts/Fundraiser.sol\":1503:1517  uint256 amount */\n              0x00\n                /* \"contracts/contracts/Fundraiser.sol\":1520:1532  raisedAmount */\n              sload(0x06)\n                /* \"contracts/contracts/Fundraiser.sol\":1503:1532  uint256 amount = raisedAmount */\n              swap1\n              pop\n                /* \"contracts/contracts/Fundraiser.sol\":1557:1558  0 */\n              0x00\n                /* \"contracts/contracts/Fundraiser.sol\":1542:1554  raisedAmount */\n              0x06\n                /* \"contracts/contracts/Fundraiser.sol\":1542:1558  raisedAmount = 0 */\n              dup2\n              swap1\n              sstore\n              pop\n                /* \"contracts/contracts/Fundraiser.sol\":1578:1590  bool success */\n              0x00\n                /* \"contracts/contracts/Fundraiser.sol\":1596:1601  owner */\n              dup1\n              0x00\n              swap1\n              sload\n              swap1\n              0x0100\n              exp\n              swap1\n              div\n              0xffffffffffffffffffffffffffffffffffffffff\n              and\n                /* \"contracts/contracts/Fundraiser.sol\":1596:1606  owner.call */\n              0xffffffffffffffffffffffffffffffffffffffff\n              and\n                /* \"contracts/contracts/Fundraiser.sol\":1614:1620  amount */\n              dup3\n                /* \"contracts/contracts/Fundraiser.sol\":1596:1625  owner.call{value: amount}(\"\") */\n              mload(0x40)\n              tag_99\n              swap1\n              tag_100\n              jump\t// in\n            tag_99:\n              0x00\n              mload(0x40)\n              dup1\n              dup4\n              sub\n              dup2\n              dup6\n              dup8\n              gas\n              call\n              swap3\n              pop\n              pop\n              pop\n              returndatasize\n              dup1\n              0x00\n              dup2\n              eq\n              tag_103\n              jumpi\n              mload(0x40)\n              swap2\n              pop\n              and(add(returndatasize, 0x3f), not(0x1f))\n              dup3\n              add\n              0x40\n              mstore\n              returndatasize\n              dup3\n              mstore\n              returndatasize\n              0x00\n              0x20\n              dup5\n              add\n              returndatacopy\n              jump(tag_102)\n            tag_103:\n              0x60\n              swap2\n              pop\n            tag_102:\n              pop\n                /* \"contracts/contracts/Fundraiser.sol\":1577:1625  (bool success, ) = owner.call{value: amount}(\"\") */\n              pop\n              swap1\n              pop\n                /* \"contracts/contracts/Fundraiser.sol\":1643:1650  success */\n              dup1\n                /* \"contracts/contracts/Fundraiser.sol\":1635:1675  require(success, \"Failed to send money\") */\n              tag_104\n              jumpi\n              mload(0x40)\n              0x08c379a000000000000000000000000000000000000000000000000000000000\n              dup2\n              mstore\n              0x04\n              add\n              tag_105\n              swap1\n              tag_106\n              jump\t// in\n            tag_105:\n              mload(0x40)\n              dup1\n              swap2\n              sub\n              swap1\n              revert\n            tag_104:\n                /* \"contracts/contracts/Fundraiser.sol\":1360:1682  {... */\n              pop\n              pop\n                /* \"contracts/contracts/Fundraiser.sol\":1331:1682  function withdraw() external {... */\n              jump\t// out\n                /* \"contracts/contracts/Fundraiser.sol\":249:274  uint256 public finishTime */\n            tag_32:\n              sload(0x03)\n              dup2\n              jump\t// out\n                /* \"contracts/contracts/Fundraiser.sol\":280:305  string public description */\n            tag_37:\n              0x04\n              dup1\n              sload\n              tag_107\n              swap1\n              tag_72\n              jump\t// in\n            tag_107:\n              dup1\n              0x1f\n              add\n              0x20\n              dup1\n              swap2\n              div\n              mul\n              0x20\n              add\n              mload(0x40)\n              swap1\n              dup2\n              add\n              0x40\n              mstore\n              dup1\n              swap3\n              swap2\n              swap1\n              dup2\n              dup2\n              mstore\n              0x20\n              add\n              dup3\n              dup1\n              sload\n              tag_108\n              swap1\n              tag_72\n              jump\t// in\n            tag_108:\n              dup1\n              iszero\n              tag_109\n              jumpi\n              dup1\n              0x1f\n              lt\n              tag_110\n              jumpi\n              0x0100\n              dup1\n              dup4\n              sload\n              div\n              mul\n              dup4\n              mstore\n              swap2\n              0x20\n              add\n              swap2\n              jump(tag_109)\n            tag_110:\n              dup3\n              add\n              swap2\n              swap1\n              0x00\n              mstore\n              keccak256(0x00, 0x20)\n              swap1\n            tag_111:\n              dup2\n              sload\n              dup2\n              mstore\n              swap1\n              0x01\n              add\n              swap1\n              0x20\n              add\n              dup1\n              dup4\n              gt\n              tag_111\n              jumpi\n              dup3\n              swap1\n              sub\n              0x1f\n              and\n              dup3\n              add\n              swap2\n            tag_109:\n              pop\n              pop\n              pop\n              pop\n              pop\n              dup2\n              jump\t// out\n                /* \"contracts/contracts/Fundraiser.sol\":166:186  address public owner */\n            tag_41:\n              0x00\n              dup1\n              sload\n              swap1\n              0x0100\n              exp\n              swap1\n              div\n              0xffffffffffffffffffffffffffffffffffffffff\n              and\n              dup2\n              jump\t// out\n                /* \"contracts/contracts/Fundraiser.sol\":216:243  uint256 public targetAmount */\n            tag_46:\n              sload(0x02)\n              dup2\n              jump\t// out\n                /* \"contracts/contracts/Fundraiser.sol\":312:346  FundraisingLib.Item[] public items */\n            tag_51:\n              0x05\n              dup2\n              dup2\n              sload\n              dup2\n              lt\n              tag_112\n              jumpi\n              0x00\n              dup1\n              revert\n            tag_112:\n              swap1\n              0x00\n              mstore\n              keccak256(0x00, 0x20)\n              swap1\n              0x03\n              mul\n              add\n              0x00\n              swap2\n              pop\n              swap1\n              pop\n              dup1\n              0x00\n              add\n              dup1\n              sload\n              tag_114\n              swap1\n              tag_72\n              jump\t// in\n            tag_114:\n              dup1\n              0x1f\n              add\n              0x20\n              dup1\n              swap2\n              div\n              mul\n              0x20\n              add\n              mload(0x40)\n              swap1\n              dup2\n              add\n              0x40\n              mstore\n              dup1\n              swap3\n              swap2\n              swap1\n              dup2\n              dup2\n              mstore\n              0x20\n              add\n              dup3\n              dup1\n              sload\n              tag_115\n              swap1\n              tag_72\n              jump\t// in\n            tag_115:\n              dup1\n              iszero\n              tag_116\n              jumpi\n              dup1\n              0x1f\n              lt\n              tag_117\n              jumpi\n              0x0100\n              dup1\n              dup4\n              sload\n              div\n              mul\n              dup4\n              mstore\n              swap2\n              0x20\n              add\n              swap2\n              jump(tag_116)\n            tag_117:\n              dup3\n              add\n              swap2\n              swap1\n              0x00\n              mstore\n              keccak256(0x00, 0x20)\n              swap1\n            tag_118:\n              dup2\n              sload\n              dup2\n              mstore\n              swap1\n              0x01\n              add\n              swap1\n              0x20\n              add\n              dup1\n              dup4\n              gt\n              tag_118\n              jumpi\n              dup3\n              swap1\n              sub\n              0x1f\n              and\n              dup3\n              add\n              swap2\n            tag_116:\n              pop\n              pop\n              pop\n              pop\n              pop\n              swap1\n              dup1\n              0x01\n              add\n              sload\n              swap1\n              dup1\n              0x02\n              add\n              sload\n              swap1\n              pop\n              dup4\n              jump\t// out\n                /* \"contracts/contracts/Fundraiser.sol\":390:421  uint256 public raisedAmount = 0 */\n            tag_56:\n              sload(0x06)\n              dup2\n              jump\t// out\n                /* \"contracts/contracts/Fundraiser.sol\":427:471  mapping(address => uint256) public donations */\n            tag_62:\n              mstore(0x20, 0x07)\n              dup1\n              0x00\n              mstore\n              keccak256(0x00, 0x40)\n              0x00\n              swap2\n              pop\n              swap1\n              pop\n              sload\n              dup2\n              jump\t// out\n                /* \"contracts/contracts/Fundraiser.sol\":1053:1325  function donate() external payable {... */\n            tag_65:\n                /* \"contracts/contracts/Fundraiser.sol\":1124:1134  finishTime */\n              sload(0x03)\n                /* \"contracts/contracts/Fundraiser.sol\":1106:1121  block.timestamp */\n              timestamp\n                /* \"contracts/contracts/Fundraiser.sol\":1106:1134  block.timestamp < finishTime */\n              lt\n                /* \"contracts/contracts/Fundraiser.sol\":1098:1163  require(block.timestamp < finishTime, \"This fundraising is over\") */\n              tag_120\n              jumpi\n              mload(0x40)\n              0x08c379a000000000000000000000000000000000000000000000000000000000\n              dup2\n              mstore\n              0x04\n              add\n              tag_121\n              swap1\n              tag_122\n              jump\t// in\n            tag_121:\n              mload(0x40)\n              dup1\n              swap2\n              sub\n              swap1\n              revert\n            tag_120:\n                /* \"contracts/contracts/Fundraiser.sol\":1193:1194  0 */\n              0x00\n                /* \"contracts/contracts/Fundraiser.sol\":1181:1190  msg.value */\n              callvalue\n                /* \"contracts/contracts/Fundraiser.sol\":1181:1194  msg.value > 0 */\n              gt\n                /* \"contracts/contracts/Fundraiser.sol\":1173:1230  require(msg.value > 0, \"Donation must be greater than 0\") */\n              tag_123\n              jumpi\n              mload(0x40)\n              0x08c379a000000000000000000000000000000000000000000000000000000000\n              dup2\n              mstore\n              0x04\n              add\n              tag_124\n              swap1\n              tag_125\n              jump\t// in\n            tag_124:\n              mload(0x40)\n              dup1\n              swap2\n              sub\n              swap1\n              revert\n            tag_123:\n                /* \"contracts/contracts/Fundraiser.sol\":1274:1283  msg.value */\n              callvalue\n                /* \"contracts/contracts/Fundraiser.sol\":1249:1258  donations */\n              0x07\n                /* \"contracts/contracts/Fundraiser.sol\":1249:1270  donations[msg.sender] */\n              0x00\n                /* \"contracts/contracts/Fundraiser.sol\":1259:1269  msg.sender */\n              caller\n                /* \"contracts/contracts/Fundraiser.sol\":1249:1270  donations[msg.sender] */\n              0xffffffffffffffffffffffffffffffffffffffff\n              and\n              0xffffffffffffffffffffffffffffffffffffffff\n              and\n              dup2\n              mstore\n              0x20\n              add\n              swap1\n              dup2\n              mstore\n              0x20\n              add\n              0x00\n              keccak256\n              0x00\n                /* \"contracts/contracts/Fundraiser.sol\":1249:1283  donations[msg.sender] += msg.value */\n              dup3\n              dup3\n              sload\n              tag_126\n              swap2\n              swap1\n              tag_127\n              jump\t// in\n            tag_126:\n              swap3\n              pop\n              pop\n              dup2\n              swap1\n              sstore\n              pop\n                /* \"contracts/contracts/Fundraiser.sol\":1309:1318  msg.value */\n              callvalue\n                /* \"contracts/contracts/Fundraiser.sol\":1293:1305  raisedAmount */\n              0x06\n              0x00\n                /* \"contracts/contracts/Fundraiser.sol\":1293:1318  raisedAmount += msg.value */\n              dup3\n              dup3\n              sload\n              tag_128\n              swap2\n              swap1\n              tag_127\n              jump\t// in\n            tag_128:\n              swap3\n              pop\n              pop\n              dup2\n              swap1\n              sstore\n              pop\n                /* \"contracts/contracts/Fundraiser.sol\":1053:1325  function donate() external payable {... */\n              jump\t// out\n                /* \"contracts/contracts/Fundraiser.sol\":1688:1850  function getInfo(address _address) public view returns (uint256) {... */\n            tag_69:\n                /* \"contracts/contracts/Fundraiser.sol\":1744:1751  uint256 */\n              0x00\n                /* \"contracts/contracts/Fundraiser.sol\":1793:1794  0 */\n              dup1\n                /* \"contracts/contracts/Fundraiser.sol\":1771:1780  donations */\n              0x07\n                /* \"contracts/contracts/Fundraiser.sol\":1771:1790  donations[_address] */\n              0x00\n                /* \"contracts/contracts/Fundraiser.sol\":1781:1789  _address */\n              dup5\n                /* \"contracts/contracts/Fundraiser.sol\":1771:1790  donations[_address] */\n              0xffffffffffffffffffffffffffffffffffffffff\n              and\n              0xffffffffffffffffffffffffffffffffffffffff\n              and\n              dup2\n              mstore\n              0x20\n              add\n              swap1\n              dup2\n              mstore\n              0x20\n              add\n              0x00\n              keccak256\n              sload\n                /* \"contracts/contracts/Fundraiser.sol\":1771:1794  donations[_address] > 0 */\n              gt\n                /* \"contracts/contracts/Fundraiser.sol\":1763:1806  require(donations[_address] > 0, \"No Data\") */\n              tag_130\n              jumpi\n              mload(0x40)\n              0x08c379a000000000000000000000000000000000000000000000000000000000\n              dup2\n              mstore\n              0x04\n              add\n              tag_131\n              swap1\n              tag_132\n              jump\t// in\n            tag_131:\n              mload(0x40)\n              dup1\n              swap2\n              sub\n              swap1\n              revert\n            tag_130:\n                /* \"contracts/contracts/Fundraiser.sol\":1824:1833  donations */\n              0x07\n                /* \"contracts/contracts/Fundraiser.sol\":1824:1843  donations[_address] */\n              0x00\n                /* \"contracts/contracts/Fundraiser.sol\":1834:1842  _address */\n              dup4\n                /* \"contracts/contracts/Fundraiser.sol\":1824:1843  donations[_address] */\n              0xffffffffffffffffffffffffffffffffffffffff\n              and\n              0xffffffffffffffffffffffffffffffffffffffff\n              and\n              dup2\n              mstore\n              0x20\n              add\n              swap1\n              dup2\n              mstore\n              0x20\n              add\n              0x00\n              keccak256\n              sload\n                /* \"contracts/contracts/Fundraiser.sol\":1817:1843  return donations[_address] */\n              swap1\n              pop\n                /* \"contracts/contracts/Fundraiser.sol\":1688:1850  function getInfo(address _address) public view returns (uint256) {... */\n              swap2\n              swap1\n              pop\n              jump\t// out\n            tag_78:\n              mload(0x40)\n              dup1\n              0x60\n              add\n              0x40\n              mstore\n              dup1\n              0x60\n              dup2\n              mstore\n              0x20\n              add\n              0x00\n              dup2\n              mstore\n              0x20\n              add\n              0x00\n              dup2\n              mstore\n              pop\n              swap1\n              jump\t// out\n                /* \"#utility.yul\":7:106   */\n            tag_133:\n                /* \"#utility.yul\":59:65   */\n              0x00\n                /* \"#utility.yul\":93:98   */\n              dup2\n                /* \"#utility.yul\":87:99   */\n              mload\n                /* \"#utility.yul\":77:99   */\n              swap1\n              pop\n                /* \"#utility.yul\":7:106   */\n              swap2\n              swap1\n              pop\n              jump\t// out\n                /* \"#utility.yul\":112:281   */\n            tag_134:\n                /* \"#utility.yul\":196:207   */\n              0x00\n                /* \"#utility.yul\":230:236   */\n              dup3\n                /* \"#utility.yul\":225:228   */\n              dup3\n                /* \"#utility.yul\":218:237   */\n              mstore\n                /* \"#utility.yul\":270:274   */\n              0x20\n                /* \"#utility.yul\":265:268   */\n              dup3\n                /* \"#utility.yul\":261:275   */\n              add\n                /* \"#utility.yul\":246:275   */\n              swap1\n              pop\n                /* \"#utility.yul\":112:281   */\n              swap3\n              swap2\n              pop\n              pop\n              jump\t// out\n                /* \"#utility.yul\":287:426   */\n            tag_135:\n                /* \"#utility.yul\":376:382   */\n              dup3\n                /* \"#utility.yul\":371:374   */\n              dup2\n                /* \"#utility.yul\":366:369   */\n              dup4\n                /* \"#utility.yul\":360:383   */\n              mcopy\n                /* \"#utility.yul\":417:418   */\n              0x00\n                /* \"#utility.yul\":408:414   */\n              dup4\n                /* \"#utility.yul\":403:406   */\n              dup4\n                /* \"#utility.yul\":399:415   */\n              add\n                /* \"#utility.yul\":392:419   */\n              mstore\n                /* \"#utility.yul\":287:426   */\n              pop\n              pop\n              pop\n              jump\t// out\n                /* \"#utility.yul\":432:534   */\n            tag_136:\n                /* \"#utility.yul\":473:479   */\n              0x00\n                /* \"#utility.yul\":524:526   */\n              0x1f\n                /* \"#utility.yul\":520:527   */\n              not\n                /* \"#utility.yul\":515:517   */\n              0x1f\n                /* \"#utility.yul\":508:513   */\n              dup4\n                /* \"#utility.yul\":504:518   */\n              add\n                /* \"#utility.yul\":500:528   */\n              and\n                /* \"#utility.yul\":490:528   */\n              swap1\n              pop\n                /* \"#utility.yul\":432:534   */\n              swap2\n              swap1\n              pop\n              jump\t// out\n                /* \"#utility.yul\":540:917   */\n            tag_137:\n                /* \"#utility.yul\":628:631   */\n              0x00\n                /* \"#utility.yul\":656:695   */\n              tag_179\n                /* \"#utility.yul\":689:694   */\n              dup3\n                /* \"#utility.yul\":656:695   */\n              tag_133\n              jump\t// in\n            tag_179:\n                /* \"#utility.yul\":711:782   */\n              tag_180\n                /* \"#utility.yul\":775:781   */\n              dup2\n                /* \"#utility.yul\":770:773   */\n              dup6\n                /* \"#utility.yul\":711:782   */\n              tag_134\n              jump\t// in\n            tag_180:\n                /* \"#utility.yul\":704:782   */\n              swap4\n              pop\n                /* \"#utility.yul\":791:856   */\n              tag_181\n                /* \"#utility.yul\":849:855   */\n              dup2\n                /* \"#utility.yul\":844:847   */\n              dup6\n                /* \"#utility.yul\":837:841   */\n              0x20\n                /* \"#utility.yul\":830:835   */\n              dup7\n                /* \"#utility.yul\":826:842   */\n              add\n                /* \"#utility.yul\":791:856   */\n              tag_135\n              jump\t// in\n            tag_181:\n                /* \"#utility.yul\":881:910   */\n              tag_182\n                /* \"#utility.yul\":903:909   */\n              dup2\n                /* \"#utility.yul\":881:910   */\n              tag_136\n              jump\t// in\n            tag_182:\n                /* \"#utility.yul\":876:879   */\n              dup5\n                /* \"#utility.yul\":872:911   */\n              add\n                /* \"#utility.yul\":865:911   */\n              swap2\n              pop\n                /* \"#utility.yul\":632:917   */\n              pop\n                /* \"#utility.yul\":540:917   */\n              swap3\n              swap2\n              pop\n              pop\n              jump\t// out\n                /* \"#utility.yul\":923:1236   */\n            tag_19:\n                /* \"#utility.yul\":1036:1040   */\n              0x00\n                /* \"#utility.yul\":1074:1076   */\n              0x20\n                /* \"#utility.yul\":1063:1072   */\n              dup3\n                /* \"#utility.yul\":1059:1077   */\n              add\n                /* \"#utility.yul\":1051:1077   */\n              swap1\n              pop\n                /* \"#utility.yul\":1123:1132   */\n              dup2\n                /* \"#utility.yul\":1117:1121   */\n              dup2\n                /* \"#utility.yul\":1113:1133   */\n              sub\n                /* \"#utility.yul\":1109:1110   */\n              0x00\n                /* \"#utility.yul\":1098:1107   */\n              dup4\n                /* \"#utility.yul\":1094:1111   */\n              add\n                /* \"#utility.yul\":1087:1134   */\n              mstore\n                /* \"#utility.yul\":1151:1229   */\n              tag_184\n                /* \"#utility.yul\":1224:1228   */\n              dup2\n                /* \"#utility.yul\":1215:1221   */\n              dup5\n                /* \"#utility.yul\":1151:1229   */\n              tag_137\n              jump\t// in\n            tag_184:\n                /* \"#utility.yul\":1143:1229   */\n              swap1\n              pop\n                /* \"#utility.yul\":923:1236   */\n              swap3\n              swap2\n              pop\n              pop\n              jump\t// out\n                /* \"#utility.yul\":1323:1440   */\n            tag_139:\n                /* \"#utility.yul\":1432:1433   */\n              0x00\n                /* \"#utility.yul\":1429:1430   */\n              dup1\n                /* \"#utility.yul\":1422:1434   */\n              revert\n                /* \"#utility.yul\":1569:1646   */\n            tag_141:\n                /* \"#utility.yul\":1606:1613   */\n              0x00\n                /* \"#utility.yul\":1635:1640   */\n              dup2\n                /* \"#utility.yul\":1624:1640   */\n              swap1\n              pop\n                /* \"#utility.yul\":1569:1646   */\n              swap2\n              swap1\n              pop\n              jump\t// out\n                /* \"#utility.yul\":1652:1774   */\n            tag_142:\n                /* \"#utility.yul\":1725:1749   */\n              tag_190\n                /* \"#utility.yul\":1743:1748   */\n              dup2\n                /* \"#utility.yul\":1725:1749   */\n              tag_141\n              jump\t// in\n            tag_190:\n                /* \"#utility.yul\":1718:1723   */\n              dup2\n                /* \"#utility.yul\":1715:1750   */\n              eq\n                /* \"#utility.yul\":1705:1768   */\n              tag_191\n              jumpi\n                /* \"#utility.yul\":1764:1765   */\n              0x00\n                /* \"#utility.yul\":1761:1762   */\n              dup1\n                /* \"#utility.yul\":1754:1766   */\n              revert\n                /* \"#utility.yul\":1705:1768   */\n            tag_191:\n                /* \"#utility.yul\":1652:1774   */\n              pop\n              jump\t// out\n                /* \"#utility.yul\":1780:1919   */\n            tag_143:\n                /* \"#utility.yul\":1826:1831   */\n              0x00\n                /* \"#utility.yul\":1864:1870   */\n              dup2\n                /* \"#utility.yul\":1851:1871   */\n              calldataload\n                /* \"#utility.yul\":1842:1871   */\n              swap1\n              pop\n                /* \"#utility.yul\":1880:1913   */\n              tag_193\n                /* \"#utility.yul\":1907:1912   */\n              dup2\n                /* \"#utility.yul\":1880:1913   */\n              tag_142\n              jump\t// in\n            tag_193:\n                /* \"#utility.yul\":1780:1919   */\n              swap3\n              swap2\n              pop\n              pop\n              jump\t// out\n                /* \"#utility.yul\":1925:2254   */\n            tag_23:\n                /* \"#utility.yul\":1984:1990   */\n              0x00\n                /* \"#utility.yul\":2033:2035   */\n              0x20\n                /* \"#utility.yul\":2021:2030   */\n              dup3\n                /* \"#utility.yul\":2012:2019   */\n              dup5\n                /* \"#utility.yul\":2008:2031   */\n              sub\n                /* \"#utility.yul\":2004:2036   */\n              slt\n                /* \"#utility.yul\":2001:2120   */\n              iszero\n              tag_195\n              jumpi\n                /* \"#utility.yul\":2039:2118   */\n              tag_196\n              tag_139\n              jump\t// in\n            tag_196:\n                /* \"#utility.yul\":2001:2120   */\n            tag_195:\n                /* \"#utility.yul\":2159:2160   */\n              0x00\n                /* \"#utility.yul\":2184:2237   */\n              tag_197\n                /* \"#utility.yul\":2229:2236   */\n              dup5\n                /* \"#utility.yul\":2220:2226   */\n              dup3\n                /* \"#utility.yul\":2209:2218   */\n              dup6\n                /* \"#utility.yul\":2205:2227   */\n              add\n                /* \"#utility.yul\":2184:2237   */\n              tag_143\n              jump\t// in\n            tag_197:\n                /* \"#utility.yul\":2174:2237   */\n              swap2\n              pop\n                /* \"#utility.yul\":2130:2247   */\n              pop\n                /* \"#utility.yul\":1925:2254   */\n              swap3\n              swap2\n              pop\n              pop\n              jump\t// out\n                /* \"#utility.yul\":2260:2419   */\n            tag_144:\n                /* \"#utility.yul\":2334:2345   */\n              0x00\n                /* \"#utility.yul\":2368:2374   */\n              dup3\n                /* \"#utility.yul\":2363:2366   */\n              dup3\n                /* \"#utility.yul\":2356:2375   */\n              mstore\n                /* \"#utility.yul\":2408:2412   */\n              0x20\n                /* \"#utility.yul\":2403:2406   */\n              dup3\n                /* \"#utility.yul\":2399:2413   */\n              add\n                /* \"#utility.yul\":2384:2413   */\n              swap1\n              pop\n                /* \"#utility.yul\":2260:2419   */\n              swap3\n              swap2\n              pop\n              pop\n              jump\t// out\n                /* \"#utility.yul\":2425:2782   */\n            tag_145:\n                /* \"#utility.yul\":2503:2506   */\n              0x00\n                /* \"#utility.yul\":2531:2570   */\n              tag_200\n                /* \"#utility.yul\":2564:2569   */\n              dup3\n                /* \"#utility.yul\":2531:2570   */\n              tag_133\n              jump\t// in\n            tag_200:\n                /* \"#utility.yul\":2586:2647   */\n              tag_201\n                /* \"#utility.yul\":2640:2646   */\n              dup2\n                /* \"#utility.yul\":2635:2638   */\n              dup6\n                /* \"#utility.yul\":2586:2647   */\n              tag_144\n              jump\t// in\n            tag_201:\n                /* \"#utility.yul\":2579:2647   */\n              swap4\n              pop\n                /* \"#utility.yul\":2656:2721   */\n              tag_202\n                /* \"#utility.yul\":2714:2720   */\n              dup2\n                /* \"#utility.yul\":2709:2712   */\n              dup6\n                /* \"#utility.yul\":2702:2706   */\n              0x20\n                /* \"#utility.yul\":2695:2700   */\n              dup7\n                /* \"#utility.yul\":2691:2707   */\n              add\n                /* \"#utility.yul\":2656:2721   */\n              tag_135\n              jump\t// in\n            tag_202:\n                /* \"#utility.yul\":2746:2775   */\n              tag_203\n                /* \"#utility.yul\":2768:2774   */\n              dup2\n                /* \"#utility.yul\":2746:2775   */\n              tag_136\n              jump\t// in\n            tag_203:\n                /* \"#utility.yul\":2741:2744   */\n              dup5\n                /* \"#utility.yul\":2737:2776   */\n              add\n                /* \"#utility.yul\":2730:2776   */\n              swap2\n              pop\n                /* \"#utility.yul\":2507:2782   */\n              pop\n                /* \"#utility.yul\":2425:2782   */\n              swap3\n              swap2\n              pop\n              pop\n              jump\t// out\n                /* \"#utility.yul\":2788:2896   */\n            tag_146:\n                /* \"#utility.yul\":2865:2889   */\n              tag_205\n                /* \"#utility.yul\":2883:2888   */\n              dup2\n                /* \"#utility.yul\":2865:2889   */\n              tag_141\n              jump\t// in\n            tag_205:\n                /* \"#utility.yul\":2860:2863   */\n              dup3\n                /* \"#utility.yul\":2853:2890   */\n              mstore\n                /* \"#utility.yul\":2788:2896   */\n              pop\n              pop\n              jump\t// out\n                /* \"#utility.yul\":2966:3743   */\n            tag_147:\n                /* \"#utility.yul\":3077:3080   */\n              0x00\n                /* \"#utility.yul\":3113:3117   */\n              0x60\n                /* \"#utility.yul\":3108:3111   */\n              dup4\n                /* \"#utility.yul\":3104:3118   */\n              add\n                /* \"#utility.yul\":3200:3204   */\n              0x00\n                /* \"#utility.yul\":3193:3198   */\n              dup4\n                /* \"#utility.yul\":3189:3205   */\n              add\n                /* \"#utility.yul\":3183:3206   */\n              mload\n                /* \"#utility.yul\":3253:3256   */\n              dup5\n                /* \"#utility.yul\":3247:3251   */\n              dup3\n                /* \"#utility.yul\":3243:3257   */\n              sub\n                /* \"#utility.yul\":3236:3240   */\n              0x00\n                /* \"#utility.yul\":3231:3234   */\n              dup7\n                /* \"#utility.yul\":3227:3241   */\n              add\n                /* \"#utility.yul\":3220:3258   */\n              mstore\n                /* \"#utility.yul\":3279:3352   */\n              tag_207\n                /* \"#utility.yul\":3347:3351   */\n              dup3\n                /* \"#utility.yul\":3333:3345   */\n              dup3\n                /* \"#utility.yul\":3279:3352   */\n              tag_145\n              jump\t// in\n            tag_207:\n                /* \"#utility.yul\":3271:3352   */\n              swap2\n              pop\n                /* \"#utility.yul\":3128:3363   */\n              pop\n                /* \"#utility.yul\":3449:3453   */\n              0x20\n                /* \"#utility.yul\":3442:3447   */\n              dup4\n                /* \"#utility.yul\":3438:3454   */\n              add\n                /* \"#utility.yul\":3432:3455   */\n              mload\n                /* \"#utility.yul\":3468:3531   */\n              tag_208\n                /* \"#utility.yul\":3525:3529   */\n              0x20\n                /* \"#utility.yul\":3520:3523   */\n              dup7\n                /* \"#utility.yul\":3516:3530   */\n              add\n                /* \"#utility.yul\":3502:3514   */\n              dup3\n                /* \"#utility.yul\":3468:3531   */\n              tag_146\n              jump\t// in\n            tag_208:\n                /* \"#utility.yul\":3373:3541   */\n              pop\n                /* \"#utility.yul\":3624:3628   */\n              0x40\n                /* \"#utility.yul\":3617:3622   */\n              dup4\n                /* \"#utility.yul\":3613:3629   */\n              add\n                /* \"#utility.yul\":3607:3630   */\n              mload\n                /* \"#utility.yul\":3643:3706   */\n              tag_209\n                /* \"#utility.yul\":3700:3704   */\n              0x40\n                /* \"#utility.yul\":3695:3698   */\n              dup7\n                /* \"#utility.yul\":3691:3705   */\n              add\n                /* \"#utility.yul\":3677:3689   */\n              dup3\n                /* \"#utility.yul\":3643:3706   */\n              tag_146\n              jump\t// in\n            tag_209:\n                /* \"#utility.yul\":3551:3716   */\n              pop\n                /* \"#utility.yul\":3733:3737   */\n              dup1\n                /* \"#utility.yul\":3726:3737   */\n              swap2\n              pop\n                /* \"#utility.yul\":3082:3743   */\n              pop\n                /* \"#utility.yul\":2966:3743   */\n              swap3\n              swap2\n              pop\n              pop\n              jump\t// out\n                /* \"#utility.yul\":3749:4106   */\n            tag_26:\n                /* \"#utility.yul\":3884:3888   */\n              0x00\n                /* \"#utility.yul\":3922:3924   */\n              0x20\n                /* \"#utility.yul\":3911:3920   */\n              dup3\n                /* \"#utility.yul\":3907:3925   */\n              add\n                /* \"#utility.yul\":3899:3925   */\n              swap1\n              pop\n                /* \"#utility.yul\":3971:3980   */\n              dup2\n                /* \"#utility.yul\":3965:3969   */\n              dup2\n                /* \"#utility.yul\":3961:3981   */\n              sub\n                /* \"#utility.yul\":3957:3958   */\n              0x00\n                /* \"#utility.yul\":3946:3955   */\n              dup4\n                /* \"#utility.yul\":3942:3959   */\n              add\n                /* \"#utility.yul\":3935:3982   */\n              mstore\n                /* \"#utility.yul\":3999:4099   */\n              tag_211\n                /* \"#utility.yul\":4094:4098   */\n              dup2\n                /* \"#utility.yul\":4085:4091   */\n              dup5\n                /* \"#utility.yul\":3999:4099   */\n              tag_147\n              jump\t// in\n            tag_211:\n                /* \"#utility.yul\":3991:4099   */\n              swap1\n              pop\n                /* \"#utility.yul\":3749:4106   */\n              swap3\n              swap2\n              pop\n              pop\n              jump\t// out\n                /* \"#utility.yul\":4112:4230   */\n            tag_148:\n                /* \"#utility.yul\":4199:4223   */\n              tag_213\n                /* \"#utility.yul\":4217:4222   */\n              dup2\n                /* \"#utility.yul\":4199:4223   */\n              tag_141\n              jump\t// in\n            tag_213:\n                /* \"#utility.yul\":4194:4197   */\n              dup3\n                /* \"#utility.yul\":4187:4224   */\n              mstore\n                /* \"#utility.yul\":4112:4230   */\n              pop\n              pop\n              jump\t// out\n                /* \"#utility.yul\":4236:4458   */\n            tag_34:\n                /* \"#utility.yul\":4329:4333   */\n              0x00\n                /* \"#utility.yul\":4367:4369   */\n              0x20\n                /* \"#utility.yul\":4356:4365   */\n              dup3\n                /* \"#utility.yul\":4352:4370   */\n              add\n                /* \"#utility.yul\":4344:4370   */\n              swap1\n              pop\n                /* \"#utility.yul\":4380:4451   */\n              tag_215\n                /* \"#utility.yul\":4448:4449   */\n              0x00\n                /* \"#utility.yul\":4437:4446   */\n              dup4\n                /* \"#utility.yul\":4433:4450   */\n              add\n                /* \"#utility.yul\":4424:4430   */\n              dup5\n                /* \"#utility.yul\":4380:4451   */\n              tag_148\n              jump\t// in\n            tag_215:\n                /* \"#utility.yul\":4236:4458   */\n              swap3\n              swap2\n              pop\n              pop\n              jump\t// out\n                /* \"#utility.yul\":4464:4590   */\n            tag_149:\n                /* \"#utility.yul\":4501:4508   */\n              0x00\n                /* \"#utility.yul\":4541:4583   */\n              0xffffffffffffffffffffffffffffffffffffffff\n                /* \"#utility.yul\":4534:4539   */\n              dup3\n                /* \"#utility.yul\":4530:4584   */\n              and\n                /* \"#utility.yul\":4519:4584   */\n              swap1\n              pop\n                /* \"#utility.yul\":4464:4590   */\n              swap2\n              swap1\n              pop\n              jump\t// out\n                /* \"#utility.yul\":4596:4692   */\n            tag_150:\n                /* \"#utility.yul\":4633:4640   */\n              0x00\n                /* \"#utility.yul\":4662:4686   */\n              tag_218\n                /* \"#utility.yul\":4680:4685   */\n              dup3\n                /* \"#utility.yul\":4662:4686   */\n              tag_149\n              jump\t// in\n            tag_218:\n                /* \"#utility.yul\":4651:4686   */\n              swap1\n              pop\n                /* \"#utility.yul\":4596:4692   */\n              swap2\n              swap1\n              pop\n              jump\t// out\n                /* \"#utility.yul\":4698:4816   */\n            tag_151:\n                /* \"#utility.yul\":4785:4809   */\n              tag_220\n                /* \"#utility.yul\":4803:4808   */\n              dup2\n                /* \"#utility.yul\":4785:4809   */\n              tag_150\n              jump\t// in\n            tag_220:\n                /* \"#utility.yul\":4780:4783   */\n              dup3\n                /* \"#utility.yul\":4773:4810   */\n              mstore\n                /* \"#utility.yul\":4698:4816   */\n              pop\n              pop\n              jump\t// out\n                /* \"#utility.yul\":4822:5044   */\n            tag_43:\n                /* \"#utility.yul\":4915:4919   */\n              0x00\n                /* \"#utility.yul\":4953:4955   */\n              0x20\n                /* \"#utility.yul\":4942:4951   */\n              dup3\n                /* \"#utility.yul\":4938:4956   */\n              add\n                /* \"#utility.yul\":4930:4956   */\n              swap1\n              pop\n                /* \"#utility.yul\":4966:5037   */\n              tag_222\n                /* \"#utility.yul\":5034:5035   */\n              0x00\n                /* \"#utility.yul\":5023:5032   */\n              dup4\n                /* \"#utility.yul\":5019:5036   */\n              add\n                /* \"#utility.yul\":5010:5016   */\n              dup5\n                /* \"#utility.yul\":4966:5037   */\n              tag_151\n              jump\t// in\n            tag_222:\n                /* \"#utility.yul\":4822:5044   */\n              swap3\n              swap2\n              pop\n              pop\n              jump\t// out\n                /* \"#utility.yul\":5050:5583   */\n            tag_53:\n                /* \"#utility.yul\":5219:5223   */\n              0x00\n                /* \"#utility.yul\":5257:5259   */\n              0x60\n                /* \"#utility.yul\":5246:5255   */\n              dup3\n                /* \"#utility.yul\":5242:5260   */\n              add\n                /* \"#utility.yul\":5234:5260   */\n              swap1\n              pop\n                /* \"#utility.yul\":5306:5315   */\n              dup2\n                /* \"#utility.yul\":5300:5304   */\n              dup2\n                /* \"#utility.yul\":5296:5316   */\n              sub\n                /* \"#utility.yul\":5292:5293   */\n              0x00\n                /* \"#utility.yul\":5281:5290   */\n              dup4\n                /* \"#utility.yul\":5277:5294   */\n              add\n                /* \"#utility.yul\":5270:5317   */\n              mstore\n                /* \"#utility.yul\":5334:5412   */\n              tag_224\n                /* \"#utility.yul\":5407:5411   */\n              dup2\n                /* \"#utility.yul\":5398:5404   */\n              dup7\n                /* \"#utility.yul\":5334:5412   */\n              tag_137\n              jump\t// in\n            tag_224:\n                /* \"#utility.yul\":5326:5412   */\n              swap1\n              pop\n                /* \"#utility.yul\":5422:5494   */\n              tag_225\n                /* \"#utility.yul\":5490:5492   */\n              0x20\n                /* \"#utility.yul\":5479:5488   */\n              dup4\n                /* \"#utility.yul\":5475:5493   */\n              add\n                /* \"#utility.yul\":5466:5472   */\n              dup6\n                /* \"#utility.yul\":5422:5494   */\n              tag_148\n              jump\t// in\n            tag_225:\n                /* \"#utility.yul\":5504:5576   */\n              tag_226\n                /* \"#utility.yul\":5572:5574   */\n              0x40\n                /* \"#utility.yul\":5561:5570   */\n              dup4\n                /* \"#utility.yul\":5557:5575   */\n              add\n                /* \"#utility.yul\":5548:5554   */\n              dup5\n                /* \"#utility.yul\":5504:5576   */\n              tag_148\n              jump\t// in\n            tag_226:\n                /* \"#utility.yul\":5050:5583   */\n              swap5\n              swap4\n              pop\n              pop\n              pop\n              pop\n              jump\t// out\n                /* \"#utility.yul\":5589:5711   */\n            tag_152:\n                /* \"#utility.yul\":5662:5686   */\n              tag_228\n                /* \"#utility.yul\":5680:5685   */\n              dup2\n                /* \"#utility.yul\":5662:5686   */\n              tag_150\n              jump\t// in\n            tag_228:\n                /* \"#utility.yul\":5655:5660   */\n              dup2\n                /* \"#utility.yul\":5652:5687   */\n              eq\n                /* \"#utility.yul\":5642:5705   */\n              tag_229\n              jumpi\n                /* \"#utility.yul\":5701:5702   */\n              0x00\n                /* \"#utility.yul\":5698:5699   */\n              dup1\n                /* \"#utility.yul\":5691:5703   */\n              revert\n                /* \"#utility.yul\":5642:5705   */\n            tag_229:\n                /* \"#utility.yul\":5589:5711   */\n              pop\n              jump\t// out\n                /* \"#utility.yul\":5717:5856   */\n            tag_153:\n                /* \"#utility.yul\":5763:5768   */\n              0x00\n                /* \"#utility.yul\":5801:5807   */\n              dup2\n                /* \"#utility.yul\":5788:5808   */\n              calldataload\n                /* \"#utility.yul\":5779:5808   */\n              swap1\n              pop\n                /* \"#utility.yul\":5817:5850   */\n              tag_231\n                /* \"#utility.yul\":5844:5849   */\n              dup2\n                /* \"#utility.yul\":5817:5850   */\n              tag_152\n              jump\t// in\n            tag_231:\n                /* \"#utility.yul\":5717:5856   */\n              swap3\n              swap2\n              pop\n              pop\n              jump\t// out\n                /* \"#utility.yul\":5862:6191   */\n            tag_61:\n                /* \"#utility.yul\":5921:5927   */\n              0x00\n                /* \"#utility.yul\":5970:5972   */\n              0x20\n                /* \"#utility.yul\":5958:5967   */\n              dup3\n                /* \"#utility.yul\":5949:5956   */\n              dup5\n                /* \"#utility.yul\":5945:5968   */\n              sub\n                /* \"#utility.yul\":5941:5973   */\n              slt\n                /* \"#utility.yul\":5938:6057   */\n              iszero\n              tag_233\n              jumpi\n                /* \"#utility.yul\":5976:6055   */\n              tag_234\n              tag_139\n              jump\t// in\n            tag_234:\n                /* \"#utility.yul\":5938:6057   */\n            tag_233:\n                /* \"#utility.yul\":6096:6097   */\n              0x00\n                /* \"#utility.yul\":6121:6174   */\n              tag_235\n                /* \"#utility.yul\":6166:6173   */\n              dup5\n                /* \"#utility.yul\":6157:6163   */\n              dup3\n                /* \"#utility.yul\":6146:6155   */\n              dup6\n                /* \"#utility.yul\":6142:6164   */\n              add\n                /* \"#utility.yul\":6121:6174   */\n              tag_153\n              jump\t// in\n            tag_235:\n                /* \"#utility.yul\":6111:6174   */\n              swap2\n              pop\n                /* \"#utility.yul\":6067:6184   */\n              pop\n                /* \"#utility.yul\":5862:6191   */\n              swap3\n              swap2\n              pop\n              pop\n              jump\t// out\n                /* \"#utility.yul\":6197:6377   */\n            tag_154:\n                /* \"#utility.yul\":6245:6322   */\n              0x4e487b7100000000000000000000000000000000000000000000000000000000\n                /* \"#utility.yul\":6242:6243   */\n              0x00\n                /* \"#utility.yul\":6235:6323   */\n              mstore\n                /* \"#utility.yul\":6342:6346   */\n              0x22\n                /* \"#utility.yul\":6339:6340   */\n              0x04\n                /* \"#utility.yul\":6332:6347   */\n              mstore\n                /* \"#utility.yul\":6366:6370   */\n              0x24\n                /* \"#utility.yul\":6363:6364   */\n              0x00\n                /* \"#utility.yul\":6356:6371   */\n              revert\n                /* \"#utility.yul\":6383:6703   */\n            tag_72:\n                /* \"#utility.yul\":6427:6433   */\n              0x00\n                /* \"#utility.yul\":6464:6465   */\n              0x02\n                /* \"#utility.yul\":6458:6462   */\n              dup3\n                /* \"#utility.yul\":6454:6466   */\n              div\n                /* \"#utility.yul\":6444:6466   */\n              swap1\n              pop\n                /* \"#utility.yul\":6511:6512   */\n              0x01\n                /* \"#utility.yul\":6505:6509   */\n              dup3\n                /* \"#utility.yul\":6501:6513   */\n              and\n                /* \"#utility.yul\":6532:6550   */\n              dup1\n                /* \"#utility.yul\":6522:6603   */\n              tag_238\n              jumpi\n                /* \"#utility.yul\":6588:6592   */\n              0x7f\n                /* \"#utility.yul\":6580:6586   */\n              dup3\n                /* \"#utility.yul\":6576:6593   */\n              and\n                /* \"#utility.yul\":6566:6593   */\n              swap2\n              pop\n                /* \"#utility.yul\":6522:6603   */\n            tag_238:\n                /* \"#utility.yul\":6650:6652   */\n              0x20\n                /* \"#utility.yul\":6642:6648   */\n              dup3\n                /* \"#utility.yul\":6639:6653   */\n              lt\n                /* \"#utility.yul\":6619:6637   */\n              dup2\n                /* \"#utility.yul\":6616:6654   */\n              sub\n                /* \"#utility.yul\":6613:6697   */\n              tag_239\n              jumpi\n                /* \"#utility.yul\":6669:6687   */\n              tag_240\n              tag_154\n              jump\t// in\n            tag_240:\n                /* \"#utility.yul\":6613:6697   */\n            tag_239:\n                /* \"#utility.yul\":6434:6703   */\n              pop\n                /* \"#utility.yul\":6383:6703   */\n              swap2\n              swap1\n              pop\n              jump\t// out\n                /* \"#utility.yul\":6709:6882   */\n            tag_155:\n                /* \"#utility.yul\":6849:6874   */\n              0x4974656d20696e646578206f7574206f662072616e6765000000000000000000\n                /* \"#utility.yul\":6845:6846   */\n              0x00\n                /* \"#utility.yul\":6837:6843   */\n              dup3\n                /* \"#utility.yul\":6833:6847   */\n              add\n                /* \"#utility.yul\":6826:6875   */\n              mstore\n                /* \"#utility.yul\":6709:6882   */\n              pop\n              jump\t// out\n                /* \"#utility.yul\":6888:7254   */\n            tag_156:\n                /* \"#utility.yul\":7030:7033   */\n              0x00\n                /* \"#utility.yul\":7051:7118   */\n              tag_243\n                /* \"#utility.yul\":7115:7117   */\n              0x17\n                /* \"#utility.yul\":7110:7113   */\n              dup4\n                /* \"#utility.yul\":7051:7118   */\n              tag_134\n              jump\t// in\n            tag_243:\n                /* \"#utility.yul\":7044:7118   */\n              swap2\n              pop\n                /* \"#utility.yul\":7127:7220   */\n              tag_244\n                /* \"#utility.yul\":7216:7219   */\n              dup3\n                /* \"#utility.yul\":7127:7220   */\n              tag_155\n              jump\t// in\n            tag_244:\n                /* \"#utility.yul\":7245:7247   */\n              0x20\n                /* \"#utility.yul\":7240:7243   */\n              dup3\n                /* \"#utility.yul\":7236:7248   */\n              add\n                /* \"#utility.yul\":7229:7248   */\n              swap1\n              pop\n                /* \"#utility.yul\":6888:7254   */\n              swap2\n              swap1\n              pop\n              jump\t// out\n                /* \"#utility.yul\":7260:7679   */\n            tag_82:\n                /* \"#utility.yul\":7426:7430   */\n              0x00\n                /* \"#utility.yul\":7464:7466   */\n              0x20\n                /* \"#utility.yul\":7453:7462   */\n              dup3\n                /* \"#utility.yul\":7449:7467   */\n              add\n                /* \"#utility.yul\":7441:7467   */\n              swap1\n              pop\n                /* \"#utility.yul\":7513:7522   */\n              dup2\n                /* \"#utility.yul\":7507:7511   */\n              dup2\n                /* \"#utility.yul\":7503:7523   */\n              sub\n                /* \"#utility.yul\":7499:7500   */\n              0x00\n                /* \"#utility.yul\":7488:7497   */\n              dup4\n                /* \"#utility.yul\":7484:7501   */\n              add\n                /* \"#utility.yul\":7477:7524   */\n              mstore\n                /* \"#utility.yul\":7541:7672   */\n              tag_246\n                /* \"#utility.yul\":7667:7671   */\n              dup2\n                /* \"#utility.yul\":7541:7672   */\n              tag_156\n              jump\t// in\n            tag_246:\n                /* \"#utility.yul\":7533:7672   */\n              swap1\n              pop\n                /* \"#utility.yul\":7260:7679   */\n              swap2\n              swap1\n              pop\n              jump\t// out\n                /* \"#utility.yul\":7685:7865   */\n            tag_85:\n                /* \"#utility.yul\":7733:7810   */\n              0x4e487b7100000000000000000000000000000000000000000000000000000000\n                /* \"#utility.yul\":7730:7731   */\n              0x00\n                /* \"#utility.yul\":7723:7811   */\n              mstore\n                /* \"#utility.yul\":7830:7834   */\n              0x32\n                /* \"#utility.yul\":7827:7828   */\n              0x04\n                /* \"#utility.yul\":7820:7835   */\n              mstore\n                /* \"#utility.yul\":7854:7858   */\n              0x24\n                /* \"#utility.yul\":7851:7852   */\n              0x00\n                /* \"#utility.yul\":7844:7859   */\n              revert\n                /* \"#utility.yul\":7871:8044   */\n            tag_157:\n                /* \"#utility.yul\":8011:8036   */\n              0x4f6e6c79206f776e65722063616e207769746864726177000000000000000000\n                /* \"#utility.yul\":8007:8008   */\n              0x00\n                /* \"#utility.yul\":7999:8005   */\n              dup3\n                /* \"#utility.yul\":7995:8009   */\n              add\n                /* \"#utility.yul\":7988:8037   */\n              mstore\n                /* \"#utility.yul\":7871:8044   */\n              pop\n              jump\t// out\n                /* \"#utility.yul\":8050:8416   */\n            tag_158:\n                /* \"#utility.yul\":8192:8195   */\n              0x00\n                /* \"#utility.yul\":8213:8280   */\n              tag_250\n                /* \"#utility.yul\":8277:8279   */\n              0x17\n                /* \"#utility.yul\":8272:8275   */\n              dup4\n                /* \"#utility.yul\":8213:8280   */\n              tag_134\n              jump\t// in\n            tag_250:\n                /* \"#utility.yul\":8206:8280   */\n              swap2\n              pop\n                /* \"#utility.yul\":8289:8382   */\n              tag_251\n                /* \"#utility.yul\":8378:8381   */\n              dup3\n                /* \"#utility.yul\":8289:8382   */\n              tag_157\n              jump\t// in\n            tag_251:\n                /* \"#utility.yul\":8407:8409   */\n              0x20\n                /* \"#utility.yul\":8402:8405   */\n              dup3\n                /* \"#utility.yul\":8398:8410   */\n              add\n                /* \"#utility.yul\":8391:8410   */\n              swap1\n              pop\n                /* \"#utility.yul\":8050:8416   */\n              swap2\n              swap1\n              pop\n              jump\t// out\n                /* \"#utility.yul\":8422:8841   */\n            tag_95:\n                /* \"#utility.yul\":8588:8592   */\n              0x00\n                /* \"#utility.yul\":8626:8628   */\n              0x20\n                /* \"#utility.yul\":8615:8624   */\n              dup3\n                /* \"#utility.yul\":8611:8629   */\n              add\n                /* \"#utility.yul\":8603:8629   */\n              swap1\n              pop\n                /* \"#utility.yul\":8675:8684   */\n              dup2\n                /* \"#utility.yul\":8669:8673   */\n              dup2\n                /* \"#utility.yul\":8665:8685   */\n              sub\n                /* \"#utility.yul\":8661:8662   */\n              0x00\n                /* \"#utility.yul\":8650:8659   */\n              dup4\n                /* \"#utility.yul\":8646:8663   */\n              add\n                /* \"#utility.yul\":8639:8686   */\n              mstore\n                /* \"#utility.yul\":8703:8834   */\n              tag_253\n                /* \"#utility.yul\":8829:8833   */\n              dup2\n                /* \"#utility.yul\":8703:8834   */\n              tag_158\n              jump\t// in\n            tag_253:\n                /* \"#utility.yul\":8695:8834   */\n              swap1\n              pop\n                /* \"#utility.yul\":8422:8841   */\n              swap2\n              swap1\n              pop\n              jump\t// out\n                /* \"#utility.yul\":8847:9017   */\n            tag_159:\n                /* \"#utility.yul\":8987:9009   */\n              0x4e6f2066756e647320746f207769746864726177000000000000000000000000\n                /* \"#utility.yul\":8983:8984   */\n              0x00\n                /* \"#utility.yul\":8975:8981   */\n              dup3\n                /* \"#utility.yul\":8971:8985   */\n              add\n                /* \"#utility.yul\":8964:9010   */\n              mstore\n                /* \"#utility.yul\":8847:9017   */\n              pop\n              jump\t// out\n                /* \"#utility.yul\":9023:9389   */\n            tag_160:\n                /* \"#utility.yul\":9165:9168   */\n              0x00\n                /* \"#utility.yul\":9186:9253   */\n              tag_256\n                /* \"#utility.yul\":9250:9252   */\n              0x14\n                /* \"#utility.yul\":9245:9248   */\n              dup4\n                /* \"#utility.yul\":9186:9253   */\n              tag_134\n              jump\t// in\n            tag_256:\n                /* \"#utility.yul\":9179:9253   */\n              swap2\n              pop\n                /* \"#utility.yul\":9262:9355   */\n              tag_257\n                /* \"#utility.yul\":9351:9354   */\n              dup3\n                /* \"#utility.yul\":9262:9355   */\n              tag_159\n              jump\t// in\n            tag_257:\n                /* \"#utility.yul\":9380:9382   */\n              0x20\n                /* \"#utility.yul\":9375:9378   */\n              dup3\n                /* \"#utility.yul\":9371:9383   */\n              add\n                /* \"#utility.yul\":9364:9383   */\n              swap1\n              pop\n                /* \"#utility.yul\":9023:9389   */\n              swap2\n              swap1\n              pop\n              jump\t// out\n                /* \"#utility.yul\":9395:9814   */\n            tag_98:\n                /* \"#utility.yul\":9561:9565   */\n              0x00\n                /* \"#utility.yul\":9599:9601   */\n              0x20\n                /* \"#utility.yul\":9588:9597   */\n              dup3\n                /* \"#utility.yul\":9584:9602   */\n              add\n                /* \"#utility.yul\":9576:9602   */\n              swap1\n              pop\n                /* \"#utility.yul\":9648:9657   */\n              dup2\n                /* \"#utility.yul\":9642:9646   */\n              dup2\n                /* \"#utility.yul\":9638:9658   */\n              sub\n                /* \"#utility.yul\":9634:9635   */\n              0x00\n                /* \"#utility.yul\":9623:9632   */\n              dup4\n                /* \"#utility.yul\":9619:9636   */\n              add\n                /* \"#utility.yul\":9612:9659   */\n              mstore\n                /* \"#utility.yul\":9676:9807   */\n              tag_259\n                /* \"#utility.yul\":9802:9806   */\n              dup2\n                /* \"#utility.yul\":9676:9807   */\n              tag_160\n              jump\t// in\n            tag_259:\n                /* \"#utility.yul\":9668:9807   */\n              swap1\n              pop\n                /* \"#utility.yul\":9395:9814   */\n              swap2\n              swap1\n              pop\n              jump\t// out\n                /* \"#utility.yul\":9820:9967   */\n            tag_161:\n                /* \"#utility.yul\":9921:9932   */\n              0x00\n                /* \"#utility.yul\":9958:9961   */\n              dup2\n                /* \"#utility.yul\":9943:9961   */\n              swap1\n              pop\n                /* \"#utility.yul\":9820:9967   */\n              swap3\n              swap2\n              pop\n              pop\n              jump\t// out\n                /* \"#utility.yul\":9973:10087   */\n            tag_162:\n              pop\n              jump\t// out\n                /* \"#utility.yul\":10093:10491   */\n            tag_163:\n                /* \"#utility.yul\":10252:10255   */\n              0x00\n                /* \"#utility.yul\":10273:10356   */\n              tag_263\n                /* \"#utility.yul\":10354:10355   */\n              0x00\n                /* \"#utility.yul\":10349:10352   */\n              dup4\n                /* \"#utility.yul\":10273:10356   */\n              tag_161\n              jump\t// in\n            tag_263:\n                /* \"#utility.yul\":10266:10356   */\n              swap2\n              pop\n                /* \"#utility.yul\":10365:10458   */\n              tag_264\n                /* \"#utility.yul\":10454:10457   */\n              dup3\n                /* \"#utility.yul\":10365:10458   */\n              tag_162\n              jump\t// in\n            tag_264:\n                /* \"#utility.yul\":10483:10484   */\n              0x00\n                /* \"#utility.yul\":10478:10481   */\n              dup3\n                /* \"#utility.yul\":10474:10485   */\n              add\n                /* \"#utility.yul\":10467:10485   */\n              swap1\n              pop\n                /* \"#utility.yul\":10093:10491   */\n              swap2\n              swap1\n              pop\n              jump\t// out\n                /* \"#utility.yul\":10497:10876   */\n            tag_100:\n                /* \"#utility.yul\":10681:10684   */\n              0x00\n                /* \"#utility.yul\":10703:10850   */\n              tag_266\n                /* \"#utility.yul\":10846:10849   */\n              dup3\n                /* \"#utility.yul\":10703:10850   */\n              tag_163\n              jump\t// in\n            tag_266:\n                /* \"#utility.yul\":10696:10850   */\n              swap2\n              pop\n                /* \"#utility.yul\":10867:10870   */\n              dup2\n                /* \"#utility.yul\":10860:10870   */\n              swap1\n              pop\n                /* \"#utility.yul\":10497:10876   */\n              swap2\n              swap1\n              pop\n              jump\t// out\n                /* \"#utility.yul\":10882:11052   */\n            tag_164:\n                /* \"#utility.yul\":11022:11044   */\n              0x4661696c656420746f2073656e64206d6f6e6579000000000000000000000000\n                /* \"#utility.yul\":11018:11019   */\n              0x00\n                /* \"#utility.yul\":11010:11016   */\n              dup3\n                /* \"#utility.yul\":11006:11020   */\n              add\n                /* \"#utility.yul\":10999:11045   */\n              mstore\n                /* \"#utility.yul\":10882:11052   */\n              pop\n              jump\t// out\n                /* \"#utility.yul\":11058:11424   */\n            tag_165:\n                /* \"#utility.yul\":11200:11203   */\n              0x00\n                /* \"#utility.yul\":11221:11288   */\n              tag_269\n                /* \"#utility.yul\":11285:11287   */\n              0x14\n                /* \"#utility.yul\":11280:11283   */\n              dup4\n                /* \"#utility.yul\":11221:11288   */\n              tag_134\n              jump\t// in\n            tag_269:\n                /* \"#utility.yul\":11214:11288   */\n              swap2\n              pop\n                /* \"#utility.yul\":11297:11390   */\n              tag_270\n                /* \"#utility.yul\":11386:11389   */\n              dup3\n                /* \"#utility.yul\":11297:11390   */\n              tag_164\n              jump\t// in\n            tag_270:\n                /* \"#utility.yul\":11415:11417   */\n              0x20\n                /* \"#utility.yul\":11410:11413   */\n              dup3\n                /* \"#utility.yul\":11406:11418   */\n              add\n                /* \"#utility.yul\":11399:11418   */\n              swap1\n              pop\n                /* \"#utility.yul\":11058:11424   */\n              swap2\n              swap1\n              pop\n              jump\t// out\n                /* \"#utility.yul\":11430:11849   */\n            tag_106:\n                /* \"#utility.yul\":11596:11600   */\n              0x00\n                /* \"#utility.yul\":11634:11636   */\n              0x20\n                /* \"#utility.yul\":11623:11632   */\n              dup3\n                /* \"#utility.yul\":11619:11637   */\n              add\n                /* \"#utility.yul\":11611:11637   */\n              swap1\n              pop\n                /* \"#utility.yul\":11683:11692   */\n              dup2\n                /* \"#utility.yul\":11677:11681   */\n              dup2\n                /* \"#utility.yul\":11673:11693   */\n              sub\n                /* \"#utility.yul\":11669:11670   */\n              0x00\n                /* \"#utility.yul\":11658:11667   */\n              dup4\n                /* \"#utility.yul\":11654:11671   */\n              add\n                /* \"#utility.yul\":11647:11694   */\n              mstore\n                /* \"#utility.yul\":11711:11842   */\n              tag_272\n                /* \"#utility.yul\":11837:11841   */\n              dup2\n                /* \"#utility.yul\":11711:11842   */\n              tag_165\n              jump\t// in\n            tag_272:\n                /* \"#utility.yul\":11703:11842   */\n              swap1\n              pop\n                /* \"#utility.yul\":11430:11849   */\n              swap2\n              swap1\n              pop\n              jump\t// out\n                /* \"#utility.yul\":11855:12029   */\n            tag_166:\n                /* \"#utility.yul\":11995:12021   */\n              0x546869732066756e6472616973696e67206973206f7665720000000000000000\n                /* \"#utility.yul\":11991:11992   */\n              0x00\n                /* \"#utility.yul\":11983:11989   */\n              dup3\n                /* \"#utility.yul\":11979:11993   */\n              add\n                /* \"#utility.yul\":11972:12022   */\n              mstore\n                /* \"#utility.yul\":11855:12029   */\n              pop\n              jump\t// out\n                /* \"#utility.yul\":12035:12401   */\n            tag_167:\n                /* \"#utility.yul\":12177:12180   */\n              0x00\n                /* \"#utility.yul\":12198:12265   */\n              tag_275\n                /* \"#utility.yul\":12262:12264   */\n              0x18\n                /* \"#utility.yul\":12257:12260   */\n              dup4\n                /* \"#utility.yul\":12198:12265   */\n              tag_134\n              jump\t// in\n            tag_275:\n                /* \"#utility.yul\":12191:12265   */\n              swap2\n              pop\n                /* \"#utility.yul\":12274:12367   */\n              tag_276\n                /* \"#utility.yul\":12363:12366   */\n              dup3\n                /* \"#utility.yul\":12274:12367   */\n              tag_166\n              jump\t// in\n            tag_276:\n                /* \"#utility.yul\":12392:12394   */\n              0x20\n                /* \"#utility.yul\":12387:12390   */\n              dup3\n                /* \"#utility.yul\":12383:12395   */\n              add\n                /* \"#utility.yul\":12376:12395   */\n              swap1\n              pop\n                /* \"#utility.yul\":12035:12401   */\n              swap2\n              swap1\n              pop\n              jump\t// out\n                /* \"#utility.yul\":12407:12826   */\n            tag_122:\n                /* \"#utility.yul\":12573:12577   */\n              0x00\n                /* \"#utility.yul\":12611:12613   */\n              0x20\n                /* \"#utility.yul\":12600:12609   */\n              dup3\n                /* \"#utility.yul\":12596:12614   */\n              add\n                /* \"#utility.yul\":12588:12614   */\n              swap1\n              pop\n                /* \"#utility.yul\":12660:12669   */\n              dup2\n                /* \"#utility.yul\":12654:12658   */\n              dup2\n                /* \"#utility.yul\":12650:12670   */\n              sub\n                /* \"#utility.yul\":12646:12647   */\n              0x00\n                /* \"#utility.yul\":12635:12644   */\n              dup4\n                /* \"#utility.yul\":12631:12648   */\n              add\n                /* \"#utility.yul\":12624:12671   */\n              mstore\n                /* \"#utility.yul\":12688:12819   */\n              tag_278\n                /* \"#utility.yul\":12814:12818   */\n              dup2\n                /* \"#utility.yul\":12688:12819   */\n              tag_167\n              jump\t// in\n            tag_278:\n                /* \"#utility.yul\":12680:12819   */\n              swap1\n              pop\n                /* \"#utility.yul\":12407:12826   */\n              swap2\n              swap1\n              pop\n              jump\t// out\n                /* \"#utility.yul\":12832:13013   */\n            tag_168:\n                /* \"#utility.yul\":12972:13005   */\n              0x446f6e6174696f6e206d7573742062652067726561746572207468616e203000\n                /* \"#utility.yul\":12968:12969   */\n              0x00\n                /* \"#utility.yul\":12960:12966   */\n              dup3\n                /* \"#utility.yul\":12956:12970   */\n              add\n                /* \"#utility.yul\":12949:13006   */\n              mstore\n                /* \"#utility.yul\":12832:13013   */\n              pop\n              jump\t// out\n                /* \"#utility.yul\":13019:13385   */\n            tag_169:\n                /* \"#utility.yul\":13161:13164   */\n              0x00\n                /* \"#utility.yul\":13182:13249   */\n              tag_281\n                /* \"#utility.yul\":13246:13248   */\n              0x1f\n                /* \"#utility.yul\":13241:13244   */\n              dup4\n                /* \"#utility.yul\":13182:13249   */\n              tag_134\n              jump\t// in\n            tag_281:\n                /* \"#utility.yul\":13175:13249   */\n              swap2\n              pop\n                /* \"#utility.yul\":13258:13351   */\n              tag_282\n                /* \"#utility.yul\":13347:13350   */\n              dup3\n                /* \"#utility.yul\":13258:13351   */\n              tag_168\n              jump\t// in\n            tag_282:\n                /* \"#utility.yul\":13376:13378   */\n              0x20\n                /* \"#utility.yul\":13371:13374   */\n              dup3\n                /* \"#utility.yul\":13367:13379   */\n              add\n                /* \"#utility.yul\":13360:13379   */\n              swap1\n              pop\n                /* \"#utility.yul\":13019:13385   */\n              swap2\n              swap1\n              pop\n              jump\t// out\n                /* \"#utility.yul\":13391:13810   */\n            tag_125:\n                /* \"#utility.yul\":13557:13561   */\n              0x00\n                /* \"#utility.yul\":13595:13597   */\n              0x20\n                /* \"#utility.yul\":13584:13593   */\n              dup3\n                /* \"#utility.yul\":13580:13598   */\n              add\n                /* \"#utility.yul\":13572:13598   */\n              swap1\n              pop\n                /* \"#utility.yul\":13644:13653   */\n              dup2\n                /* \"#utility.yul\":13638:13642   */\n              dup2\n                /* \"#utility.yul\":13634:13654   */\n              sub\n                /* \"#utility.yul\":13630:13631   */\n              0x00\n                /* \"#utility.yul\":13619:13628   */\n              dup4\n                /* \"#utility.yul\":13615:13632   */\n              add\n                /* \"#utility.yul\":13608:13655   */\n              mstore\n                /* \"#utility.yul\":13672:13803   */\n              tag_284\n                /* \"#utility.yul\":13798:13802   */\n              dup2\n                /* \"#utility.yul\":13672:13803   */\n              tag_169\n              jump\t// in\n            tag_284:\n                /* \"#utility.yul\":13664:13803   */\n              swap1\n              pop\n                /* \"#utility.yul\":13391:13810   */\n              swap2\n              swap1\n              pop\n              jump\t// out\n                /* \"#utility.yul\":13816:13996   */\n            tag_170:\n                /* \"#utility.yul\":13864:13941   */\n              0x4e487b7100000000000000000000000000000000000000000000000000000000\n                /* \"#utility.yul\":13861:13862   */\n              0x00\n                /* \"#utility.yul\":13854:13942   */\n              mstore\n                /* \"#utility.yul\":13961:13965   */\n              0x11\n                /* \"#utility.yul\":13958:13959   */\n              0x04\n                /* \"#utility.yul\":13951:13966   */\n              mstore\n                /* \"#utility.yul\":13985:13989   */\n              0x24\n                /* \"#utility.yul\":13982:13983   */\n              0x00\n                /* \"#utility.yul\":13975:13990   */\n              revert\n                /* \"#utility.yul\":14002:14193   */\n            tag_127:\n                /* \"#utility.yul\":14042:14045   */\n              0x00\n                /* \"#utility.yul\":14061:14081   */\n              tag_287\n                /* \"#utility.yul\":14079:14080   */\n              dup3\n                /* \"#utility.yul\":14061:14081   */\n              tag_141\n              jump\t// in\n            tag_287:\n                /* \"#utility.yul\":14056:14081   */\n              swap2\n              pop\n                /* \"#utility.yul\":14095:14115   */\n              tag_288\n                /* \"#utility.yul\":14113:14114   */\n              dup4\n                /* \"#utility.yul\":14095:14115   */\n              tag_141\n              jump\t// in\n            tag_288:\n                /* \"#utility.yul\":14090:14115   */\n              swap3\n              pop\n                /* \"#utility.yul\":14138:14139   */\n              dup3\n                /* \"#utility.yul\":14135:14136   */\n              dup3\n                /* \"#utility.yul\":14131:14140   */\n              add\n                /* \"#utility.yul\":14124:14140   */\n              swap1\n              pop\n                /* \"#utility.yul\":14159:14162   */\n              dup1\n                /* \"#utility.yul\":14156:14157   */\n              dup3\n                /* \"#utility.yul\":14153:14163   */\n              gt\n                /* \"#utility.yul\":14150:14186   */\n              iszero\n              tag_289\n              jumpi\n                /* \"#utility.yul\":14166:14184   */\n              tag_290\n              tag_170\n              jump\t// in\n            tag_290:\n                /* \"#utility.yul\":14150:14186   */\n            tag_289:\n                /* \"#utility.yul\":14002:14193   */\n              swap3\n              swap2\n              pop\n              pop\n              jump\t// out\n                /* \"#utility.yul\":14199:14356   */\n            tag_171:\n                /* \"#utility.yul\":14339:14348   */\n              0x4e6f204461746100000000000000000000000000000000000000000000000000\n                /* \"#utility.yul\":14335:14336   */\n              0x00\n                /* \"#utility.yul\":14327:14333   */\n              dup3\n                /* \"#utility.yul\":14323:14337   */\n              add\n                /* \"#utility.yul\":14316:14349   */\n              mstore\n                /* \"#utility.yul\":14199:14356   */\n              pop\n              jump\t// out\n                /* \"#utility.yul\":14362:14727   */\n            tag_172:\n                /* \"#utility.yul\":14504:14507   */\n              0x00\n                /* \"#utility.yul\":14525:14591   */\n              tag_293\n                /* \"#utility.yul\":14589:14590   */\n              0x07\n                /* \"#utility.yul\":14584:14587   */\n              dup4\n                /* \"#utility.yul\":14525:14591   */\n              tag_134\n              jump\t// in\n            tag_293:\n                /* \"#utility.yul\":14518:14591   */\n              swap2\n              pop\n                /* \"#utility.yul\":14600:14693   */\n              tag_294\n                /* \"#utility.yul\":14689:14692   */\n              dup3\n                /* \"#utility.yul\":14600:14693   */\n              tag_171\n              jump\t// in\n            tag_294:\n                /* \"#utility.yul\":14718:14720   */\n              0x20\n                /* \"#utility.yul\":14713:14716   */\n              dup3\n                /* \"#utility.yul\":14709:14721   */\n              add\n                /* \"#utility.yul\":14702:14721   */\n              swap1\n              pop\n                /* \"#utility.yul\":14362:14727   */\n              swap2\n              swap1\n              pop\n              jump\t// out\n                /* \"#utility.yul\":14733:15152   */\n            tag_132:\n                /* \"#utility.yul\":14899:14903   */\n              0x00\n                /* \"#utility.yul\":14937:14939   */\n              0x20\n                /* \"#utility.yul\":14926:14935   */\n              dup3\n                /* \"#utility.yul\":14922:14940   */\n              add\n                /* \"#utility.yul\":14914:14940   */\n              swap1\n              pop\n                /* \"#utility.yul\":14986:14995   */\n              dup2\n                /* \"#utility.yul\":14980:14984   */\n              dup2\n                /* \"#utility.yul\":14976:14996   */\n              sub\n                /* \"#utility.yul\":14972:14973   */\n              0x00\n                /* \"#utility.yul\":14961:14970   */\n              dup4\n                /* \"#utility.yul\":14957:14974   */\n              add\n                /* \"#utility.yul\":14950:14997   */\n              mstore\n                /* \"#utility.yul\":15014:15145   */\n              tag_296\n                /* \"#utility.yul\":15140:15144   */\n              dup2\n                /* \"#utility.yul\":15014:15145   */\n              tag_172\n              jump\t// in\n            tag_296:\n                /* \"#utility.yul\":15006:15145   */\n              swap1\n              pop\n                /* \"#utility.yul\":14733:15152   */\n              swap2\n              swap1\n              pop\n              jump\t// out\n\n            auxdata: 0xa264697066735822122092703d537430a906fd7c2ab9a43d7e44807d5955344f9629b853b439ea93dcc464736f6c63430008190033\n        }\n    }\n\n    auxdata: 0xa2646970667358221220a3cad3319d93409d1d730e78a18b50ad5367da10139c50290a62746d0d81738f64736f6c63430008190033\n}\n",
				"bytecode": {
					"linkReferences": {},
					"object": "6080604052348015600e575f80fd5b506122ad8061001c5f395ff3fe608060405234801561000f575f80fd5b506004361061003f575f3560e01c80638e028d4014610043578063b9a9489c14610061578063f38f72fb1461007d575b5f80fd5b61004b6100ad565b604051610058919061037a565b60405180910390f35b61007b60048036038101906100769190610681565b610137565b005b6100976004803603810190610092919061074c565b610211565b6040516100a49190610786565b60405180910390f35b60605f80548060200260200160405190810160405280929190818152602001828054801561012d57602002820191905f5260205f20905b815f9054906101000a900473ffffffffffffffffffffffffffffffffffffffff1673ffffffffffffffffffffffffffffffffffffffff16815260200190600101908083116100e4575b5050505050905090565b5f85858585856040516101499061024b565b61015795949392919061096d565b604051809103905ff080158015610170573d5f803e3d5ffd5b5090505f81908060018154018082558091505060019003905f5260205f20015f9091909190916101000a81548173ffffffffffffffffffffffffffffffffffffffff021916908373ffffffffffffffffffffffffffffffffffffffff1602179055507f2557643b2d3fb1068494cb23ac8d1b3b2a857564fe606f86020e33e2351e42dc8160405161020191906109f3565b60405180910390a1505050505050565b5f818154811061021f575f80fd5b905f5260205f20015f915054906101000a900473ffffffffffffffffffffffffffffffffffffffff1681565b61186b80610a0d83390190565b5f81519050919050565b5f82825260208201905092915050565b5f819050602082019050919050565b5f73ffffffffffffffffffffffffffffffffffffffff82169050919050565b5f819050919050565b5f6102c36102be6102b984610281565b6102a0565b610281565b9050919050565b5f6102d4826102a9565b9050919050565b5f6102e5826102ca565b9050919050565b6102f5816102db565b82525050565b5f61030683836102ec565b60208301905092915050565b5f602082019050919050565b5f61032882610258565b6103328185610262565b935061033d83610272565b805f5b8381101561036d57815161035488826102fb565b975061035f83610312565b925050600181019050610340565b5085935050505092915050565b5f6020820190508181035f830152610392818461031e565b905092915050565b5f604051905090565b5f80fd5b5f80fd5b5f80fd5b5f80fd5b5f601f19601f8301169050919050565b7f4e487b71000000000000000000000000000000000000000000000000000000005f52604160045260245ffd5b6103f9826103b3565b810181811067ffffffffffffffff82111715610418576104176103c3565b5b80604052505050565b5f61042a61039a565b905061043682826103f0565b919050565b5f67ffffffffffffffff821115610455576104546103c3565b5b61045e826103b3565b9050602081019050919050565b828183375f83830152505050565b5f61048b6104868461043b565b610421565b9050828152602081018484840111156104a7576104a66103af565b5b6104b284828561046b565b509392505050565b5f82601f8301126104ce576104cd6103ab565b5b81356104de848260208601610479565b91505092915050565b5f819050919050565b6104f9816104e7565b8114610503575f80fd5b50565b5f81359050610514816104f0565b92915050565b5f67ffffffffffffffff821115610534576105336103c3565b5b602082029050602081019050919050565b5f80fd5b5f80fd5b5f80fd5b5f6060828403121561056657610565610549565b5b6105706060610421565b90505f82013567ffffffffffffffff81111561058f5761058e61054d565b5b61059b848285016104ba565b5f8301525060206105ae84828501610506565b60208301525060406105c284828501610506565b60408301525092915050565b5f6105e06105db8461051a565b610421565b9050808382526020820190506020840283018581111561060357610602610545565b5b835b8181101561064a57803567ffffffffffffffff811115610628576106276103ab565b5b8086016106358982610551565b85526020850194505050602081019050610605565b5050509392505050565b5f82601f830112610668576106676103ab565b5b81356106788482602086016105ce565b91505092915050565b5f805f805f60a0868803121561069a576106996103a3565b5b5f86013567ffffffffffffffff8111156106b7576106b66103a7565b5b6106c3888289016104ba565b95505060206106d488828901610506565b94505060406106e588828901610506565b935050606086013567ffffffffffffffff811115610706576107056103a7565b5b610712888289016104ba565b925050608086013567ffffffffffffffff811115610733576107326103a7565b5b61073f88828901610654565b9150509295509295909350565b5f60208284031215610761576107606103a3565b5b5f61076e84828501610506565b91505092915050565b610780816102db565b82525050565b5f6020820190506107995f830184610777565b92915050565b5f81519050919050565b5f82825260208201905092915050565b8281835e5f83830152505050565b5f6107d18261079f565b6107db81856107a9565b93506107eb8185602086016107b9565b6107f4816103b3565b840191505092915050565b610808816104e7565b82525050565b5f81519050919050565b5f82825260208201905092915050565b5f819050602082019050919050565b5f82825260208201905092915050565b5f6108518261079f565b61085b8185610837565b935061086b8185602086016107b9565b610874816103b3565b840191505092915050565b610888816104e7565b82525050565b5f606083015f8301518482035f8601526108a88282610847565b91505060208301516108bd602086018261087f565b5060408301516108d0604086018261087f565b508091505092915050565b5f6108e6838361088e565b905092915050565b5f602082019050919050565b5f6109048261080e565b61090e8185610818565b93508360208202850161092085610828565b805f5b8581101561095b578484038952815161093c85826108db565b9450610947836108ee565b925060208a01995050600181019050610923565b50829750879550505050505092915050565b5f60a0820190508181035f83015261098581886107c7565b905061099460208301876107ff565b6109a160408301866107ff565b81810360608301526109b381856107c7565b905081810360808301526109c781846108fa565b90509695505050505050565b5f6109dd82610281565b9050919050565b6109ed816109d3565b82525050565b5f602082019050610a065f8301846109e4565b9291505056fe60806040525f600655348015610013575f80fd5b5060405161186b38038061186b83398181016040528101906100359190610419565b335f806101000a81548173ffffffffffffffffffffffffffffffffffffffff021916908373ffffffffffffffffffffffffffffffffffffffff160217905550846001908161008391906106e8565b50836002819055508260038190555081600490816100a191906106e8565b505f5b81518110156101275760058282815181106100c2576100c16107b7565b5b6020026020010151908060018154018082558091505060019003905f5260205f2090600302015f909190919091505f820151815f01908161010391906106e8565b506020820151816001015560408201518160020155505080806001019150506100a4565b5050505050506107e4565b5f604051905090565b5f80fd5b5f80fd5b5f80fd5b5f80fd5b5f601f19601f8301169050919050565b7f4e487b71000000000000000000000000000000000000000000000000000000005f52604160045260245ffd5b6101918261014b565b810181811067ffffffffffffffff821117156101b0576101af61015b565b5b80604052505050565b5f6101c2610132565b90506101ce8282610188565b919050565b5f67ffffffffffffffff8211156101ed576101ec61015b565b5b6101f68261014b565b9050602081019050919050565b8281835e5f83830152505050565b5f61022361021e846101d3565b6101b9565b90508281526020810184848401111561023f5761023e610147565b5b61024a848285610203565b509392505050565b5f82601f83011261026657610265610143565b5b8151610276848260208601610211565b91505092915050565b5f819050919050565b6102918161027f565b811461029b575f80fd5b50565b5f815190506102ac81610288565b92915050565b5f67ffffffffffffffff8211156102cc576102cb61015b565b5b602082029050602081019050919050565b5f80fd5b5f80fd5b5f80fd5b5f606082840312156102fe576102fd6102e1565b5b61030860606101b9565b90505f82015167ffffffffffffffff811115610327576103266102e5565b5b61033384828501610252565b5f8301525060206103468482850161029e565b602083015250604061035a8482850161029e565b60408301525092915050565b5f610378610373846102b2565b6101b9565b9050808382526020820190506020840283018581111561039b5761039a6102dd565b5b835b818110156103e257805167ffffffffffffffff8111156103c0576103bf610143565b5b8086016103cd89826102e9565b8552602085019450505060208101905061039d565b5050509392505050565b5f82601f830112610400576103ff610143565b5b8151610410848260208601610366565b91505092915050565b5f805f805f60a086880312156104325761043161013b565b5b5f86015167ffffffffffffffff81111561044f5761044e61013f565b5b61045b88828901610252565b955050602061046c8882890161029e565b945050604061047d8882890161029e565b935050606086015167ffffffffffffffff81111561049e5761049d61013f565b5b6104aa88828901610252565b925050608086015167ffffffffffffffff8111156104cb576104ca61013f565b5b6104d7888289016103ec565b9150509295509295909350565b5f81519050919050565b7f4e487b71000000000000000000000000000000000000000000000000000000005f52602260045260245ffd5b5f600282049050600182168061053257607f821691505b602082108103610545576105446104ee565b5b50919050565b5f819050815f5260205f209050919050565b5f6020601f8301049050919050565b5f82821b905092915050565b5f600883026105a77fffffffffffffffffffffffffffffffffffffffffffffffffffffffffffffffff8261056c565b6105b1868361056c565b95508019841693508086168417925050509392505050565b5f819050919050565b5f6105ec6105e76105e28461027f565b6105c9565b61027f565b9050919050565b5f819050919050565b610605836105d2565b610619610611826105f3565b848454610578565b825550505050565b5f90565b61062d610621565b6106388184846105fc565b505050565b5b8181101561065b576106505f82610625565b60018101905061063e565b5050565b601f8211156106a0576106718161054b565b61067a8461055d565b81016020851015610689578190505b61069d6106958561055d565b83018261063d565b50505b505050565b5f82821c905092915050565b5f6106c05f19846008026106a5565b1980831691505092915050565b5f6106d883836106b1565b9150826002028217905092915050565b6106f1826104e4565b67ffffffffffffffff81111561070a5761070961015b565b5b610714825461051b565b61071f82828561065f565b5f60209050601f831160018114610750575f841561073e578287015190505b61074885826106cd565b8655506107af565b601f19841661075e8661054b565b5f5b8281101561078557848901518255600182019150602085019450602081019050610760565b868310156107a2578489015161079e601f8916826106b1565b8355505b6001600288020188555050505b505050505050565b7f4e487b71000000000000000000000000000000000000000000000000000000005f52603260045260245ffd5b61107a806107f15f395ff3fe6080604052600436106100a6575f3560e01c8063953b8fb811610063578063953b8fb8146101a4578063bfb231d2146101ce578063c59ee1dc1461020c578063cc6cb19a14610236578063ed88c68e14610272578063ffdd5cf11461027c576100a6565b806306fdde03146100aa5780633129e773146100d45780633ccfd60b146101105780635958611e146101265780637284e416146101505780638da5cb5b1461017a575b5f80fd5b3480156100b5575f80fd5b506100be6102b8565b6040516100cb91906109ea565b60405180910390f35b3480156100df575f80fd5b506100fa60048036038101906100f59190610a41565b610344565b6040516101079190610b10565b60405180910390f35b34801561011b575f80fd5b50610124610468565b005b348015610131575f80fd5b5061013a610612565b6040516101479190610b3f565b60405180910390f35b34801561015b575f80fd5b50610164610618565b60405161017191906109ea565b60405180910390f35b348015610185575f80fd5b5061018e6106a4565b60405161019b9190610b97565b60405180910390f35b3480156101af575f80fd5b506101b86106c7565b6040516101c59190610b3f565b60405180910390f35b3480156101d9575f80fd5b506101f460048036038101906101ef9190610a41565b6106cd565b60405161020393929190610bb0565b60405180910390f35b348015610217575f80fd5b50610220610788565b60405161022d9190610b3f565b60405180910390f35b348015610241575f80fd5b5061025c60048036038101906102579190610c16565b61078e565b6040516102699190610b3f565b60405180910390f35b61027a6107a3565b005b348015610287575f80fd5b506102a2600480360381019061029d9190610c16565b610896565b6040516102af9190610b3f565b60405180910390f35b600180546102c590610c6e565b80601f01602080910402602001604051908101604052809291908181526020018280546102f190610c6e565b801561033c5780601f106103135761010080835404028352916020019161033c565b820191905f5260205f20905b81548152906001019060200180831161031f57829003601f168201915b505050505081565b61034c61095b565b6005805490508210610393576040517f08c379a000000000000000000000000000000000000000000000000000000000815260040161038a90610ce8565b60405180910390fd5b600582815481106103a7576103a6610d06565b5b905f5260205f2090600302016040518060600160405290815f820180546103cd90610c6e565b80601f01602080910402602001604051908101604052809291908181526020018280546103f990610c6e565b80156104445780601f1061041b57610100808354040283529160200191610444565b820191905f5260205f20905b81548152906001019060200180831161042757829003601f168201915b50505050508152602001600182015481526020016002820154815250509050919050565b5f8054906101000a900473ffffffffffffffffffffffffffffffffffffffff1673ffffffffffffffffffffffffffffffffffffffff163373ffffffffffffffffffffffffffffffffffffffff16146104f5576040517f08c379a00000000000000000000000000000000000000000000000000000000081526004016104ec90610d7d565b60405180910390fd5b5f60065411610539576040517f08c379a000000000000000000000000000000000000000000000000000000000815260040161053090610de5565b60405180910390fd5b5f60065490505f6006819055505f805f9054906101000a900473ffffffffffffffffffffffffffffffffffffffff1673ffffffffffffffffffffffffffffffffffffffff168260405161058b90610e30565b5f6040518083038185875af1925050503d805f81146105c5576040519150601f19603f3d011682016040523d82523d5f602084013e6105ca565b606091505b505090508061060e576040517f08c379a000000000000000000000000000000000000000000000000000000000815260040161060590610e8e565b60405180910390fd5b5050565b60035481565b6004805461062590610c6e565b80601f016020809104026020016040519081016040528092919081815260200182805461065190610c6e565b801561069c5780601f106106735761010080835404028352916020019161069c565b820191905f5260205f20905b81548152906001019060200180831161067f57829003601f168201915b505050505081565b5f8054906101000a900473ffffffffffffffffffffffffffffffffffffffff1681565b60025481565b600581815481106106dc575f80fd5b905f5260205f2090600302015f91509050805f0180546106fb90610c6e565b80601f016020809104026020016040519081016040528092919081815260200182805461072790610c6e565b80156107725780601f1061074957610100808354040283529160200191610772565b820191905f5260205f20905b81548152906001019060200180831161075557829003601f168201915b5050505050908060010154908060020154905083565b60065481565b6007602052805f5260405f205f915090505481565b60035442106107e7576040517f08c379a00000000000000000000000000000000000000000000000000000000081526004016107de90610ef6565b60405180910390fd5b5f3411610829576040517f08c379a000000000000000000000000000000000000000000000000000000000815260040161082090610f5e565b60405180910390fd5b3460075f3373ffffffffffffffffffffffffffffffffffffffff1673ffffffffffffffffffffffffffffffffffffffff1681526020019081526020015f205f8282546108759190610fa9565b925050819055503460065f82825461088d9190610fa9565b92505081905550565b5f8060075f8473ffffffffffffffffffffffffffffffffffffffff1673ffffffffffffffffffffffffffffffffffffffff1681526020019081526020015f205411610916576040517f08c379a000000000000000000000000000000000000000000000000000000000815260040161090d90611026565b60405180910390fd5b60075f8373ffffffffffffffffffffffffffffffffffffffff1673ffffffffffffffffffffffffffffffffffffffff1681526020019081526020015f20549050919050565b6040518060600160405280606081526020015f81526020015f81525090565b5f81519050919050565b5f82825260208201905092915050565b8281835e5f83830152505050565b5f601f19601f8301169050919050565b5f6109bc8261097a565b6109c68185610984565b93506109d6818560208601610994565b6109df816109a2565b840191505092915050565b5f6020820190508181035f830152610a0281846109b2565b905092915050565b5f80fd5b5f819050919050565b610a2081610a0e565b8114610a2a575f80fd5b50565b5f81359050610a3b81610a17565b92915050565b5f60208284031215610a5657610a55610a0a565b5b5f610a6384828501610a2d565b91505092915050565b5f82825260208201905092915050565b5f610a868261097a565b610a908185610a6c565b9350610aa0818560208601610994565b610aa9816109a2565b840191505092915050565b610abd81610a0e565b82525050565b5f606083015f8301518482035f860152610add8282610a7c565b9150506020830151610af26020860182610ab4565b506040830151610b056040860182610ab4565b508091505092915050565b5f6020820190508181035f830152610b288184610ac3565b905092915050565b610b3981610a0e565b82525050565b5f602082019050610b525f830184610b30565b92915050565b5f73ffffffffffffffffffffffffffffffffffffffff82169050919050565b5f610b8182610b58565b9050919050565b610b9181610b77565b82525050565b5f602082019050610baa5f830184610b88565b92915050565b5f6060820190508181035f830152610bc881866109b2565b9050610bd76020830185610b30565b610be46040830184610b30565b949350505050565b610bf581610b77565b8114610bff575f80fd5b50565b5f81359050610c1081610bec565b92915050565b5f60208284031215610c2b57610c2a610a0a565b5b5f610c3884828501610c02565b91505092915050565b7f4e487b71000000000000000000000000000000000000000000000000000000005f52602260045260245ffd5b5f6002820490506001821680610c8557607f821691505b602082108103610c9857610c97610c41565b5b50919050565b7f4974656d20696e646578206f7574206f662072616e67650000000000000000005f82015250565b5f610cd2601783610984565b9150610cdd82610c9e565b602082019050919050565b5f6020820190508181035f830152610cff81610cc6565b9050919050565b7f4e487b71000000000000000000000000000000000000000000000000000000005f52603260045260245ffd5b7f4f6e6c79206f776e65722063616e2077697468647261770000000000000000005f82015250565b5f610d67601783610984565b9150610d7282610d33565b602082019050919050565b5f6020820190508181035f830152610d9481610d5b565b9050919050565b7f4e6f2066756e647320746f2077697468647261770000000000000000000000005f82015250565b5f610dcf601483610984565b9150610dda82610d9b565b602082019050919050565b5f6020820190508181035f830152610dfc81610dc3565b9050919050565b5f81905092915050565b50565b5f610e1b5f83610e03565b9150610e2682610e0d565b5f82019050919050565b5f610e3a82610e10565b9150819050919050565b7f4661696c656420746f2073656e64206d6f6e65790000000000000000000000005f82015250565b5f610e78601483610984565b9150610e8382610e44565b602082019050919050565b5f6020820190508181035f830152610ea581610e6c565b9050919050565b7f546869732066756e6472616973696e67206973206f76657200000000000000005f82015250565b5f610ee0601883610984565b9150610eeb82610eac565b602082019050919050565b5f6020820190508181035f830152610f0d81610ed4565b9050919050565b7f446f6e6174696f6e206d7573742062652067726561746572207468616e2030005f82015250565b5f610f48601f83610984565b9150610f5382610f14565b602082019050919050565b5f6020820190508181035f830152610f7581610f3c565b9050919050565b7f4e487b71000000000000000000000000000000000000000000000000000000005f52601160045260245ffd5b5f610fb382610a0e565b9150610fbe83610a0e565b9250828201905080821115610fd657610fd5610f7c565b5b92915050565b7f4e6f2044617461000000000000000000000000000000000000000000000000005f82015250565b5f611010600783610984565b915061101b82610fdc565b602082019050919050565b5f6020820190508181035f83015261103d81611004565b905091905056fea264697066735822122092703d537430a906fd7c2ab9a43d7e44807d5955344f9629b853b439ea93dcc464736f6c63430008190033a2646970667358221220a3cad3319d93409d1d730e78a18b50ad5367da10139c50290a62746d0d81738f64736f6c63430008190033",
					"opcodes": "PUSH1 0x80 PUSH1 0x40 MSTORE CALLVALUE DUP1 ISZERO PUSH1 0xE JUMPI PUSH0 DUP1 REVERT JUMPDEST POP PUSH2 0x22AD DUP1 PUSH2 0x1C PUSH0 CODECOPY PUSH0 RETURN INVALID PUSH1 0x80 PUSH1 0x40 MSTORE CALLVALUE DUP1 ISZERO PUSH2 0xF JUMPI PUSH0 DUP1 REVERT JUMPDEST POP PUSH1 0x4 CALLDATASIZE LT PUSH2 0x3F JUMPI PUSH0 CALLDATALOAD PUSH1 0xE0 SHR DUP1 PUSH4 0x8E028D40 EQ PUSH2 0x43 JUMPI DUP1 PUSH4 0xB9A9489C EQ PUSH2 0x61 JUMPI DUP1 PUSH4 0xF38F72FB EQ PUSH2 0x7D JUMPI JUMPDEST PUSH0 DUP1 REVERT JUMPDEST PUSH2 0x4B PUSH2 0xAD JUMP JUMPDEST PUSH1 0x40 MLOAD PUSH2 0x58 SWAP2 SWAP1 PUSH2 0x37A JUMP JUMPDEST PUSH1 0x40 MLOAD DUP1 SWAP2 SUB SWAP1 RETURN JUMPDEST PUSH2 0x7B PUSH1 0x4 DUP1 CALLDATASIZE SUB DUP2 ADD SWAP1 PUSH2 0x76 SWAP2 SWAP1 PUSH2 0x681 JUMP JUMPDEST PUSH2 0x137 JUMP JUMPDEST STOP JUMPDEST PUSH2 0x97 PUSH1 0x4 DUP1 CALLDATASIZE SUB DUP2 ADD SWAP1 PUSH2 0x92 SWAP2 SWAP1 PUSH2 0x74C JUMP JUMPDEST PUSH2 0x211 JUMP JUMPDEST PUSH1 0x40 MLOAD PUSH2 0xA4 SWAP2 SWAP1 PUSH2 0x786 JUMP JUMPDEST PUSH1 0x40 MLOAD DUP1 SWAP2 SUB SWAP1 RETURN JUMPDEST PUSH1 0x60 PUSH0 DUP1 SLOAD DUP1 PUSH1 0x20 MUL PUSH1 0x20 ADD PUSH1 0x40 MLOAD SWAP1 DUP2 ADD PUSH1 0x40 MSTORE DUP1 SWAP3 SWAP2 SWAP1 DUP2 DUP2 MSTORE PUSH1 0x20 ADD DUP3 DUP1 SLOAD DUP1 ISZERO PUSH2 0x12D JUMPI PUSH1 0x20 MUL DUP3 ADD SWAP2 SWAP1 PUSH0 MSTORE PUSH1 0x20 PUSH0 KECCAK256 SWAP1 JUMPDEST DUP2 PUSH0 SWAP1 SLOAD SWAP1 PUSH2 0x100 EXP SWAP1 DIV PUSH20 0xFFFFFFFFFFFFFFFFFFFFFFFFFFFFFFFFFFFFFFFF AND PUSH20 0xFFFFFFFFFFFFFFFFFFFFFFFFFFFFFFFFFFFFFFFF AND DUP2 MSTORE PUSH1 0x20 ADD SWAP1 PUSH1 0x1 ADD SWAP1 DUP1 DUP4 GT PUSH2 0xE4 JUMPI JUMPDEST POP POP POP POP POP SWAP1 POP SWAP1 JUMP JUMPDEST PUSH0 DUP6 DUP6 DUP6 DUP6 DUP6 PUSH1 0x40 MLOAD PUSH2 0x149 SWAP1 PUSH2 0x24B JUMP JUMPDEST PUSH2 0x157 SWAP6 SWAP5 SWAP4 SWAP3 SWAP2 SWAP1 PUSH2 0x96D JUMP JUMPDEST PUSH1 0x40 MLOAD DUP1 SWAP2 SUB SWAP1 PUSH0 CREATE DUP1 ISZERO DUP1 ISZERO PUSH2 0x170 JUMPI RETURNDATASIZE PUSH0 DUP1 RETURNDATACOPY RETURNDATASIZE PUSH0 REVERT JUMPDEST POP SWAP1 POP PUSH0 DUP2 SWAP1 DUP1 PUSH1 0x1 DUP2 SLOAD ADD DUP1 DUP3 SSTORE DUP1 SWAP2 POP POP PUSH1 0x1 SWAP1 SUB SWAP1 PUSH0 MSTORE PUSH1 0x20 PUSH0 KECCAK256 ADD PUSH0 SWAP1 SWAP2 SWAP1 SWAP2 SWAP1 SWAP2 PUSH2 0x100 EXP DUP2 SLOAD DUP2 PUSH20 0xFFFFFFFFFFFFFFFFFFFFFFFFFFFFFFFFFFFFFFFF MUL NOT AND SWAP1 DUP4 PUSH20 0xFFFFFFFFFFFFFFFFFFFFFFFFFFFFFFFFFFFFFFFF AND MUL OR SWAP1 SSTORE POP PUSH32 0x2557643B2D3FB1068494CB23AC8D1B3B2A857564FE606F86020E33E2351E42DC DUP2 PUSH1 0x40 MLOAD PUSH2 0x201 SWAP2 SWAP1 PUSH2 0x9F3 JUMP JUMPDEST PUSH1 0x40 MLOAD DUP1 SWAP2 SUB SWAP1 LOG1 POP POP POP POP POP POP JUMP JUMPDEST PUSH0 DUP2 DUP2 SLOAD DUP2 LT PUSH2 0x21F JUMPI PUSH0 DUP1 REVERT JUMPDEST SWAP1 PUSH0 MSTORE PUSH1 0x20 PUSH0 KECCAK256 ADD PUSH0 SWAP2 POP SLOAD SWAP1 PUSH2 0x100 EXP SWAP1 DIV PUSH20 0xFFFFFFFFFFFFFFFFFFFFFFFFFFFFFFFFFFFFFFFF AND DUP2 JUMP JUMPDEST PUSH2 0x186B DUP1 PUSH2 0xA0D DUP4 CODECOPY ADD SWAP1 JUMP JUMPDEST PUSH0 DUP2 MLOAD SWAP1 POP SWAP2 SWAP1 POP JUMP JUMPDEST PUSH0 DUP3 DUP3 MSTORE PUSH1 0x20 DUP3 ADD SWAP1 POP SWAP3 SWAP2 POP POP JUMP JUMPDEST PUSH0 DUP2 SWAP1 POP PUSH1 0x20 DUP3 ADD SWAP1 POP SWAP2 SWAP1 POP JUMP JUMPDEST PUSH0 PUSH20 0xFFFFFFFFFFFFFFFFFFFFFFFFFFFFFFFFFFFFFFFF DUP3 AND SWAP1 POP SWAP2 SWAP1 POP JUMP JUMPDEST PUSH0 DUP2 SWAP1 POP SWAP2 SWAP1 POP JUMP JUMPDEST PUSH0 PUSH2 0x2C3 PUSH2 0x2BE PUSH2 0x2B9 DUP5 PUSH2 0x281 JUMP JUMPDEST PUSH2 0x2A0 JUMP JUMPDEST PUSH2 0x281 JUMP JUMPDEST SWAP1 POP SWAP2 SWAP1 POP JUMP JUMPDEST PUSH0 PUSH2 0x2D4 DUP3 PUSH2 0x2A9 JUMP JUMPDEST SWAP1 POP SWAP2 SWAP1 POP JUMP JUMPDEST PUSH0 PUSH2 0x2E5 DUP3 PUSH2 0x2CA JUMP JUMPDEST SWAP1 POP SWAP2 SWAP1 POP JUMP JUMPDEST PUSH2 0x2F5 DUP2 PUSH2 0x2DB JUMP JUMPDEST DUP3 MSTORE POP POP JUMP JUMPDEST PUSH0 PUSH2 0x306 DUP4 DUP4 PUSH2 0x2EC JUMP JUMPDEST PUSH1 0x20 DUP4 ADD SWAP1 POP SWAP3 SWAP2 POP POP JUMP JUMPDEST PUSH0 PUSH1 0x20 DUP3 ADD SWAP1 POP SWAP2 SWAP1 POP JUMP JUMPDEST PUSH0 PUSH2 0x328 DUP3 PUSH2 0x258 JUMP JUMPDEST PUSH2 0x332 DUP2 DUP6 PUSH2 0x262 JUMP JUMPDEST SWAP4 POP PUSH2 0x33D DUP4 PUSH2 0x272 JUMP JUMPDEST DUP1 PUSH0 JUMPDEST DUP4 DUP2 LT ISZERO PUSH2 0x36D JUMPI DUP2 MLOAD PUSH2 0x354 DUP9 DUP3 PUSH2 0x2FB JUMP JUMPDEST SWAP8 POP PUSH2 0x35F DUP4 PUSH2 0x312 JUMP JUMPDEST SWAP3 POP POP PUSH1 0x1 DUP2 ADD SWAP1 POP PUSH2 0x340 JUMP JUMPDEST POP DUP6 SWAP4 POP POP POP POP SWAP3 SWAP2 POP POP JUMP JUMPDEST PUSH0 PUSH1 0x20 DUP3 ADD SWAP1 POP DUP2 DUP2 SUB PUSH0 DUP4 ADD MSTORE PUSH2 0x392 DUP2 DUP5 PUSH2 0x31E JUMP JUMPDEST SWAP1 POP SWAP3 SWAP2 POP POP JUMP JUMPDEST PUSH0 PUSH1 0x40 MLOAD SWAP1 POP SWAP1 JUMP JUMPDEST PUSH0 DUP1 REVERT JUMPDEST PUSH0 DUP1 REVERT JUMPDEST PUSH0 DUP1 REVERT JUMPDEST PUSH0 DUP1 REVERT JUMPDEST PUSH0 PUSH1 0x1F NOT PUSH1 0x1F DUP4 ADD AND SWAP1 POP SWAP2 SWAP1 POP JUMP JUMPDEST PUSH32 0x4E487B7100000000000000000000000000000000000000000000000000000000 PUSH0 MSTORE PUSH1 0x41 PUSH1 0x4 MSTORE PUSH1 0x24 PUSH0 REVERT JUMPDEST PUSH2 0x3F9 DUP3 PUSH2 0x3B3 JUMP JUMPDEST DUP2 ADD DUP2 DUP2 LT PUSH8 0xFFFFFFFFFFFFFFFF DUP3 GT OR ISZERO PUSH2 0x418 JUMPI PUSH2 0x417 PUSH2 0x3C3 JUMP JUMPDEST JUMPDEST DUP1 PUSH1 0x40 MSTORE POP POP POP JUMP JUMPDEST PUSH0 PUSH2 0x42A PUSH2 0x39A JUMP JUMPDEST SWAP1 POP PUSH2 0x436 DUP3 DUP3 PUSH2 0x3F0 JUMP JUMPDEST SWAP2 SWAP1 POP JUMP JUMPDEST PUSH0 PUSH8 0xFFFFFFFFFFFFFFFF DUP3 GT ISZERO PUSH2 0x455 JUMPI PUSH2 0x454 PUSH2 0x3C3 JUMP JUMPDEST JUMPDEST PUSH2 0x45E DUP3 PUSH2 0x3B3 JUMP JUMPDEST SWAP1 POP PUSH1 0x20 DUP2 ADD SWAP1 POP SWAP2 SWAP1 POP JUMP JUMPDEST DUP3 DUP2 DUP4 CALLDATACOPY PUSH0 DUP4 DUP4 ADD MSTORE POP POP POP JUMP JUMPDEST PUSH0 PUSH2 0x48B PUSH2 0x486 DUP5 PUSH2 0x43B JUMP JUMPDEST PUSH2 0x421 JUMP JUMPDEST SWAP1 POP DUP3 DUP2 MSTORE PUSH1 0x20 DUP2 ADD DUP5 DUP5 DUP5 ADD GT ISZERO PUSH2 0x4A7 JUMPI PUSH2 0x4A6 PUSH2 0x3AF JUMP JUMPDEST JUMPDEST PUSH2 0x4B2 DUP5 DUP3 DUP6 PUSH2 0x46B JUMP JUMPDEST POP SWAP4 SWAP3 POP POP POP JUMP JUMPDEST PUSH0 DUP3 PUSH1 0x1F DUP4 ADD SLT PUSH2 0x4CE JUMPI PUSH2 0x4CD PUSH2 0x3AB JUMP JUMPDEST JUMPDEST DUP2 CALLDATALOAD PUSH2 0x4DE DUP5 DUP3 PUSH1 0x20 DUP7 ADD PUSH2 0x479 JUMP JUMPDEST SWAP2 POP POP SWAP3 SWAP2 POP POP JUMP JUMPDEST PUSH0 DUP2 SWAP1 POP SWAP2 SWAP1 POP JUMP JUMPDEST PUSH2 0x4F9 DUP2 PUSH2 0x4E7 JUMP JUMPDEST DUP2 EQ PUSH2 0x503 JUMPI PUSH0 DUP1 REVERT JUMPDEST POP JUMP JUMPDEST PUSH0 DUP2 CALLDATALOAD SWAP1 POP PUSH2 0x514 DUP2 PUSH2 0x4F0 JUMP JUMPDEST SWAP3 SWAP2 POP POP JUMP JUMPDEST PUSH0 PUSH8 0xFFFFFFFFFFFFFFFF DUP3 GT ISZERO PUSH2 0x534 JUMPI PUSH2 0x533 PUSH2 0x3C3 JUMP JUMPDEST JUMPDEST PUSH1 0x20 DUP3 MUL SWAP1 POP PUSH1 0x20 DUP2 ADD SWAP1 POP SWAP2 SWAP1 POP JUMP JUMPDEST PUSH0 DUP1 REVERT JUMPDEST PUSH0 DUP1 REVERT JUMPDEST PUSH0 DUP1 REVERT JUMPDEST PUSH0 PUSH1 0x60 DUP3 DUP5 SUB SLT ISZERO PUSH2 0x566 JUMPI PUSH2 0x565 PUSH2 0x549 JUMP JUMPDEST JUMPDEST PUSH2 0x570 PUSH1 0x60 PUSH2 0x421 JUMP JUMPDEST SWAP1 POP PUSH0 DUP3 ADD CALLDATALOAD PUSH8 0xFFFFFFFFFFFFFFFF DUP2 GT ISZERO PUSH2 0x58F JUMPI PUSH2 0x58E PUSH2 0x54D JUMP JUMPDEST JUMPDEST PUSH2 0x59B DUP5 DUP3 DUP6 ADD PUSH2 0x4BA JUMP JUMPDEST PUSH0 DUP4 ADD MSTORE POP PUSH1 0x20 PUSH2 0x5AE DUP5 DUP3 DUP6 ADD PUSH2 0x506 JUMP JUMPDEST PUSH1 0x20 DUP4 ADD MSTORE POP PUSH1 0x40 PUSH2 0x5C2 DUP5 DUP3 DUP6 ADD PUSH2 0x506 JUMP JUMPDEST PUSH1 0x40 DUP4 ADD MSTORE POP SWAP3 SWAP2 POP POP JUMP JUMPDEST PUSH0 PUSH2 0x5E0 PUSH2 0x5DB DUP5 PUSH2 0x51A JUMP JUMPDEST PUSH2 0x421 JUMP JUMPDEST SWAP1 POP DUP1 DUP4 DUP3 MSTORE PUSH1 0x20 DUP3 ADD SWAP1 POP PUSH1 0x20 DUP5 MUL DUP4 ADD DUP6 DUP2 GT ISZERO PUSH2 0x603 JUMPI PUSH2 0x602 PUSH2 0x545 JUMP JUMPDEST JUMPDEST DUP4 JUMPDEST DUP2 DUP2 LT ISZERO PUSH2 0x64A JUMPI DUP1 CALLDATALOAD PUSH8 0xFFFFFFFFFFFFFFFF DUP2 GT ISZERO PUSH2 0x628 JUMPI PUSH2 0x627 PUSH2 0x3AB JUMP JUMPDEST JUMPDEST DUP1 DUP7 ADD PUSH2 0x635 DUP10 DUP3 PUSH2 0x551 JUMP JUMPDEST DUP6 MSTORE PUSH1 0x20 DUP6 ADD SWAP5 POP POP POP PUSH1 0x20 DUP2 ADD SWAP1 POP PUSH2 0x605 JUMP JUMPDEST POP POP POP SWAP4 SWAP3 POP POP POP JUMP JUMPDEST PUSH0 DUP3 PUSH1 0x1F DUP4 ADD SLT PUSH2 0x668 JUMPI PUSH2 0x667 PUSH2 0x3AB JUMP JUMPDEST JUMPDEST DUP2 CALLDATALOAD PUSH2 0x678 DUP5 DUP3 PUSH1 0x20 DUP7 ADD PUSH2 0x5CE JUMP JUMPDEST SWAP2 POP POP SWAP3 SWAP2 POP POP JUMP JUMPDEST PUSH0 DUP1 PUSH0 DUP1 PUSH0 PUSH1 0xA0 DUP7 DUP9 SUB SLT ISZERO PUSH2 0x69A JUMPI PUSH2 0x699 PUSH2 0x3A3 JUMP JUMPDEST JUMPDEST PUSH0 DUP7 ADD CALLDATALOAD PUSH8 0xFFFFFFFFFFFFFFFF DUP2 GT ISZERO PUSH2 0x6B7 JUMPI PUSH2 0x6B6 PUSH2 0x3A7 JUMP JUMPDEST JUMPDEST PUSH2 0x6C3 DUP9 DUP3 DUP10 ADD PUSH2 0x4BA JUMP JUMPDEST SWAP6 POP POP PUSH1 0x20 PUSH2 0x6D4 DUP9 DUP3 DUP10 ADD PUSH2 0x506 JUMP JUMPDEST SWAP5 POP POP PUSH1 0x40 PUSH2 0x6E5 DUP9 DUP3 DUP10 ADD PUSH2 0x506 JUMP JUMPDEST SWAP4 POP POP PUSH1 0x60 DUP7 ADD CALLDATALOAD PUSH8 0xFFFFFFFFFFFFFFFF DUP2 GT ISZERO PUSH2 0x706 JUMPI PUSH2 0x705 PUSH2 0x3A7 JUMP JUMPDEST JUMPDEST PUSH2 0x712 DUP9 DUP3 DUP10 ADD PUSH2 0x4BA JUMP JUMPDEST SWAP3 POP POP PUSH1 0x80 DUP7 ADD CALLDATALOAD PUSH8 0xFFFFFFFFFFFFFFFF DUP2 GT ISZERO PUSH2 0x733 JUMPI PUSH2 0x732 PUSH2 0x3A7 JUMP JUMPDEST JUMPDEST PUSH2 0x73F DUP9 DUP3 DUP10 ADD PUSH2 0x654 JUMP JUMPDEST SWAP2 POP POP SWAP3 SWAP6 POP SWAP3 SWAP6 SWAP1 SWAP4 POP JUMP JUMPDEST PUSH0 PUSH1 0x20 DUP3 DUP5 SUB SLT ISZERO PUSH2 0x761 JUMPI PUSH2 0x760 PUSH2 0x3A3 JUMP JUMPDEST JUMPDEST PUSH0 PUSH2 0x76E DUP5 DUP3 DUP6 ADD PUSH2 0x506 JUMP JUMPDEST SWAP2 POP POP SWAP3 SWAP2 POP POP JUMP JUMPDEST PUSH2 0x780 DUP2 PUSH2 0x2DB JUMP JUMPDEST DUP3 MSTORE POP POP JUMP JUMPDEST PUSH0 PUSH1 0x20 DUP3 ADD SWAP1 POP PUSH2 0x799 PUSH0 DUP4 ADD DUP5 PUSH2 0x777 JUMP JUMPDEST SWAP3 SWAP2 POP POP JUMP JUMPDEST PUSH0 DUP2 MLOAD SWAP1 POP SWAP2 SWAP1 POP JUMP JUMPDEST PUSH0 DUP3 DUP3 MSTORE PUSH1 0x20 DUP3 ADD SWAP1 POP SWAP3 SWAP2 POP POP JUMP JUMPDEST DUP3 DUP2 DUP4 MCOPY PUSH0 DUP4 DUP4 ADD MSTORE POP POP POP JUMP JUMPDEST PUSH0 PUSH2 0x7D1 DUP3 PUSH2 0x79F JUMP JUMPDEST PUSH2 0x7DB DUP2 DUP6 PUSH2 0x7A9 JUMP JUMPDEST SWAP4 POP PUSH2 0x7EB DUP2 DUP6 PUSH1 0x20 DUP7 ADD PUSH2 0x7B9 JUMP JUMPDEST PUSH2 0x7F4 DUP2 PUSH2 0x3B3 JUMP JUMPDEST DUP5 ADD SWAP2 POP POP SWAP3 SWAP2 POP POP JUMP JUMPDEST PUSH2 0x808 DUP2 PUSH2 0x4E7 JUMP JUMPDEST DUP3 MSTORE POP POP JUMP JUMPDEST PUSH0 DUP2 MLOAD SWAP1 POP SWAP2 SWAP1 POP JUMP JUMPDEST PUSH0 DUP3 DUP3 MSTORE PUSH1 0x20 DUP3 ADD SWAP1 POP SWAP3 SWAP2 POP POP JUMP JUMPDEST PUSH0 DUP2 SWAP1 POP PUSH1 0x20 DUP3 ADD SWAP1 POP SWAP2 SWAP1 POP JUMP JUMPDEST PUSH0 DUP3 DUP3 MSTORE PUSH1 0x20 DUP3 ADD SWAP1 POP SWAP3 SWAP2 POP POP JUMP JUMPDEST PUSH0 PUSH2 0x851 DUP3 PUSH2 0x79F JUMP JUMPDEST PUSH2 0x85B DUP2 DUP6 PUSH2 0x837 JUMP JUMPDEST SWAP4 POP PUSH2 0x86B DUP2 DUP6 PUSH1 0x20 DUP7 ADD PUSH2 0x7B9 JUMP JUMPDEST PUSH2 0x874 DUP2 PUSH2 0x3B3 JUMP JUMPDEST DUP5 ADD SWAP2 POP POP SWAP3 SWAP2 POP POP JUMP JUMPDEST PUSH2 0x888 DUP2 PUSH2 0x4E7 JUMP JUMPDEST DUP3 MSTORE POP POP JUMP JUMPDEST PUSH0 PUSH1 0x60 DUP4 ADD PUSH0 DUP4 ADD MLOAD DUP5 DUP3 SUB PUSH0 DUP7 ADD MSTORE PUSH2 0x8A8 DUP3 DUP3 PUSH2 0x847 JUMP JUMPDEST SWAP2 POP POP PUSH1 0x20 DUP4 ADD MLOAD PUSH2 0x8BD PUSH1 0x20 DUP7 ADD DUP3 PUSH2 0x87F JUMP JUMPDEST POP PUSH1 0x40 DUP4 ADD MLOAD PUSH2 0x8D0 PUSH1 0x40 DUP7 ADD DUP3 PUSH2 0x87F JUMP JUMPDEST POP DUP1 SWAP2 POP POP SWAP3 SWAP2 POP POP JUMP JUMPDEST PUSH0 PUSH2 0x8E6 DUP4 DUP4 PUSH2 0x88E JUMP JUMPDEST SWAP1 POP SWAP3 SWAP2 POP POP JUMP JUMPDEST PUSH0 PUSH1 0x20 DUP3 ADD SWAP1 POP SWAP2 SWAP1 POP JUMP JUMPDEST PUSH0 PUSH2 0x904 DUP3 PUSH2 0x80E JUMP JUMPDEST PUSH2 0x90E DUP2 DUP6 PUSH2 0x818 JUMP JUMPDEST SWAP4 POP DUP4 PUSH1 0x20 DUP3 MUL DUP6 ADD PUSH2 0x920 DUP6 PUSH2 0x828 JUMP JUMPDEST DUP1 PUSH0 JUMPDEST DUP6 DUP2 LT ISZERO PUSH2 0x95B JUMPI DUP5 DUP5 SUB DUP10 MSTORE DUP2 MLOAD PUSH2 0x93C DUP6 DUP3 PUSH2 0x8DB JUMP JUMPDEST SWAP5 POP PUSH2 0x947 DUP4 PUSH2 0x8EE JUMP JUMPDEST SWAP3 POP PUSH1 0x20 DUP11 ADD SWAP10 POP POP PUSH1 0x1 DUP2 ADD SWAP1 POP PUSH2 0x923 JUMP JUMPDEST POP DUP3 SWAP8 POP DUP8 SWAP6 POP POP POP POP POP POP SWAP3 SWAP2 POP POP JUMP JUMPDEST PUSH0 PUSH1 0xA0 DUP3 ADD SWAP1 POP DUP2 DUP2 SUB PUSH0 DUP4 ADD MSTORE PUSH2 0x985 DUP2 DUP9 PUSH2 0x7C7 JUMP JUMPDEST SWAP1 POP PUSH2 0x994 PUSH1 0x20 DUP4 ADD DUP8 PUSH2 0x7FF JUMP JUMPDEST PUSH2 0x9A1 PUSH1 0x40 DUP4 ADD DUP7 PUSH2 0x7FF JUMP JUMPDEST DUP2 DUP2 SUB PUSH1 0x60 DUP4 ADD MSTORE PUSH2 0x9B3 DUP2 DUP6 PUSH2 0x7C7 JUMP JUMPDEST SWAP1 POP DUP2 DUP2 SUB PUSH1 0x80 DUP4 ADD MSTORE PUSH2 0x9C7 DUP2 DUP5 PUSH2 0x8FA JUMP JUMPDEST SWAP1 POP SWAP7 SWAP6 POP POP POP POP POP POP JUMP JUMPDEST PUSH0 PUSH2 0x9DD DUP3 PUSH2 0x281 JUMP JUMPDEST SWAP1 POP SWAP2 SWAP1 POP JUMP JUMPDEST PUSH2 0x9ED DUP2 PUSH2 0x9D3 JUMP JUMPDEST DUP3 MSTORE POP POP JUMP JUMPDEST PUSH0 PUSH1 0x20 DUP3 ADD SWAP1 POP PUSH2 0xA06 PUSH0 DUP4 ADD DUP5 PUSH2 0x9E4 JUMP JUMPDEST SWAP3 SWAP2 POP POP JUMP INVALID PUSH1 0x80 PUSH1 0x40 MSTORE PUSH0 PUSH1 0x6 SSTORE CALLVALUE DUP1 ISZERO PUSH2 0x13 JUMPI PUSH0 DUP1 REVERT JUMPDEST POP PUSH1 0x40 MLOAD PUSH2 0x186B CODESIZE SUB DUP1 PUSH2 0x186B DUP4 CODECOPY DUP2 DUP2 ADD PUSH1 0x40 MSTORE DUP2 ADD SWAP1 PUSH2 0x35 SWAP2 SWAP1 PUSH2 0x419 JUMP JUMPDEST CALLER PUSH0 DUP1 PUSH2 0x100 EXP DUP2 SLOAD DUP2 PUSH20 0xFFFFFFFFFFFFFFFFFFFFFFFFFFFFFFFFFFFFFFFF MUL NOT AND SWAP1 DUP4 PUSH20 0xFFFFFFFFFFFFFFFFFFFFFFFFFFFFFFFFFFFFFFFF AND MUL OR SWAP1 SSTORE POP DUP5 PUSH1 0x1 SWAP1 DUP2 PUSH2 0x83 SWAP2 SWAP1 PUSH2 0x6E8 JUMP JUMPDEST POP DUP4 PUSH1 0x2 DUP2 SWAP1 SSTORE POP DUP3 PUSH1 0x3 DUP2 SWAP1 SSTORE POP DUP2 PUSH1 0x4 SWAP1 DUP2 PUSH2 0xA1 SWAP2 SWAP1 PUSH2 0x6E8 JUMP JUMPDEST POP PUSH0 JUMPDEST DUP2 MLOAD DUP2 LT ISZERO PUSH2 0x127 JUMPI PUSH1 0x5 DUP3 DUP3 DUP2 MLOAD DUP2 LT PUSH2 0xC2 JUMPI PUSH2 0xC1 PUSH2 0x7B7 JUMP JUMPDEST JUMPDEST PUSH1 0x20 MUL PUSH1 0x20 ADD ADD MLOAD SWAP1 DUP1 PUSH1 0x1 DUP2 SLOAD ADD DUP1 DUP3 SSTORE DUP1 SWAP2 POP POP PUSH1 0x1 SWAP1 SUB SWAP1 PUSH0 MSTORE PUSH1 0x20 PUSH0 KECCAK256 SWAP1 PUSH1 0x3 MUL ADD PUSH0 SWAP1 SWAP2 SWAP1 SWAP2 SWAP1 SWAP2 POP PUSH0 DUP3 ADD MLOAD DUP2 PUSH0 ADD SWAP1 DUP2 PUSH2 0x103 SWAP2 SWAP1 PUSH2 0x6E8 JUMP JUMPDEST POP PUSH1 0x20 DUP3 ADD MLOAD DUP2 PUSH1 0x1 ADD SSTORE PUSH1 0x40 DUP3 ADD MLOAD DUP2 PUSH1 0x2 ADD SSTORE POP POP DUP1 DUP1 PUSH1 0x1 ADD SWAP2 POP POP PUSH2 0xA4 JUMP JUMPDEST POP POP POP POP POP POP PUSH2 0x7E4 JUMP JUMPDEST PUSH0 PUSH1 0x40 MLOAD SWAP1 POP SWAP1 JUMP JUMPDEST PUSH0 DUP1 REVERT JUMPDEST PUSH0 DUP1 REVERT JUMPDEST PUSH0 DUP1 REVERT JUMPDEST PUSH0 DUP1 REVERT JUMPDEST PUSH0 PUSH1 0x1F NOT PUSH1 0x1F DUP4 ADD AND SWAP1 POP SWAP2 SWAP1 POP JUMP JUMPDEST PUSH32 0x4E487B7100000000000000000000000000000000000000000000000000000000 PUSH0 MSTORE PUSH1 0x41 PUSH1 0x4 MSTORE PUSH1 0x24 PUSH0 REVERT JUMPDEST PUSH2 0x191 DUP3 PUSH2 0x14B JUMP JUMPDEST DUP2 ADD DUP2 DUP2 LT PUSH8 0xFFFFFFFFFFFFFFFF DUP3 GT OR ISZERO PUSH2 0x1B0 JUMPI PUSH2 0x1AF PUSH2 0x15B JUMP JUMPDEST JUMPDEST DUP1 PUSH1 0x40 MSTORE POP POP POP JUMP JUMPDEST PUSH0 PUSH2 0x1C2 PUSH2 0x132 JUMP JUMPDEST SWAP1 POP PUSH2 0x1CE DUP3 DUP3 PUSH2 0x188 JUMP JUMPDEST SWAP2 SWAP1 POP JUMP JUMPDEST PUSH0 PUSH8 0xFFFFFFFFFFFFFFFF DUP3 GT ISZERO PUSH2 0x1ED JUMPI PUSH2 0x1EC PUSH2 0x15B JUMP JUMPDEST JUMPDEST PUSH2 0x1F6 DUP3 PUSH2 0x14B JUMP JUMPDEST SWAP1 POP PUSH1 0x20 DUP2 ADD SWAP1 POP SWAP2 SWAP1 POP JUMP JUMPDEST DUP3 DUP2 DUP4 MCOPY PUSH0 DUP4 DUP4 ADD MSTORE POP POP POP JUMP JUMPDEST PUSH0 PUSH2 0x223 PUSH2 0x21E DUP5 PUSH2 0x1D3 JUMP JUMPDEST PUSH2 0x1B9 JUMP JUMPDEST SWAP1 POP DUP3 DUP2 MSTORE PUSH1 0x20 DUP2 ADD DUP5 DUP5 DUP5 ADD GT ISZERO PUSH2 0x23F JUMPI PUSH2 0x23E PUSH2 0x147 JUMP JUMPDEST JUMPDEST PUSH2 0x24A DUP5 DUP3 DUP6 PUSH2 0x203 JUMP JUMPDEST POP SWAP4 SWAP3 POP POP POP JUMP JUMPDEST PUSH0 DUP3 PUSH1 0x1F DUP4 ADD SLT PUSH2 0x266 JUMPI PUSH2 0x265 PUSH2 0x143 JUMP JUMPDEST JUMPDEST DUP2 MLOAD PUSH2 0x276 DUP5 DUP3 PUSH1 0x20 DUP7 ADD PUSH2 0x211 JUMP JUMPDEST SWAP2 POP POP SWAP3 SWAP2 POP POP JUMP JUMPDEST PUSH0 DUP2 SWAP1 POP SWAP2 SWAP1 POP JUMP JUMPDEST PUSH2 0x291 DUP2 PUSH2 0x27F JUMP JUMPDEST DUP2 EQ PUSH2 0x29B JUMPI PUSH0 DUP1 REVERT JUMPDEST POP JUMP JUMPDEST PUSH0 DUP2 MLOAD SWAP1 POP PUSH2 0x2AC DUP2 PUSH2 0x288 JUMP JUMPDEST SWAP3 SWAP2 POP POP JUMP JUMPDEST PUSH0 PUSH8 0xFFFFFFFFFFFFFFFF DUP3 GT ISZERO PUSH2 0x2CC JUMPI PUSH2 0x2CB PUSH2 0x15B JUMP JUMPDEST JUMPDEST PUSH1 0x20 DUP3 MUL SWAP1 POP PUSH1 0x20 DUP2 ADD SWAP1 POP SWAP2 SWAP1 POP JUMP JUMPDEST PUSH0 DUP1 REVERT JUMPDEST PUSH0 DUP1 REVERT JUMPDEST PUSH0 DUP1 REVERT JUMPDEST PUSH0 PUSH1 0x60 DUP3 DUP5 SUB SLT ISZERO PUSH2 0x2FE JUMPI PUSH2 0x2FD PUSH2 0x2E1 JUMP JUMPDEST JUMPDEST PUSH2 0x308 PUSH1 0x60 PUSH2 0x1B9 JUMP JUMPDEST SWAP1 POP PUSH0 DUP3 ADD MLOAD PUSH8 0xFFFFFFFFFFFFFFFF DUP2 GT ISZERO PUSH2 0x327 JUMPI PUSH2 0x326 PUSH2 0x2E5 JUMP JUMPDEST JUMPDEST PUSH2 0x333 DUP5 DUP3 DUP6 ADD PUSH2 0x252 JUMP JUMPDEST PUSH0 DUP4 ADD MSTORE POP PUSH1 0x20 PUSH2 0x346 DUP5 DUP3 DUP6 ADD PUSH2 0x29E JUMP JUMPDEST PUSH1 0x20 DUP4 ADD MSTORE POP PUSH1 0x40 PUSH2 0x35A DUP5 DUP3 DUP6 ADD PUSH2 0x29E JUMP JUMPDEST PUSH1 0x40 DUP4 ADD MSTORE POP SWAP3 SWAP2 POP POP JUMP JUMPDEST PUSH0 PUSH2 0x378 PUSH2 0x373 DUP5 PUSH2 0x2B2 JUMP JUMPDEST PUSH2 0x1B9 JUMP JUMPDEST SWAP1 POP DUP1 DUP4 DUP3 MSTORE PUSH1 0x20 DUP3 ADD SWAP1 POP PUSH1 0x20 DUP5 MUL DUP4 ADD DUP6 DUP2 GT ISZERO PUSH2 0x39B JUMPI PUSH2 0x39A PUSH2 0x2DD JUMP JUMPDEST JUMPDEST DUP4 JUMPDEST DUP2 DUP2 LT ISZERO PUSH2 0x3E2 JUMPI DUP1 MLOAD PUSH8 0xFFFFFFFFFFFFFFFF DUP2 GT ISZERO PUSH2 0x3C0 JUMPI PUSH2 0x3BF PUSH2 0x143 JUMP JUMPDEST JUMPDEST DUP1 DUP7 ADD PUSH2 0x3CD DUP10 DUP3 PUSH2 0x2E9 JUMP JUMPDEST DUP6 MSTORE PUSH1 0x20 DUP6 ADD SWAP5 POP POP POP PUSH1 0x20 DUP2 ADD SWAP1 POP PUSH2 0x39D JUMP JUMPDEST POP POP POP SWAP4 SWAP3 POP POP POP JUMP JUMPDEST PUSH0 DUP3 PUSH1 0x1F DUP4 ADD SLT PUSH2 0x400 JUMPI PUSH2 0x3FF PUSH2 0x143 JUMP JUMPDEST JUMPDEST DUP2 MLOAD PUSH2 0x410 DUP5 DUP3 PUSH1 0x20 DUP7 ADD PUSH2 0x366 JUMP JUMPDEST SWAP2 POP POP SWAP3 SWAP2 POP POP JUMP JUMPDEST PUSH0 DUP1 PUSH0 DUP1 PUSH0 PUSH1 0xA0 DUP7 DUP9 SUB SLT ISZERO PUSH2 0x432 JUMPI PUSH2 0x431 PUSH2 0x13B JUMP JUMPDEST JUMPDEST PUSH0 DUP7 ADD MLOAD PUSH8 0xFFFFFFFFFFFFFFFF DUP2 GT ISZERO PUSH2 0x44F JUMPI PUSH2 0x44E PUSH2 0x13F JUMP JUMPDEST JUMPDEST PUSH2 0x45B DUP9 DUP3 DUP10 ADD PUSH2 0x252 JUMP JUMPDEST SWAP6 POP POP PUSH1 0x20 PUSH2 0x46C DUP9 DUP3 DUP10 ADD PUSH2 0x29E JUMP JUMPDEST SWAP5 POP POP PUSH1 0x40 PUSH2 0x47D DUP9 DUP3 DUP10 ADD PUSH2 0x29E JUMP JUMPDEST SWAP4 POP POP PUSH1 0x60 DUP7 ADD MLOAD PUSH8 0xFFFFFFFFFFFFFFFF DUP2 GT ISZERO PUSH2 0x49E JUMPI PUSH2 0x49D PUSH2 0x13F JUMP JUMPDEST JUMPDEST PUSH2 0x4AA DUP9 DUP3 DUP10 ADD PUSH2 0x252 JUMP JUMPDEST SWAP3 POP POP PUSH1 0x80 DUP7 ADD MLOAD PUSH8 0xFFFFFFFFFFFFFFFF DUP2 GT ISZERO PUSH2 0x4CB JUMPI PUSH2 0x4CA PUSH2 0x13F JUMP JUMPDEST JUMPDEST PUSH2 0x4D7 DUP9 DUP3 DUP10 ADD PUSH2 0x3EC JUMP JUMPDEST SWAP2 POP POP SWAP3 SWAP6 POP SWAP3 SWAP6 SWAP1 SWAP4 POP JUMP JUMPDEST PUSH0 DUP2 MLOAD SWAP1 POP SWAP2 SWAP1 POP JUMP JUMPDEST PUSH32 0x4E487B7100000000000000000000000000000000000000000000000000000000 PUSH0 MSTORE PUSH1 0x22 PUSH1 0x4 MSTORE PUSH1 0x24 PUSH0 REVERT JUMPDEST PUSH0 PUSH1 0x2 DUP3 DIV SWAP1 POP PUSH1 0x1 DUP3 AND DUP1 PUSH2 0x532 JUMPI PUSH1 0x7F DUP3 AND SWAP2 POP JUMPDEST PUSH1 0x20 DUP3 LT DUP2 SUB PUSH2 0x545 JUMPI PUSH2 0x544 PUSH2 0x4EE JUMP JUMPDEST JUMPDEST POP SWAP2 SWAP1 POP JUMP JUMPDEST PUSH0 DUP2 SWAP1 POP DUP2 PUSH0 MSTORE PUSH1 0x20 PUSH0 KECCAK256 SWAP1 POP SWAP2 SWAP1 POP JUMP JUMPDEST PUSH0 PUSH1 0x20 PUSH1 0x1F DUP4 ADD DIV SWAP1 POP SWAP2 SWAP1 POP JUMP JUMPDEST PUSH0 DUP3 DUP3 SHL SWAP1 POP SWAP3 SWAP2 POP POP JUMP JUMPDEST PUSH0 PUSH1 0x8 DUP4 MUL PUSH2 0x5A7 PUSH32 0xFFFFFFFFFFFFFFFFFFFFFFFFFFFFFFFFFFFFFFFFFFFFFFFFFFFFFFFFFFFFFFFF DUP3 PUSH2 0x56C JUMP JUMPDEST PUSH2 0x5B1 DUP7 DUP4 PUSH2 0x56C JUMP JUMPDEST SWAP6 POP DUP1 NOT DUP5 AND SWAP4 POP DUP1 DUP7 AND DUP5 OR SWAP3 POP POP POP SWAP4 SWAP3 POP POP POP JUMP JUMPDEST PUSH0 DUP2 SWAP1 POP SWAP2 SWAP1 POP JUMP JUMPDEST PUSH0 PUSH2 0x5EC PUSH2 0x5E7 PUSH2 0x5E2 DUP5 PUSH2 0x27F JUMP JUMPDEST PUSH2 0x5C9 JUMP JUMPDEST PUSH2 0x27F JUMP JUMPDEST SWAP1 POP SWAP2 SWAP1 POP JUMP JUMPDEST PUSH0 DUP2 SWAP1 POP SWAP2 SWAP1 POP JUMP JUMPDEST PUSH2 0x605 DUP4 PUSH2 0x5D2 JUMP JUMPDEST PUSH2 0x619 PUSH2 0x611 DUP3 PUSH2 0x5F3 JUMP JUMPDEST DUP5 DUP5 SLOAD PUSH2 0x578 JUMP JUMPDEST DUP3 SSTORE POP POP POP POP JUMP JUMPDEST PUSH0 SWAP1 JUMP JUMPDEST PUSH2 0x62D PUSH2 0x621 JUMP JUMPDEST PUSH2 0x638 DUP2 DUP5 DUP5 PUSH2 0x5FC JUMP JUMPDEST POP POP POP JUMP JUMPDEST JUMPDEST DUP2 DUP2 LT ISZERO PUSH2 0x65B JUMPI PUSH2 0x650 PUSH0 DUP3 PUSH2 0x625 JUMP JUMPDEST PUSH1 0x1 DUP2 ADD SWAP1 POP PUSH2 0x63E JUMP JUMPDEST POP POP JUMP JUMPDEST PUSH1 0x1F DUP3 GT ISZERO PUSH2 0x6A0 JUMPI PUSH2 0x671 DUP2 PUSH2 0x54B JUMP JUMPDEST PUSH2 0x67A DUP5 PUSH2 0x55D JUMP JUMPDEST DUP2 ADD PUSH1 0x20 DUP6 LT ISZERO PUSH2 0x689 JUMPI DUP2 SWAP1 POP JUMPDEST PUSH2 0x69D PUSH2 0x695 DUP6 PUSH2 0x55D JUMP JUMPDEST DUP4 ADD DUP3 PUSH2 0x63D JUMP JUMPDEST POP POP JUMPDEST POP POP POP JUMP JUMPDEST PUSH0 DUP3 DUP3 SHR SWAP1 POP SWAP3 SWAP2 POP POP JUMP JUMPDEST PUSH0 PUSH2 0x6C0 PUSH0 NOT DUP5 PUSH1 0x8 MUL PUSH2 0x6A5 JUMP JUMPDEST NOT DUP1 DUP4 AND SWAP2 POP POP SWAP3 SWAP2 POP POP JUMP JUMPDEST PUSH0 PUSH2 0x6D8 DUP4 DUP4 PUSH2 0x6B1 JUMP JUMPDEST SWAP2 POP DUP3 PUSH1 0x2 MUL DUP3 OR SWAP1 POP SWAP3 SWAP2 POP POP JUMP JUMPDEST PUSH2 0x6F1 DUP3 PUSH2 0x4E4 JUMP JUMPDEST PUSH8 0xFFFFFFFFFFFFFFFF DUP2 GT ISZERO PUSH2 0x70A JUMPI PUSH2 0x709 PUSH2 0x15B JUMP JUMPDEST JUMPDEST PUSH2 0x714 DUP3 SLOAD PUSH2 0x51B JUMP JUMPDEST PUSH2 0x71F DUP3 DUP3 DUP6 PUSH2 0x65F JUMP JUMPDEST PUSH0 PUSH1 0x20 SWAP1 POP PUSH1 0x1F DUP4 GT PUSH1 0x1 DUP2 EQ PUSH2 0x750 JUMPI PUSH0 DUP5 ISZERO PUSH2 0x73E JUMPI DUP3 DUP8 ADD MLOAD SWAP1 POP JUMPDEST PUSH2 0x748 DUP6 DUP3 PUSH2 0x6CD JUMP JUMPDEST DUP7 SSTORE POP PUSH2 0x7AF JUMP JUMPDEST PUSH1 0x1F NOT DUP5 AND PUSH2 0x75E DUP7 PUSH2 0x54B JUMP JUMPDEST PUSH0 JUMPDEST DUP3 DUP2 LT ISZERO PUSH2 0x785 JUMPI DUP5 DUP10 ADD MLOAD DUP3 SSTORE PUSH1 0x1 DUP3 ADD SWAP2 POP PUSH1 0x20 DUP6 ADD SWAP5 POP PUSH1 0x20 DUP2 ADD SWAP1 POP PUSH2 0x760 JUMP JUMPDEST DUP7 DUP4 LT ISZERO PUSH2 0x7A2 JUMPI DUP5 DUP10 ADD MLOAD PUSH2 0x79E PUSH1 0x1F DUP10 AND DUP3 PUSH2 0x6B1 JUMP JUMPDEST DUP4 SSTORE POP JUMPDEST PUSH1 0x1 PUSH1 0x2 DUP9 MUL ADD DUP9 SSTORE POP POP POP JUMPDEST POP POP POP POP POP POP JUMP JUMPDEST PUSH32 0x4E487B7100000000000000000000000000000000000000000000000000000000 PUSH0 MSTORE PUSH1 0x32 PUSH1 0x4 MSTORE PUSH1 0x24 PUSH0 REVERT JUMPDEST PUSH2 0x107A DUP1 PUSH2 0x7F1 PUSH0 CODECOPY PUSH0 RETURN INVALID PUSH1 0x80 PUSH1 0x40 MSTORE PUSH1 0x4 CALLDATASIZE LT PUSH2 0xA6 JUMPI PUSH0 CALLDATALOAD PUSH1 0xE0 SHR DUP1 PUSH4 0x953B8FB8 GT PUSH2 0x63 JUMPI DUP1 PUSH4 0x953B8FB8 EQ PUSH2 0x1A4 JUMPI DUP1 PUSH4 0xBFB231D2 EQ PUSH2 0x1CE JUMPI DUP1 PUSH4 0xC59EE1DC EQ PUSH2 0x20C JUMPI DUP1 PUSH4 0xCC6CB19A EQ PUSH2 0x236 JUMPI DUP1 PUSH4 0xED88C68E EQ PUSH2 0x272 JUMPI DUP1 PUSH4 0xFFDD5CF1 EQ PUSH2 0x27C JUMPI PUSH2 0xA6 JUMP JUMPDEST DUP1 PUSH4 0x6FDDE03 EQ PUSH2 0xAA JUMPI DUP1 PUSH4 0x3129E773 EQ PUSH2 0xD4 JUMPI DUP1 PUSH4 0x3CCFD60B EQ PUSH2 0x110 JUMPI DUP1 PUSH4 0x5958611E EQ PUSH2 0x126 JUMPI DUP1 PUSH4 0x7284E416 EQ PUSH2 0x150 JUMPI DUP1 PUSH4 0x8DA5CB5B EQ PUSH2 0x17A JUMPI JUMPDEST PUSH0 DUP1 REVERT JUMPDEST CALLVALUE DUP1 ISZERO PUSH2 0xB5 JUMPI PUSH0 DUP1 REVERT JUMPDEST POP PUSH2 0xBE PUSH2 0x2B8 JUMP JUMPDEST PUSH1 0x40 MLOAD PUSH2 0xCB SWAP2 SWAP1 PUSH2 0x9EA JUMP JUMPDEST PUSH1 0x40 MLOAD DUP1 SWAP2 SUB SWAP1 RETURN JUMPDEST CALLVALUE DUP1 ISZERO PUSH2 0xDF JUMPI PUSH0 DUP1 REVERT JUMPDEST POP PUSH2 0xFA PUSH1 0x4 DUP1 CALLDATASIZE SUB DUP2 ADD SWAP1 PUSH2 0xF5 SWAP2 SWAP1 PUSH2 0xA41 JUMP JUMPDEST PUSH2 0x344 JUMP JUMPDEST PUSH1 0x40 MLOAD PUSH2 0x107 SWAP2 SWAP1 PUSH2 0xB10 JUMP JUMPDEST PUSH1 0x40 MLOAD DUP1 SWAP2 SUB SWAP1 RETURN JUMPDEST CALLVALUE DUP1 ISZERO PUSH2 0x11B JUMPI PUSH0 DUP1 REVERT JUMPDEST POP PUSH2 0x124 PUSH2 0x468 JUMP JUMPDEST STOP JUMPDEST CALLVALUE DUP1 ISZERO PUSH2 0x131 JUMPI PUSH0 DUP1 REVERT JUMPDEST POP PUSH2 0x13A PUSH2 0x612 JUMP JUMPDEST PUSH1 0x40 MLOAD PUSH2 0x147 SWAP2 SWAP1 PUSH2 0xB3F JUMP JUMPDEST PUSH1 0x40 MLOAD DUP1 SWAP2 SUB SWAP1 RETURN JUMPDEST CALLVALUE DUP1 ISZERO PUSH2 0x15B JUMPI PUSH0 DUP1 REVERT JUMPDEST POP PUSH2 0x164 PUSH2 0x618 JUMP JUMPDEST PUSH1 0x40 MLOAD PUSH2 0x171 SWAP2 SWAP1 PUSH2 0x9EA JUMP JUMPDEST PUSH1 0x40 MLOAD DUP1 SWAP2 SUB SWAP1 RETURN JUMPDEST CALLVALUE DUP1 ISZERO PUSH2 0x185 JUMPI PUSH0 DUP1 REVERT JUMPDEST POP PUSH2 0x18E PUSH2 0x6A4 JUMP JUMPDEST PUSH1 0x40 MLOAD PUSH2 0x19B SWAP2 SWAP1 PUSH2 0xB97 JUMP JUMPDEST PUSH1 0x40 MLOAD DUP1 SWAP2 SUB SWAP1 RETURN JUMPDEST CALLVALUE DUP1 ISZERO PUSH2 0x1AF JUMPI PUSH0 DUP1 REVERT JUMPDEST POP PUSH2 0x1B8 PUSH2 0x6C7 JUMP JUMPDEST PUSH1 0x40 MLOAD PUSH2 0x1C5 SWAP2 SWAP1 PUSH2 0xB3F JUMP JUMPDEST PUSH1 0x40 MLOAD DUP1 SWAP2 SUB SWAP1 RETURN JUMPDEST CALLVALUE DUP1 ISZERO PUSH2 0x1D9 JUMPI PUSH0 DUP1 REVERT JUMPDEST POP PUSH2 0x1F4 PUSH1 0x4 DUP1 CALLDATASIZE SUB DUP2 ADD SWAP1 PUSH2 0x1EF SWAP2 SWAP1 PUSH2 0xA41 JUMP JUMPDEST PUSH2 0x6CD JUMP JUMPDEST PUSH1 0x40 MLOAD PUSH2 0x203 SWAP4 SWAP3 SWAP2 SWAP1 PUSH2 0xBB0 JUMP JUMPDEST PUSH1 0x40 MLOAD DUP1 SWAP2 SUB SWAP1 RETURN JUMPDEST CALLVALUE DUP1 ISZERO PUSH2 0x217 JUMPI PUSH0 DUP1 REVERT JUMPDEST POP PUSH2 0x220 PUSH2 0x788 JUMP JUMPDEST PUSH1 0x40 MLOAD PUSH2 0x22D SWAP2 SWAP1 PUSH2 0xB3F JUMP JUMPDEST PUSH1 0x40 MLOAD DUP1 SWAP2 SUB SWAP1 RETURN JUMPDEST CALLVALUE DUP1 ISZERO PUSH2 0x241 JUMPI PUSH0 DUP1 REVERT JUMPDEST POP PUSH2 0x25C PUSH1 0x4 DUP1 CALLDATASIZE SUB DUP2 ADD SWAP1 PUSH2 0x257 SWAP2 SWAP1 PUSH2 0xC16 JUMP JUMPDEST PUSH2 0x78E JUMP JUMPDEST PUSH1 0x40 MLOAD PUSH2 0x269 SWAP2 SWAP1 PUSH2 0xB3F JUMP JUMPDEST PUSH1 0x40 MLOAD DUP1 SWAP2 SUB SWAP1 RETURN JUMPDEST PUSH2 0x27A PUSH2 0x7A3 JUMP JUMPDEST STOP JUMPDEST CALLVALUE DUP1 ISZERO PUSH2 0x287 JUMPI PUSH0 DUP1 REVERT JUMPDEST POP PUSH2 0x2A2 PUSH1 0x4 DUP1 CALLDATASIZE SUB DUP2 ADD SWAP1 PUSH2 0x29D SWAP2 SWAP1 PUSH2 0xC16 JUMP JUMPDEST PUSH2 0x896 JUMP JUMPDEST PUSH1 0x40 MLOAD PUSH2 0x2AF SWAP2 SWAP1 PUSH2 0xB3F JUMP JUMPDEST PUSH1 0x40 MLOAD DUP1 SWAP2 SUB SWAP1 RETURN JUMPDEST PUSH1 0x1 DUP1 SLOAD PUSH2 0x2C5 SWAP1 PUSH2 0xC6E JUMP JUMPDEST DUP1 PUSH1 0x1F ADD PUSH1 0x20 DUP1 SWAP2 DIV MUL PUSH1 0x20 ADD PUSH1 0x40 MLOAD SWAP1 DUP2 ADD PUSH1 0x40 MSTORE DUP1 SWAP3 SWAP2 SWAP1 DUP2 DUP2 MSTORE PUSH1 0x20 ADD DUP3 DUP1 SLOAD PUSH2 0x2F1 SWAP1 PUSH2 0xC6E JUMP JUMPDEST DUP1 ISZERO PUSH2 0x33C JUMPI DUP1 PUSH1 0x1F LT PUSH2 0x313 JUMPI PUSH2 0x100 DUP1 DUP4 SLOAD DIV MUL DUP4 MSTORE SWAP2 PUSH1 0x20 ADD SWAP2 PUSH2 0x33C JUMP JUMPDEST DUP3 ADD SWAP2 SWAP1 PUSH0 MSTORE PUSH1 0x20 PUSH0 KECCAK256 SWAP1 JUMPDEST DUP2 SLOAD DUP2 MSTORE SWAP1 PUSH1 0x1 ADD SWAP1 PUSH1 0x20 ADD DUP1 DUP4 GT PUSH2 0x31F JUMPI DUP3 SWAP1 SUB PUSH1 0x1F AND DUP3 ADD SWAP2 JUMPDEST POP POP POP POP POP DUP2 JUMP JUMPDEST PUSH2 0x34C PUSH2 0x95B JUMP JUMPDEST PUSH1 0x5 DUP1 SLOAD SWAP1 POP DUP3 LT PUSH2 0x393 JUMPI PUSH1 0x40 MLOAD PUSH32 0x8C379A000000000000000000000000000000000000000000000000000000000 DUP2 MSTORE PUSH1 0x4 ADD PUSH2 0x38A SWAP1 PUSH2 0xCE8 JUMP JUMPDEST PUSH1 0x40 MLOAD DUP1 SWAP2 SUB SWAP1 REVERT JUMPDEST PUSH1 0x5 DUP3 DUP2 SLOAD DUP2 LT PUSH2 0x3A7 JUMPI PUSH2 0x3A6 PUSH2 0xD06 JUMP JUMPDEST JUMPDEST SWAP1 PUSH0 MSTORE PUSH1 0x20 PUSH0 KECCAK256 SWAP1 PUSH1 0x3 MUL ADD PUSH1 0x40 MLOAD DUP1 PUSH1 0x60 ADD PUSH1 0x40 MSTORE SWAP1 DUP2 PUSH0 DUP3 ADD DUP1 SLOAD PUSH2 0x3CD SWAP1 PUSH2 0xC6E JUMP JUMPDEST DUP1 PUSH1 0x1F ADD PUSH1 0x20 DUP1 SWAP2 DIV MUL PUSH1 0x20 ADD PUSH1 0x40 MLOAD SWAP1 DUP2 ADD PUSH1 0x40 MSTORE DUP1 SWAP3 SWAP2 SWAP1 DUP2 DUP2 MSTORE PUSH1 0x20 ADD DUP3 DUP1 SLOAD PUSH2 0x3F9 SWAP1 PUSH2 0xC6E JUMP JUMPDEST DUP1 ISZERO PUSH2 0x444 JUMPI DUP1 PUSH1 0x1F LT PUSH2 0x41B JUMPI PUSH2 0x100 DUP1 DUP4 SLOAD DIV MUL DUP4 MSTORE SWAP2 PUSH1 0x20 ADD SWAP2 PUSH2 0x444 JUMP JUMPDEST DUP3 ADD SWAP2 SWAP1 PUSH0 MSTORE PUSH1 0x20 PUSH0 KECCAK256 SWAP1 JUMPDEST DUP2 SLOAD DUP2 MSTORE SWAP1 PUSH1 0x1 ADD SWAP1 PUSH1 0x20 ADD DUP1 DUP4 GT PUSH2 0x427 JUMPI DUP3 SWAP1 SUB PUSH1 0x1F AND DUP3 ADD SWAP2 JUMPDEST POP POP POP POP POP DUP2 MSTORE PUSH1 0x20 ADD PUSH1 0x1 DUP3 ADD SLOAD DUP2 MSTORE PUSH1 0x20 ADD PUSH1 0x2 DUP3 ADD SLOAD DUP2 MSTORE POP POP SWAP1 POP SWAP2 SWAP1 POP JUMP JUMPDEST PUSH0 DUP1 SLOAD SWAP1 PUSH2 0x100 EXP SWAP1 DIV PUSH20 0xFFFFFFFFFFFFFFFFFFFFFFFFFFFFFFFFFFFFFFFF AND PUSH20 0xFFFFFFFFFFFFFFFFFFFFFFFFFFFFFFFFFFFFFFFF AND CALLER PUSH20 0xFFFFFFFFFFFFFFFFFFFFFFFFFFFFFFFFFFFFFFFF AND EQ PUSH2 0x4F5 JUMPI PUSH1 0x40 MLOAD PUSH32 0x8C379A000000000000000000000000000000000000000000000000000000000 DUP2 MSTORE PUSH1 0x4 ADD PUSH2 0x4EC SWAP1 PUSH2 0xD7D JUMP JUMPDEST PUSH1 0x40 MLOAD DUP1 SWAP2 SUB SWAP1 REVERT JUMPDEST PUSH0 PUSH1 0x6 SLOAD GT PUSH2 0x539 JUMPI PUSH1 0x40 MLOAD PUSH32 0x8C379A000000000000000000000000000000000000000000000000000000000 DUP2 MSTORE PUSH1 0x4 ADD PUSH2 0x530 SWAP1 PUSH2 0xDE5 JUMP JUMPDEST PUSH1 0x40 MLOAD DUP1 SWAP2 SUB SWAP1 REVERT JUMPDEST PUSH0 PUSH1 0x6 SLOAD SWAP1 POP PUSH0 PUSH1 0x6 DUP2 SWAP1 SSTORE POP PUSH0 DUP1 PUSH0 SWAP1 SLOAD SWAP1 PUSH2 0x100 EXP SWAP1 DIV PUSH20 0xFFFFFFFFFFFFFFFFFFFFFFFFFFFFFFFFFFFFFFFF AND PUSH20 0xFFFFFFFFFFFFFFFFFFFFFFFFFFFFFFFFFFFFFFFF AND DUP3 PUSH1 0x40 MLOAD PUSH2 0x58B SWAP1 PUSH2 0xE30 JUMP JUMPDEST PUSH0 PUSH1 0x40 MLOAD DUP1 DUP4 SUB DUP2 DUP6 DUP8 GAS CALL SWAP3 POP POP POP RETURNDATASIZE DUP1 PUSH0 DUP2 EQ PUSH2 0x5C5 JUMPI PUSH1 0x40 MLOAD SWAP2 POP PUSH1 0x1F NOT PUSH1 0x3F RETURNDATASIZE ADD AND DUP3 ADD PUSH1 0x40 MSTORE RETURNDATASIZE DUP3 MSTORE RETURNDATASIZE PUSH0 PUSH1 0x20 DUP5 ADD RETURNDATACOPY PUSH2 0x5CA JUMP JUMPDEST PUSH1 0x60 SWAP2 POP JUMPDEST POP POP SWAP1 POP DUP1 PUSH2 0x60E JUMPI PUSH1 0x40 MLOAD PUSH32 0x8C379A000000000000000000000000000000000000000000000000000000000 DUP2 MSTORE PUSH1 0x4 ADD PUSH2 0x605 SWAP1 PUSH2 0xE8E JUMP JUMPDEST PUSH1 0x40 MLOAD DUP1 SWAP2 SUB SWAP1 REVERT JUMPDEST POP POP JUMP JUMPDEST PUSH1 0x3 SLOAD DUP2 JUMP JUMPDEST PUSH1 0x4 DUP1 SLOAD PUSH2 0x625 SWAP1 PUSH2 0xC6E JUMP JUMPDEST DUP1 PUSH1 0x1F ADD PUSH1 0x20 DUP1 SWAP2 DIV MUL PUSH1 0x20 ADD PUSH1 0x40 MLOAD SWAP1 DUP2 ADD PUSH1 0x40 MSTORE DUP1 SWAP3 SWAP2 SWAP1 DUP2 DUP2 MSTORE PUSH1 0x20 ADD DUP3 DUP1 SLOAD PUSH2 0x651 SWAP1 PUSH2 0xC6E JUMP JUMPDEST DUP1 ISZERO PUSH2 0x69C JUMPI DUP1 PUSH1 0x1F LT PUSH2 0x673 JUMPI PUSH2 0x100 DUP1 DUP4 SLOAD DIV MUL DUP4 MSTORE SWAP2 PUSH1 0x20 ADD SWAP2 PUSH2 0x69C JUMP JUMPDEST DUP3 ADD SWAP2 SWAP1 PUSH0 MSTORE PUSH1 0x20 PUSH0 KECCAK256 SWAP1 JUMPDEST DUP2 SLOAD DUP2 MSTORE SWAP1 PUSH1 0x1 ADD SWAP1 PUSH1 0x20 ADD DUP1 DUP4 GT PUSH2 0x67F JUMPI DUP3 SWAP1 SUB PUSH1 0x1F AND DUP3 ADD SWAP2 JUMPDEST POP POP POP POP POP DUP2 JUMP JUMPDEST PUSH0 DUP1 SLOAD SWAP1 PUSH2 0x100 EXP SWAP1 DIV PUSH20 0xFFFFFFFFFFFFFFFFFFFFFFFFFFFFFFFFFFFFFFFF AND DUP2 JUMP JUMPDEST PUSH1 0x2 SLOAD DUP2 JUMP JUMPDEST PUSH1 0x5 DUP2 DUP2 SLOAD DUP2 LT PUSH2 0x6DC JUMPI PUSH0 DUP1 REVERT JUMPDEST SWAP1 PUSH0 MSTORE PUSH1 0x20 PUSH0 KECCAK256 SWAP1 PUSH1 0x3 MUL ADD PUSH0 SWAP2 POP SWAP1 POP DUP1 PUSH0 ADD DUP1 SLOAD PUSH2 0x6FB SWAP1 PUSH2 0xC6E JUMP JUMPDEST DUP1 PUSH1 0x1F ADD PUSH1 0x20 DUP1 SWAP2 DIV MUL PUSH1 0x20 ADD PUSH1 0x40 MLOAD SWAP1 DUP2 ADD PUSH1 0x40 MSTORE DUP1 SWAP3 SWAP2 SWAP1 DUP2 DUP2 MSTORE PUSH1 0x20 ADD DUP3 DUP1 SLOAD PUSH2 0x727 SWAP1 PUSH2 0xC6E JUMP JUMPDEST DUP1 ISZERO PUSH2 0x772 JUMPI DUP1 PUSH1 0x1F LT PUSH2 0x749 JUMPI PUSH2 0x100 DUP1 DUP4 SLOAD DIV MUL DUP4 MSTORE SWAP2 PUSH1 0x20 ADD SWAP2 PUSH2 0x772 JUMP JUMPDEST DUP3 ADD SWAP2 SWAP1 PUSH0 MSTORE PUSH1 0x20 PUSH0 KECCAK256 SWAP1 JUMPDEST DUP2 SLOAD DUP2 MSTORE SWAP1 PUSH1 0x1 ADD SWAP1 PUSH1 0x20 ADD DUP1 DUP4 GT PUSH2 0x755 JUMPI DUP3 SWAP1 SUB PUSH1 0x1F AND DUP3 ADD SWAP2 JUMPDEST POP POP POP POP POP SWAP1 DUP1 PUSH1 0x1 ADD SLOAD SWAP1 DUP1 PUSH1 0x2 ADD SLOAD SWAP1 POP DUP4 JUMP JUMPDEST PUSH1 0x6 SLOAD DUP2 JUMP JUMPDEST PUSH1 0x7 PUSH1 0x20 MSTORE DUP1 PUSH0 MSTORE PUSH1 0x40 PUSH0 KECCAK256 PUSH0 SWAP2 POP SWAP1 POP SLOAD DUP2 JUMP JUMPDEST PUSH1 0x3 SLOAD TIMESTAMP LT PUSH2 0x7E7 JUMPI PUSH1 0x40 MLOAD PUSH32 0x8C379A000000000000000000000000000000000000000000000000000000000 DUP2 MSTORE PUSH1 0x4 ADD PUSH2 0x7DE SWAP1 PUSH2 0xEF6 JUMP JUMPDEST PUSH1 0x40 MLOAD DUP1 SWAP2 SUB SWAP1 REVERT JUMPDEST PUSH0 CALLVALUE GT PUSH2 0x829 JUMPI PUSH1 0x40 MLOAD PUSH32 0x8C379A000000000000000000000000000000000000000000000000000000000 DUP2 MSTORE PUSH1 0x4 ADD PUSH2 0x820 SWAP1 PUSH2 0xF5E JUMP JUMPDEST PUSH1 0x40 MLOAD DUP1 SWAP2 SUB SWAP1 REVERT JUMPDEST CALLVALUE PUSH1 0x7 PUSH0 CALLER PUSH20 0xFFFFFFFFFFFFFFFFFFFFFFFFFFFFFFFFFFFFFFFF AND PUSH20 0xFFFFFFFFFFFFFFFFFFFFFFFFFFFFFFFFFFFFFFFF AND DUP2 MSTORE PUSH1 0x20 ADD SWAP1 DUP2 MSTORE PUSH1 0x20 ADD PUSH0 KECCAK256 PUSH0 DUP3 DUP3 SLOAD PUSH2 0x875 SWAP2 SWAP1 PUSH2 0xFA9 JUMP JUMPDEST SWAP3 POP POP DUP2 SWAP1 SSTORE POP CALLVALUE PUSH1 0x6 PUSH0 DUP3 DUP3 SLOAD PUSH2 0x88D SWAP2 SWAP1 PUSH2 0xFA9 JUMP JUMPDEST SWAP3 POP POP DUP2 SWAP1 SSTORE POP JUMP JUMPDEST PUSH0 DUP1 PUSH1 0x7 PUSH0 DUP5 PUSH20 0xFFFFFFFFFFFFFFFFFFFFFFFFFFFFFFFFFFFFFFFF AND PUSH20 0xFFFFFFFFFFFFFFFFFFFFFFFFFFFFFFFFFFFFFFFF AND DUP2 MSTORE PUSH1 0x20 ADD SWAP1 DUP2 MSTORE PUSH1 0x20 ADD PUSH0 KECCAK256 SLOAD GT PUSH2 0x916 JUMPI PUSH1 0x40 MLOAD PUSH32 0x8C379A000000000000000000000000000000000000000000000000000000000 DUP2 MSTORE PUSH1 0x4 ADD PUSH2 0x90D SWAP1 PUSH2 0x1026 JUMP JUMPDEST PUSH1 0x40 MLOAD DUP1 SWAP2 SUB SWAP1 REVERT JUMPDEST PUSH1 0x7 PUSH0 DUP4 PUSH20 0xFFFFFFFFFFFFFFFFFFFFFFFFFFFFFFFFFFFFFFFF AND PUSH20 0xFFFFFFFFFFFFFFFFFFFFFFFFFFFFFFFFFFFFFFFF AND DUP2 MSTORE PUSH1 0x20 ADD SWAP1 DUP2 MSTORE PUSH1 0x20 ADD PUSH0 KECCAK256 SLOAD SWAP1 POP SWAP2 SWAP1 POP JUMP JUMPDEST PUSH1 0x40 MLOAD DUP1 PUSH1 0x60 ADD PUSH1 0x40 MSTORE DUP1 PUSH1 0x60 DUP2 MSTORE PUSH1 0x20 ADD PUSH0 DUP2 MSTORE PUSH1 0x20 ADD PUSH0 DUP2 MSTORE POP SWAP1 JUMP JUMPDEST PUSH0 DUP2 MLOAD SWAP1 POP SWAP2 SWAP1 POP JUMP JUMPDEST PUSH0 DUP3 DUP3 MSTORE PUSH1 0x20 DUP3 ADD SWAP1 POP SWAP3 SWAP2 POP POP JUMP JUMPDEST DUP3 DUP2 DUP4 MCOPY PUSH0 DUP4 DUP4 ADD MSTORE POP POP POP JUMP JUMPDEST PUSH0 PUSH1 0x1F NOT PUSH1 0x1F DUP4 ADD AND SWAP1 POP SWAP2 SWAP1 POP JUMP JUMPDEST PUSH0 PUSH2 0x9BC DUP3 PUSH2 0x97A JUMP JUMPDEST PUSH2 0x9C6 DUP2 DUP6 PUSH2 0x984 JUMP JUMPDEST SWAP4 POP PUSH2 0x9D6 DUP2 DUP6 PUSH1 0x20 DUP7 ADD PUSH2 0x994 JUMP JUMPDEST PUSH2 0x9DF DUP2 PUSH2 0x9A2 JUMP JUMPDEST DUP5 ADD SWAP2 POP POP SWAP3 SWAP2 POP POP JUMP JUMPDEST PUSH0 PUSH1 0x20 DUP3 ADD SWAP1 POP DUP2 DUP2 SUB PUSH0 DUP4 ADD MSTORE PUSH2 0xA02 DUP2 DUP5 PUSH2 0x9B2 JUMP JUMPDEST SWAP1 POP SWAP3 SWAP2 POP POP JUMP JUMPDEST PUSH0 DUP1 REVERT JUMPDEST PUSH0 DUP2 SWAP1 POP SWAP2 SWAP1 POP JUMP JUMPDEST PUSH2 0xA20 DUP2 PUSH2 0xA0E JUMP JUMPDEST DUP2 EQ PUSH2 0xA2A JUMPI PUSH0 DUP1 REVERT JUMPDEST POP JUMP JUMPDEST PUSH0 DUP2 CALLDATALOAD SWAP1 POP PUSH2 0xA3B DUP2 PUSH2 0xA17 JUMP JUMPDEST SWAP3 SWAP2 POP POP JUMP JUMPDEST PUSH0 PUSH1 0x20 DUP3 DUP5 SUB SLT ISZERO PUSH2 0xA56 JUMPI PUSH2 0xA55 PUSH2 0xA0A JUMP JUMPDEST JUMPDEST PUSH0 PUSH2 0xA63 DUP5 DUP3 DUP6 ADD PUSH2 0xA2D JUMP JUMPDEST SWAP2 POP POP SWAP3 SWAP2 POP POP JUMP JUMPDEST PUSH0 DUP3 DUP3 MSTORE PUSH1 0x20 DUP3 ADD SWAP1 POP SWAP3 SWAP2 POP POP JUMP JUMPDEST PUSH0 PUSH2 0xA86 DUP3 PUSH2 0x97A JUMP JUMPDEST PUSH2 0xA90 DUP2 DUP6 PUSH2 0xA6C JUMP JUMPDEST SWAP4 POP PUSH2 0xAA0 DUP2 DUP6 PUSH1 0x20 DUP7 ADD PUSH2 0x994 JUMP JUMPDEST PUSH2 0xAA9 DUP2 PUSH2 0x9A2 JUMP JUMPDEST DUP5 ADD SWAP2 POP POP SWAP3 SWAP2 POP POP JUMP JUMPDEST PUSH2 0xABD DUP2 PUSH2 0xA0E JUMP JUMPDEST DUP3 MSTORE POP POP JUMP JUMPDEST PUSH0 PUSH1 0x60 DUP4 ADD PUSH0 DUP4 ADD MLOAD DUP5 DUP3 SUB PUSH0 DUP7 ADD MSTORE PUSH2 0xADD DUP3 DUP3 PUSH2 0xA7C JUMP JUMPDEST SWAP2 POP POP PUSH1 0x20 DUP4 ADD MLOAD PUSH2 0xAF2 PUSH1 0x20 DUP7 ADD DUP3 PUSH2 0xAB4 JUMP JUMPDEST POP PUSH1 0x40 DUP4 ADD MLOAD PUSH2 0xB05 PUSH1 0x40 DUP7 ADD DUP3 PUSH2 0xAB4 JUMP JUMPDEST POP DUP1 SWAP2 POP POP SWAP3 SWAP2 POP POP JUMP JUMPDEST PUSH0 PUSH1 0x20 DUP3 ADD SWAP1 POP DUP2 DUP2 SUB PUSH0 DUP4 ADD MSTORE PUSH2 0xB28 DUP2 DUP5 PUSH2 0xAC3 JUMP JUMPDEST SWAP1 POP SWAP3 SWAP2 POP POP JUMP JUMPDEST PUSH2 0xB39 DUP2 PUSH2 0xA0E JUMP JUMPDEST DUP3 MSTORE POP POP JUMP JUMPDEST PUSH0 PUSH1 0x20 DUP3 ADD SWAP1 POP PUSH2 0xB52 PUSH0 DUP4 ADD DUP5 PUSH2 0xB30 JUMP JUMPDEST SWAP3 SWAP2 POP POP JUMP JUMPDEST PUSH0 PUSH20 0xFFFFFFFFFFFFFFFFFFFFFFFFFFFFFFFFFFFFFFFF DUP3 AND SWAP1 POP SWAP2 SWAP1 POP JUMP JUMPDEST PUSH0 PUSH2 0xB81 DUP3 PUSH2 0xB58 JUMP JUMPDEST SWAP1 POP SWAP2 SWAP1 POP JUMP JUMPDEST PUSH2 0xB91 DUP2 PUSH2 0xB77 JUMP JUMPDEST DUP3 MSTORE POP POP JUMP JUMPDEST PUSH0 PUSH1 0x20 DUP3 ADD SWAP1 POP PUSH2 0xBAA PUSH0 DUP4 ADD DUP5 PUSH2 0xB88 JUMP JUMPDEST SWAP3 SWAP2 POP POP JUMP JUMPDEST PUSH0 PUSH1 0x60 DUP3 ADD SWAP1 POP DUP2 DUP2 SUB PUSH0 DUP4 ADD MSTORE PUSH2 0xBC8 DUP2 DUP7 PUSH2 0x9B2 JUMP JUMPDEST SWAP1 POP PUSH2 0xBD7 PUSH1 0x20 DUP4 ADD DUP6 PUSH2 0xB30 JUMP JUMPDEST PUSH2 0xBE4 PUSH1 0x40 DUP4 ADD DUP5 PUSH2 0xB30 JUMP JUMPDEST SWAP5 SWAP4 POP POP POP POP JUMP JUMPDEST PUSH2 0xBF5 DUP2 PUSH2 0xB77 JUMP JUMPDEST DUP2 EQ PUSH2 0xBFF JUMPI PUSH0 DUP1 REVERT JUMPDEST POP JUMP JUMPDEST PUSH0 DUP2 CALLDATALOAD SWAP1 POP PUSH2 0xC10 DUP2 PUSH2 0xBEC JUMP JUMPDEST SWAP3 SWAP2 POP POP JUMP JUMPDEST PUSH0 PUSH1 0x20 DUP3 DUP5 SUB SLT ISZERO PUSH2 0xC2B JUMPI PUSH2 0xC2A PUSH2 0xA0A JUMP JUMPDEST JUMPDEST PUSH0 PUSH2 0xC38 DUP5 DUP3 DUP6 ADD PUSH2 0xC02 JUMP JUMPDEST SWAP2 POP POP SWAP3 SWAP2 POP POP JUMP JUMPDEST PUSH32 0x4E487B7100000000000000000000000000000000000000000000000000000000 PUSH0 MSTORE PUSH1 0x22 PUSH1 0x4 MSTORE PUSH1 0x24 PUSH0 REVERT JUMPDEST PUSH0 PUSH1 0x2 DUP3 DIV SWAP1 POP PUSH1 0x1 DUP3 AND DUP1 PUSH2 0xC85 JUMPI PUSH1 0x7F DUP3 AND SWAP2 POP JUMPDEST PUSH1 0x20 DUP3 LT DUP2 SUB PUSH2 0xC98 JUMPI PUSH2 0xC97 PUSH2 0xC41 JUMP JUMPDEST JUMPDEST POP SWAP2 SWAP1 POP JUMP JUMPDEST PUSH32 0x4974656D20696E646578206F7574206F662072616E6765000000000000000000 PUSH0 DUP3 ADD MSTORE POP JUMP JUMPDEST PUSH0 PUSH2 0xCD2 PUSH1 0x17 DUP4 PUSH2 0x984 JUMP JUMPDEST SWAP2 POP PUSH2 0xCDD DUP3 PUSH2 0xC9E JUMP JUMPDEST PUSH1 0x20 DUP3 ADD SWAP1 POP SWAP2 SWAP1 POP JUMP JUMPDEST PUSH0 PUSH1 0x20 DUP3 ADD SWAP1 POP DUP2 DUP2 SUB PUSH0 DUP4 ADD MSTORE PUSH2 0xCFF DUP2 PUSH2 0xCC6 JUMP JUMPDEST SWAP1 POP SWAP2 SWAP1 POP JUMP JUMPDEST PUSH32 0x4E487B7100000000000000000000000000000000000000000000000000000000 PUSH0 MSTORE PUSH1 0x32 PUSH1 0x4 MSTORE PUSH1 0x24 PUSH0 REVERT JUMPDEST PUSH32 0x4F6E6C79206F776E65722063616E207769746864726177000000000000000000 PUSH0 DUP3 ADD MSTORE POP JUMP JUMPDEST PUSH0 PUSH2 0xD67 PUSH1 0x17 DUP4 PUSH2 0x984 JUMP JUMPDEST SWAP2 POP PUSH2 0xD72 DUP3 PUSH2 0xD33 JUMP JUMPDEST PUSH1 0x20 DUP3 ADD SWAP1 POP SWAP2 SWAP1 POP JUMP JUMPDEST PUSH0 PUSH1 0x20 DUP3 ADD SWAP1 POP DUP2 DUP2 SUB PUSH0 DUP4 ADD MSTORE PUSH2 0xD94 DUP2 PUSH2 0xD5B JUMP JUMPDEST SWAP1 POP SWAP2 SWAP1 POP JUMP JUMPDEST PUSH32 0x4E6F2066756E647320746F207769746864726177000000000000000000000000 PUSH0 DUP3 ADD MSTORE POP JUMP JUMPDEST PUSH0 PUSH2 0xDCF PUSH1 0x14 DUP4 PUSH2 0x984 JUMP JUMPDEST SWAP2 POP PUSH2 0xDDA DUP3 PUSH2 0xD9B JUMP JUMPDEST PUSH1 0x20 DUP3 ADD SWAP1 POP SWAP2 SWAP1 POP JUMP JUMPDEST PUSH0 PUSH1 0x20 DUP3 ADD SWAP1 POP DUP2 DUP2 SUB PUSH0 DUP4 ADD MSTORE PUSH2 0xDFC DUP2 PUSH2 0xDC3 JUMP JUMPDEST SWAP1 POP SWAP2 SWAP1 POP JUMP JUMPDEST PUSH0 DUP2 SWAP1 POP SWAP3 SWAP2 POP POP JUMP JUMPDEST POP JUMP JUMPDEST PUSH0 PUSH2 0xE1B PUSH0 DUP4 PUSH2 0xE03 JUMP JUMPDEST SWAP2 POP PUSH2 0xE26 DUP3 PUSH2 0xE0D JUMP JUMPDEST PUSH0 DUP3 ADD SWAP1 POP SWAP2 SWAP1 POP JUMP JUMPDEST PUSH0 PUSH2 0xE3A DUP3 PUSH2 0xE10 JUMP JUMPDEST SWAP2 POP DUP2 SWAP1 POP SWAP2 SWAP1 POP JUMP JUMPDEST PUSH32 0x4661696C656420746F2073656E64206D6F6E6579000000000000000000000000 PUSH0 DUP3 ADD MSTORE POP JUMP JUMPDEST PUSH0 PUSH2 0xE78 PUSH1 0x14 DUP4 PUSH2 0x984 JUMP JUMPDEST SWAP2 POP PUSH2 0xE83 DUP3 PUSH2 0xE44 JUMP JUMPDEST PUSH1 0x20 DUP3 ADD SWAP1 POP SWAP2 SWAP1 POP JUMP JUMPDEST PUSH0 PUSH1 0x20 DUP3 ADD SWAP1 POP DUP2 DUP2 SUB PUSH0 DUP4 ADD MSTORE PUSH2 0xEA5 DUP2 PUSH2 0xE6C JUMP JUMPDEST SWAP1 POP SWAP2 SWAP1 POP JUMP JUMPDEST PUSH32 0x546869732066756E6472616973696E67206973206F7665720000000000000000 PUSH0 DUP3 ADD MSTORE POP JUMP JUMPDEST PUSH0 PUSH2 0xEE0 PUSH1 0x18 DUP4 PUSH2 0x984 JUMP JUMPDEST SWAP2 POP PUSH2 0xEEB DUP3 PUSH2 0xEAC JUMP JUMPDEST PUSH1 0x20 DUP3 ADD SWAP1 POP SWAP2 SWAP1 POP JUMP JUMPDEST PUSH0 PUSH1 0x20 DUP3 ADD SWAP1 POP DUP2 DUP2 SUB PUSH0 DUP4 ADD MSTORE PUSH2 0xF0D DUP2 PUSH2 0xED4 JUMP JUMPDEST SWAP1 POP SWAP2 SWAP1 POP JUMP JUMPDEST PUSH32 0x446F6E6174696F6E206D7573742062652067726561746572207468616E203000 PUSH0 DUP3 ADD MSTORE POP JUMP JUMPDEST PUSH0 PUSH2 0xF48 PUSH1 0x1F DUP4 PUSH2 0x984 JUMP JUMPDEST SWAP2 POP PUSH2 0xF53 DUP3 PUSH2 0xF14 JUMP JUMPDEST PUSH1 0x20 DUP3 ADD SWAP1 POP SWAP2 SWAP1 POP JUMP JUMPDEST PUSH0 PUSH1 0x20 DUP3 ADD SWAP1 POP DUP2 DUP2 SUB PUSH0 DUP4 ADD MSTORE PUSH2 0xF75 DUP2 PUSH2 0xF3C JUMP JUMPDEST SWAP1 POP SWAP2 SWAP1 POP JUMP JUMPDEST PUSH32 0x4E487B7100000000000000000000000000000000000000000000000000000000 PUSH0 MSTORE PUSH1 0x11 PUSH1 0x4 MSTORE PUSH1 0x24 PUSH0 REVERT JUMPDEST PUSH0 PUSH2 0xFB3 DUP3 PUSH2 0xA0E JUMP JUMPDEST SWAP2 POP PUSH2 0xFBE DUP4 PUSH2 0xA0E JUMP JUMPDEST SWAP3 POP DUP3 DUP3 ADD SWAP1 POP DUP1 DUP3 GT ISZERO PUSH2 0xFD6 JUMPI PUSH2 0xFD5 PUSH2 0xF7C JUMP JUMPDEST JUMPDEST SWAP3 SWAP2 POP POP JUMP JUMPDEST PUSH32 0x4E6F204461746100000000000000000000000000000000000000000000000000 PUSH0 DUP3 ADD MSTORE POP JUMP JUMPDEST PUSH0 PUSH2 0x1010 PUSH1 0x7 DUP4 PUSH2 0x984 JUMP JUMPDEST SWAP2 POP PUSH2 0x101B DUP3 PUSH2 0xFDC JUMP JUMPDEST PUSH1 0x20 DUP3 ADD SWAP1 POP SWAP2 SWAP1 POP JUMP JUMPDEST PUSH0 PUSH1 0x20 DUP3 ADD SWAP1 POP DUP2 DUP2 SUB PUSH0 DUP4 ADD MSTORE PUSH2 0x103D DUP2 PUSH2 0x1004 JUMP JUMPDEST SWAP1 POP SWAP2 SWAP1 POP JUMP INVALID LOG2 PUSH5 0x6970667358 0x22 SLT KECCAK256 SWAP3 PUSH17 0x3D537430A906FD7C2AB9A43D7E44807D59 SSTORE CALLVALUE 0x4F SWAP7 0x29 0xB8 MSTORE8 0xB4 CODECOPY 0xEA SWAP4 0xDC 0xC4 PUSH5 0x736F6C6343 STOP ADDMOD NOT STOP CALLER LOG2 PUSH5 0x6970667358 0x22 SLT KECCAK256 LOG3 0xCA 0xD3 BALANCE SWAP14 SWAP4 BLOCKHASH SWAP14 SAR PUSH20 0xE78A18B50AD5367DA10139C50290A62746D0D81 PUSH20 0x8F64736F6C634300081900330000000000000000 "
				},
				"gasEstimates": {
					"creation": {
						"codeDepositCost": "1775400",
						"executionCost": "1867",
						"totalCost": "1777267"
					},
					"external": {
						"createFundraiser(string,uint256,uint256,string,(string,uint256,uint256)[])": "infinite",
						"fundraisers(uint256)": "infinite",
						"getFundraisers()": "infinite"
					}
				},
				"methodIdentifiers": {
					"createFundraiser(string,uint256,uint256,string,(string,uint256,uint256)[])": "b9a9489c",
					"fundraisers(uint256)": "f38f72fb",
					"getFundraisers()": "8e028d40"
				}
			},
			"storageLayout": {
				"storage": [
					{
						"astId": 214,
						"contract": "contracts/contracts/FundraiserFactory.sol:FundraiserFactory",
						"label": "fundraisers",
						"offset": 0,
						"slot": "0",
						"type": "t_array(t_contract(Fundraiser)202)dyn_storage"
					}
				],
				"types": {
					"t_array(t_contract(Fundraiser)202)dyn_storage": {
						"base": "t_contract(Fundraiser)202",
						"encoding": "dynamic_array",
						"label": "contract Fundraiser[]",
						"numberOfBytes": "32"
					},
					"t_contract(Fundraiser)202": {
						"encoding": "inplace",
						"label": "contract Fundraiser",
						"numberOfBytes": "20"
					}
				}
			},
			"userdoc": {
				"kind": "user",
				"methods": {},
				"version": 1
			}
		}
	}
}