{
	"contracts/IPFSStorage.sol": {
		"IPFSStorage": {
			"abi": [
				{
					"inputs": [
						{
							"internalType": "string",
							"name": "targetContractAddress",
							"type": "string"
						}
					],
					"name": "getData",
					"outputs": [
						{
							"internalType": "string",
							"name": "",
							"type": "string"
						},
						{
							"internalType": "string[]",
							"name": "",
							"type": "string[]"
						},
						{
							"internalType": "uint256",
							"name": "",
							"type": "uint256"
						},
						{
							"internalType": "uint256",
							"name": "",
							"type": "uint256"
						}
					],
					"stateMutability": "view",
					"type": "function"
				},
				{
					"inputs": [
						{
							"internalType": "string",
							"name": "targetContractAddress",
							"type": "string"
						},
						{
							"internalType": "string[]",
							"name": "hashes",
							"type": "string[]"
						}
					],
					"name": "storeData",
					"outputs": [],
					"stateMutability": "nonpayable",
					"type": "function"
				}
			],
			"devdoc": {
				"kind": "dev",
				"methods": {},
				"version": 1
			},
			"evm": {
				"assembly": "    /* \"contracts/IPFSStorage.sol\":57:1192  contract IPFSStorage {... */\n  mstore(0x40, 0x80)\n  callvalue\n  dup1\n  iszero\n  tag_1\n  jumpi\n  0x00\n  dup1\n  revert\ntag_1:\n  pop\n  dataSize(sub_0)\n  dup1\n  dataOffset(sub_0)\n  0x00\n  codecopy\n  0x00\n  return\nstop\n\nsub_0: assembly {\n        /* \"contracts/IPFSStorage.sol\":57:1192  contract IPFSStorage {... */\n      mstore(0x40, 0x80)\n      callvalue\n      dup1\n      iszero\n      tag_1\n      jumpi\n      0x00\n      dup1\n      revert\n    tag_1:\n      pop\n      jumpi(tag_2, lt(calldatasize, 0x04))\n      shr(0xe0, calldataload(0x00))\n      dup1\n      0x7c59fdd8\n      eq\n      tag_3\n      jumpi\n      dup1\n      0xae55c888\n      eq\n      tag_4\n      jumpi\n    tag_2:\n      0x00\n      dup1\n      revert\n        /* \"contracts/IPFSStorage.sol\":392:859  function storeData(string memory targetContractAddress, string[] memory hashes) public {... */\n    tag_3:\n      tag_5\n      tag_6\n      calldatasize\n      0x04\n      tag_7\n      jump\t// in\n    tag_6:\n      tag_8\n      jump\t// in\n    tag_5:\n      stop\n        /* \"contracts/IPFSStorage.sol\":901:1190  function getData(string memory targetContractAddress) public view returns (string memory, string[] memory, uint256, uint256) {... */\n    tag_4:\n      tag_9\n      tag_10\n      calldatasize\n      0x04\n      tag_11\n      jump\t// in\n    tag_10:\n      tag_12\n      jump\t// in\n    tag_9:\n      mload(0x40)\n      tag_13\n      swap5\n      swap4\n      swap3\n      swap2\n      swap1\n      tag_14\n      jump\t// in\n    tag_13:\n      mload(0x40)\n      dup1\n      swap2\n      sub\n      swap1\n      return\n        /* \"contracts/IPFSStorage.sol\":392:859  function storeData(string memory targetContractAddress, string[] memory hashes) public {... */\n    tag_8:\n        /* \"contracts/IPFSStorage.sol\":489:510  IPFSData storage data */\n      0x00\n        /* \"contracts/IPFSStorage.sol\":513:521  ipfsData */\n      dup1\n        /* \"contracts/IPFSStorage.sol\":522:543  targetContractAddress */\n      dup4\n        /* \"contracts/IPFSStorage.sol\":513:544  ipfsData[targetContractAddress] */\n      mload(0x40)\n      tag_16\n      swap2\n      swap1\n      tag_17\n      jump\t// in\n    tag_16:\n      swap1\n      dup2\n      mstore\n      mload(0x40)\n      swap1\n      dup2\n      swap1\n      sub\n      0x20\n      add\n      swap1\n      keccak256\n      swap1\n      pop\n      dup1\n        /* \"contracts/IPFSStorage.sol\":554:604  data.targetContractAddress = targetContractAddress */\n      tag_18\n        /* \"contracts/IPFSStorage.sol\":583:604  targetContractAddress */\n      dup5\n        /* \"contracts/IPFSStorage.sol\":513:544  ipfsData[targetContractAddress] */\n      dup3\n        /* \"contracts/IPFSStorage.sol\":554:604  data.targetContractAddress = targetContractAddress */\n      tag_19\n      jump\t// in\n    tag_18:\n      pop\n        /* \"contracts/IPFSStorage.sol\":631:646  block.timestamp */\n      timestamp\n        /* \"contracts/IPFSStorage.sol\":614:628  data.timestamp */\n      0x02\n      dup3\n      add\n        /* \"contracts/IPFSStorage.sol\":614:646  data.timestamp = block.timestamp */\n      sstore\n        /* \"contracts/IPFSStorage.sol\":711:723  block.number */\n      number\n        /* \"contracts/IPFSStorage.sol\":692:708  data.blockNumber */\n      0x03\n      dup3\n      add\n        /* \"contracts/IPFSStorage.sol\":692:723  data.blockNumber = block.number */\n      sstore\n      0x00\n        /* \"contracts/IPFSStorage.sol\":760:853  for (uint i = 0; i < hashes.length; i++) {... */\n    tag_20:\n        /* \"contracts/IPFSStorage.sol\":781:787  hashes */\n      dup3\n        /* \"contracts/IPFSStorage.sol\":781:794  hashes.length */\n      mload\n        /* \"contracts/IPFSStorage.sol\":777:778  i */\n      dup2\n        /* \"contracts/IPFSStorage.sol\":777:794  i < hashes.length */\n      lt\n        /* \"contracts/IPFSStorage.sol\":760:853  for (uint i = 0; i < hashes.length; i++) {... */\n      iszero\n      tag_21\n      jumpi\n        /* \"contracts/IPFSStorage.sol\":815:819  data */\n      dup2\n        /* \"contracts/IPFSStorage.sol\":815:826  data.hashes */\n      0x01\n      add\n        /* \"contracts/IPFSStorage.sol\":832:838  hashes */\n      dup4\n        /* \"contracts/IPFSStorage.sol\":839:840  i */\n      dup3\n        /* \"contracts/IPFSStorage.sol\":832:841  hashes[i] */\n      dup2\n      mload\n      dup2\n      lt\n      tag_24\n      jumpi\n      tag_24\n      tag_25\n      jump\t// in\n    tag_24:\n      0x20\n      swap1\n      dup2\n      mul\n      swap2\n      swap1\n      swap2\n      add\n      dup2\n      add\n      mload\n        /* \"contracts/IPFSStorage.sol\":815:842  data.hashes.push(hashes[i]) */\n      dup3\n      sload\n      0x01\n      dup2\n      add\n      dup5\n      sstore\n      0x00\n      swap4\n      dup5\n      mstore\n      swap2\n      swap1\n      swap3\n      keccak256\n      add\n      swap1\n      tag_27\n      swap1\n      dup3\n      tag_19\n      jump\t// in\n    tag_27:\n      pop\n        /* \"contracts/IPFSStorage.sol\":796:799  i++ */\n      0x01\n      add\n        /* \"contracts/IPFSStorage.sol\":760:853  for (uint i = 0; i < hashes.length; i++) {... */\n      jump(tag_20)\n    tag_21:\n      pop\n        /* \"contracts/IPFSStorage.sol\":479:859  {... */\n      pop\n        /* \"contracts/IPFSStorage.sol\":392:859  function storeData(string memory targetContractAddress, string[] memory hashes) public {... */\n      pop\n      pop\n      jump\t// out\n        /* \"contracts/IPFSStorage.sol\":901:1190  function getData(string memory targetContractAddress) public view returns (string memory, string[] memory, uint256, uint256) {... */\n    tag_12:\n        /* \"contracts/IPFSStorage.sol\":976:989  string memory */\n      0x60\n        /* \"contracts/IPFSStorage.sol\":991:1006  string[] memory */\n      dup1\n        /* \"contracts/IPFSStorage.sol\":1008:1015  uint256 */\n      0x00\n        /* \"contracts/IPFSStorage.sol\":1017:1024  uint256 */\n      dup1\n        /* \"contracts/IPFSStorage.sol\":1036:1057  IPFSData storage data */\n      0x00\n        /* \"contracts/IPFSStorage.sol\":1060:1068  ipfsData */\n      dup1\n        /* \"contracts/IPFSStorage.sol\":1069:1090  targetContractAddress */\n      dup7\n        /* \"contracts/IPFSStorage.sol\":1060:1091  ipfsData[targetContractAddress] */\n      mload(0x40)\n      tag_29\n      swap2\n      swap1\n      tag_17\n      jump\t// in\n    tag_29:\n      swap1\n      dup2\n      mstore\n      0x20\n      add\n      mload(0x40)\n      dup1\n      swap2\n      sub\n      swap1\n      keccak256\n        /* \"contracts/IPFSStorage.sol\":1036:1091  IPFSData storage data = ipfsData[targetContractAddress] */\n      swap1\n      pop\n        /* \"contracts/IPFSStorage.sol\":1109:1113  data */\n      dup1\n        /* \"contracts/IPFSStorage.sol\":1109:1135  data.targetContractAddress */\n      0x00\n      add\n        /* \"contracts/IPFSStorage.sol\":1137:1141  data */\n      dup2\n        /* \"contracts/IPFSStorage.sol\":1137:1148  data.hashes */\n      0x01\n      add\n        /* \"contracts/IPFSStorage.sol\":1150:1154  data */\n      dup3\n        /* \"contracts/IPFSStorage.sol\":1150:1164  data.timestamp */\n      0x02\n      add\n      sload\n        /* \"contracts/IPFSStorage.sol\":1166:1170  data */\n      dup4\n        /* \"contracts/IPFSStorage.sol\":1166:1182  data.blockNumber */\n      0x03\n      add\n      sload\n        /* \"contracts/IPFSStorage.sol\":1101:1183  return (data.targetContractAddress, data.hashes, data.timestamp, data.blockNumber) */\n      dup4\n      dup1\n      sload\n      tag_30\n      swap1\n      tag_31\n      jump\t// in\n    tag_30:\n      dup1\n      0x1f\n      add\n      0x20\n      dup1\n      swap2\n      div\n      mul\n      0x20\n      add\n      mload(0x40)\n      swap1\n      dup2\n      add\n      0x40\n      mstore\n      dup1\n      swap3\n      swap2\n      swap1\n      dup2\n      dup2\n      mstore\n      0x20\n      add\n      dup3\n      dup1\n      sload\n      tag_32\n      swap1\n      tag_31\n      jump\t// in\n    tag_32:\n      dup1\n      iszero\n      tag_33\n      jumpi\n      dup1\n      0x1f\n      lt\n      tag_34\n      jumpi\n      0x0100\n      dup1\n      dup4\n      sload\n      div\n      mul\n      dup4\n      mstore\n      swap2\n      0x20\n      add\n      swap2\n      jump(tag_33)\n    tag_34:\n      dup3\n      add\n      swap2\n      swap1\n      0x00\n      mstore\n      keccak256(0x00, 0x20)\n      swap1\n    tag_35:\n      dup2\n      sload\n      dup2\n      mstore\n      swap1\n      0x01\n      add\n      swap1\n      0x20\n      add\n      dup1\n      dup4\n      gt\n      tag_35\n      jumpi\n      dup3\n      swap1\n      sub\n      0x1f\n      and\n      dup3\n      add\n      swap2\n    tag_33:\n      pop\n      pop\n      pop\n      pop\n      pop\n      swap4\n      pop\n      dup3\n      dup1\n      sload\n      dup1\n      0x20\n      mul\n      0x20\n      add\n      mload(0x40)\n      swap1\n      dup2\n      add\n      0x40\n      mstore\n      dup1\n      swap3\n      swap2\n      swap1\n      dup2\n      dup2\n      mstore\n      0x20\n      add\n      0x00\n      swap1\n    tag_36:\n      dup3\n      dup3\n      lt\n      iszero\n      tag_37\n      jumpi\n      dup4\n      dup3\n      swap1\n      0x00\n      mstore\n      keccak256(0x00, 0x20)\n      add\n      dup1\n      sload\n      tag_39\n      swap1\n      tag_31\n      jump\t// in\n    tag_39:\n      dup1\n      0x1f\n      add\n      0x20\n      dup1\n      swap2\n      div\n      mul\n      0x20\n      add\n      mload(0x40)\n      swap1\n      dup2\n      add\n      0x40\n      mstore\n      dup1\n      swap3\n      swap2\n      swap1\n      dup2\n      dup2\n      mstore\n      0x20\n      add\n      dup3\n      dup1\n      sload\n      tag_40\n      swap1\n      tag_31\n      jump\t// in\n    tag_40:\n      dup1\n      iszero\n      tag_41\n      jumpi\n      dup1\n      0x1f\n      lt\n      tag_42\n      jumpi\n      0x0100\n      dup1\n      dup4\n      sload\n      div\n      mul\n      dup4\n      mstore\n      swap2\n      0x20\n      add\n      swap2\n      jump(tag_41)\n    tag_42:\n      dup3\n      add\n      swap2\n      swap1\n      0x00\n      mstore\n      keccak256(0x00, 0x20)\n      swap1\n    tag_43:\n      dup2\n      sload\n      dup2\n      mstore\n      swap1\n      0x01\n      add\n      swap1\n      0x20\n      add\n      dup1\n      dup4\n      gt\n      tag_43\n      jumpi\n      dup3\n      swap1\n      sub\n      0x1f\n      and\n      dup3\n      add\n      swap2\n    tag_41:\n      pop\n      pop\n      pop\n      pop\n      pop\n      dup2\n      mstore\n      0x20\n      add\n      swap1\n      0x01\n      add\n      swap1\n      jump(tag_36)\n    tag_37:\n      pop\n      pop\n      pop\n      pop\n      swap3\n      pop\n      swap5\n      pop\n      swap5\n      pop\n      swap5\n      pop\n      swap5\n      pop\n      pop\n        /* \"contracts/IPFSStorage.sol\":901:1190  function getData(string memory targetContractAddress) public view returns (string memory, string[] memory, uint256, uint256) {... */\n      swap2\n      swap4\n      pop\n      swap2\n      swap4\n      jump\t// out\n        /* \"#utility.yul\":14:141   */\n    tag_44:\n        /* \"#utility.yul\":75:85   */\n      0x4e487b71\n        /* \"#utility.yul\":70:73   */\n      0xe0\n        /* \"#utility.yul\":66:86   */\n      shl\n        /* \"#utility.yul\":63:64   */\n      0x00\n        /* \"#utility.yul\":56:87   */\n      mstore\n        /* \"#utility.yul\":106:110   */\n      0x41\n        /* \"#utility.yul\":103:104   */\n      0x04\n        /* \"#utility.yul\":96:111   */\n      mstore\n        /* \"#utility.yul\":130:134   */\n      0x24\n        /* \"#utility.yul\":127:128   */\n      0x00\n        /* \"#utility.yul\":120:135   */\n      revert\n        /* \"#utility.yul\":146:421   */\n    tag_45:\n        /* \"#utility.yul\":217:219   */\n      0x40\n        /* \"#utility.yul\":211:220   */\n      mload\n        /* \"#utility.yul\":282:284   */\n      0x1f\n        /* \"#utility.yul\":263:276   */\n      dup3\n      add\n      not(0x1f)\n        /* \"#utility.yul\":259:286   */\n      and\n        /* \"#utility.yul\":247:287   */\n      dup2\n      add\n        /* \"#utility.yul\":317:335   */\n      0xffffffffffffffff\n        /* \"#utility.yul\":302:336   */\n      dup2\n      gt\n        /* \"#utility.yul\":338:360   */\n      dup3\n      dup3\n      lt\n        /* \"#utility.yul\":299:361   */\n      or\n        /* \"#utility.yul\":296:384   */\n      iszero\n      tag_55\n      jumpi\n        /* \"#utility.yul\":364:382   */\n      tag_55\n      tag_44\n      jump\t// in\n    tag_55:\n        /* \"#utility.yul\":400:402   */\n      0x40\n        /* \"#utility.yul\":393:415   */\n      mstore\n        /* \"#utility.yul\":146:421   */\n      swap2\n      swap1\n      pop\n      jump\t// out\n        /* \"#utility.yul\":426:957   */\n    tag_46:\n        /* \"#utility.yul\":469:474   */\n      0x00\n        /* \"#utility.yul\":522:525   */\n      dup3\n        /* \"#utility.yul\":515:519   */\n      0x1f\n        /* \"#utility.yul\":507:513   */\n      dup4\n        /* \"#utility.yul\":503:520   */\n      add\n        /* \"#utility.yul\":499:526   */\n      slt\n        /* \"#utility.yul\":489:544   */\n      tag_57\n      jumpi\n        /* \"#utility.yul\":540:541   */\n      0x00\n        /* \"#utility.yul\":537:538   */\n      dup1\n        /* \"#utility.yul\":530:542   */\n      revert\n        /* \"#utility.yul\":489:544   */\n    tag_57:\n        /* \"#utility.yul\":576:582   */\n      dup2\n        /* \"#utility.yul\":563:583   */\n      calldataload\n        /* \"#utility.yul\":602:620   */\n      0xffffffffffffffff\n        /* \"#utility.yul\":598:600   */\n      dup2\n        /* \"#utility.yul\":595:621   */\n      gt\n        /* \"#utility.yul\":592:644   */\n      iszero\n      tag_59\n      jumpi\n        /* \"#utility.yul\":624:642   */\n      tag_59\n      tag_44\n      jump\t// in\n    tag_59:\n        /* \"#utility.yul\":668:723   */\n      tag_60\n        /* \"#utility.yul\":711:713   */\n      0x1f\n        /* \"#utility.yul\":692:705   */\n      dup3\n      add\n      not(0x1f)\n        /* \"#utility.yul\":688:715   */\n      and\n        /* \"#utility.yul\":717:721   */\n      0x20\n        /* \"#utility.yul\":684:722   */\n      add\n        /* \"#utility.yul\":668:723   */\n      tag_45\n      jump\t// in\n    tag_60:\n        /* \"#utility.yul\":748:750   */\n      dup2\n        /* \"#utility.yul\":739:746   */\n      dup2\n        /* \"#utility.yul\":732:751   */\n      mstore\n        /* \"#utility.yul\":794:797   */\n      dup5\n        /* \"#utility.yul\":787:791   */\n      0x20\n        /* \"#utility.yul\":782:784   */\n      dup4\n        /* \"#utility.yul\":774:780   */\n      dup7\n        /* \"#utility.yul\":770:785   */\n      add\n        /* \"#utility.yul\":766:792   */\n      add\n        /* \"#utility.yul\":763:798   */\n      gt\n        /* \"#utility.yul\":760:815   */\n      iszero\n      tag_61\n      jumpi\n        /* \"#utility.yul\":811:812   */\n      0x00\n        /* \"#utility.yul\":808:809   */\n      dup1\n        /* \"#utility.yul\":801:813   */\n      revert\n        /* \"#utility.yul\":760:815   */\n    tag_61:\n        /* \"#utility.yul\":876:878   */\n      dup2\n        /* \"#utility.yul\":869:873   */\n      0x20\n        /* \"#utility.yul\":861:867   */\n      dup6\n        /* \"#utility.yul\":857:874   */\n      add\n        /* \"#utility.yul\":850:854   */\n      0x20\n        /* \"#utility.yul\":841:848   */\n      dup4\n        /* \"#utility.yul\":837:855   */\n      add\n        /* \"#utility.yul\":824:879   */\n      calldatacopy\n        /* \"#utility.yul\":924:925   */\n      0x00\n        /* \"#utility.yul\":899:915   */\n      swap2\n      dup2\n      add\n        /* \"#utility.yul\":917:921   */\n      0x20\n        /* \"#utility.yul\":895:922   */\n      add\n        /* \"#utility.yul\":888:926   */\n      swap2\n      swap1\n      swap2\n      mstore\n        /* \"#utility.yul\":903:910   */\n      swap4\n        /* \"#utility.yul\":426:957   */\n      swap3\n      pop\n      pop\n      pop\n      jump\t// out\n        /* \"#utility.yul\":962:2259   */\n    tag_7:\n        /* \"#utility.yul\":1075:1081   */\n      0x00\n        /* \"#utility.yul\":1083:1089   */\n      dup1\n        /* \"#utility.yul\":1136:1138   */\n      0x40\n        /* \"#utility.yul\":1124:1133   */\n      dup4\n        /* \"#utility.yul\":1115:1122   */\n      dup6\n        /* \"#utility.yul\":1111:1134   */\n      sub\n        /* \"#utility.yul\":1107:1139   */\n      slt\n        /* \"#utility.yul\":1104:1156   */\n      iszero\n      tag_63\n      jumpi\n        /* \"#utility.yul\":1152:1153   */\n      0x00\n        /* \"#utility.yul\":1149:1150   */\n      dup1\n        /* \"#utility.yul\":1142:1154   */\n      revert\n        /* \"#utility.yul\":1104:1156   */\n    tag_63:\n        /* \"#utility.yul\":1192:1201   */\n      dup3\n        /* \"#utility.yul\":1179:1202   */\n      calldataload\n        /* \"#utility.yul\":1221:1239   */\n      0xffffffffffffffff\n        /* \"#utility.yul\":1262:1264   */\n      dup1\n        /* \"#utility.yul\":1254:1260   */\n      dup3\n        /* \"#utility.yul\":1251:1265   */\n      gt\n        /* \"#utility.yul\":1248:1282   */\n      iszero\n      tag_64\n      jumpi\n        /* \"#utility.yul\":1278:1279   */\n      0x00\n        /* \"#utility.yul\":1275:1276   */\n      dup1\n        /* \"#utility.yul\":1268:1280   */\n      revert\n        /* \"#utility.yul\":1248:1282   */\n    tag_64:\n        /* \"#utility.yul\":1301:1351   */\n      tag_65\n        /* \"#utility.yul\":1343:1350   */\n      dup7\n        /* \"#utility.yul\":1334:1340   */\n      dup4\n        /* \"#utility.yul\":1323:1332   */\n      dup8\n        /* \"#utility.yul\":1319:1341   */\n      add\n        /* \"#utility.yul\":1301:1351   */\n      tag_46\n      jump\t// in\n    tag_65:\n        /* \"#utility.yul\":1291:1351   */\n      swap4\n      pop\n        /* \"#utility.yul\":1370:1372   */\n      0x20\n        /* \"#utility.yul\":1360:1372   */\n      swap2\n      pop\n        /* \"#utility.yul\":1425:1427   */\n      dup2\n        /* \"#utility.yul\":1414:1423   */\n      dup6\n        /* \"#utility.yul\":1410:1428   */\n      add\n        /* \"#utility.yul\":1397:1429   */\n      calldataload\n        /* \"#utility.yul\":1454:1456   */\n      dup2\n        /* \"#utility.yul\":1444:1452   */\n      dup2\n        /* \"#utility.yul\":1441:1457   */\n      gt\n        /* \"#utility.yul\":1438:1474   */\n      iszero\n      tag_66\n      jumpi\n        /* \"#utility.yul\":1470:1471   */\n      0x00\n        /* \"#utility.yul\":1467:1468   */\n      dup1\n        /* \"#utility.yul\":1460:1472   */\n      revert\n        /* \"#utility.yul\":1438:1474   */\n    tag_66:\n        /* \"#utility.yul\":1493:1517   */\n      dup6\n      add\n        /* \"#utility.yul\":1548:1552   */\n      0x1f\n        /* \"#utility.yul\":1540:1553   */\n      dup2\n      add\n        /* \"#utility.yul\":1536:1563   */\n      dup8\n      sgt\n        /* \"#utility.yul\":1526:1581   */\n      tag_67\n      jumpi\n        /* \"#utility.yul\":1577:1578   */\n      0x00\n        /* \"#utility.yul\":1574:1575   */\n      dup1\n        /* \"#utility.yul\":1567:1579   */\n      revert\n        /* \"#utility.yul\":1526:1581   */\n    tag_67:\n        /* \"#utility.yul\":1613:1615   */\n      dup1\n        /* \"#utility.yul\":1600:1616   */\n      calldataload\n        /* \"#utility.yul\":1635:1637   */\n      dup3\n        /* \"#utility.yul\":1631:1633   */\n      dup2\n        /* \"#utility.yul\":1628:1638   */\n      gt\n        /* \"#utility.yul\":1625:1661   */\n      iszero\n      tag_69\n      jumpi\n        /* \"#utility.yul\":1641:1659   */\n      tag_69\n      tag_44\n      jump\t// in\n    tag_69:\n        /* \"#utility.yul\":1687:1689   */\n      dup1\n        /* \"#utility.yul\":1684:1685   */\n      0x05\n        /* \"#utility.yul\":1680:1690   */\n      shl\n        /* \"#utility.yul\":1710:1738   */\n      tag_70\n        /* \"#utility.yul\":1734:1736   */\n      dup6\n        /* \"#utility.yul\":1730:1732   */\n      dup3\n        /* \"#utility.yul\":1726:1737   */\n      add\n        /* \"#utility.yul\":1710:1738   */\n      tag_45\n      jump\t// in\n    tag_70:\n        /* \"#utility.yul\":1772:1787   */\n      swap2\n      dup3\n      mstore\n        /* \"#utility.yul\":1842:1853   */\n      dup3\n      dup2\n      add\n        /* \"#utility.yul\":1838:1858   */\n      dup6\n      add\n      swap2\n        /* \"#utility.yul\":1803:1815   */\n      dup6\n      dup2\n      add\n      swap1\n        /* \"#utility.yul\":1870:1889   */\n      dup11\n      dup5\n      gt\n        /* \"#utility.yul\":1867:1906   */\n      iszero\n      tag_71\n      jumpi\n        /* \"#utility.yul\":1902:1903   */\n      0x00\n        /* \"#utility.yul\":1899:1900   */\n      dup1\n        /* \"#utility.yul\":1892:1904   */\n      revert\n        /* \"#utility.yul\":1867:1906   */\n    tag_71:\n        /* \"#utility.yul\":1934:1936   */\n      dup7\n        /* \"#utility.yul\":1930:1932   */\n      dup6\n        /* \"#utility.yul\":1926:1937   */\n      add\n        /* \"#utility.yul\":1915:1937   */\n      swap3\n      pop\n        /* \"#utility.yul\":1946:2229   */\n    tag_72:\n        /* \"#utility.yul\":1962:1968   */\n      dup4\n        /* \"#utility.yul\":1957:1960   */\n      dup4\n        /* \"#utility.yul\":1954:1969   */\n      lt\n        /* \"#utility.yul\":1946:2229   */\n      iszero\n      tag_74\n      jumpi\n        /* \"#utility.yul\":2048:2051   */\n      dup3\n        /* \"#utility.yul\":2035:2052   */\n      calldataload\n        /* \"#utility.yul\":2084:2086   */\n      dup7\n        /* \"#utility.yul\":2071:2082   */\n      dup2\n        /* \"#utility.yul\":2068:2087   */\n      gt\n        /* \"#utility.yul\":2065:2104   */\n      iszero\n      tag_75\n      jumpi\n        /* \"#utility.yul\":2100:2101   */\n      0x00\n        /* \"#utility.yul\":2097:2098   */\n      dup1\n        /* \"#utility.yul\":2090:2102   */\n      revert\n        /* \"#utility.yul\":2065:2104   */\n    tag_75:\n        /* \"#utility.yul\":2129:2186   */\n      tag_76\n        /* \"#utility.yul\":2178:2185   */\n      dup13\n        /* \"#utility.yul\":2173:2175   */\n      dup10\n        /* \"#utility.yul\":2159:2170   */\n      dup4\n        /* \"#utility.yul\":2155:2157   */\n      dup10\n        /* \"#utility.yul\":2151:2171   */\n      add\n        /* \"#utility.yul\":2147:2176   */\n      add\n        /* \"#utility.yul\":2129:2186   */\n      tag_46\n      jump\t// in\n    tag_76:\n        /* \"#utility.yul\":2117:2187   */\n      dup4\n      mstore\n      pop\n        /* \"#utility.yul\":1979:1991   */\n      swap2\n      dup7\n      add\n      swap2\n        /* \"#utility.yul\":2207:2219   */\n      swap1\n      dup7\n      add\n      swap1\n        /* \"#utility.yul\":1946:2229   */\n      jump(tag_72)\n    tag_74:\n        /* \"#utility.yul\":2248:2253   */\n      dup1\n        /* \"#utility.yul\":2238:2253   */\n      swap8\n      pop\n      pop\n      pop\n      pop\n      pop\n      pop\n      pop\n      pop\n        /* \"#utility.yul\":962:2259   */\n      swap3\n      pop\n      swap3\n      swap1\n      pop\n      jump\t// out\n        /* \"#utility.yul\":2264:2586   */\n    tag_11:\n        /* \"#utility.yul\":2333:2339   */\n      0x00\n        /* \"#utility.yul\":2386:2388   */\n      0x20\n        /* \"#utility.yul\":2374:2383   */\n      dup3\n        /* \"#utility.yul\":2365:2372   */\n      dup5\n        /* \"#utility.yul\":2361:2384   */\n      sub\n        /* \"#utility.yul\":2357:2389   */\n      slt\n        /* \"#utility.yul\":2354:2406   */\n      iszero\n      tag_78\n      jumpi\n        /* \"#utility.yul\":2402:2403   */\n      0x00\n        /* \"#utility.yul\":2399:2400   */\n      dup1\n        /* \"#utility.yul\":2392:2404   */\n      revert\n        /* \"#utility.yul\":2354:2406   */\n    tag_78:\n        /* \"#utility.yul\":2442:2451   */\n      dup2\n        /* \"#utility.yul\":2429:2452   */\n      calldataload\n        /* \"#utility.yul\":2475:2493   */\n      0xffffffffffffffff\n        /* \"#utility.yul\":2467:2473   */\n      dup2\n        /* \"#utility.yul\":2464:2494   */\n      gt\n        /* \"#utility.yul\":2461:2511   */\n      iszero\n      tag_79\n      jumpi\n        /* \"#utility.yul\":2507:2508   */\n      0x00\n        /* \"#utility.yul\":2504:2505   */\n      dup1\n        /* \"#utility.yul\":2497:2509   */\n      revert\n        /* \"#utility.yul\":2461:2511   */\n    tag_79:\n        /* \"#utility.yul\":2530:2580   */\n      tag_80\n        /* \"#utility.yul\":2572:2579   */\n      dup5\n        /* \"#utility.yul\":2563:2569   */\n      dup3\n        /* \"#utility.yul\":2552:2561   */\n      dup6\n        /* \"#utility.yul\":2548:2570   */\n      add\n        /* \"#utility.yul\":2530:2580   */\n      tag_46\n      jump\t// in\n    tag_80:\n        /* \"#utility.yul\":2520:2580   */\n      swap5\n        /* \"#utility.yul\":2264:2586   */\n      swap4\n      pop\n      pop\n      pop\n      pop\n      jump\t// out\n        /* \"#utility.yul\":2591:2880   */\n    tag_47:\n        /* \"#utility.yul\":2633:2636   */\n      0x00\n        /* \"#utility.yul\":2671:2676   */\n      dup2\n        /* \"#utility.yul\":2665:2677   */\n      mload\n        /* \"#utility.yul\":2698:2704   */\n      dup1\n        /* \"#utility.yul\":2693:2696   */\n      dup5\n        /* \"#utility.yul\":2686:2705   */\n      mstore\n        /* \"#utility.yul\":2754:2760   */\n      dup1\n        /* \"#utility.yul\":2747:2751   */\n      0x20\n        /* \"#utility.yul\":2740:2745   */\n      dup5\n        /* \"#utility.yul\":2736:2752   */\n      add\n        /* \"#utility.yul\":2729:2733   */\n      0x20\n        /* \"#utility.yul\":2724:2727   */\n      dup7\n        /* \"#utility.yul\":2720:2734   */\n      add\n        /* \"#utility.yul\":2714:2761   */\n      mcopy\n        /* \"#utility.yul\":2806:2807   */\n      0x00\n        /* \"#utility.yul\":2799:2803   */\n      0x20\n        /* \"#utility.yul\":2790:2796   */\n      dup3\n        /* \"#utility.yul\":2785:2788   */\n      dup7\n        /* \"#utility.yul\":2781:2797   */\n      add\n        /* \"#utility.yul\":2777:2804   */\n      add\n        /* \"#utility.yul\":2770:2808   */\n      mstore\n        /* \"#utility.yul\":2869:2873   */\n      0x20\n        /* \"#utility.yul\":2862:2864   */\n      0x1f\n        /* \"#utility.yul\":2858:2865   */\n      not\n        /* \"#utility.yul\":2853:2855   */\n      0x1f\n        /* \"#utility.yul\":2845:2851   */\n      dup4\n        /* \"#utility.yul\":2841:2856   */\n      add\n        /* \"#utility.yul\":2837:2866   */\n      and\n        /* \"#utility.yul\":2832:2835   */\n      dup6\n        /* \"#utility.yul\":2828:2867   */\n      add\n        /* \"#utility.yul\":2824:2874   */\n      add\n        /* \"#utility.yul\":2817:2874   */\n      swap2\n      pop\n      pop\n        /* \"#utility.yul\":2591:2880   */\n      swap3\n      swap2\n      pop\n      pop\n      jump\t// out\n        /* \"#utility.yul\":2885:3957   */\n    tag_14:\n        /* \"#utility.yul\":3188:3191   */\n      0x80\n        /* \"#utility.yul\":3177:3186   */\n      dup2\n        /* \"#utility.yul\":3170:3192   */\n      mstore\n        /* \"#utility.yul\":3151:3155   */\n      0x00\n        /* \"#utility.yul\":3215:3261   */\n      tag_83\n        /* \"#utility.yul\":3256:3259   */\n      0x80\n        /* \"#utility.yul\":3245:3254   */\n      dup4\n        /* \"#utility.yul\":3241:3260   */\n      add\n        /* \"#utility.yul\":3233:3239   */\n      dup8\n        /* \"#utility.yul\":3215:3261   */\n      tag_47\n      jump\t// in\n    tag_83:\n        /* \"#utility.yul\":3280:3282   */\n      0x20\n        /* \"#utility.yul\":3330:3339   */\n      dup4\n        /* \"#utility.yul\":3322:3328   */\n      dup3\n        /* \"#utility.yul\":3318:3340   */\n      sub\n        /* \"#utility.yul\":3313:3315   */\n      dup2\n        /* \"#utility.yul\":3302:3311   */\n      dup6\n        /* \"#utility.yul\":3298:3316   */\n      add\n        /* \"#utility.yul\":3291:3341   */\n      mstore\n        /* \"#utility.yul\":3361:3367   */\n      dup2\n        /* \"#utility.yul\":3396:3402   */\n      dup8\n        /* \"#utility.yul\":3390:3403   */\n      mload\n        /* \"#utility.yul\":3427:3433   */\n      dup1\n        /* \"#utility.yul\":3419:3425   */\n      dup5\n        /* \"#utility.yul\":3412:3434   */\n      mstore\n        /* \"#utility.yul\":3462:3464   */\n      dup3\n        /* \"#utility.yul\":3454:3460   */\n      dup5\n        /* \"#utility.yul\":3450:3465   */\n      add\n        /* \"#utility.yul\":3443:3465   */\n      swap2\n      pop\n        /* \"#utility.yul\":3521:3523   */\n      dup3\n        /* \"#utility.yul\":3511:3517   */\n      dup2\n        /* \"#utility.yul\":3508:3509   */\n      0x05\n        /* \"#utility.yul\":3504:3518   */\n      shl\n        /* \"#utility.yul\":3496:3502   */\n      dup6\n        /* \"#utility.yul\":3492:3519   */\n      add\n        /* \"#utility.yul\":3488:3524   */\n      add\n        /* \"#utility.yul\":3559:3561   */\n      dup4\n        /* \"#utility.yul\":3551:3557   */\n      dup11\n        /* \"#utility.yul\":3547:3562   */\n      add\n        /* \"#utility.yul\":3580:3581   */\n      0x00\n        /* \"#utility.yul\":3590:3842   */\n    tag_84:\n        /* \"#utility.yul\":3604:3610   */\n      dup4\n        /* \"#utility.yul\":3601:3602   */\n      dup2\n        /* \"#utility.yul\":3598:3611   */\n      lt\n        /* \"#utility.yul\":3590:3842   */\n      iszero\n      tag_86\n      jumpi\n        /* \"#utility.yul\":3694:3696   */\n      0x1f\n        /* \"#utility.yul\":3690:3697   */\n      not\n        /* \"#utility.yul\":3681:3687   */\n      dup8\n        /* \"#utility.yul\":3673:3679   */\n      dup5\n        /* \"#utility.yul\":3669:3688   */\n      sub\n        /* \"#utility.yul\":3665:3698   */\n      add\n        /* \"#utility.yul\":3660:3663   */\n      dup6\n        /* \"#utility.yul\":3653:3699   */\n      mstore\n        /* \"#utility.yul\":3722:3762   */\n      tag_87\n        /* \"#utility.yul\":3755:3761   */\n      dup4\n        /* \"#utility.yul\":3746:3752   */\n      dup4\n        /* \"#utility.yul\":3740:3753   */\n      mload\n        /* \"#utility.yul\":3722:3762   */\n      tag_47\n      jump\t// in\n    tag_87:\n        /* \"#utility.yul\":3820:3832   */\n      swap5\n      dup7\n      add\n      swap5\n        /* \"#utility.yul\":3712:3762   */\n      swap3\n      pop\n        /* \"#utility.yul\":3785:3800   */\n      swap1\n      dup6\n      add\n      swap1\n        /* \"#utility.yul\":3626:3627   */\n      0x01\n        /* \"#utility.yul\":3619:3628   */\n      add\n        /* \"#utility.yul\":3590:3842   */\n      jump(tag_84)\n    tag_86:\n      pop\n      pop\n        /* \"#utility.yul\":3896:3898   */\n      0x40\n        /* \"#utility.yul\":3881:3899   */\n      dup8\n      add\n        /* \"#utility.yul\":3874:3908   */\n      swap9\n      swap1\n      swap9\n      mstore\n      pop\n      pop\n      pop\n      pop\n        /* \"#utility.yul\":3939:3941   */\n      0x60\n        /* \"#utility.yul\":3924:3942   */\n      swap1\n      swap2\n      add\n        /* \"#utility.yul\":3917:3951   */\n      swap2\n      swap1\n      swap2\n      mstore\n      pop\n        /* \"#utility.yul\":3859:3865   */\n      swap3\n        /* \"#utility.yul\":2885:3957   */\n      swap2\n      pop\n      pop\n      jump\t// out\n        /* \"#utility.yul\":3962:4265   */\n    tag_17:\n        /* \"#utility.yul\":4093:4096   */\n      0x00\n        /* \"#utility.yul\":4131:4137   */\n      dup3\n        /* \"#utility.yul\":4125:4138   */\n      mload\n        /* \"#utility.yul\":4177:4183   */\n      dup1\n        /* \"#utility.yul\":4170:4174   */\n      0x20\n        /* \"#utility.yul\":4162:4168   */\n      dup6\n        /* \"#utility.yul\":4158:4175   */\n      add\n        /* \"#utility.yul\":4153:4156   */\n      dup5\n        /* \"#utility.yul\":4147:4184   */\n      mcopy\n        /* \"#utility.yul\":4239:4240   */\n      0x00\n        /* \"#utility.yul\":4203:4219   */\n      swap3\n      add\n        /* \"#utility.yul\":4228:4241   */\n      swap2\n      dup3\n      mstore\n      pop\n        /* \"#utility.yul\":4203:4219   */\n      swap2\n        /* \"#utility.yul\":3962:4265   */\n      swap1\n      pop\n      jump\t// out\n        /* \"#utility.yul\":4270:4650   */\n    tag_31:\n        /* \"#utility.yul\":4349:4350   */\n      0x01\n        /* \"#utility.yul\":4345:4357   */\n      dup2\n      dup2\n      shr\n      swap1\n        /* \"#utility.yul\":4392:4404   */\n      dup3\n      and\n      dup1\n        /* \"#utility.yul\":4413:4474   */\n      tag_90\n      jumpi\n        /* \"#utility.yul\":4467:4471   */\n      0x7f\n        /* \"#utility.yul\":4459:4465   */\n      dup3\n        /* \"#utility.yul\":4455:4472   */\n      and\n        /* \"#utility.yul\":4445:4472   */\n      swap2\n      pop\n        /* \"#utility.yul\":4413:4474   */\n    tag_90:\n        /* \"#utility.yul\":4520:4522   */\n      0x20\n        /* \"#utility.yul\":4512:4518   */\n      dup3\n        /* \"#utility.yul\":4509:4523   */\n      lt\n        /* \"#utility.yul\":4489:4507   */\n      dup2\n        /* \"#utility.yul\":4486:4524   */\n      sub\n        /* \"#utility.yul\":4483:4644   */\n      tag_91\n      jumpi\n        /* \"#utility.yul\":4566:4576   */\n      0x4e487b71\n        /* \"#utility.yul\":4561:4564   */\n      0xe0\n        /* \"#utility.yul\":4557:4577   */\n      shl\n        /* \"#utility.yul\":4554:4555   */\n      0x00\n        /* \"#utility.yul\":4547:4578   */\n      mstore\n        /* \"#utility.yul\":4601:4605   */\n      0x22\n        /* \"#utility.yul\":4598:4599   */\n      0x04\n        /* \"#utility.yul\":4591:4606   */\n      mstore\n        /* \"#utility.yul\":4629:4633   */\n      0x24\n        /* \"#utility.yul\":4626:4627   */\n      0x00\n        /* \"#utility.yul\":4619:4634   */\n      revert\n        /* \"#utility.yul\":4483:4644   */\n    tag_91:\n      pop\n        /* \"#utility.yul\":4270:4650   */\n      swap2\n      swap1\n      pop\n      jump\t// out\n        /* \"#utility.yul\":4781:5299   */\n    tag_49:\n        /* \"#utility.yul\":4883:4885   */\n      0x1f\n        /* \"#utility.yul\":4878:4881   */\n      dup3\n        /* \"#utility.yul\":4875:4886   */\n      gt\n        /* \"#utility.yul\":4872:5293   */\n      iszero\n      tag_94\n      jumpi\n        /* \"#utility.yul\":4919:4924   */\n      dup1\n        /* \"#utility.yul\":4916:4917   */\n      0x00\n        /* \"#utility.yul\":4909:4925   */\n      mstore\n        /* \"#utility.yul\":4963:4967   */\n      0x20\n        /* \"#utility.yul\":4960:4961   */\n      0x00\n        /* \"#utility.yul\":4950:4968   */\n      keccak256\n        /* \"#utility.yul\":5033:5035   */\n      0x1f\n        /* \"#utility.yul\":5021:5031   */\n      dup5\n        /* \"#utility.yul\":5017:5036   */\n      add\n        /* \"#utility.yul\":5014:5015   */\n      0x05\n        /* \"#utility.yul\":5010:5037   */\n      shr\n        /* \"#utility.yul\":5004:5008   */\n      dup2\n        /* \"#utility.yul\":5000:5038   */\n      add\n        /* \"#utility.yul\":5069:5073   */\n      0x20\n        /* \"#utility.yul\":5057:5067   */\n      dup6\n        /* \"#utility.yul\":5054:5074   */\n      lt\n        /* \"#utility.yul\":5051:5098   */\n      iszero\n      tag_95\n      jumpi\n      pop\n        /* \"#utility.yul\":5092:5096   */\n      dup1\n        /* \"#utility.yul\":5051:5098   */\n    tag_95:\n        /* \"#utility.yul\":5147:5149   */\n      0x1f\n        /* \"#utility.yul\":5142:5145   */\n      dup5\n        /* \"#utility.yul\":5138:5150   */\n      add\n        /* \"#utility.yul\":5135:5136   */\n      0x05\n        /* \"#utility.yul\":5131:5151   */\n      shr\n        /* \"#utility.yul\":5125:5129   */\n      dup3\n        /* \"#utility.yul\":5121:5152   */\n      add\n        /* \"#utility.yul\":5111:5152   */\n      swap2\n      pop\n        /* \"#utility.yul\":5202:5283   */\n    tag_96:\n        /* \"#utility.yul\":5220:5222   */\n      dup2\n        /* \"#utility.yul\":5213:5218   */\n      dup2\n        /* \"#utility.yul\":5210:5223   */\n      lt\n        /* \"#utility.yul\":5202:5283   */\n      iszero\n      tag_98\n      jumpi\n        /* \"#utility.yul\":5279:5280   */\n      0x00\n        /* \"#utility.yul\":5265:5281   */\n      dup2\n      sstore\n        /* \"#utility.yul\":5246:5247   */\n      0x01\n        /* \"#utility.yul\":5235:5248   */\n      add\n        /* \"#utility.yul\":5202:5283   */\n      jump(tag_96)\n    tag_98:\n        /* \"#utility.yul\":5206:5209   */\n      pop\n      pop\n        /* \"#utility.yul\":4872:5293   */\n    tag_94:\n        /* \"#utility.yul\":4781:5299   */\n      pop\n      pop\n      pop\n      jump\t// out\n        /* \"#utility.yul\":5475:6820   */\n    tag_19:\n        /* \"#utility.yul\":5601:5604   */\n      dup2\n        /* \"#utility.yul\":5595:5605   */\n      mload\n        /* \"#utility.yul\":5628:5646   */\n      0xffffffffffffffff\n        /* \"#utility.yul\":5620:5626   */\n      dup2\n        /* \"#utility.yul\":5617:5647   */\n      gt\n        /* \"#utility.yul\":5614:5670   */\n      iszero\n      tag_102\n      jumpi\n        /* \"#utility.yul\":5650:5668   */\n      tag_102\n      tag_44\n      jump\t// in\n    tag_102:\n        /* \"#utility.yul\":5679:5776   */\n      tag_103\n        /* \"#utility.yul\":5769:5775   */\n      dup2\n        /* \"#utility.yul\":5729:5767   */\n      tag_104\n        /* \"#utility.yul\":5761:5765   */\n      dup5\n        /* \"#utility.yul\":5755:5766   */\n      sload\n        /* \"#utility.yul\":5729:5767   */\n      tag_31\n      jump\t// in\n    tag_104:\n        /* \"#utility.yul\":5723:5727   */\n      dup5\n        /* \"#utility.yul\":5679:5776   */\n      tag_49\n      jump\t// in\n    tag_103:\n        /* \"#utility.yul\":5831:5835   */\n      0x20\n      dup1\n        /* \"#utility.yul\":5888:5890   */\n      0x1f\n        /* \"#utility.yul\":5877:5891   */\n      dup4\n      gt\n        /* \"#utility.yul\":5905:5906   */\n      0x01\n        /* \"#utility.yul\":5900:6563   */\n      dup2\n      eq\n      tag_106\n      jumpi\n        /* \"#utility.yul\":6607:6608   */\n      0x00\n        /* \"#utility.yul\":6624:6630   */\n      dup5\n        /* \"#utility.yul\":6621:6710   */\n      iszero\n      tag_107\n      jumpi\n      pop\n        /* \"#utility.yul\":6676:6695   */\n      dup6\n      dup4\n      add\n        /* \"#utility.yul\":6670:6696   */\n      mload\n        /* \"#utility.yul\":6621:6710   */\n    tag_107:\n      not(0x00)\n        /* \"#utility.yul\":5432:5433   */\n      0x03\n        /* \"#utility.yul\":5428:5439   */\n      dup7\n      swap1\n      shl\n        /* \"#utility.yul\":5424:5448   */\n      shr\n        /* \"#utility.yul\":5420:5449   */\n      not\n        /* \"#utility.yul\":5410:5450   */\n      and\n        /* \"#utility.yul\":5456:5457   */\n      0x01\n        /* \"#utility.yul\":5452:5463   */\n      dup6\n      swap1\n      shl\n        /* \"#utility.yul\":5407:5464   */\n      or\n        /* \"#utility.yul\":6723:6804   */\n      dup6\n      sstore\n        /* \"#utility.yul\":5870:6814   */\n      jump(tag_105)\n        /* \"#utility.yul\":5900:6563   */\n    tag_106:\n        /* \"#utility.yul\":4728:4729   */\n      0x00\n        /* \"#utility.yul\":4721:4735   */\n      dup6\n      dup2\n      mstore\n        /* \"#utility.yul\":4765:4769   */\n      0x20\n        /* \"#utility.yul\":4752:4770   */\n      dup2\n      keccak256\n      not(0x1f)\n        /* \"#utility.yul\":5936:5956   */\n      dup7\n      and\n      swap2\n        /* \"#utility.yul\":6054:6290   */\n    tag_110:\n        /* \"#utility.yul\":6068:6075   */\n      dup3\n        /* \"#utility.yul\":6065:6066   */\n      dup2\n        /* \"#utility.yul\":6062:6076   */\n      lt\n        /* \"#utility.yul\":6054:6290   */\n      iszero\n      tag_112\n      jumpi\n        /* \"#utility.yul\":6157:6176   */\n      dup9\n      dup7\n      add\n        /* \"#utility.yul\":6151:6177   */\n      mload\n        /* \"#utility.yul\":6136:6178   */\n      dup3\n      sstore\n        /* \"#utility.yul\":6249:6276   */\n      swap5\n      dup5\n      add\n      swap5\n        /* \"#utility.yul\":6217:6218   */\n      0x01\n        /* \"#utility.yul\":6205:6219   */\n      swap1\n      swap2\n      add\n      swap1\n        /* \"#utility.yul\":6084:6103   */\n      dup5\n      add\n        /* \"#utility.yul\":6054:6290   */\n      jump(tag_110)\n    tag_112:\n        /* \"#utility.yul\":6058:6061   */\n      pop\n        /* \"#utility.yul\":6318:6324   */\n      dup6\n        /* \"#utility.yul\":6309:6316   */\n      dup3\n        /* \"#utility.yul\":6306:6325   */\n      lt\n        /* \"#utility.yul\":6303:6504   */\n      iszero\n      tag_113\n      jumpi\n        /* \"#utility.yul\":6379:6398   */\n      dup8\n      dup6\n      add\n        /* \"#utility.yul\":6373:6399   */\n      mload\n      not(0x00)\n        /* \"#utility.yul\":6462:6463   */\n      0x03\n        /* \"#utility.yul\":6458:6472   */\n      dup9\n      swap1\n      shl\n        /* \"#utility.yul\":6474:6477   */\n      0xf8\n        /* \"#utility.yul\":6454:6478   */\n      and\n        /* \"#utility.yul\":6450:6487   */\n      shr\n        /* \"#utility.yul\":6446:6488   */\n      not\n        /* \"#utility.yul\":6431:6489   */\n      and\n        /* \"#utility.yul\":6416:6490   */\n      dup2\n      sstore\n        /* \"#utility.yul\":6303:6504   */\n    tag_113:\n      pop\n      pop\n        /* \"#utility.yul\":6550:6551   */\n      0x01\n        /* \"#utility.yul\":6541:6547   */\n      dup5\n        /* \"#utility.yul\":6538:6539   */\n      0x01\n        /* \"#utility.yul\":6534:6548   */\n      shl\n        /* \"#utility.yul\":6530:6552   */\n      add\n        /* \"#utility.yul\":6524:6528   */\n      dup6\n        /* \"#utility.yul\":6517:6553   */\n      sstore\n        /* \"#utility.yul\":5870:6814   */\n    tag_105:\n      pop\n      pop\n      pop\n      pop\n        /* \"#utility.yul\":5475:6820   */\n      pop\n      pop\n      jump\t// out\n        /* \"#utility.yul\":6825:6952   */\n    tag_25:\n        /* \"#utility.yul\":6886:6896   */\n      0x4e487b71\n        /* \"#utility.yul\":6881:6884   */\n      0xe0\n        /* \"#utility.yul\":6877:6897   */\n      shl\n        /* \"#utility.yul\":6874:6875   */\n      0x00\n        /* \"#utility.yul\":6867:6898   */\n      mstore\n        /* \"#utility.yul\":6917:6921   */\n      0x32\n        /* \"#utility.yul\":6914:6915   */\n      0x04\n        /* \"#utility.yul\":6907:6922   */\n      mstore\n        /* \"#utility.yul\":6941:6945   */\n      0x24\n        /* \"#utility.yul\":6938:6939   */\n      0x00\n        /* \"#utility.yul\":6931:6946   */\n      revert\n\n    auxdata: 0xa26469706673582212209d2c7f2a457d0a5d7c5537f561678d7d4dd7c6d8e12667a3a24370a8f19acc3964736f6c63430008190033\n}\n",
				"bytecode": {
					"linkReferences": {},
					"object": "6080604052348015600e575f80fd5b506106c38061001c5f395ff3fe608060405234801561000f575f80fd5b5060043610610034575f3560e01c80637c59fdd814610038578063ae55c8881461004d575b5f80fd5b61004b610046366004610359565b610079565b005b61006061005b366004610438565b61010a565b60405161007094939291906104a0565b60405180910390f35b5f8083604051610089919061051f565b9081526040519081900360200190209050806100a584826105b9565b504260028201554360038201555f5b825181101561010457816001018382815181106100d3576100d3610679565b60209081029190910181015182546001810184555f9384529190922001906100fb90826105b9565b506001016100b4565b50505050565b6060805f805f808660405161011f919061051f565b90815260200160405180910390209050805f01816001018260020154836003015483805461014c90610535565b80601f016020809104026020016040519081016040528092919081815260200182805461017890610535565b80156101c35780601f1061019a576101008083540402835291602001916101c3565b820191905f5260205f20905b8154815290600101906020018083116101a657829003601f168201915b5050505050935082805480602002602001604051908101604052809291908181526020015f905b82821015610292578382905f5260205f2001805461020790610535565b80601f016020809104026020016040519081016040528092919081815260200182805461023390610535565b801561027e5780601f106102555761010080835404028352916020019161027e565b820191905f5260205f20905b81548152906001019060200180831161026157829003601f168201915b5050505050815260200190600101906101ea565b5050505092509450945094509450509193509193565b634e487b7160e01b5f52604160045260245ffd5b604051601f8201601f1916810167ffffffffffffffff811182821017156102e5576102e56102a8565b604052919050565b5f82601f8301126102fc575f80fd5b813567ffffffffffffffff811115610316576103166102a8565b610329601f8201601f19166020016102bc565b81815284602083860101111561033d575f80fd5b816020850160208301375f918101602001919091529392505050565b5f806040838503121561036a575f80fd5b823567ffffffffffffffff80821115610381575f80fd5b61038d868387016102ed565b93506020915081850135818111156103a3575f80fd5b8501601f810187136103b3575f80fd5b8035828111156103c5576103c56102a8565b8060051b6103d48582016102bc565b918252828101850191858101908a8411156103ed575f80fd5b86850192505b8383101561042757823586811115610409575f80fd5b6104178c89838901016102ed565b83525091860191908601906103f3565b809750505050505050509250929050565b5f60208284031215610448575f80fd5b813567ffffffffffffffff81111561045e575f80fd5b61046a848285016102ed565b949350505050565b5f81518084528060208401602086015e5f602082860101526020601f19601f83011685010191505092915050565b608081525f6104b26080830187610472565b6020838203818501528187518084528284019150828160051b850101838a015f5b8381101561050157601f198784030185526104ef838351610472565b948601949250908501906001016104d3565b50506040870198909852505050506060909101919091525092915050565b5f82518060208501845e5f920191825250919050565b600181811c9082168061054957607f821691505b60208210810361056757634e487b7160e01b5f52602260045260245ffd5b50919050565b601f8211156105b457805f5260205f20601f840160051c810160208510156105925750805b601f840160051c820191505b818110156105b1575f815560010161059e565b50505b505050565b815167ffffffffffffffff8111156105d3576105d36102a8565b6105e7816105e18454610535565b8461056d565b602080601f83116001811461061a575f84156106035750858301515b5f19600386901b1c1916600185901b178555610671565b5f85815260208120601f198616915b8281101561064857888601518255948401946001909101908401610629565b508582101561066557878501515f19600388901b60f8161c191681555b505060018460011b0185555b505050505050565b634e487b7160e01b5f52603260045260245ffdfea26469706673582212209d2c7f2a457d0a5d7c5537f561678d7d4dd7c6d8e12667a3a24370a8f19acc3964736f6c63430008190033",
					"opcodes": "PUSH1 0x80 PUSH1 0x40 MSTORE CALLVALUE DUP1 ISZERO PUSH1 0xE JUMPI PUSH0 DUP1 REVERT JUMPDEST POP PUSH2 0x6C3 DUP1 PUSH2 0x1C PUSH0 CODECOPY PUSH0 RETURN INVALID PUSH1 0x80 PUSH1 0x40 MSTORE CALLVALUE DUP1 ISZERO PUSH2 0xF JUMPI PUSH0 DUP1 REVERT JUMPDEST POP PUSH1 0x4 CALLDATASIZE LT PUSH2 0x34 JUMPI PUSH0 CALLDATALOAD PUSH1 0xE0 SHR DUP1 PUSH4 0x7C59FDD8 EQ PUSH2 0x38 JUMPI DUP1 PUSH4 0xAE55C888 EQ PUSH2 0x4D JUMPI JUMPDEST PUSH0 DUP1 REVERT JUMPDEST PUSH2 0x4B PUSH2 0x46 CALLDATASIZE PUSH1 0x4 PUSH2 0x359 JUMP JUMPDEST PUSH2 0x79 JUMP JUMPDEST STOP JUMPDEST PUSH2 0x60 PUSH2 0x5B CALLDATASIZE PUSH1 0x4 PUSH2 0x438 JUMP JUMPDEST PUSH2 0x10A JUMP JUMPDEST PUSH1 0x40 MLOAD PUSH2 0x70 SWAP5 SWAP4 SWAP3 SWAP2 SWAP1 PUSH2 0x4A0 JUMP JUMPDEST PUSH1 0x40 MLOAD DUP1 SWAP2 SUB SWAP1 RETURN JUMPDEST PUSH0 DUP1 DUP4 PUSH1 0x40 MLOAD PUSH2 0x89 SWAP2 SWAP1 PUSH2 0x51F JUMP JUMPDEST SWAP1 DUP2 MSTORE PUSH1 0x40 MLOAD SWAP1 DUP2 SWAP1 SUB PUSH1 0x20 ADD SWAP1 KECCAK256 SWAP1 POP DUP1 PUSH2 0xA5 DUP5 DUP3 PUSH2 0x5B9 JUMP JUMPDEST POP TIMESTAMP PUSH1 0x2 DUP3 ADD SSTORE NUMBER PUSH1 0x3 DUP3 ADD SSTORE PUSH0 JUMPDEST DUP3 MLOAD DUP2 LT ISZERO PUSH2 0x104 JUMPI DUP2 PUSH1 0x1 ADD DUP4 DUP3 DUP2 MLOAD DUP2 LT PUSH2 0xD3 JUMPI PUSH2 0xD3 PUSH2 0x679 JUMP JUMPDEST PUSH1 0x20 SWAP1 DUP2 MUL SWAP2 SWAP1 SWAP2 ADD DUP2 ADD MLOAD DUP3 SLOAD PUSH1 0x1 DUP2 ADD DUP5 SSTORE PUSH0 SWAP4 DUP5 MSTORE SWAP2 SWAP1 SWAP3 KECCAK256 ADD SWAP1 PUSH2 0xFB SWAP1 DUP3 PUSH2 0x5B9 JUMP JUMPDEST POP PUSH1 0x1 ADD PUSH2 0xB4 JUMP JUMPDEST POP POP POP POP JUMP JUMPDEST PUSH1 0x60 DUP1 PUSH0 DUP1 PUSH0 DUP1 DUP7 PUSH1 0x40 MLOAD PUSH2 0x11F SWAP2 SWAP1 PUSH2 0x51F JUMP JUMPDEST SWAP1 DUP2 MSTORE PUSH1 0x20 ADD PUSH1 0x40 MLOAD DUP1 SWAP2 SUB SWAP1 KECCAK256 SWAP1 POP DUP1 PUSH0 ADD DUP2 PUSH1 0x1 ADD DUP3 PUSH1 0x2 ADD SLOAD DUP4 PUSH1 0x3 ADD SLOAD DUP4 DUP1 SLOAD PUSH2 0x14C SWAP1 PUSH2 0x535 JUMP JUMPDEST DUP1 PUSH1 0x1F ADD PUSH1 0x20 DUP1 SWAP2 DIV MUL PUSH1 0x20 ADD PUSH1 0x40 MLOAD SWAP1 DUP2 ADD PUSH1 0x40 MSTORE DUP1 SWAP3 SWAP2 SWAP1 DUP2 DUP2 MSTORE PUSH1 0x20 ADD DUP3 DUP1 SLOAD PUSH2 0x178 SWAP1 PUSH2 0x535 JUMP JUMPDEST DUP1 ISZERO PUSH2 0x1C3 JUMPI DUP1 PUSH1 0x1F LT PUSH2 0x19A JUMPI PUSH2 0x100 DUP1 DUP4 SLOAD DIV MUL DUP4 MSTORE SWAP2 PUSH1 0x20 ADD SWAP2 PUSH2 0x1C3 JUMP JUMPDEST DUP3 ADD SWAP2 SWAP1 PUSH0 MSTORE PUSH1 0x20 PUSH0 KECCAK256 SWAP1 JUMPDEST DUP2 SLOAD DUP2 MSTORE SWAP1 PUSH1 0x1 ADD SWAP1 PUSH1 0x20 ADD DUP1 DUP4 GT PUSH2 0x1A6 JUMPI DUP3 SWAP1 SUB PUSH1 0x1F AND DUP3 ADD SWAP2 JUMPDEST POP POP POP POP POP SWAP4 POP DUP3 DUP1 SLOAD DUP1 PUSH1 0x20 MUL PUSH1 0x20 ADD PUSH1 0x40 MLOAD SWAP1 DUP2 ADD PUSH1 0x40 MSTORE DUP1 SWAP3 SWAP2 SWAP1 DUP2 DUP2 MSTORE PUSH1 0x20 ADD PUSH0 SWAP1 JUMPDEST DUP3 DUP3 LT ISZERO PUSH2 0x292 JUMPI DUP4 DUP3 SWAP1 PUSH0 MSTORE PUSH1 0x20 PUSH0 KECCAK256 ADD DUP1 SLOAD PUSH2 0x207 SWAP1 PUSH2 0x535 JUMP JUMPDEST DUP1 PUSH1 0x1F ADD PUSH1 0x20 DUP1 SWAP2 DIV MUL PUSH1 0x20 ADD PUSH1 0x40 MLOAD SWAP1 DUP2 ADD PUSH1 0x40 MSTORE DUP1 SWAP3 SWAP2 SWAP1 DUP2 DUP2 MSTORE PUSH1 0x20 ADD DUP3 DUP1 SLOAD PUSH2 0x233 SWAP1 PUSH2 0x535 JUMP JUMPDEST DUP1 ISZERO PUSH2 0x27E JUMPI DUP1 PUSH1 0x1F LT PUSH2 0x255 JUMPI PUSH2 0x100 DUP1 DUP4 SLOAD DIV MUL DUP4 MSTORE SWAP2 PUSH1 0x20 ADD SWAP2 PUSH2 0x27E JUMP JUMPDEST DUP3 ADD SWAP2 SWAP1 PUSH0 MSTORE PUSH1 0x20 PUSH0 KECCAK256 SWAP1 JUMPDEST DUP2 SLOAD DUP2 MSTORE SWAP1 PUSH1 0x1 ADD SWAP1 PUSH1 0x20 ADD DUP1 DUP4 GT PUSH2 0x261 JUMPI DUP3 SWAP1 SUB PUSH1 0x1F AND DUP3 ADD SWAP2 JUMPDEST POP POP POP POP POP DUP2 MSTORE PUSH1 0x20 ADD SWAP1 PUSH1 0x1 ADD SWAP1 PUSH2 0x1EA JUMP JUMPDEST POP POP POP POP SWAP3 POP SWAP5 POP SWAP5 POP SWAP5 POP SWAP5 POP POP SWAP2 SWAP4 POP SWAP2 SWAP4 JUMP JUMPDEST PUSH4 0x4E487B71 PUSH1 0xE0 SHL PUSH0 MSTORE PUSH1 0x41 PUSH1 0x4 MSTORE PUSH1 0x24 PUSH0 REVERT JUMPDEST PUSH1 0x40 MLOAD PUSH1 0x1F DUP3 ADD PUSH1 0x1F NOT AND DUP2 ADD PUSH8 0xFFFFFFFFFFFFFFFF DUP2 GT DUP3 DUP3 LT OR ISZERO PUSH2 0x2E5 JUMPI PUSH2 0x2E5 PUSH2 0x2A8 JUMP JUMPDEST PUSH1 0x40 MSTORE SWAP2 SWAP1 POP JUMP JUMPDEST PUSH0 DUP3 PUSH1 0x1F DUP4 ADD SLT PUSH2 0x2FC JUMPI PUSH0 DUP1 REVERT JUMPDEST DUP2 CALLDATALOAD PUSH8 0xFFFFFFFFFFFFFFFF DUP2 GT ISZERO PUSH2 0x316 JUMPI PUSH2 0x316 PUSH2 0x2A8 JUMP JUMPDEST PUSH2 0x329 PUSH1 0x1F DUP3 ADD PUSH1 0x1F NOT AND PUSH1 0x20 ADD PUSH2 0x2BC JUMP JUMPDEST DUP2 DUP2 MSTORE DUP5 PUSH1 0x20 DUP4 DUP7 ADD ADD GT ISZERO PUSH2 0x33D JUMPI PUSH0 DUP1 REVERT JUMPDEST DUP2 PUSH1 0x20 DUP6 ADD PUSH1 0x20 DUP4 ADD CALLDATACOPY PUSH0 SWAP2 DUP2 ADD PUSH1 0x20 ADD SWAP2 SWAP1 SWAP2 MSTORE SWAP4 SWAP3 POP POP POP JUMP JUMPDEST PUSH0 DUP1 PUSH1 0x40 DUP4 DUP6 SUB SLT ISZERO PUSH2 0x36A JUMPI PUSH0 DUP1 REVERT JUMPDEST DUP3 CALLDATALOAD PUSH8 0xFFFFFFFFFFFFFFFF DUP1 DUP3 GT ISZERO PUSH2 0x381 JUMPI PUSH0 DUP1 REVERT JUMPDEST PUSH2 0x38D DUP7 DUP4 DUP8 ADD PUSH2 0x2ED JUMP JUMPDEST SWAP4 POP PUSH1 0x20 SWAP2 POP DUP2 DUP6 ADD CALLDATALOAD DUP2 DUP2 GT ISZERO PUSH2 0x3A3 JUMPI PUSH0 DUP1 REVERT JUMPDEST DUP6 ADD PUSH1 0x1F DUP2 ADD DUP8 SGT PUSH2 0x3B3 JUMPI PUSH0 DUP1 REVERT JUMPDEST DUP1 CALLDATALOAD DUP3 DUP2 GT ISZERO PUSH2 0x3C5 JUMPI PUSH2 0x3C5 PUSH2 0x2A8 JUMP JUMPDEST DUP1 PUSH1 0x5 SHL PUSH2 0x3D4 DUP6 DUP3 ADD PUSH2 0x2BC JUMP JUMPDEST SWAP2 DUP3 MSTORE DUP3 DUP2 ADD DUP6 ADD SWAP2 DUP6 DUP2 ADD SWAP1 DUP11 DUP5 GT ISZERO PUSH2 0x3ED JUMPI PUSH0 DUP1 REVERT JUMPDEST DUP7 DUP6 ADD SWAP3 POP JUMPDEST DUP4 DUP4 LT ISZERO PUSH2 0x427 JUMPI DUP3 CALLDATALOAD DUP7 DUP2 GT ISZERO PUSH2 0x409 JUMPI PUSH0 DUP1 REVERT JUMPDEST PUSH2 0x417 DUP13 DUP10 DUP4 DUP10 ADD ADD PUSH2 0x2ED JUMP JUMPDEST DUP4 MSTORE POP SWAP2 DUP7 ADD SWAP2 SWAP1 DUP7 ADD SWAP1 PUSH2 0x3F3 JUMP JUMPDEST DUP1 SWAP8 POP POP POP POP POP POP POP POP SWAP3 POP SWAP3 SWAP1 POP JUMP JUMPDEST PUSH0 PUSH1 0x20 DUP3 DUP5 SUB SLT ISZERO PUSH2 0x448 JUMPI PUSH0 DUP1 REVERT JUMPDEST DUP2 CALLDATALOAD PUSH8 0xFFFFFFFFFFFFFFFF DUP2 GT ISZERO PUSH2 0x45E JUMPI PUSH0 DUP1 REVERT JUMPDEST PUSH2 0x46A DUP5 DUP3 DUP6 ADD PUSH2 0x2ED JUMP JUMPDEST SWAP5 SWAP4 POP POP POP POP JUMP JUMPDEST PUSH0 DUP2 MLOAD DUP1 DUP5 MSTORE DUP1 PUSH1 0x20 DUP5 ADD PUSH1 0x20 DUP7 ADD MCOPY PUSH0 PUSH1 0x20 DUP3 DUP7 ADD ADD MSTORE PUSH1 0x20 PUSH1 0x1F NOT PUSH1 0x1F DUP4 ADD AND DUP6 ADD ADD SWAP2 POP POP SWAP3 SWAP2 POP POP JUMP JUMPDEST PUSH1 0x80 DUP2 MSTORE PUSH0 PUSH2 0x4B2 PUSH1 0x80 DUP4 ADD DUP8 PUSH2 0x472 JUMP JUMPDEST PUSH1 0x20 DUP4 DUP3 SUB DUP2 DUP6 ADD MSTORE DUP2 DUP8 MLOAD DUP1 DUP5 MSTORE DUP3 DUP5 ADD SWAP2 POP DUP3 DUP2 PUSH1 0x5 SHL DUP6 ADD ADD DUP4 DUP11 ADD PUSH0 JUMPDEST DUP4 DUP2 LT ISZERO PUSH2 0x501 JUMPI PUSH1 0x1F NOT DUP8 DUP5 SUB ADD DUP6 MSTORE PUSH2 0x4EF DUP4 DUP4 MLOAD PUSH2 0x472 JUMP JUMPDEST SWAP5 DUP7 ADD SWAP5 SWAP3 POP SWAP1 DUP6 ADD SWAP1 PUSH1 0x1 ADD PUSH2 0x4D3 JUMP JUMPDEST POP POP PUSH1 0x40 DUP8 ADD SWAP9 SWAP1 SWAP9 MSTORE POP POP POP POP PUSH1 0x60 SWAP1 SWAP2 ADD SWAP2 SWAP1 SWAP2 MSTORE POP SWAP3 SWAP2 POP POP JUMP JUMPDEST PUSH0 DUP3 MLOAD DUP1 PUSH1 0x20 DUP6 ADD DUP5 MCOPY PUSH0 SWAP3 ADD SWAP2 DUP3 MSTORE POP SWAP2 SWAP1 POP JUMP JUMPDEST PUSH1 0x1 DUP2 DUP2 SHR SWAP1 DUP3 AND DUP1 PUSH2 0x549 JUMPI PUSH1 0x7F DUP3 AND SWAP2 POP JUMPDEST PUSH1 0x20 DUP3 LT DUP2 SUB PUSH2 0x567 JUMPI PUSH4 0x4E487B71 PUSH1 0xE0 SHL PUSH0 MSTORE PUSH1 0x22 PUSH1 0x4 MSTORE PUSH1 0x24 PUSH0 REVERT JUMPDEST POP SWAP2 SWAP1 POP JUMP JUMPDEST PUSH1 0x1F DUP3 GT ISZERO PUSH2 0x5B4 JUMPI DUP1 PUSH0 MSTORE PUSH1 0x20 PUSH0 KECCAK256 PUSH1 0x1F DUP5 ADD PUSH1 0x5 SHR DUP2 ADD PUSH1 0x20 DUP6 LT ISZERO PUSH2 0x592 JUMPI POP DUP1 JUMPDEST PUSH1 0x1F DUP5 ADD PUSH1 0x5 SHR DUP3 ADD SWAP2 POP JUMPDEST DUP2 DUP2 LT ISZERO PUSH2 0x5B1 JUMPI PUSH0 DUP2 SSTORE PUSH1 0x1 ADD PUSH2 0x59E JUMP JUMPDEST POP POP JUMPDEST POP POP POP JUMP JUMPDEST DUP2 MLOAD PUSH8 0xFFFFFFFFFFFFFFFF DUP2 GT ISZERO PUSH2 0x5D3 JUMPI PUSH2 0x5D3 PUSH2 0x2A8 JUMP JUMPDEST PUSH2 0x5E7 DUP2 PUSH2 0x5E1 DUP5 SLOAD PUSH2 0x535 JUMP JUMPDEST DUP5 PUSH2 0x56D JUMP JUMPDEST PUSH1 0x20 DUP1 PUSH1 0x1F DUP4 GT PUSH1 0x1 DUP2 EQ PUSH2 0x61A JUMPI PUSH0 DUP5 ISZERO PUSH2 0x603 JUMPI POP DUP6 DUP4 ADD MLOAD JUMPDEST PUSH0 NOT PUSH1 0x3 DUP7 SWAP1 SHL SHR NOT AND PUSH1 0x1 DUP6 SWAP1 SHL OR DUP6 SSTORE PUSH2 0x671 JUMP JUMPDEST PUSH0 DUP6 DUP2 MSTORE PUSH1 0x20 DUP2 KECCAK256 PUSH1 0x1F NOT DUP7 AND SWAP2 JUMPDEST DUP3 DUP2 LT ISZERO PUSH2 0x648 JUMPI DUP9 DUP7 ADD MLOAD DUP3 SSTORE SWAP5 DUP5 ADD SWAP5 PUSH1 0x1 SWAP1 SWAP2 ADD SWAP1 DUP5 ADD PUSH2 0x629 JUMP JUMPDEST POP DUP6 DUP3 LT ISZERO PUSH2 0x665 JUMPI DUP8 DUP6 ADD MLOAD PUSH0 NOT PUSH1 0x3 DUP9 SWAP1 SHL PUSH1 0xF8 AND SHR NOT AND DUP2 SSTORE JUMPDEST POP POP PUSH1 0x1 DUP5 PUSH1 0x1 SHL ADD DUP6 SSTORE JUMPDEST POP POP POP POP POP POP JUMP JUMPDEST PUSH4 0x4E487B71 PUSH1 0xE0 SHL PUSH0 MSTORE PUSH1 0x32 PUSH1 0x4 MSTORE PUSH1 0x24 PUSH0 REVERT INVALID LOG2 PUSH5 0x6970667358 0x22 SLT KECCAK256 SWAP14 0x2C PUSH32 0x2A457D0A5D7C5537F561678D7D4DD7C6D8E12667A3A24370A8F19ACC3964736F PUSH13 0x63430008190033000000000000 "
				},
				"gasEstimates": {
					"creation": {
						"codeDepositCost": "346200",
						"executionCost": "384",
						"totalCost": "346584"
					},
					"external": {
						"getData(string)": "infinite",
						"storeData(string,string[])": "infinite"
					}
				},
				"methodIdentifiers": {
					"getData(string)": "ae55c888",
					"storeData(string,string[])": "7c59fdd8"
				}
			},
			"storageLayout": {
				"storage": [
					{
						"astId": 16,
						"contract": "contracts/IPFSStorage.sol:IPFSStorage",
						"label": "ipfsData",
						"offset": 0,
						"slot": "0",
						"type": "t_mapping(t_string_memory_ptr,t_struct(IPFSData)11_storage)"
					}
				],
				"types": {
					"t_array(t_string_storage)dyn_storage": {
						"base": "t_string_storage",
						"encoding": "dynamic_array",
						"label": "string[]",
						"numberOfBytes": "32"
					},
					"t_mapping(t_string_memory_ptr,t_struct(IPFSData)11_storage)": {
						"encoding": "mapping",
						"key": "t_string_memory_ptr",
						"label": "mapping(string => struct IPFSStorage.IPFSData)",
						"numberOfBytes": "32",
						"value": "t_struct(IPFSData)11_storage"
					},
					"t_string_memory_ptr": {
						"encoding": "bytes",
						"label": "string",
						"numberOfBytes": "32"
					},
					"t_string_storage": {
						"encoding": "bytes",
						"label": "string",
						"numberOfBytes": "32"
					},
					"t_struct(IPFSData)11_storage": {
						"encoding": "inplace",
						"label": "struct IPFSStorage.IPFSData",
						"members": [
							{
								"astId": 3,
								"contract": "contracts/IPFSStorage.sol:IPFSStorage",
								"label": "targetContractAddress",
								"offset": 0,
								"slot": "0",
								"type": "t_string_storage"
							},
							{
								"astId": 6,
								"contract": "contracts/IPFSStorage.sol:IPFSStorage",
								"label": "hashes",
								"offset": 0,
								"slot": "1",
								"type": "t_array(t_string_storage)dyn_storage"
							},
							{
								"astId": 8,
								"contract": "contracts/IPFSStorage.sol:IPFSStorage",
								"label": "timestamp",
								"offset": 0,
								"slot": "2",
								"type": "t_uint256"
							},
							{
								"astId": 10,
								"contract": "contracts/IPFSStorage.sol:IPFSStorage",
								"label": "blockNumber",
								"offset": 0,
								"slot": "3",
								"type": "t_uint256"
							}
						],
						"numberOfBytes": "128"
					},
					"t_uint256": {
						"encoding": "inplace",
						"label": "uint256",
						"numberOfBytes": "32"
					}
				}
			},
			"userdoc": {
				"kind": "user",
				"methods": {},
				"version": 1
			}
		}
	}
}