{
	"data": {
		"bytecode": {
			"linkReferences": {},
			"object": "610180604052348015610010575f80fd5b50604051613f28380380613f2883398101604081905261002f91610546565b6004816040518060400160405280600581526020016423b4bb32b960d91b8152508061005f61013860201b60201c565b610069825f610153565b61012052610078816001610153565b61014052815160208084019190912060e052815190820120610100524660a05261010460e05161010051604080517f8b73c3c69bb8fe3d512ecc4cf759cc79239f7b179b0ffacaa9a75d522b39400f60208201529081019290925260608201524660808201523060a08201525f9060c00160405160208183030381529060405280519060200120905090565b60805250503060c05260036101198282610604565b50506001600160a01b03166101605261013181610185565b505061075f565b6040805180820190915260018152603160f81b602082015290565b5f60208351101561016e576101678361021f565b905061017f565b816101798482610604565b5060ff90505b92915050565b6064808211156101b75760405163243e544560e01b815260048101839052602481018290526044015b60405180910390fd5b5f6101c061025c565b90506101df6101cd610275565b6101d6856102ef565b60089190610326565b505060408051828152602081018590527f0553476bf02ef2726e8ce5ced78d63e26e602e4a2257b1f559418e24b4633997910160405180910390a1505050565b5f80829050601f81511115610249578260405163305a27a960e01b81526004016101ae91906106c3565b8051610254826106f8565b179392505050565b5f6102676008610340565b6001600160d01b0316905090565b5f6102806101605190565b6001600160a01b03166391ddadf46040518163ffffffff1660e01b8152600401602060405180830381865afa9250505080156102d9575060408051601f3d908101601f191682019092526102d69181019061071b565b60015b6102ea576102e5610388565b905090565b919050565b5f6001600160d01b03821115610322576040516306dfcc6560e41b815260d06004820152602481018390526044016101ae565b5090565b5f80610333858585610392565b915091505b935093915050565b80545f90801561037f5761036683610359600184610740565b5f91825260209091200190565b54660100000000000090046001600160d01b0316610381565b5f5b9392505050565b5f6102e543610514565b82545f90819080156104b7575f6103ae87610359600185610740565b60408051808201909152905465ffffffffffff80821680845266010000000000009092046001600160d01b03166020840152919250908716101561040557604051632520601d60e01b815260040160405180910390fd5b805165ffffffffffff808816911603610454578461042888610359600186610740565b80546001600160d01b039290921666010000000000000265ffffffffffff9092169190911790556104a7565b6040805180820190915265ffffffffffff80881682526001600160d01b0380881660208085019182528b54600181018d555f8d815291909120945191519092166601000000000000029216919091179101555b6020015192508391506103389050565b50506040805180820190915265ffffffffffff80851682526001600160d01b0380851660208085019182528854600181018a555f8a8152918220955192519093166601000000000000029190931617920191909155905081610338565b5f65ffffffffffff821115610322576040516306dfcc6560e41b815260306004820152602481018390526044016101ae565b5f60208284031215610556575f80fd5b81516001600160a01b0381168114610381575f80fd5b634e487b7160e01b5f52604160045260245ffd5b600181811c9082168061059457607f821691505b6020821081036105b257634e487b7160e01b5f52602260045260245ffd5b50919050565b601f8211156105ff57805f5260205f20601f840160051c810160208510156105dd5750805b601f840160051c820191505b818110156105fc575f81556001016105e9565b50505b505050565b81516001600160401b0381111561061d5761061d61056c565b6106318161062b8454610580565b846105b8565b602080601f831160018114610664575f841561064d5750858301515b5f19600386901b1c1916600185901b1785556106bb565b5f85815260208120601f198616915b8281101561069257888601518255948401946001909101908401610673565b50858210156106af57878501515f19600388901b60f8161c191681555b505060018460011b0185555b505050505050565b602081525f82518060208401528060208501604085015e5f604082850101526040601f19601f83011684010191505092915050565b805160208083015191908110156105b2575f1960209190910360031b1b16919050565b5f6020828403121561072b575f80fd5b815165ffffffffffff81168114610381575f80fd5b8181038181111561017f57634e487b7160e01b5f52601160045260245ffd5b60805160a05160c05160e051610100516101205161014051610160516137526107d65f395f81816108a401528181610ce9015281816111d701528181611cb90152611dc601525f611c8601525f611c5a01525f611fe501525f611fbd01525f611f1801525f611f4201525f611f6c01526137525ff3fe608060405260043610610257575f3560e01c80637b3c71d31161013f578063b58131b0116100b3578063dd4e2ba511610078578063dd4e2ba5146107b5578063deaaa7cc146107fa578063eb9019d41461082d578063f23a6e611461084c578063f8ce560a14610877578063fc0c546a14610896575f80fd5b8063b58131b01461040a578063bc197c8114610739578063c01f9e3714610764578063c28bc2fa14610783578063c59057e414610796575f80fd5b806391ddadf41161010457806391ddadf41461067357806397c3d3341461069e5780639a802a6d146106b1578063a7713a70146106d0578063a9a95294146106e4578063ab58fb8e14610703575f80fd5b80637b3c71d3146105bb5780637d5e81e2146105da5780637ecebe00146105f957806384b0196e1461062d5780638ff262e314610654575f80fd5b80633932abb1116101d6578063544ffc9c1161019b578063544ffc9c146104c357806354fd4d5014610516578063567813881461053f5780635b8d0e0d1461055e5780635f398a141461057d57806360c4247f1461059c575f80fd5b80633932abb11461040a5780633e4f49e61461041c5780634385963214610448578063452115d6146104905780634bf5d7e9146104af575f80fd5b8063150b7a021161021c578063150b7a0214610343578063160cbed7146103865780632656227d146103a55780632d63f693146103b85780632fe3e261146103d7575f80fd5b806301ffc9a71461026457806302a251a31461029857806306f3f9e6146102b757806306fdde03146102d6578063143489d0146102f7575f80fd5b3661026057005b005b5f80fd5b34801561026f575f80fd5b5061028361027e36600461287f565b6108c8565b60405190151581526020015b60405180910390f35b3480156102a3575f80fd5b5062093a805b60405190815260200161028f565b3480156102c2575f80fd5b5061025e6102d13660046128a6565b610919565b3480156102e1575f80fd5b506102ea61092d565b60405161028f91906128eb565b348015610302575f80fd5b5061032b6103113660046128a6565b5f908152600460205260409020546001600160a01b031690565b6040516001600160a01b03909116815260200161028f565b34801561034e575f80fd5b5061036d61035d3660046129d6565b630a85bd0160e11b949350505050565b6040516001600160e01b0319909116815260200161028f565b348015610391575f80fd5b506102a96103a0366004612b9f565b6109bd565b6102a96103b3366004612b9f565b6109fb565b3480156103c3575f80fd5b506102a96103d23660046128a6565b610b23565b3480156103e2575f80fd5b506102a97f3e83946653575f9a39005e1545185629e92736b7528ab20ca3816f315424a81181565b348015610415575f80fd5b505f6102a9565b348015610427575f80fd5b5061043b6104363660046128a6565b610b43565b60405161028f9190612c5c565b348015610453575f80fd5b50610283610462366004612c6a565b5f8281526007602090815260408083206001600160a01b038516845260030190915290205460ff1692915050565b34801561049b575f80fd5b506102a96104aa366004612b9f565b610c79565b3480156104ba575f80fd5b506102ea610ce5565b3480156104ce575f80fd5b506104fb6104dd3660046128a6565b5f908152600760205260409020805460018201546002909201549092565b6040805193845260208401929092529082015260600161028f565b348015610521575f80fd5b506040805180820190915260018152603160f81b60208201526102ea565b34801561054a575f80fd5b506102a9610559366004612ca4565b610da5565b348015610569575f80fd5b506102a9610578366004612d09565b610dcc565b348015610588575f80fd5b506102a9610597366004612db9565b610f28565b3480156105a7575f80fd5b506102a96105b63660046128a6565b610f7b565b3480156105c6575f80fd5b506102a96105d5366004612e36565b611007565b3480156105e5575f80fd5b506102a96105f4366004612e8b565b61104d565b348015610604575f80fd5b506102a9610613366004612f37565b6001600160a01b03165f9081526002602052604090205490565b348015610638575f80fd5b506106416110c3565b60405161028f9796959493929190612f8a565b34801561065f575f80fd5b506102a961066e366004612ff9565b611105565b34801561067e575f80fd5b506106876111d4565b60405165ffffffffffff909116815260200161028f565b3480156106a9575f80fd5b5060646102a9565b3480156106bc575f80fd5b506102a96106cb366004613044565b611260565b3480156106db575f80fd5b506102a961126c565b3480156106ef575f80fd5b506102836106fe3660046128a6565b505f90565b34801561070e575f80fd5b506102a961071d3660046128a6565b5f9081526004602052604090206001015465ffffffffffff1690565b348015610744575f80fd5b5061036d610753366004613096565b63bc197c8160e01b95945050505050565b34801561076f575f80fd5b506102a961077e3660046128a6565b611285565b61025e61079136600461311e565b6112c7565b3480156107a1575f80fd5b506102a96107b0366004612b9f565b611343565b3480156107c0575f80fd5b506040805180820190915260208082527f737570706f72743d627261766f2671756f72756d3d666f722c6162737461696e908201526102ea565b348015610805575f80fd5b506102a97ff2aad550cf55f045cb27e9c559f9889fdfb6e6cdaa032301d6ea397784ae51d781565b348015610838575f80fd5b506102a961084736600461315b565b61137c565b348015610857575f80fd5b5061036d610866366004613183565b63f23a6e6160e01b95945050505050565b348015610882575f80fd5b506102a96108913660046128a6565b6113a2565b3480156108a1575f80fd5b507f000000000000000000000000000000000000000000000000000000000000000061032b565b5f6001600160e01b031982166332a2ad4360e11b14806108f857506001600160e01b03198216630271189760e51b145b8061091357506301ffc9a760e01b6001600160e01b03198316145b92915050565b6109216113ac565b61092a816113e3565b50565b60606003805461093c906131e2565b80601f0160208091040260200160405190810160405280929190818152602001828054610968906131e2565b80156109b35780601f1061098a576101008083540402835291602001916109b3565b820191905f5260205f20905b81548152906001019060200180831161099657829003601f168201915b5050505050905090565b5f806109cb86868686611343565b90506109e0816109db6004611478565b61149a565b505f604051634844252360e11b815260040160405180910390fd5b5f80610a0986868686611343565b9050610a2981610a196005611478565b610a236004611478565b1761149a565b505f818152600460205260409020805460ff60f01b1916600160f01b17905530610a503090565b6001600160a01b031614610ad9575f5b8651811015610ad757306001600160a01b0316878281518110610a8557610a8561321a565b60200260200101516001600160a01b031603610acf57610acf858281518110610ab057610ab061321a565b60200260200101518051906020012060056114d790919063ffffffff16565b600101610a60565b505b610ae68187878787611547565b6040518181527f712ae1383f79ac853f8d882153778e0260ef8f03b504e2866e0593e04d2b291f906020015b60405180910390a195945050505050565b5f90815260046020526040902054600160a01b900465ffffffffffff1690565b5f818152600460205260408120805460ff600160f01b8204811691600160f81b9004168115610b7757506007949350505050565b8015610b8857506002949350505050565b5f610b9286610b23565b9050805f03610bbc57604051636ad0607560e01b8152600481018790526024015b60405180910390fd5b5f610bc56111d4565b65ffffffffffff169050808210610be257505f9695505050505050565b5f610bec88611285565b9050818110610c0357506001979650505050505050565b610c0c8861161c565b1580610c2b57505f888152600760205260409020805460019091015411155b15610c3e57506003979650505050505050565b5f8881526004602052604090206001015465ffffffffffff165f03610c6b57506004979650505050505050565b506005979650505050505050565b5f80610c8786868686611343565b9050610c96816109db5f611478565b505f818152600460205260409020546001600160a01b03163314610ccf5760405163233d98e360e01b8152336004820152602401610bb3565b610cdb86868686611652565b9695505050505050565b60607f00000000000000000000000000000000000000000000000000000000000000006001600160a01b0316634bf5d7e96040518163ffffffff1660e01b81526004015f60405180830381865afa925050508015610d6457506040513d5f823e601f3d908101601f19168201604052610d61919081019061322e565b60015b610da0575060408051808201909152601d81527f6d6f64653d626c6f636b6e756d6265722666726f6d3d64656661756c74000000602082015290565b919050565b5f80339050610dc484828560405180602001604052805f815250611701565b949350505050565b5f80610ead87610ea77f3e83946653575f9a39005e1545185629e92736b7528ab20ca3816f315424a8118c8c8c610e1f8e6001600160a01b03165f90815260026020526040902080546001810190915590565b8d8d604051610e2f9291906132a2565b60405180910390208c80519060200120604051602001610e8c9796959493929190968752602087019590955260ff9390931660408601526001600160a01b03919091166060850152608084015260a083015260c082015260e00190565b6040516020818303038152906040528051906020012061172b565b85611757565b905080610ed8576040516394ab6c0760e01b81526001600160a01b0388166004820152602401610bb3565b610f1b89888a89898080601f0160208091040260200160405190810160405280939291908181526020018383808284375f920191909152508b92506117ac915050565b9998505050505050505050565b5f80339050610f7087828888888080601f0160208091040260200160405190810160405280939291908181526020018383808284375f920191909152508a92506117ac915050565b979650505050505050565b600880545f918290610f8e6001846132c5565b81548110610f9e57610f9e61321a565b5f918252602090912001805490915065ffffffffffff811690600160301b90046001600160d01b0316858211610fe0576001600160d01b031695945050505050565b610ff4610fec87611886565b6008906118bc565b6001600160d01b03169695505050505050565b5f80339050610cdb86828787878080601f0160208091040260200160405190810160405280939291908181526020018383808284375f9201919091525061170192505050565b5f33611059818461196b565b6110815760405163d9b3955760e01b81526001600160a01b0382166004820152602401610bb3565b5f6110a78260016110906111d4565b61109a91906132d8565b65ffffffffffff1661137c565b90505f6110b78888888887611a53565b98975050505050505050565b5f6060805f805f60606110d4611c53565b6110dc611c7f565b604080515f80825260208201909252600f60f81b9b939a50919850469750309650945092509050565b5f8061118f84610ea77ff2aad550cf55f045cb27e9c559f9889fdfb6e6cdaa032301d6ea397784ae51d78989896111588b6001600160a01b03165f90815260026020526040902080546001810190915590565b60408051602081019690965285019390935260ff90911660608401526001600160a01b0316608083015260a082015260c001610e8c565b9050806111ba576040516394ab6c0760e01b81526001600160a01b0385166004820152602401610bb3565b610cdb86858760405180602001604052805f815250611701565b5f7f00000000000000000000000000000000000000000000000000000000000000006001600160a01b03166391ddadf46040518163ffffffff1660e01b8152600401602060405180830381865afa92505050801561124f575060408051601f3d908101601f1916820190925261124c918101906132fe565b60015b610da05761125b611cac565b905090565b5f610dc4848484611cb6565b5f6112776008611d49565b6001600160d01b0316905090565b5f818152600460205260408120546112b990600160d01b810463ffffffff1690600160a01b900465ffffffffffff16613323565b65ffffffffffff1692915050565b6112cf6113ac565b5f80856001600160a01b03168585856040516112ec9291906132a2565b5f6040518083038185875af1925050503d805f8114611326576040519150601f19603f3d011682016040523d82523d5f602084013e61132b565b606091505b509150915061133a8282611d80565b50505050505050565b5f8484848460405160200161135b94939291906133d2565b60408051601f19818403018152919052805160209091012095945050505050565b5f61139b838361139660408051602081019091525f815290565b611cb6565b9392505050565b5f61091382611d9c565b3033146113ce576040516347096e4760e01b8152336004820152602401610bb3565b565b806113db6005611e43565b036113d05750565b6064808211156114105760405163243e544560e01b81526004810183905260248101829052604401610bb3565b5f61141961126c565b90506114386114266111d4565b61142f85611ebf565b60089190611ef2565b505060408051828152602081018590527f0553476bf02ef2726e8ce5ced78d63e26e602e4a2257b1f559418e24b4633997910160405180910390a1505050565b5f81600781111561148b5761148b612c28565b600160ff919091161b92915050565b5f806114a584610b43565b90505f836114b283611478565b160361139b578381846040516331b75e4d60e01b8152600401610bb39392919061341c565b81546001600160801b03600160801b82048116918116600183019091160361151257604051638acb5f2760e01b815260040160405180910390fd5b6001600160801b038082165f90815260018086016020526040909120939093558354919092018216600160801b029116179055565b5f5b8451811015611614575f808683815181106115665761156661321a565b60200260200101516001600160a01b03168684815181106115895761158961321a565b60200260200101518685815181106115a3576115a361321a565b60200260200101516040516115b8919061343e565b5f6040518083038185875af1925050503d805f81146115f2576040519150601f19603f3d011682016040523d82523d5f602084013e6115f7565b606091505b50915091506116068282611d80565b505050806001019050611549565b505050505050565b5f8181526007602052604081206002810154600182015461163d9190613454565b61164961089185610b23565b11159392505050565b5f8061166086868686611343565b90506116ae816116706007611478565b61167a6006611478565b6116846002611478565b6001611691600782613467565b61169c906002613560565b6116a691906132c5565b18181861149a565b505f818152600460205260409081902080546001600160f81b0316600160f81b179055517f789cf55be980739dad1d0699b93b58e806b51c9d96619bfa8fe0a28abaa7b30c90610b129083815260200190565b5f6117228585858561171d60408051602081019091525f815290565b6117ac565b95945050505050565b5f610913611737611f0c565b8360405161190160f01b8152600281019290925260228201526042902090565b5f805f6117648585612035565b5090925090505f81600381111561177d5761177d612c28565b14801561179b5750856001600160a01b0316826001600160a01b0316145b80610cdb5750610cdb86868661207e565b5f6117bb866109db6001611478565b505f6117d0866117ca89610b23565b85611cb6565b90506117df8787878487612154565b82515f0361183357856001600160a01b03167fb8e138887d0aa13bab447e82de9d5c1777041ecd21ca36ba824ff1e6c07ddda488878488604051611826949392919061356e565b60405180910390a2610cdb565b856001600160a01b03167fe2babfbac5889a709b63bb7f598b324e08bc5a4fb9ec647fb3cbc9ec07eb87128887848888604051611874959493929190613595565b60405180910390a29695505050505050565b5f65ffffffffffff8211156118b8576040516306dfcc6560e41b81526030600482015260248101839052604401610bb3565b5090565b81545f9081816005811115611918575f6118d584612246565b6118df90856132c5565b5f8881526020902090915081015465ffffffffffff908116908716101561190857809150611916565b611913816001613454565b92505b505b5f6119258787858561232a565b9050801561195f576119498761193c6001846132c5565b5f91825260209091200190565b54600160301b90046001600160d01b0316610f70565b5f979650505050505050565b80515f906034811015611982576001915050610913565b82810160131901516001600160a01b031981166b046e0e4dee0dee6cae47a60f60a31b146119b557600192505050610913565b5f806119c26028856132c5565b90505b83811015611a32575f806119f88884815181106119e4576119e461321a565b01602001516001600160f81b031916612389565b9150915081611a105760019650505050505050610913565b8060ff166004856001600160a01b0316901b17935050508060010190506119c5565b50856001600160a01b0316816001600160a01b031614935050505092915050565b5f611a678686868680519060200120611343565b905084518651141580611a7c57508351865114155b80611a8657508551155b15611abb57855184518651604051630447b05d60e41b8152600481019390935260248301919091526044820152606401610bb3565b5f81815260046020526040902054600160a01b900465ffffffffffff1615611b045780611ae782610b43565b6040516331b75e4d60e01b8152610bb39291905f9060040161341c565b5f80611b0e6111d4565b65ffffffffffff16611b209190613454565b90505f62093a805f84815260046020526040902080546001600160a01b0319166001600160a01b038716178155909150611b5983611886565b815465ffffffffffff91909116600160a01b0265ffffffffffff60a01b19909116178155611b8682612419565b815463ffffffff91909116600160d01b0263ffffffff60d01b1990911617815588517f7d84a6263ae0d98d3329bd7b46bb4e8d6f98cd35a7adb45c274c8b7fd5ebd5e090859087908c908c906001600160401b03811115611be957611be9612913565b604051908082528060200260200182016040528015611c1c57816020015b6060815260200190600190039081611c075790505b508c89611c298a82613454565b8e604051611c3f999897969594939291906135ce565b60405180910390a150505095945050505050565b606061125b7f00000000000000000000000000000000000000000000000000000000000000005f612449565b606061125b7f00000000000000000000000000000000000000000000000000000000000000006001612449565b5f61125b43611886565b5f7f0000000000000000000000000000000000000000000000000000000000000000604051630748d63560e31b81526001600160a01b038681166004830152602482018690529190911690633a46b1a890604401602060405180830381865afa158015611d25573d5f803e3d5ffd5b505050506040513d601f19601f82011682018060405250810190610dc491906136a3565b80545f908015611d7857611d628361193c6001846132c5565b54600160301b90046001600160d01b031661139b565b5f9392505050565b606082611d9557611d90826124f2565b610913565b5080610913565b5f6064611da883610f7b565b604051632394e7a360e21b8152600481018590526001600160a01b037f00000000000000000000000000000000000000000000000000000000000000001690638e539e8c90602401602060405180830381865afa158015611e0b573d5f803e3d5ffd5b505050506040513d601f19601f82011682018060405250810190611e2f91906136a3565b611e3991906136ba565b61091391906136e5565b80545f906001600160801b0380821691600160801b9004168103611e7a576040516375e52f4f60e01b815260040160405180910390fd5b6001600160801b038181165f908152600185810160205260408220805492905585546fffffffffffffffffffffffffffffffff19169301909116919091179092555090565b5f6001600160d01b038211156118b8576040516306dfcc6560e41b815260d0600482015260248101839052604401610bb3565b5f80611eff85858561251b565b915091505b935093915050565b5f306001600160a01b037f000000000000000000000000000000000000000000000000000000000000000016148015611f6457507f000000000000000000000000000000000000000000000000000000000000000046145b15611f8e57507f000000000000000000000000000000000000000000000000000000000000000090565b61125b604080517f8b73c3c69bb8fe3d512ecc4cf759cc79239f7b179b0ffacaa9a75d522b39400f60208201527f0000000000000000000000000000000000000000000000000000000000000000918101919091527f000000000000000000000000000000000000000000000000000000000000000060608201524660808201523060a08201525f9060c00160405160208183030381529060405280519060200120905090565b5f805f835160410361206c576020840151604085015160608601515f1a61205e88828585612691565b955095509550505050612077565b505081515f91506002905b9250925092565b5f805f856001600160a01b0316858560405160240161209e929190613704565b60408051601f198184030181529181526020820180516001600160e01b0316630b135d3f60e11b179052516120d3919061343e565b5f60405180830381855afa9150503d805f811461210b576040519150601f19603f3d011682016040523d82523d5f602084013e612110565b606091505b509150915081801561212457506020815110155b8015610cdb57508051630b135d3f60e11b9061214990830160209081019084016136a3565b149695505050505050565b5f8581526007602090815260408083206001600160a01b0388168452600381019092529091205460ff16156121a7576040516371c6af4960e01b81526001600160a01b0386166004820152602401610bb3565b6001600160a01b0385165f9081526003820160205260409020805460ff1916600117905560ff84166121f05782815f015f8282546121e59190613454565b909155506116149050565b5f1960ff85160161220e5782816001015f8282546121e59190613454565b60011960ff85160161222d5782816002015f8282546121e59190613454565b6040516303599be160e11b815260040160405180910390fd5b5f815f0361225557505f919050565b5f600161226184612759565b901c6001901b9050600181848161227a5761227a6136d1565b048201901c90506001818481612292576122926136d1565b048201901c905060018184816122aa576122aa6136d1565b048201901c905060018184816122c2576122c26136d1565b048201901c905060018184816122da576122da6136d1565b048201901c905060018184816122f2576122f26136d1565b048201901c9050600181848161230a5761230a6136d1565b048201901c905061139b81828581612324576123246136d1565b046127ec565b5f5b81831015612381575f61233f8484612801565b5f8781526020902090915065ffffffffffff86169082015465ffffffffffff16111561236d5780925061237b565b612378816001613454565b93505b5061232c565b509392505050565b5f8060f883901c602f811180156123a35750603a8160ff16105b156123b857600194602f199091019350915050565b8060ff1660401080156123ce575060478160ff16105b156123e3576001946036199091019350915050565b8060ff1660601080156123f9575060678160ff16105b1561240e576001946056199091019350915050565b505f93849350915050565b5f63ffffffff8211156118b8576040516306dfcc6560e41b81526020600482015260248101839052604401610bb3565b606060ff83146124635761245c8361281b565b9050610913565b81805461246f906131e2565b80601f016020809104026020016040519081016040528092919081815260200182805461249b906131e2565b80156124e65780601f106124bd576101008083540402835291602001916124e6565b820191905f5260205f20905b8154815290600101906020018083116124c957829003601f168201915b50505050509050610913565b8051156125025780518082602001fd5b604051630a12f52160e11b815260040160405180910390fd5b82545f9081908015612637575f6125378761193c6001856132c5565b60408051808201909152905465ffffffffffff808216808452600160301b9092046001600160d01b03166020840152919250908716101561258b57604051632520601d60e01b815260040160405180910390fd5b805165ffffffffffff8088169116036125d757846125ae8861193c6001866132c5565b80546001600160d01b0392909216600160301b0265ffffffffffff909216919091179055612627565b6040805180820190915265ffffffffffff80881682526001600160d01b0380881660208085019182528b54600181018d555f8d81529190912094519151909216600160301b029216919091179101555b602001519250839150611f049050565b50506040805180820190915265ffffffffffff80851682526001600160d01b0380851660208085019182528854600181018a555f8a815291822095519251909316600160301b029190931617920191909155905081611f04565b5f80807f7fffffffffffffffffffffffffffffff5d576e7357a4501ddfe92f46681b20a08411156126ca57505f9150600390508261274f565b604080515f808252602082018084528a905260ff891692820192909252606081018790526080810186905260019060a0016020604051602081039080840390855afa15801561271b573d5f803e3d5ffd5b5050604051601f1901519150506001600160a01b03811661274657505f92506001915082905061274f565b92505f91508190505b9450945094915050565b5f80608083901c1561276d57608092831c92015b604083901c1561277f57604092831c92015b602083901c1561279157602092831c92015b601083901c156127a357601092831c92015b600883901c156127b557600892831c92015b600483901c156127c757600492831c92015b600283901c156127d957600292831c92015b600183901c156109135760010192915050565b5f8183106127fa578161139b565b5090919050565b5f61280f60028484186136e5565b61139b90848416613454565b60605f61282783612858565b6040805160208082528183019092529192505f91906020820181803683375050509182525060208101929092525090565b5f60ff8216601f81111561091357604051632cd44ac360e21b815260040160405180910390fd5b5f6020828403121561288f575f80fd5b81356001600160e01b03198116811461139b575f80fd5b5f602082840312156128b6575f80fd5b5035919050565b5f81518084528060208401602086015e5f602082860101526020601f19601f83011685010191505092915050565b602081525f61139b60208301846128bd565b80356001600160a01b0381168114610da0575f80fd5b634e487b7160e01b5f52604160045260245ffd5b604051601f8201601f191681016001600160401b038111828210171561294f5761294f612913565b604052919050565b5f6001600160401b0382111561296f5761296f612913565b50601f01601f191660200190565b5f61298f61298a84612957565b612927565b90508281528383830111156129a2575f80fd5b828260208301375f602084830101529392505050565b5f82601f8301126129c7575f80fd5b61139b8383356020850161297d565b5f805f80608085870312156129e9575f80fd5b6129f2856128fd565b9350612a00602086016128fd565b92506040850135915060608501356001600160401b03811115612a21575f80fd5b612a2d878288016129b8565b91505092959194509250565b5f6001600160401b03821115612a5157612a51612913565b5060051b60200190565b5f82601f830112612a6a575f80fd5b81356020612a7a61298a83612a39565b8083825260208201915060208460051b870101935086841115612a9b575f80fd5b602086015b84811015612abe57612ab1816128fd565b8352918301918301612aa0565b509695505050505050565b5f82601f830112612ad8575f80fd5b81356020612ae861298a83612a39565b8083825260208201915060208460051b870101935086841115612b09575f80fd5b602086015b84811015612abe5780358352918301918301612b0e565b5f82601f830112612b34575f80fd5b81356020612b4461298a83612a39565b82815260059290921b84018101918181019086841115612b62575f80fd5b8286015b84811015612abe5780356001600160401b03811115612b83575f80fd5b612b918986838b01016129b8565b845250918301918301612b66565b5f805f8060808587031215612bb2575f80fd5b84356001600160401b0380821115612bc8575f80fd5b612bd488838901612a5b565b95506020870135915080821115612be9575f80fd5b612bf588838901612ac9565b94506040870135915080821115612c0a575f80fd5b50612c1787828801612b25565b949793965093946060013593505050565b634e487b7160e01b5f52602160045260245ffd5b60088110612c5857634e487b7160e01b5f52602160045260245ffd5b9052565b602081016109138284612c3c565b5f8060408385031215612c7b575f80fd5b82359150612c8b602084016128fd565b90509250929050565b803560ff81168114610da0575f80fd5b5f8060408385031215612cb5575f80fd5b82359150612c8b60208401612c94565b5f8083601f840112612cd5575f80fd5b5081356001600160401b03811115612ceb575f80fd5b602083019150836020828501011115612d02575f80fd5b9250929050565b5f805f805f805f60c0888a031215612d1f575f80fd5b87359650612d2f60208901612c94565b9550612d3d604089016128fd565b945060608801356001600160401b0380821115612d58575f80fd5b612d648b838c01612cc5565b909650945060808a0135915080821115612d7c575f80fd5b612d888b838c016129b8565b935060a08a0135915080821115612d9d575f80fd5b50612daa8a828b016129b8565b91505092959891949750929550565b5f805f805f60808688031215612dcd575f80fd5b85359450612ddd60208701612c94565b935060408601356001600160401b0380821115612df8575f80fd5b612e0489838a01612cc5565b90955093506060880135915080821115612e1c575f80fd5b50612e29888289016129b8565b9150509295509295909350565b5f805f8060608587031215612e49575f80fd5b84359350612e5960208601612c94565b925060408501356001600160401b03811115612e73575f80fd5b612e7f87828801612cc5565b95989497509550505050565b5f805f8060808587031215612e9e575f80fd5b84356001600160401b0380821115612eb4575f80fd5b612ec088838901612a5b565b95506020870135915080821115612ed5575f80fd5b612ee188838901612ac9565b94506040870135915080821115612ef6575f80fd5b612f0288838901612b25565b93506060870135915080821115612f17575f80fd5b508501601f81018713612f28575f80fd5b612a2d8782356020840161297d565b5f60208284031215612f47575f80fd5b61139b826128fd565b5f815180845260208085019450602084015f5b83811015612f7f57815187529582019590820190600101612f63565b509495945050505050565b60ff60f81b8816815260e060208201525f612fa860e08301896128bd565b8281036040840152612fba81896128bd565b606084018890526001600160a01b038716608085015260a0840186905283810360c08501529050612feb8185612f50565b9a9950505050505050505050565b5f805f806080858703121561300c575f80fd5b8435935061301c60208601612c94565b925061302a604086016128fd565b915060608501356001600160401b03811115612a21575f80fd5b5f805f60608486031215613056575f80fd5b61305f846128fd565b92506020840135915060408401356001600160401b03811115613080575f80fd5b61308c868287016129b8565b9150509250925092565b5f805f805f60a086880312156130aa575f80fd5b6130b3866128fd565b94506130c1602087016128fd565b935060408601356001600160401b03808211156130dc575f80fd5b6130e889838a01612ac9565b945060608801359150808211156130fd575f80fd5b61310989838a01612ac9565b93506080880135915080821115612e1c575f80fd5b5f805f8060608587031215613131575f80fd5b61313a856128fd565b93506020850135925060408501356001600160401b03811115612e73575f80fd5b5f806040838503121561316c575f80fd5b613175836128fd565b946020939093013593505050565b5f805f805f60a08688031215613197575f80fd5b6131a0866128fd565b94506131ae602087016128fd565b9350604086013592506060860135915060808601356001600160401b038111156131d6575f80fd5b612e29888289016129b8565b600181811c908216806131f657607f821691505b60208210810361321457634e487b7160e01b5f52602260045260245ffd5b50919050565b634e487b7160e01b5f52603260045260245ffd5b5f6020828403121561323e575f80fd5b81516001600160401b03811115613253575f80fd5b8201601f81018413613263575f80fd5b805161327161298a82612957565b818152856020838501011115613285575f80fd5b8160208401602083015e5f91810160200191909152949350505050565b818382375f9101908152919050565b634e487b7160e01b5f52601160045260245ffd5b81810381811115610913576109136132b1565b65ffffffffffff8281168282160390808211156132f7576132f76132b1565b5092915050565b5f6020828403121561330e575f80fd5b815165ffffffffffff8116811461139b575f80fd5b65ffffffffffff8181168382160190808211156132f7576132f76132b1565b5f815180845260208085019450602084015f5b83811015612f7f5781516001600160a01b031687529582019590820190600101613355565b5f8282518085526020808601955060208260051b840101602086015f5b848110156133c557601f198684030189526133b38383516128bd565b98840198925090830190600101613397565b5090979650505050505050565b608081525f6133e46080830187613342565b82810360208401526133f68187612f50565b9050828103604084015261340a818661337a565b91505082606083015295945050505050565b838152606081016134306020830185612c3c565b826040830152949350505050565b5f82518060208501845e5f920191825250919050565b80820180821115610913576109136132b1565b60ff8181168382160190811115610913576109136132b1565b600181815b808511156134ba57815f19048211156134a0576134a06132b1565b808516156134ad57918102915b93841c9390800290613485565b509250929050565b5f826134d057506001610913565b816134dc57505f610913565b81600181146134f257600281146134fc57613518565b6001915050610913565b60ff84111561350d5761350d6132b1565b50506001821b610913565b5060208310610133831016604e8410600b841016171561353b575081810a610913565b6135458383613480565b805f1904821115613558576135586132b1565b029392505050565b5f61139b60ff8416836134c2565b84815260ff84166020820152826040820152608060608201525f610cdb60808301846128bd565b85815260ff8516602082015283604082015260a060608201525f6135bc60a08301856128bd565b82810360808401526110b781856128bd565b5f6101208b8352602060018060a01b038c16818501528160408501526135f68285018c613342565b9150838203606085015261360a828b612f50565b915083820360808501528189518084528284019150828160051b850101838c015f5b8381101561365a57601f198784030185526136488383516128bd565b9486019492509085019060010161362c565b505086810360a088015261366e818c61337a565b9450505050508560c08401528460e084015282810361010084015261369381856128bd565b9c9b505050505050505050505050565b5f602082840312156136b3575f80fd5b5051919050565b8082028115828204841417610913576109136132b1565b634e487b7160e01b5f52601260045260245ffd5b5f826136ff57634e487b7160e01b5f52601260045260245ffd5b500490565b828152604060208201525f610dc460408301846128bd56fea2646970667358221220f6305ebc81569759fccaf7ee60c82b869fdc4e4c34783f62126e409118095e5164736f6c63430008190033",
			"opcodes": "PUSH2 0x180 PUSH1 0x40 MSTORE CALLVALUE DUP1 ISZERO PUSH2 0x10 JUMPI PUSH0 DUP1 REVERT JUMPDEST POP PUSH1 0x40 MLOAD PUSH2 0x3F28 CODESIZE SUB DUP1 PUSH2 0x3F28 DUP4 CODECOPY DUP2 ADD PUSH1 0x40 DUP2 SWAP1 MSTORE PUSH2 0x2F SWAP2 PUSH2 0x546 JUMP JUMPDEST PUSH1 0x4 DUP2 PUSH1 0x40 MLOAD DUP1 PUSH1 0x40 ADD PUSH1 0x40 MSTORE DUP1 PUSH1 0x5 DUP2 MSTORE PUSH1 0x20 ADD PUSH5 0x23B4BB32B9 PUSH1 0xD9 SHL DUP2 MSTORE POP DUP1 PUSH2 0x5F PUSH2 0x138 PUSH1 0x20 SHL PUSH1 0x20 SHR JUMP JUMPDEST PUSH2 0x69 DUP3 PUSH0 PUSH2 0x153 JUMP JUMPDEST PUSH2 0x120 MSTORE PUSH2 0x78 DUP2 PUSH1 0x1 PUSH2 0x153 JUMP JUMPDEST PUSH2 0x140 MSTORE DUP2 MLOAD PUSH1 0x20 DUP1 DUP5 ADD SWAP2 SWAP1 SWAP2 KECCAK256 PUSH1 0xE0 MSTORE DUP2 MLOAD SWAP1 DUP3 ADD KECCAK256 PUSH2 0x100 MSTORE CHAINID PUSH1 0xA0 MSTORE PUSH2 0x104 PUSH1 0xE0 MLOAD PUSH2 0x100 MLOAD PUSH1 0x40 DUP1 MLOAD PUSH32 0x8B73C3C69BB8FE3D512ECC4CF759CC79239F7B179B0FFACAA9A75D522B39400F PUSH1 0x20 DUP3 ADD MSTORE SWAP1 DUP2 ADD SWAP3 SWAP1 SWAP3 MSTORE PUSH1 0x60 DUP3 ADD MSTORE CHAINID PUSH1 0x80 DUP3 ADD MSTORE ADDRESS PUSH1 0xA0 DUP3 ADD MSTORE PUSH0 SWAP1 PUSH1 0xC0 ADD PUSH1 0x40 MLOAD PUSH1 0x20 DUP2 DUP4 SUB SUB DUP2 MSTORE SWAP1 PUSH1 0x40 MSTORE DUP1 MLOAD SWAP1 PUSH1 0x20 ADD KECCAK256 SWAP1 POP SWAP1 JUMP JUMPDEST PUSH1 0x80 MSTORE POP POP ADDRESS PUSH1 0xC0 MSTORE PUSH1 0x3 PUSH2 0x119 DUP3 DUP3 PUSH2 0x604 JUMP JUMPDEST POP POP PUSH1 0x1 PUSH1 0x1 PUSH1 0xA0 SHL SUB AND PUSH2 0x160 MSTORE PUSH2 0x131 DUP2 PUSH2 0x185 JUMP JUMPDEST POP POP PUSH2 0x75F JUMP JUMPDEST PUSH1 0x40 DUP1 MLOAD DUP1 DUP3 ADD SWAP1 SWAP2 MSTORE PUSH1 0x1 DUP2 MSTORE PUSH1 0x31 PUSH1 0xF8 SHL PUSH1 0x20 DUP3 ADD MSTORE SWAP1 JUMP JUMPDEST PUSH0 PUSH1 0x20 DUP4 MLOAD LT ISZERO PUSH2 0x16E JUMPI PUSH2 0x167 DUP4 PUSH2 0x21F JUMP JUMPDEST SWAP1 POP PUSH2 0x17F JUMP JUMPDEST DUP2 PUSH2 0x179 DUP5 DUP3 PUSH2 0x604 JUMP JUMPDEST POP PUSH1 0xFF SWAP1 POP JUMPDEST SWAP3 SWAP2 POP POP JUMP JUMPDEST PUSH1 0x64 DUP1 DUP3 GT ISZERO PUSH2 0x1B7 JUMPI PUSH1 0x40 MLOAD PUSH4 0x243E5445 PUSH1 0xE0 SHL DUP2 MSTORE PUSH1 0x4 DUP2 ADD DUP4 SWAP1 MSTORE PUSH1 0x24 DUP2 ADD DUP3 SWAP1 MSTORE PUSH1 0x44 ADD JUMPDEST PUSH1 0x40 MLOAD DUP1 SWAP2 SUB SWAP1 REVERT JUMPDEST PUSH0 PUSH2 0x1C0 PUSH2 0x25C JUMP JUMPDEST SWAP1 POP PUSH2 0x1DF PUSH2 0x1CD PUSH2 0x275 JUMP JUMPDEST PUSH2 0x1D6 DUP6 PUSH2 0x2EF JUMP JUMPDEST PUSH1 0x8 SWAP2 SWAP1 PUSH2 0x326 JUMP JUMPDEST POP POP PUSH1 0x40 DUP1 MLOAD DUP3 DUP2 MSTORE PUSH1 0x20 DUP2 ADD DUP6 SWAP1 MSTORE PUSH32 0x553476BF02EF2726E8CE5CED78D63E26E602E4A2257B1F559418E24B4633997 SWAP2 ADD PUSH1 0x40 MLOAD DUP1 SWAP2 SUB SWAP1 LOG1 POP POP POP JUMP JUMPDEST PUSH0 DUP1 DUP3 SWAP1 POP PUSH1 0x1F DUP2 MLOAD GT ISZERO PUSH2 0x249 JUMPI DUP3 PUSH1 0x40 MLOAD PUSH4 0x305A27A9 PUSH1 0xE0 SHL DUP2 MSTORE PUSH1 0x4 ADD PUSH2 0x1AE SWAP2 SWAP1 PUSH2 0x6C3 JUMP JUMPDEST DUP1 MLOAD PUSH2 0x254 DUP3 PUSH2 0x6F8 JUMP JUMPDEST OR SWAP4 SWAP3 POP POP POP JUMP JUMPDEST PUSH0 PUSH2 0x267 PUSH1 0x8 PUSH2 0x340 JUMP JUMPDEST PUSH1 0x1 PUSH1 0x1 PUSH1 0xD0 SHL SUB AND SWAP1 POP SWAP1 JUMP JUMPDEST PUSH0 PUSH2 0x280 PUSH2 0x160 MLOAD SWAP1 JUMP JUMPDEST PUSH1 0x1 PUSH1 0x1 PUSH1 0xA0 SHL SUB AND PUSH4 0x91DDADF4 PUSH1 0x40 MLOAD DUP2 PUSH4 0xFFFFFFFF AND PUSH1 0xE0 SHL DUP2 MSTORE PUSH1 0x4 ADD PUSH1 0x20 PUSH1 0x40 MLOAD DUP1 DUP4 SUB DUP2 DUP7 GAS STATICCALL SWAP3 POP POP POP DUP1 ISZERO PUSH2 0x2D9 JUMPI POP PUSH1 0x40 DUP1 MLOAD PUSH1 0x1F RETURNDATASIZE SWAP1 DUP2 ADD PUSH1 0x1F NOT AND DUP3 ADD SWAP1 SWAP3 MSTORE PUSH2 0x2D6 SWAP2 DUP2 ADD SWAP1 PUSH2 0x71B JUMP JUMPDEST PUSH1 0x1 JUMPDEST PUSH2 0x2EA JUMPI PUSH2 0x2E5 PUSH2 0x388 JUMP JUMPDEST SWAP1 POP SWAP1 JUMP JUMPDEST SWAP2 SWAP1 POP JUMP JUMPDEST PUSH0 PUSH1 0x1 PUSH1 0x1 PUSH1 0xD0 SHL SUB DUP3 GT ISZERO PUSH2 0x322 JUMPI PUSH1 0x40 MLOAD PUSH4 0x6DFCC65 PUSH1 0xE4 SHL DUP2 MSTORE PUSH1 0xD0 PUSH1 0x4 DUP3 ADD MSTORE PUSH1 0x24 DUP2 ADD DUP4 SWAP1 MSTORE PUSH1 0x44 ADD PUSH2 0x1AE JUMP JUMPDEST POP SWAP1 JUMP JUMPDEST PUSH0 DUP1 PUSH2 0x333 DUP6 DUP6 DUP6 PUSH2 0x392 JUMP JUMPDEST SWAP2 POP SWAP2 POP JUMPDEST SWAP4 POP SWAP4 SWAP2 POP POP JUMP JUMPDEST DUP1 SLOAD PUSH0 SWAP1 DUP1 ISZERO PUSH2 0x37F JUMPI PUSH2 0x366 DUP4 PUSH2 0x359 PUSH1 0x1 DUP5 PUSH2 0x740 JUMP JUMPDEST PUSH0 SWAP2 DUP3 MSTORE PUSH1 0x20 SWAP1 SWAP2 KECCAK256 ADD SWAP1 JUMP JUMPDEST SLOAD PUSH7 0x1000000000000 SWAP1 DIV PUSH1 0x1 PUSH1 0x1 PUSH1 0xD0 SHL SUB AND PUSH2 0x381 JUMP JUMPDEST PUSH0 JUMPDEST SWAP4 SWAP3 POP POP POP JUMP JUMPDEST PUSH0 PUSH2 0x2E5 NUMBER PUSH2 0x514 JUMP JUMPDEST DUP3 SLOAD PUSH0 SWAP1 DUP2 SWAP1 DUP1 ISZERO PUSH2 0x4B7 JUMPI PUSH0 PUSH2 0x3AE DUP8 PUSH2 0x359 PUSH1 0x1 DUP6 PUSH2 0x740 JUMP JUMPDEST PUSH1 0x40 DUP1 MLOAD DUP1 DUP3 ADD SWAP1 SWAP2 MSTORE SWAP1 SLOAD PUSH6 0xFFFFFFFFFFFF DUP1 DUP3 AND DUP1 DUP5 MSTORE PUSH7 0x1000000000000 SWAP1 SWAP3 DIV PUSH1 0x1 PUSH1 0x1 PUSH1 0xD0 SHL SUB AND PUSH1 0x20 DUP5 ADD MSTORE SWAP2 SWAP3 POP SWAP1 DUP8 AND LT ISZERO PUSH2 0x405 JUMPI PUSH1 0x40 MLOAD PUSH4 0x2520601D PUSH1 0xE0 SHL DUP2 MSTORE PUSH1 0x4 ADD PUSH1 0x40 MLOAD DUP1 SWAP2 SUB SWAP1 REVERT JUMPDEST DUP1 MLOAD PUSH6 0xFFFFFFFFFFFF DUP1 DUP9 AND SWAP2 AND SUB PUSH2 0x454 JUMPI DUP5 PUSH2 0x428 DUP9 PUSH2 0x359 PUSH1 0x1 DUP7 PUSH2 0x740 JUMP JUMPDEST DUP1 SLOAD PUSH1 0x1 PUSH1 0x1 PUSH1 0xD0 SHL SUB SWAP3 SWAP1 SWAP3 AND PUSH7 0x1000000000000 MUL PUSH6 0xFFFFFFFFFFFF SWAP1 SWAP3 AND SWAP2 SWAP1 SWAP2 OR SWAP1 SSTORE PUSH2 0x4A7 JUMP JUMPDEST PUSH1 0x40 DUP1 MLOAD DUP1 DUP3 ADD SWAP1 SWAP2 MSTORE PUSH6 0xFFFFFFFFFFFF DUP1 DUP9 AND DUP3 MSTORE PUSH1 0x1 PUSH1 0x1 PUSH1 0xD0 SHL SUB DUP1 DUP9 AND PUSH1 0x20 DUP1 DUP6 ADD SWAP2 DUP3 MSTORE DUP12 SLOAD PUSH1 0x1 DUP2 ADD DUP14 SSTORE PUSH0 DUP14 DUP2 MSTORE SWAP2 SWAP1 SWAP2 KECCAK256 SWAP5 MLOAD SWAP2 MLOAD SWAP1 SWAP3 AND PUSH7 0x1000000000000 MUL SWAP3 AND SWAP2 SWAP1 SWAP2 OR SWAP2 ADD SSTORE JUMPDEST PUSH1 0x20 ADD MLOAD SWAP3 POP DUP4 SWAP2 POP PUSH2 0x338 SWAP1 POP JUMP JUMPDEST POP POP PUSH1 0x40 DUP1 MLOAD DUP1 DUP3 ADD SWAP1 SWAP2 MSTORE PUSH6 0xFFFFFFFFFFFF DUP1 DUP6 AND DUP3 MSTORE PUSH1 0x1 PUSH1 0x1 PUSH1 0xD0 SHL SUB DUP1 DUP6 AND PUSH1 0x20 DUP1 DUP6 ADD SWAP2 DUP3 MSTORE DUP9 SLOAD PUSH1 0x1 DUP2 ADD DUP11 SSTORE PUSH0 DUP11 DUP2 MSTORE SWAP2 DUP3 KECCAK256 SWAP6 MLOAD SWAP3 MLOAD SWAP1 SWAP4 AND PUSH7 0x1000000000000 MUL SWAP2 SWAP1 SWAP4 AND OR SWAP3 ADD SWAP2 SWAP1 SWAP2 SSTORE SWAP1 POP DUP2 PUSH2 0x338 JUMP JUMPDEST PUSH0 PUSH6 0xFFFFFFFFFFFF DUP3 GT ISZERO PUSH2 0x322 JUMPI PUSH1 0x40 MLOAD PUSH4 0x6DFCC65 PUSH1 0xE4 SHL DUP2 MSTORE PUSH1 0x30 PUSH1 0x4 DUP3 ADD MSTORE PUSH1 0x24 DUP2 ADD DUP4 SWAP1 MSTORE PUSH1 0x44 ADD PUSH2 0x1AE JUMP JUMPDEST PUSH0 PUSH1 0x20 DUP3 DUP5 SUB SLT ISZERO PUSH2 0x556 JUMPI PUSH0 DUP1 REVERT JUMPDEST DUP2 MLOAD PUSH1 0x1 PUSH1 0x1 PUSH1 0xA0 SHL SUB DUP2 AND DUP2 EQ PUSH2 0x381 JUMPI PUSH0 DUP1 REVERT JUMPDEST PUSH4 0x4E487B71 PUSH1 0xE0 SHL PUSH0 MSTORE PUSH1 0x41 PUSH1 0x4 MSTORE PUSH1 0x24 PUSH0 REVERT JUMPDEST PUSH1 0x1 DUP2 DUP2 SHR SWAP1 DUP3 AND DUP1 PUSH2 0x594 JUMPI PUSH1 0x7F DUP3 AND SWAP2 POP JUMPDEST PUSH1 0x20 DUP3 LT DUP2 SUB PUSH2 0x5B2 JUMPI PUSH4 0x4E487B71 PUSH1 0xE0 SHL PUSH0 MSTORE PUSH1 0x22 PUSH1 0x4 MSTORE PUSH1 0x24 PUSH0 REVERT JUMPDEST POP SWAP2 SWAP1 POP JUMP JUMPDEST PUSH1 0x1F DUP3 GT ISZERO PUSH2 0x5FF JUMPI DUP1 PUSH0 MSTORE PUSH1 0x20 PUSH0 KECCAK256 PUSH1 0x1F DUP5 ADD PUSH1 0x5 SHR DUP2 ADD PUSH1 0x20 DUP6 LT ISZERO PUSH2 0x5DD JUMPI POP DUP1 JUMPDEST PUSH1 0x1F DUP5 ADD PUSH1 0x5 SHR DUP3 ADD SWAP2 POP JUMPDEST DUP2 DUP2 LT ISZERO PUSH2 0x5FC JUMPI PUSH0 DUP2 SSTORE PUSH1 0x1 ADD PUSH2 0x5E9 JUMP JUMPDEST POP POP JUMPDEST POP POP POP JUMP JUMPDEST DUP2 MLOAD PUSH1 0x1 PUSH1 0x1 PUSH1 0x40 SHL SUB DUP2 GT ISZERO PUSH2 0x61D JUMPI PUSH2 0x61D PUSH2 0x56C JUMP JUMPDEST PUSH2 0x631 DUP2 PUSH2 0x62B DUP5 SLOAD PUSH2 0x580 JUMP JUMPDEST DUP5 PUSH2 0x5B8 JUMP JUMPDEST PUSH1 0x20 DUP1 PUSH1 0x1F DUP4 GT PUSH1 0x1 DUP2 EQ PUSH2 0x664 JUMPI PUSH0 DUP5 ISZERO PUSH2 0x64D JUMPI POP DUP6 DUP4 ADD MLOAD JUMPDEST PUSH0 NOT PUSH1 0x3 DUP7 SWAP1 SHL SHR NOT AND PUSH1 0x1 DUP6 SWAP1 SHL OR DUP6 SSTORE PUSH2 0x6BB JUMP JUMPDEST PUSH0 DUP6 DUP2 MSTORE PUSH1 0x20 DUP2 KECCAK256 PUSH1 0x1F NOT DUP7 AND SWAP2 JUMPDEST DUP3 DUP2 LT ISZERO PUSH2 0x692 JUMPI DUP9 DUP7 ADD MLOAD DUP3 SSTORE SWAP5 DUP5 ADD SWAP5 PUSH1 0x1 SWAP1 SWAP2 ADD SWAP1 DUP5 ADD PUSH2 0x673 JUMP JUMPDEST POP DUP6 DUP3 LT ISZERO PUSH2 0x6AF JUMPI DUP8 DUP6 ADD MLOAD PUSH0 NOT PUSH1 0x3 DUP9 SWAP1 SHL PUSH1 0xF8 AND SHR NOT AND DUP2 SSTORE JUMPDEST POP POP PUSH1 0x1 DUP5 PUSH1 0x1 SHL ADD DUP6 SSTORE JUMPDEST POP POP POP POP POP POP JUMP JUMPDEST PUSH1 0x20 DUP2 MSTORE PUSH0 DUP3 MLOAD DUP1 PUSH1 0x20 DUP5 ADD MSTORE DUP1 PUSH1 0x20 DUP6 ADD PUSH1 0x40 DUP6 ADD MCOPY PUSH0 PUSH1 0x40 DUP3 DUP6 ADD ADD MSTORE PUSH1 0x40 PUSH1 0x1F NOT PUSH1 0x1F DUP4 ADD AND DUP5 ADD ADD SWAP2 POP POP SWAP3 SWAP2 POP POP JUMP JUMPDEST DUP1 MLOAD PUSH1 0x20 DUP1 DUP4 ADD MLOAD SWAP2 SWAP1 DUP2 LT ISZERO PUSH2 0x5B2 JUMPI PUSH0 NOT PUSH1 0x20 SWAP2 SWAP1 SWAP2 SUB PUSH1 0x3 SHL SHL AND SWAP2 SWAP1 POP JUMP JUMPDEST PUSH0 PUSH1 0x20 DUP3 DUP5 SUB SLT ISZERO PUSH2 0x72B JUMPI PUSH0 DUP1 REVERT JUMPDEST DUP2 MLOAD PUSH6 0xFFFFFFFFFFFF DUP2 AND DUP2 EQ PUSH2 0x381 JUMPI PUSH0 DUP1 REVERT JUMPDEST DUP2 DUP2 SUB DUP2 DUP2 GT ISZERO PUSH2 0x17F JUMPI PUSH4 0x4E487B71 PUSH1 0xE0 SHL PUSH0 MSTORE PUSH1 0x11 PUSH1 0x4 MSTORE PUSH1 0x24 PUSH0 REVERT JUMPDEST PUSH1 0x80 MLOAD PUSH1 0xA0 MLOAD PUSH1 0xC0 MLOAD PUSH1 0xE0 MLOAD PUSH2 0x100 MLOAD PUSH2 0x120 MLOAD PUSH2 0x140 MLOAD PUSH2 0x160 MLOAD PUSH2 0x3752 PUSH2 0x7D6 PUSH0 CODECOPY PUSH0 DUP2 DUP2 PUSH2 0x8A4 ADD MSTORE DUP2 DUP2 PUSH2 0xCE9 ADD MSTORE DUP2 DUP2 PUSH2 0x11D7 ADD MSTORE DUP2 DUP2 PUSH2 0x1CB9 ADD MSTORE PUSH2 0x1DC6 ADD MSTORE PUSH0 PUSH2 0x1C86 ADD MSTORE PUSH0 PUSH2 0x1C5A ADD MSTORE PUSH0 PUSH2 0x1FE5 ADD MSTORE PUSH0 PUSH2 0x1FBD ADD MSTORE PUSH0 PUSH2 0x1F18 ADD MSTORE PUSH0 PUSH2 0x1F42 ADD MSTORE PUSH0 PUSH2 0x1F6C ADD MSTORE PUSH2 0x3752 PUSH0 RETURN INVALID PUSH1 0x80 PUSH1 0x40 MSTORE PUSH1 0x4 CALLDATASIZE LT PUSH2 0x257 JUMPI PUSH0 CALLDATALOAD PUSH1 0xE0 SHR DUP1 PUSH4 0x7B3C71D3 GT PUSH2 0x13F JUMPI DUP1 PUSH4 0xB58131B0 GT PUSH2 0xB3 JUMPI DUP1 PUSH4 0xDD4E2BA5 GT PUSH2 0x78 JUMPI DUP1 PUSH4 0xDD4E2BA5 EQ PUSH2 0x7B5 JUMPI DUP1 PUSH4 0xDEAAA7CC EQ PUSH2 0x7FA JUMPI DUP1 PUSH4 0xEB9019D4 EQ PUSH2 0x82D JUMPI DUP1 PUSH4 0xF23A6E61 EQ PUSH2 0x84C JUMPI DUP1 PUSH4 0xF8CE560A EQ PUSH2 0x877 JUMPI DUP1 PUSH4 0xFC0C546A EQ PUSH2 0x896 JUMPI PUSH0 DUP1 REVERT JUMPDEST DUP1 PUSH4 0xB58131B0 EQ PUSH2 0x40A JUMPI DUP1 PUSH4 0xBC197C81 EQ PUSH2 0x739 JUMPI DUP1 PUSH4 0xC01F9E37 EQ PUSH2 0x764 JUMPI DUP1 PUSH4 0xC28BC2FA EQ PUSH2 0x783 JUMPI DUP1 PUSH4 0xC59057E4 EQ PUSH2 0x796 JUMPI PUSH0 DUP1 REVERT JUMPDEST DUP1 PUSH4 0x91DDADF4 GT PUSH2 0x104 JUMPI DUP1 PUSH4 0x91DDADF4 EQ PUSH2 0x673 JUMPI DUP1 PUSH4 0x97C3D334 EQ PUSH2 0x69E JUMPI DUP1 PUSH4 0x9A802A6D EQ PUSH2 0x6B1 JUMPI DUP1 PUSH4 0xA7713A70 EQ PUSH2 0x6D0 JUMPI DUP1 PUSH4 0xA9A95294 EQ PUSH2 0x6E4 JUMPI DUP1 PUSH4 0xAB58FB8E EQ PUSH2 0x703 JUMPI PUSH0 DUP1 REVERT JUMPDEST DUP1 PUSH4 0x7B3C71D3 EQ PUSH2 0x5BB JUMPI DUP1 PUSH4 0x7D5E81E2 EQ PUSH2 0x5DA JUMPI DUP1 PUSH4 0x7ECEBE00 EQ PUSH2 0x5F9 JUMPI DUP1 PUSH4 0x84B0196E EQ PUSH2 0x62D JUMPI DUP1 PUSH4 0x8FF262E3 EQ PUSH2 0x654 JUMPI PUSH0 DUP1 REVERT JUMPDEST DUP1 PUSH4 0x3932ABB1 GT PUSH2 0x1D6 JUMPI DUP1 PUSH4 0x544FFC9C GT PUSH2 0x19B JUMPI DUP1 PUSH4 0x544FFC9C EQ PUSH2 0x4C3 JUMPI DUP1 PUSH4 0x54FD4D50 EQ PUSH2 0x516 JUMPI DUP1 PUSH4 0x56781388 EQ PUSH2 0x53F JUMPI DUP1 PUSH4 0x5B8D0E0D EQ PUSH2 0x55E JUMPI DUP1 PUSH4 0x5F398A14 EQ PUSH2 0x57D JUMPI DUP1 PUSH4 0x60C4247F EQ PUSH2 0x59C JUMPI PUSH0 DUP1 REVERT JUMPDEST DUP1 PUSH4 0x3932ABB1 EQ PUSH2 0x40A JUMPI DUP1 PUSH4 0x3E4F49E6 EQ PUSH2 0x41C JUMPI DUP1 PUSH4 0x43859632 EQ PUSH2 0x448 JUMPI DUP1 PUSH4 0x452115D6 EQ PUSH2 0x490 JUMPI DUP1 PUSH4 0x4BF5D7E9 EQ PUSH2 0x4AF JUMPI PUSH0 DUP1 REVERT JUMPDEST DUP1 PUSH4 0x150B7A02 GT PUSH2 0x21C JUMPI DUP1 PUSH4 0x150B7A02 EQ PUSH2 0x343 JUMPI DUP1 PUSH4 0x160CBED7 EQ PUSH2 0x386 JUMPI DUP1 PUSH4 0x2656227D EQ PUSH2 0x3A5 JUMPI DUP1 PUSH4 0x2D63F693 EQ PUSH2 0x3B8 JUMPI DUP1 PUSH4 0x2FE3E261 EQ PUSH2 0x3D7 JUMPI PUSH0 DUP1 REVERT JUMPDEST DUP1 PUSH4 0x1FFC9A7 EQ PUSH2 0x264 JUMPI DUP1 PUSH4 0x2A251A3 EQ PUSH2 0x298 JUMPI DUP1 PUSH4 0x6F3F9E6 EQ PUSH2 0x2B7 JUMPI DUP1 PUSH4 0x6FDDE03 EQ PUSH2 0x2D6 JUMPI DUP1 PUSH4 0x143489D0 EQ PUSH2 0x2F7 JUMPI PUSH0 DUP1 REVERT JUMPDEST CALLDATASIZE PUSH2 0x260 JUMPI STOP JUMPDEST STOP JUMPDEST PUSH0 DUP1 REVERT JUMPDEST CALLVALUE DUP1 ISZERO PUSH2 0x26F JUMPI PUSH0 DUP1 REVERT JUMPDEST POP PUSH2 0x283 PUSH2 0x27E CALLDATASIZE PUSH1 0x4 PUSH2 0x287F JUMP JUMPDEST PUSH2 0x8C8 JUMP JUMPDEST PUSH1 0x40 MLOAD SWAP1 ISZERO ISZERO DUP2 MSTORE PUSH1 0x20 ADD JUMPDEST PUSH1 0x40 MLOAD DUP1 SWAP2 SUB SWAP1 RETURN JUMPDEST CALLVALUE DUP1 ISZERO PUSH2 0x2A3 JUMPI PUSH0 DUP1 REVERT JUMPDEST POP PUSH3 0x93A80 JUMPDEST PUSH1 0x40 MLOAD SWAP1 DUP2 MSTORE PUSH1 0x20 ADD PUSH2 0x28F JUMP JUMPDEST CALLVALUE DUP1 ISZERO PUSH2 0x2C2 JUMPI PUSH0 DUP1 REVERT JUMPDEST POP PUSH2 0x25E PUSH2 0x2D1 CALLDATASIZE PUSH1 0x4 PUSH2 0x28A6 JUMP JUMPDEST PUSH2 0x919 JUMP JUMPDEST CALLVALUE DUP1 ISZERO PUSH2 0x2E1 JUMPI PUSH0 DUP1 REVERT JUMPDEST POP PUSH2 0x2EA PUSH2 0x92D JUMP JUMPDEST PUSH1 0x40 MLOAD PUSH2 0x28F SWAP2 SWAP1 PUSH2 0x28EB JUMP JUMPDEST CALLVALUE DUP1 ISZERO PUSH2 0x302 JUMPI PUSH0 DUP1 REVERT JUMPDEST POP PUSH2 0x32B PUSH2 0x311 CALLDATASIZE PUSH1 0x4 PUSH2 0x28A6 JUMP JUMPDEST PUSH0 SWAP1 DUP2 MSTORE PUSH1 0x4 PUSH1 0x20 MSTORE PUSH1 0x40 SWAP1 KECCAK256 SLOAD PUSH1 0x1 PUSH1 0x1 PUSH1 0xA0 SHL SUB AND SWAP1 JUMP JUMPDEST PUSH1 0x40 MLOAD PUSH1 0x1 PUSH1 0x1 PUSH1 0xA0 SHL SUB SWAP1 SWAP2 AND DUP2 MSTORE PUSH1 0x20 ADD PUSH2 0x28F JUMP JUMPDEST CALLVALUE DUP1 ISZERO PUSH2 0x34E JUMPI PUSH0 DUP1 REVERT JUMPDEST POP PUSH2 0x36D PUSH2 0x35D CALLDATASIZE PUSH1 0x4 PUSH2 0x29D6 JUMP JUMPDEST PUSH4 0xA85BD01 PUSH1 0xE1 SHL SWAP5 SWAP4 POP POP POP POP JUMP JUMPDEST PUSH1 0x40 MLOAD PUSH1 0x1 PUSH1 0x1 PUSH1 0xE0 SHL SUB NOT SWAP1 SWAP2 AND DUP2 MSTORE PUSH1 0x20 ADD PUSH2 0x28F JUMP JUMPDEST CALLVALUE DUP1 ISZERO PUSH2 0x391 JUMPI PUSH0 DUP1 REVERT JUMPDEST POP PUSH2 0x2A9 PUSH2 0x3A0 CALLDATASIZE PUSH1 0x4 PUSH2 0x2B9F JUMP JUMPDEST PUSH2 0x9BD JUMP JUMPDEST PUSH2 0x2A9 PUSH2 0x3B3 CALLDATASIZE PUSH1 0x4 PUSH2 0x2B9F JUMP JUMPDEST PUSH2 0x9FB JUMP JUMPDEST CALLVALUE DUP1 ISZERO PUSH2 0x3C3 JUMPI PUSH0 DUP1 REVERT JUMPDEST POP PUSH2 0x2A9 PUSH2 0x3D2 CALLDATASIZE PUSH1 0x4 PUSH2 0x28A6 JUMP JUMPDEST PUSH2 0xB23 JUMP JUMPDEST CALLVALUE DUP1 ISZERO PUSH2 0x3E2 JUMPI PUSH0 DUP1 REVERT JUMPDEST POP PUSH2 0x2A9 PUSH32 0x3E83946653575F9A39005E1545185629E92736B7528AB20CA3816F315424A811 DUP2 JUMP JUMPDEST CALLVALUE DUP1 ISZERO PUSH2 0x415 JUMPI PUSH0 DUP1 REVERT JUMPDEST POP PUSH0 PUSH2 0x2A9 JUMP JUMPDEST CALLVALUE DUP1 ISZERO PUSH2 0x427 JUMPI PUSH0 DUP1 REVERT JUMPDEST POP PUSH2 0x43B PUSH2 0x436 CALLDATASIZE PUSH1 0x4 PUSH2 0x28A6 JUMP JUMPDEST PUSH2 0xB43 JUMP JUMPDEST PUSH1 0x40 MLOAD PUSH2 0x28F SWAP2 SWAP1 PUSH2 0x2C5C JUMP JUMPDEST CALLVALUE DUP1 ISZERO PUSH2 0x453 JUMPI PUSH0 DUP1 REVERT JUMPDEST POP PUSH2 0x283 PUSH2 0x462 CALLDATASIZE PUSH1 0x4 PUSH2 0x2C6A JUMP JUMPDEST PUSH0 DUP3 DUP2 MSTORE PUSH1 0x7 PUSH1 0x20 SWAP1 DUP2 MSTORE PUSH1 0x40 DUP1 DUP4 KECCAK256 PUSH1 0x1 PUSH1 0x1 PUSH1 0xA0 SHL SUB DUP6 AND DUP5 MSTORE PUSH1 0x3 ADD SWAP1 SWAP2 MSTORE SWAP1 KECCAK256 SLOAD PUSH1 0xFF AND SWAP3 SWAP2 POP POP JUMP JUMPDEST CALLVALUE DUP1 ISZERO PUSH2 0x49B JUMPI PUSH0 DUP1 REVERT JUMPDEST POP PUSH2 0x2A9 PUSH2 0x4AA CALLDATASIZE PUSH1 0x4 PUSH2 0x2B9F JUMP JUMPDEST PUSH2 0xC79 JUMP JUMPDEST CALLVALUE DUP1 ISZERO PUSH2 0x4BA JUMPI PUSH0 DUP1 REVERT JUMPDEST POP PUSH2 0x2EA PUSH2 0xCE5 JUMP JUMPDEST CALLVALUE DUP1 ISZERO PUSH2 0x4CE JUMPI PUSH0 DUP1 REVERT JUMPDEST POP PUSH2 0x4FB PUSH2 0x4DD CALLDATASIZE PUSH1 0x4 PUSH2 0x28A6 JUMP JUMPDEST PUSH0 SWAP1 DUP2 MSTORE PUSH1 0x7 PUSH1 0x20 MSTORE PUSH1 0x40 SWAP1 KECCAK256 DUP1 SLOAD PUSH1 0x1 DUP3 ADD SLOAD PUSH1 0x2 SWAP1 SWAP3 ADD SLOAD SWAP1 SWAP3 JUMP JUMPDEST PUSH1 0x40 DUP1 MLOAD SWAP4 DUP5 MSTORE PUSH1 0x20 DUP5 ADD SWAP3 SWAP1 SWAP3 MSTORE SWAP1 DUP3 ADD MSTORE PUSH1 0x60 ADD PUSH2 0x28F JUMP JUMPDEST CALLVALUE DUP1 ISZERO PUSH2 0x521 JUMPI PUSH0 DUP1 REVERT JUMPDEST POP PUSH1 0x40 DUP1 MLOAD DUP1 DUP3 ADD SWAP1 SWAP2 MSTORE PUSH1 0x1 DUP2 MSTORE PUSH1 0x31 PUSH1 0xF8 SHL PUSH1 0x20 DUP3 ADD MSTORE PUSH2 0x2EA JUMP JUMPDEST CALLVALUE DUP1 ISZERO PUSH2 0x54A JUMPI PUSH0 DUP1 REVERT JUMPDEST POP PUSH2 0x2A9 PUSH2 0x559 CALLDATASIZE PUSH1 0x4 PUSH2 0x2CA4 JUMP JUMPDEST PUSH2 0xDA5 JUMP JUMPDEST CALLVALUE DUP1 ISZERO PUSH2 0x569 JUMPI PUSH0 DUP1 REVERT JUMPDEST POP PUSH2 0x2A9 PUSH2 0x578 CALLDATASIZE PUSH1 0x4 PUSH2 0x2D09 JUMP JUMPDEST PUSH2 0xDCC JUMP JUMPDEST CALLVALUE DUP1 ISZERO PUSH2 0x588 JUMPI PUSH0 DUP1 REVERT JUMPDEST POP PUSH2 0x2A9 PUSH2 0x597 CALLDATASIZE PUSH1 0x4 PUSH2 0x2DB9 JUMP JUMPDEST PUSH2 0xF28 JUMP JUMPDEST CALLVALUE DUP1 ISZERO PUSH2 0x5A7 JUMPI PUSH0 DUP1 REVERT JUMPDEST POP PUSH2 0x2A9 PUSH2 0x5B6 CALLDATASIZE PUSH1 0x4 PUSH2 0x28A6 JUMP JUMPDEST PUSH2 0xF7B JUMP JUMPDEST CALLVALUE DUP1 ISZERO PUSH2 0x5C6 JUMPI PUSH0 DUP1 REVERT JUMPDEST POP PUSH2 0x2A9 PUSH2 0x5D5 CALLDATASIZE PUSH1 0x4 PUSH2 0x2E36 JUMP JUMPDEST PUSH2 0x1007 JUMP JUMPDEST CALLVALUE DUP1 ISZERO PUSH2 0x5E5 JUMPI PUSH0 DUP1 REVERT JUMPDEST POP PUSH2 0x2A9 PUSH2 0x5F4 CALLDATASIZE PUSH1 0x4 PUSH2 0x2E8B JUMP JUMPDEST PUSH2 0x104D JUMP JUMPDEST CALLVALUE DUP1 ISZERO PUSH2 0x604 JUMPI PUSH0 DUP1 REVERT JUMPDEST POP PUSH2 0x2A9 PUSH2 0x613 CALLDATASIZE PUSH1 0x4 PUSH2 0x2F37 JUMP JUMPDEST PUSH1 0x1 PUSH1 0x1 PUSH1 0xA0 SHL SUB AND PUSH0 SWAP1 DUP2 MSTORE PUSH1 0x2 PUSH1 0x20 MSTORE PUSH1 0x40 SWAP1 KECCAK256 SLOAD SWAP1 JUMP JUMPDEST CALLVALUE DUP1 ISZERO PUSH2 0x638 JUMPI PUSH0 DUP1 REVERT JUMPDEST POP PUSH2 0x641 PUSH2 0x10C3 JUMP JUMPDEST PUSH1 0x40 MLOAD PUSH2 0x28F SWAP8 SWAP7 SWAP6 SWAP5 SWAP4 SWAP3 SWAP2 SWAP1 PUSH2 0x2F8A JUMP JUMPDEST CALLVALUE DUP1 ISZERO PUSH2 0x65F JUMPI PUSH0 DUP1 REVERT JUMPDEST POP PUSH2 0x2A9 PUSH2 0x66E CALLDATASIZE PUSH1 0x4 PUSH2 0x2FF9 JUMP JUMPDEST PUSH2 0x1105 JUMP JUMPDEST CALLVALUE DUP1 ISZERO PUSH2 0x67E JUMPI PUSH0 DUP1 REVERT JUMPDEST POP PUSH2 0x687 PUSH2 0x11D4 JUMP JUMPDEST PUSH1 0x40 MLOAD PUSH6 0xFFFFFFFFFFFF SWAP1 SWAP2 AND DUP2 MSTORE PUSH1 0x20 ADD PUSH2 0x28F JUMP JUMPDEST CALLVALUE DUP1 ISZERO PUSH2 0x6A9 JUMPI PUSH0 DUP1 REVERT JUMPDEST POP PUSH1 0x64 PUSH2 0x2A9 JUMP JUMPDEST CALLVALUE DUP1 ISZERO PUSH2 0x6BC JUMPI PUSH0 DUP1 REVERT JUMPDEST POP PUSH2 0x2A9 PUSH2 0x6CB CALLDATASIZE PUSH1 0x4 PUSH2 0x3044 JUMP JUMPDEST PUSH2 0x1260 JUMP JUMPDEST CALLVALUE DUP1 ISZERO PUSH2 0x6DB JUMPI PUSH0 DUP1 REVERT JUMPDEST POP PUSH2 0x2A9 PUSH2 0x126C JUMP JUMPDEST CALLVALUE DUP1 ISZERO PUSH2 0x6EF JUMPI PUSH0 DUP1 REVERT JUMPDEST POP PUSH2 0x283 PUSH2 0x6FE CALLDATASIZE PUSH1 0x4 PUSH2 0x28A6 JUMP JUMPDEST POP PUSH0 SWAP1 JUMP JUMPDEST CALLVALUE DUP1 ISZERO PUSH2 0x70E JUMPI PUSH0 DUP1 REVERT JUMPDEST POP PUSH2 0x2A9 PUSH2 0x71D CALLDATASIZE PUSH1 0x4 PUSH2 0x28A6 JUMP JUMPDEST PUSH0 SWAP1 DUP2 MSTORE PUSH1 0x4 PUSH1 0x20 MSTORE PUSH1 0x40 SWAP1 KECCAK256 PUSH1 0x1 ADD SLOAD PUSH6 0xFFFFFFFFFFFF AND SWAP1 JUMP JUMPDEST CALLVALUE DUP1 ISZERO PUSH2 0x744 JUMPI PUSH0 DUP1 REVERT JUMPDEST POP PUSH2 0x36D PUSH2 0x753 CALLDATASIZE PUSH1 0x4 PUSH2 0x3096 JUMP JUMPDEST PUSH4 0xBC197C81 PUSH1 0xE0 SHL SWAP6 SWAP5 POP POP POP POP POP JUMP JUMPDEST CALLVALUE DUP1 ISZERO PUSH2 0x76F JUMPI PUSH0 DUP1 REVERT JUMPDEST POP PUSH2 0x2A9 PUSH2 0x77E CALLDATASIZE PUSH1 0x4 PUSH2 0x28A6 JUMP JUMPDEST PUSH2 0x1285 JUMP JUMPDEST PUSH2 0x25E PUSH2 0x791 CALLDATASIZE PUSH1 0x4 PUSH2 0x311E JUMP JUMPDEST PUSH2 0x12C7 JUMP JUMPDEST CALLVALUE DUP1 ISZERO PUSH2 0x7A1 JUMPI PUSH0 DUP1 REVERT JUMPDEST POP PUSH2 0x2A9 PUSH2 0x7B0 CALLDATASIZE PUSH1 0x4 PUSH2 0x2B9F JUMP JUMPDEST PUSH2 0x1343 JUMP JUMPDEST CALLVALUE DUP1 ISZERO PUSH2 0x7C0 JUMPI PUSH0 DUP1 REVERT JUMPDEST POP PUSH1 0x40 DUP1 MLOAD DUP1 DUP3 ADD SWAP1 SWAP2 MSTORE PUSH1 0x20 DUP1 DUP3 MSTORE PUSH32 0x737570706F72743D627261766F2671756F72756D3D666F722C6162737461696E SWAP1 DUP3 ADD MSTORE PUSH2 0x2EA JUMP JUMPDEST CALLVALUE DUP1 ISZERO PUSH2 0x805 JUMPI PUSH0 DUP1 REVERT JUMPDEST POP PUSH2 0x2A9 PUSH32 0xF2AAD550CF55F045CB27E9C559F9889FDFB6E6CDAA032301D6EA397784AE51D7 DUP2 JUMP JUMPDEST CALLVALUE DUP1 ISZERO PUSH2 0x838 JUMPI PUSH0 DUP1 REVERT JUMPDEST POP PUSH2 0x2A9 PUSH2 0x847 CALLDATASIZE PUSH1 0x4 PUSH2 0x315B JUMP JUMPDEST PUSH2 0x137C JUMP JUMPDEST CALLVALUE DUP1 ISZERO PUSH2 0x857 JUMPI PUSH0 DUP1 REVERT JUMPDEST POP PUSH2 0x36D PUSH2 0x866 CALLDATASIZE PUSH1 0x4 PUSH2 0x3183 JUMP JUMPDEST PUSH4 0xF23A6E61 PUSH1 0xE0 SHL SWAP6 SWAP5 POP POP POP POP POP JUMP JUMPDEST CALLVALUE DUP1 ISZERO PUSH2 0x882 JUMPI PUSH0 DUP1 REVERT JUMPDEST POP PUSH2 0x2A9 PUSH2 0x891 CALLDATASIZE PUSH1 0x4 PUSH2 0x28A6 JUMP JUMPDEST PUSH2 0x13A2 JUMP JUMPDEST CALLVALUE DUP1 ISZERO PUSH2 0x8A1 JUMPI PUSH0 DUP1 REVERT JUMPDEST POP PUSH32 0x0 PUSH2 0x32B JUMP JUMPDEST PUSH0 PUSH1 0x1 PUSH1 0x1 PUSH1 0xE0 SHL SUB NOT DUP3 AND PUSH4 0x32A2AD43 PUSH1 0xE1 SHL EQ DUP1 PUSH2 0x8F8 JUMPI POP PUSH1 0x1 PUSH1 0x1 PUSH1 0xE0 SHL SUB NOT DUP3 AND PUSH4 0x2711897 PUSH1 0xE5 SHL EQ JUMPDEST DUP1 PUSH2 0x913 JUMPI POP PUSH4 0x1FFC9A7 PUSH1 0xE0 SHL PUSH1 0x1 PUSH1 0x1 PUSH1 0xE0 SHL SUB NOT DUP4 AND EQ JUMPDEST SWAP3 SWAP2 POP POP JUMP JUMPDEST PUSH2 0x921 PUSH2 0x13AC JUMP JUMPDEST PUSH2 0x92A DUP2 PUSH2 0x13E3 JUMP JUMPDEST POP JUMP JUMPDEST PUSH1 0x60 PUSH1 0x3 DUP1 SLOAD PUSH2 0x93C SWAP1 PUSH2 0x31E2 JUMP JUMPDEST DUP1 PUSH1 0x1F ADD PUSH1 0x20 DUP1 SWAP2 DIV MUL PUSH1 0x20 ADD PUSH1 0x40 MLOAD SWAP1 DUP2 ADD PUSH1 0x40 MSTORE DUP1 SWAP3 SWAP2 SWAP1 DUP2 DUP2 MSTORE PUSH1 0x20 ADD DUP3 DUP1 SLOAD PUSH2 0x968 SWAP1 PUSH2 0x31E2 JUMP JUMPDEST DUP1 ISZERO PUSH2 0x9B3 JUMPI DUP1 PUSH1 0x1F LT PUSH2 0x98A JUMPI PUSH2 0x100 DUP1 DUP4 SLOAD DIV MUL DUP4 MSTORE SWAP2 PUSH1 0x20 ADD SWAP2 PUSH2 0x9B3 JUMP JUMPDEST DUP3 ADD SWAP2 SWAP1 PUSH0 MSTORE PUSH1 0x20 PUSH0 KECCAK256 SWAP1 JUMPDEST DUP2 SLOAD DUP2 MSTORE SWAP1 PUSH1 0x1 ADD SWAP1 PUSH1 0x20 ADD DUP1 DUP4 GT PUSH2 0x996 JUMPI DUP3 SWAP1 SUB PUSH1 0x1F AND DUP3 ADD SWAP2 JUMPDEST POP POP POP POP POP SWAP1 POP SWAP1 JUMP JUMPDEST PUSH0 DUP1 PUSH2 0x9CB DUP7 DUP7 DUP7 DUP7 PUSH2 0x1343 JUMP JUMPDEST SWAP1 POP PUSH2 0x9E0 DUP2 PUSH2 0x9DB PUSH1 0x4 PUSH2 0x1478 JUMP JUMPDEST PUSH2 0x149A JUMP JUMPDEST POP PUSH0 PUSH1 0x40 MLOAD PUSH4 0x48442523 PUSH1 0xE1 SHL DUP2 MSTORE PUSH1 0x4 ADD PUSH1 0x40 MLOAD DUP1 SWAP2 SUB SWAP1 REVERT JUMPDEST PUSH0 DUP1 PUSH2 0xA09 DUP7 DUP7 DUP7 DUP7 PUSH2 0x1343 JUMP JUMPDEST SWAP1 POP PUSH2 0xA29 DUP2 PUSH2 0xA19 PUSH1 0x5 PUSH2 0x1478 JUMP JUMPDEST PUSH2 0xA23 PUSH1 0x4 PUSH2 0x1478 JUMP JUMPDEST OR PUSH2 0x149A JUMP JUMPDEST POP PUSH0 DUP2 DUP2 MSTORE PUSH1 0x4 PUSH1 0x20 MSTORE PUSH1 0x40 SWAP1 KECCAK256 DUP1 SLOAD PUSH1 0xFF PUSH1 0xF0 SHL NOT AND PUSH1 0x1 PUSH1 0xF0 SHL OR SWAP1 SSTORE ADDRESS PUSH2 0xA50 ADDRESS SWAP1 JUMP JUMPDEST PUSH1 0x1 PUSH1 0x1 PUSH1 0xA0 SHL SUB AND EQ PUSH2 0xAD9 JUMPI PUSH0 JUMPDEST DUP7 MLOAD DUP2 LT ISZERO PUSH2 0xAD7 JUMPI ADDRESS PUSH1 0x1 PUSH1 0x1 PUSH1 0xA0 SHL SUB AND DUP8 DUP3 DUP2 MLOAD DUP2 LT PUSH2 0xA85 JUMPI PUSH2 0xA85 PUSH2 0x321A JUMP JUMPDEST PUSH1 0x20 MUL PUSH1 0x20 ADD ADD MLOAD PUSH1 0x1 PUSH1 0x1 PUSH1 0xA0 SHL SUB AND SUB PUSH2 0xACF JUMPI PUSH2 0xACF DUP6 DUP3 DUP2 MLOAD DUP2 LT PUSH2 0xAB0 JUMPI PUSH2 0xAB0 PUSH2 0x321A JUMP JUMPDEST PUSH1 0x20 MUL PUSH1 0x20 ADD ADD MLOAD DUP1 MLOAD SWAP1 PUSH1 0x20 ADD KECCAK256 PUSH1 0x5 PUSH2 0x14D7 SWAP1 SWAP2 SWAP1 PUSH4 0xFFFFFFFF AND JUMP JUMPDEST PUSH1 0x1 ADD PUSH2 0xA60 JUMP JUMPDEST POP JUMPDEST PUSH2 0xAE6 DUP2 DUP8 DUP8 DUP8 DUP8 PUSH2 0x1547 JUMP JUMPDEST PUSH1 0x40 MLOAD DUP2 DUP2 MSTORE PUSH32 0x712AE1383F79AC853F8D882153778E0260EF8F03B504E2866E0593E04D2B291F SWAP1 PUSH1 0x20 ADD JUMPDEST PUSH1 0x40 MLOAD DUP1 SWAP2 SUB SWAP1 LOG1 SWAP6 SWAP5 POP POP POP POP POP JUMP JUMPDEST PUSH0 SWAP1 DUP2 MSTORE PUSH1 0x4 PUSH1 0x20 MSTORE PUSH1 0x40 SWAP1 KECCAK256 SLOAD PUSH1 0x1 PUSH1 0xA0 SHL SWAP1 DIV PUSH6 0xFFFFFFFFFFFF AND SWAP1 JUMP JUMPDEST PUSH0 DUP2 DUP2 MSTORE PUSH1 0x4 PUSH1 0x20 MSTORE PUSH1 0x40 DUP2 KECCAK256 DUP1 SLOAD PUSH1 0xFF PUSH1 0x1 PUSH1 0xF0 SHL DUP3 DIV DUP2 AND SWAP2 PUSH1 0x1 PUSH1 0xF8 SHL SWAP1 DIV AND DUP2 ISZERO PUSH2 0xB77 JUMPI POP PUSH1 0x7 SWAP5 SWAP4 POP POP POP POP JUMP JUMPDEST DUP1 ISZERO PUSH2 0xB88 JUMPI POP PUSH1 0x2 SWAP5 SWAP4 POP POP POP POP JUMP JUMPDEST PUSH0 PUSH2 0xB92 DUP7 PUSH2 0xB23 JUMP JUMPDEST SWAP1 POP DUP1 PUSH0 SUB PUSH2 0xBBC JUMPI PUSH1 0x40 MLOAD PUSH4 0x6AD06075 PUSH1 0xE0 SHL DUP2 MSTORE PUSH1 0x4 DUP2 ADD DUP8 SWAP1 MSTORE PUSH1 0x24 ADD JUMPDEST PUSH1 0x40 MLOAD DUP1 SWAP2 SUB SWAP1 REVERT JUMPDEST PUSH0 PUSH2 0xBC5 PUSH2 0x11D4 JUMP JUMPDEST PUSH6 0xFFFFFFFFFFFF AND SWAP1 POP DUP1 DUP3 LT PUSH2 0xBE2 JUMPI POP PUSH0 SWAP7 SWAP6 POP POP POP POP POP POP JUMP JUMPDEST PUSH0 PUSH2 0xBEC DUP9 PUSH2 0x1285 JUMP JUMPDEST SWAP1 POP DUP2 DUP2 LT PUSH2 0xC03 JUMPI POP PUSH1 0x1 SWAP8 SWAP7 POP POP POP POP POP POP POP JUMP JUMPDEST PUSH2 0xC0C DUP9 PUSH2 0x161C JUMP JUMPDEST ISZERO DUP1 PUSH2 0xC2B JUMPI POP PUSH0 DUP9 DUP2 MSTORE PUSH1 0x7 PUSH1 0x20 MSTORE PUSH1 0x40 SWAP1 KECCAK256 DUP1 SLOAD PUSH1 0x1 SWAP1 SWAP2 ADD SLOAD GT ISZERO JUMPDEST ISZERO PUSH2 0xC3E JUMPI POP PUSH1 0x3 SWAP8 SWAP7 POP POP POP POP POP POP POP JUMP JUMPDEST PUSH0 DUP9 DUP2 MSTORE PUSH1 0x4 PUSH1 0x20 MSTORE PUSH1 0x40 SWAP1 KECCAK256 PUSH1 0x1 ADD SLOAD PUSH6 0xFFFFFFFFFFFF AND PUSH0 SUB PUSH2 0xC6B JUMPI POP PUSH1 0x4 SWAP8 SWAP7 POP POP POP POP POP POP POP JUMP JUMPDEST POP PUSH1 0x5 SWAP8 SWAP7 POP POP POP POP POP POP POP JUMP JUMPDEST PUSH0 DUP1 PUSH2 0xC87 DUP7 DUP7 DUP7 DUP7 PUSH2 0x1343 JUMP JUMPDEST SWAP1 POP PUSH2 0xC96 DUP2 PUSH2 0x9DB PUSH0 PUSH2 0x1478 JUMP JUMPDEST POP PUSH0 DUP2 DUP2 MSTORE PUSH1 0x4 PUSH1 0x20 MSTORE PUSH1 0x40 SWAP1 KECCAK256 SLOAD PUSH1 0x1 PUSH1 0x1 PUSH1 0xA0 SHL SUB AND CALLER EQ PUSH2 0xCCF JUMPI PUSH1 0x40 MLOAD PUSH4 0x233D98E3 PUSH1 0xE0 SHL DUP2 MSTORE CALLER PUSH1 0x4 DUP3 ADD MSTORE PUSH1 0x24 ADD PUSH2 0xBB3 JUMP JUMPDEST PUSH2 0xCDB DUP7 DUP7 DUP7 DUP7 PUSH2 0x1652 JUMP JUMPDEST SWAP7 SWAP6 POP POP POP POP POP POP JUMP JUMPDEST PUSH1 0x60 PUSH32 0x0 PUSH1 0x1 PUSH1 0x1 PUSH1 0xA0 SHL SUB AND PUSH4 0x4BF5D7E9 PUSH1 0x40 MLOAD DUP2 PUSH4 0xFFFFFFFF AND PUSH1 0xE0 SHL DUP2 MSTORE PUSH1 0x4 ADD PUSH0 PUSH1 0x40 MLOAD DUP1 DUP4 SUB DUP2 DUP7 GAS STATICCALL SWAP3 POP POP POP DUP1 ISZERO PUSH2 0xD64 JUMPI POP PUSH1 0x40 MLOAD RETURNDATASIZE PUSH0 DUP3 RETURNDATACOPY PUSH1 0x1F RETURNDATASIZE SWAP1 DUP2 ADD PUSH1 0x1F NOT AND DUP3 ADD PUSH1 0x40 MSTORE PUSH2 0xD61 SWAP2 SWAP1 DUP2 ADD SWAP1 PUSH2 0x322E JUMP JUMPDEST PUSH1 0x1 JUMPDEST PUSH2 0xDA0 JUMPI POP PUSH1 0x40 DUP1 MLOAD DUP1 DUP3 ADD SWAP1 SWAP2 MSTORE PUSH1 0x1D DUP2 MSTORE PUSH32 0x6D6F64653D626C6F636B6E756D6265722666726F6D3D64656661756C74000000 PUSH1 0x20 DUP3 ADD MSTORE SWAP1 JUMP JUMPDEST SWAP2 SWAP1 POP JUMP JUMPDEST PUSH0 DUP1 CALLER SWAP1 POP PUSH2 0xDC4 DUP5 DUP3 DUP6 PUSH1 0x40 MLOAD DUP1 PUSH1 0x20 ADD PUSH1 0x40 MSTORE DUP1 PUSH0 DUP2 MSTORE POP PUSH2 0x1701 JUMP JUMPDEST SWAP5 SWAP4 POP POP POP POP JUMP JUMPDEST PUSH0 DUP1 PUSH2 0xEAD DUP8 PUSH2 0xEA7 PUSH32 0x3E83946653575F9A39005E1545185629E92736B7528AB20CA3816F315424A811 DUP13 DUP13 DUP13 PUSH2 0xE1F DUP15 PUSH1 0x1 PUSH1 0x1 PUSH1 0xA0 SHL SUB AND PUSH0 SWAP1 DUP2 MSTORE PUSH1 0x2 PUSH1 0x20 MSTORE PUSH1 0x40 SWAP1 KECCAK256 DUP1 SLOAD PUSH1 0x1 DUP2 ADD SWAP1 SWAP2 SSTORE SWAP1 JUMP JUMPDEST DUP14 DUP14 PUSH1 0x40 MLOAD PUSH2 0xE2F SWAP3 SWAP2 SWAP1 PUSH2 0x32A2 JUMP JUMPDEST PUSH1 0x40 MLOAD DUP1 SWAP2 SUB SWAP1 KECCAK256 DUP13 DUP1 MLOAD SWAP1 PUSH1 0x20 ADD KECCAK256 PUSH1 0x40 MLOAD PUSH1 0x20 ADD PUSH2 0xE8C SWAP8 SWAP7 SWAP6 SWAP5 SWAP4 SWAP3 SWAP2 SWAP1 SWAP7 DUP8 MSTORE PUSH1 0x20 DUP8 ADD SWAP6 SWAP1 SWAP6 MSTORE PUSH1 0xFF SWAP4 SWAP1 SWAP4 AND PUSH1 0x40 DUP7 ADD MSTORE PUSH1 0x1 PUSH1 0x1 PUSH1 0xA0 SHL SUB SWAP2 SWAP1 SWAP2 AND PUSH1 0x60 DUP6 ADD MSTORE PUSH1 0x80 DUP5 ADD MSTORE PUSH1 0xA0 DUP4 ADD MSTORE PUSH1 0xC0 DUP3 ADD MSTORE PUSH1 0xE0 ADD SWAP1 JUMP JUMPDEST PUSH1 0x40 MLOAD PUSH1 0x20 DUP2 DUP4 SUB SUB DUP2 MSTORE SWAP1 PUSH1 0x40 MSTORE DUP1 MLOAD SWAP1 PUSH1 0x20 ADD KECCAK256 PUSH2 0x172B JUMP JUMPDEST DUP6 PUSH2 0x1757 JUMP JUMPDEST SWAP1 POP DUP1 PUSH2 0xED8 JUMPI PUSH1 0x40 MLOAD PUSH4 0x94AB6C07 PUSH1 0xE0 SHL DUP2 MSTORE PUSH1 0x1 PUSH1 0x1 PUSH1 0xA0 SHL SUB DUP9 AND PUSH1 0x4 DUP3 ADD MSTORE PUSH1 0x24 ADD PUSH2 0xBB3 JUMP JUMPDEST PUSH2 0xF1B DUP10 DUP9 DUP11 DUP10 DUP10 DUP1 DUP1 PUSH1 0x1F ADD PUSH1 0x20 DUP1 SWAP2 DIV MUL PUSH1 0x20 ADD PUSH1 0x40 MLOAD SWAP1 DUP2 ADD PUSH1 0x40 MSTORE DUP1 SWAP4 SWAP3 SWAP2 SWAP1 DUP2 DUP2 MSTORE PUSH1 0x20 ADD DUP4 DUP4 DUP1 DUP3 DUP5 CALLDATACOPY PUSH0 SWAP3 ADD SWAP2 SWAP1 SWAP2 MSTORE POP DUP12 SWAP3 POP PUSH2 0x17AC SWAP2 POP POP JUMP JUMPDEST SWAP10 SWAP9 POP POP POP POP POP POP POP POP POP JUMP JUMPDEST PUSH0 DUP1 CALLER SWAP1 POP PUSH2 0xF70 DUP8 DUP3 DUP9 DUP9 DUP9 DUP1 DUP1 PUSH1 0x1F ADD PUSH1 0x20 DUP1 SWAP2 DIV MUL PUSH1 0x20 ADD PUSH1 0x40 MLOAD SWAP1 DUP2 ADD PUSH1 0x40 MSTORE DUP1 SWAP4 SWAP3 SWAP2 SWAP1 DUP2 DUP2 MSTORE PUSH1 0x20 ADD DUP4 DUP4 DUP1 DUP3 DUP5 CALLDATACOPY PUSH0 SWAP3 ADD SWAP2 SWAP1 SWAP2 MSTORE POP DUP11 SWAP3 POP PUSH2 0x17AC SWAP2 POP POP JUMP JUMPDEST SWAP8 SWAP7 POP POP POP POP POP POP POP JUMP JUMPDEST PUSH1 0x8 DUP1 SLOAD PUSH0 SWAP2 DUP3 SWAP1 PUSH2 0xF8E PUSH1 0x1 DUP5 PUSH2 0x32C5 JUMP JUMPDEST DUP2 SLOAD DUP2 LT PUSH2 0xF9E JUMPI PUSH2 0xF9E PUSH2 0x321A JUMP JUMPDEST PUSH0 SWAP2 DUP3 MSTORE PUSH1 0x20 SWAP1 SWAP2 KECCAK256 ADD DUP1 SLOAD SWAP1 SWAP2 POP PUSH6 0xFFFFFFFFFFFF DUP2 AND SWAP1 PUSH1 0x1 PUSH1 0x30 SHL SWAP1 DIV PUSH1 0x1 PUSH1 0x1 PUSH1 0xD0 SHL SUB AND DUP6 DUP3 GT PUSH2 0xFE0 JUMPI PUSH1 0x1 PUSH1 0x1 PUSH1 0xD0 SHL SUB AND SWAP6 SWAP5 POP POP POP POP POP JUMP JUMPDEST PUSH2 0xFF4 PUSH2 0xFEC DUP8 PUSH2 0x1886 JUMP JUMPDEST PUSH1 0x8 SWAP1 PUSH2 0x18BC JUMP JUMPDEST PUSH1 0x1 PUSH1 0x1 PUSH1 0xD0 SHL SUB AND SWAP7 SWAP6 POP POP POP POP POP POP JUMP JUMPDEST PUSH0 DUP1 CALLER SWAP1 POP PUSH2 0xCDB DUP7 DUP3 DUP8 DUP8 DUP8 DUP1 DUP1 PUSH1 0x1F ADD PUSH1 0x20 DUP1 SWAP2 DIV MUL PUSH1 0x20 ADD PUSH1 0x40 MLOAD SWAP1 DUP2 ADD PUSH1 0x40 MSTORE DUP1 SWAP4 SWAP3 SWAP2 SWAP1 DUP2 DUP2 MSTORE PUSH1 0x20 ADD DUP4 DUP4 DUP1 DUP3 DUP5 CALLDATACOPY PUSH0 SWAP3 ADD SWAP2 SWAP1 SWAP2 MSTORE POP PUSH2 0x1701 SWAP3 POP POP POP JUMP JUMPDEST PUSH0 CALLER PUSH2 0x1059 DUP2 DUP5 PUSH2 0x196B JUMP JUMPDEST PUSH2 0x1081 JUMPI PUSH1 0x40 MLOAD PUSH4 0xD9B39557 PUSH1 0xE0 SHL DUP2 MSTORE PUSH1 0x1 PUSH1 0x1 PUSH1 0xA0 SHL SUB DUP3 AND PUSH1 0x4 DUP3 ADD MSTORE PUSH1 0x24 ADD PUSH2 0xBB3 JUMP JUMPDEST PUSH0 PUSH2 0x10A7 DUP3 PUSH1 0x1 PUSH2 0x1090 PUSH2 0x11D4 JUMP JUMPDEST PUSH2 0x109A SWAP2 SWAP1 PUSH2 0x32D8 JUMP JUMPDEST PUSH6 0xFFFFFFFFFFFF AND PUSH2 0x137C JUMP JUMPDEST SWAP1 POP PUSH0 PUSH2 0x10B7 DUP9 DUP9 DUP9 DUP9 DUP8 PUSH2 0x1A53 JUMP JUMPDEST SWAP9 SWAP8 POP POP POP POP POP POP POP POP JUMP JUMPDEST PUSH0 PUSH1 0x60 DUP1 PUSH0 DUP1 PUSH0 PUSH1 0x60 PUSH2 0x10D4 PUSH2 0x1C53 JUMP JUMPDEST PUSH2 0x10DC PUSH2 0x1C7F JUMP JUMPDEST PUSH1 0x40 DUP1 MLOAD PUSH0 DUP1 DUP3 MSTORE PUSH1 0x20 DUP3 ADD SWAP1 SWAP3 MSTORE PUSH1 0xF PUSH1 0xF8 SHL SWAP12 SWAP4 SWAP11 POP SWAP2 SWAP9 POP CHAINID SWAP8 POP ADDRESS SWAP7 POP SWAP5 POP SWAP3 POP SWAP1 POP JUMP JUMPDEST PUSH0 DUP1 PUSH2 0x118F DUP5 PUSH2 0xEA7 PUSH32 0xF2AAD550CF55F045CB27E9C559F9889FDFB6E6CDAA032301D6EA397784AE51D7 DUP10 DUP10 DUP10 PUSH2 0x1158 DUP12 PUSH1 0x1 PUSH1 0x1 PUSH1 0xA0 SHL SUB AND PUSH0 SWAP1 DUP2 MSTORE PUSH1 0x2 PUSH1 0x20 MSTORE PUSH1 0x40 SWAP1 KECCAK256 DUP1 SLOAD PUSH1 0x1 DUP2 ADD SWAP1 SWAP2 SSTORE SWAP1 JUMP JUMPDEST PUSH1 0x40 DUP1 MLOAD PUSH1 0x20 DUP2 ADD SWAP7 SWAP1 SWAP7 MSTORE DUP6 ADD SWAP4 SWAP1 SWAP4 MSTORE PUSH1 0xFF SWAP1 SWAP2 AND PUSH1 0x60 DUP5 ADD MSTORE PUSH1 0x1 PUSH1 0x1 PUSH1 0xA0 SHL SUB AND PUSH1 0x80 DUP4 ADD MSTORE PUSH1 0xA0 DUP3 ADD MSTORE PUSH1 0xC0 ADD PUSH2 0xE8C JUMP JUMPDEST SWAP1 POP DUP1 PUSH2 0x11BA JUMPI PUSH1 0x40 MLOAD PUSH4 0x94AB6C07 PUSH1 0xE0 SHL DUP2 MSTORE PUSH1 0x1 PUSH1 0x1 PUSH1 0xA0 SHL SUB DUP6 AND PUSH1 0x4 DUP3 ADD MSTORE PUSH1 0x24 ADD PUSH2 0xBB3 JUMP JUMPDEST PUSH2 0xCDB DUP7 DUP6 DUP8 PUSH1 0x40 MLOAD DUP1 PUSH1 0x20 ADD PUSH1 0x40 MSTORE DUP1 PUSH0 DUP2 MSTORE POP PUSH2 0x1701 JUMP JUMPDEST PUSH0 PUSH32 0x0 PUSH1 0x1 PUSH1 0x1 PUSH1 0xA0 SHL SUB AND PUSH4 0x91DDADF4 PUSH1 0x40 MLOAD DUP2 PUSH4 0xFFFFFFFF AND PUSH1 0xE0 SHL DUP2 MSTORE PUSH1 0x4 ADD PUSH1 0x20 PUSH1 0x40 MLOAD DUP1 DUP4 SUB DUP2 DUP7 GAS STATICCALL SWAP3 POP POP POP DUP1 ISZERO PUSH2 0x124F JUMPI POP PUSH1 0x40 DUP1 MLOAD PUSH1 0x1F RETURNDATASIZE SWAP1 DUP2 ADD PUSH1 0x1F NOT AND DUP3 ADD SWAP1 SWAP3 MSTORE PUSH2 0x124C SWAP2 DUP2 ADD SWAP1 PUSH2 0x32FE JUMP JUMPDEST PUSH1 0x1 JUMPDEST PUSH2 0xDA0 JUMPI PUSH2 0x125B PUSH2 0x1CAC JUMP JUMPDEST SWAP1 POP SWAP1 JUMP JUMPDEST PUSH0 PUSH2 0xDC4 DUP5 DUP5 DUP5 PUSH2 0x1CB6 JUMP JUMPDEST PUSH0 PUSH2 0x1277 PUSH1 0x8 PUSH2 0x1D49 JUMP JUMPDEST PUSH1 0x1 PUSH1 0x1 PUSH1 0xD0 SHL SUB AND SWAP1 POP SWAP1 JUMP JUMPDEST PUSH0 DUP2 DUP2 MSTORE PUSH1 0x4 PUSH1 0x20 MSTORE PUSH1 0x40 DUP2 KECCAK256 SLOAD PUSH2 0x12B9 SWAP1 PUSH1 0x1 PUSH1 0xD0 SHL DUP2 DIV PUSH4 0xFFFFFFFF AND SWAP1 PUSH1 0x1 PUSH1 0xA0 SHL SWAP1 DIV PUSH6 0xFFFFFFFFFFFF AND PUSH2 0x3323 JUMP JUMPDEST PUSH6 0xFFFFFFFFFFFF AND SWAP3 SWAP2 POP POP JUMP JUMPDEST PUSH2 0x12CF PUSH2 0x13AC JUMP JUMPDEST PUSH0 DUP1 DUP6 PUSH1 0x1 PUSH1 0x1 PUSH1 0xA0 SHL SUB AND DUP6 DUP6 DUP6 PUSH1 0x40 MLOAD PUSH2 0x12EC SWAP3 SWAP2 SWAP1 PUSH2 0x32A2 JUMP JUMPDEST PUSH0 PUSH1 0x40 MLOAD DUP1 DUP4 SUB DUP2 DUP6 DUP8 GAS CALL SWAP3 POP POP POP RETURNDATASIZE DUP1 PUSH0 DUP2 EQ PUSH2 0x1326 JUMPI PUSH1 0x40 MLOAD SWAP2 POP PUSH1 0x1F NOT PUSH1 0x3F RETURNDATASIZE ADD AND DUP3 ADD PUSH1 0x40 MSTORE RETURNDATASIZE DUP3 MSTORE RETURNDATASIZE PUSH0 PUSH1 0x20 DUP5 ADD RETURNDATACOPY PUSH2 0x132B JUMP JUMPDEST PUSH1 0x60 SWAP2 POP JUMPDEST POP SWAP2 POP SWAP2 POP PUSH2 0x133A DUP3 DUP3 PUSH2 0x1D80 JUMP JUMPDEST POP POP POP POP POP POP POP JUMP JUMPDEST PUSH0 DUP5 DUP5 DUP5 DUP5 PUSH1 0x40 MLOAD PUSH1 0x20 ADD PUSH2 0x135B SWAP5 SWAP4 SWAP3 SWAP2 SWAP1 PUSH2 0x33D2 JUMP JUMPDEST PUSH1 0x40 DUP1 MLOAD PUSH1 0x1F NOT DUP2 DUP5 SUB ADD DUP2 MSTORE SWAP2 SWAP1 MSTORE DUP1 MLOAD PUSH1 0x20 SWAP1 SWAP2 ADD KECCAK256 SWAP6 SWAP5 POP POP POP POP POP JUMP JUMPDEST PUSH0 PUSH2 0x139B DUP4 DUP4 PUSH2 0x1396 PUSH1 0x40 DUP1 MLOAD PUSH1 0x20 DUP2 ADD SWAP1 SWAP2 MSTORE PUSH0 DUP2 MSTORE SWAP1 JUMP JUMPDEST PUSH2 0x1CB6 JUMP JUMPDEST SWAP4 SWAP3 POP POP POP JUMP JUMPDEST PUSH0 PUSH2 0x913 DUP3 PUSH2 0x1D9C JUMP JUMPDEST ADDRESS CALLER EQ PUSH2 0x13CE JUMPI PUSH1 0x40 MLOAD PUSH4 0x47096E47 PUSH1 0xE0 SHL DUP2 MSTORE CALLER PUSH1 0x4 DUP3 ADD MSTORE PUSH1 0x24 ADD PUSH2 0xBB3 JUMP JUMPDEST JUMP JUMPDEST DUP1 PUSH2 0x13DB PUSH1 0x5 PUSH2 0x1E43 JUMP JUMPDEST SUB PUSH2 0x13D0 JUMPI POP JUMP JUMPDEST PUSH1 0x64 DUP1 DUP3 GT ISZERO PUSH2 0x1410 JUMPI PUSH1 0x40 MLOAD PUSH4 0x243E5445 PUSH1 0xE0 SHL DUP2 MSTORE PUSH1 0x4 DUP2 ADD DUP4 SWAP1 MSTORE PUSH1 0x24 DUP2 ADD DUP3 SWAP1 MSTORE PUSH1 0x44 ADD PUSH2 0xBB3 JUMP JUMPDEST PUSH0 PUSH2 0x1419 PUSH2 0x126C JUMP JUMPDEST SWAP1 POP PUSH2 0x1438 PUSH2 0x1426 PUSH2 0x11D4 JUMP JUMPDEST PUSH2 0x142F DUP6 PUSH2 0x1EBF JUMP JUMPDEST PUSH1 0x8 SWAP2 SWAP1 PUSH2 0x1EF2 JUMP JUMPDEST POP POP PUSH1 0x40 DUP1 MLOAD DUP3 DUP2 MSTORE PUSH1 0x20 DUP2 ADD DUP6 SWAP1 MSTORE PUSH32 0x553476BF02EF2726E8CE5CED78D63E26E602E4A2257B1F559418E24B4633997 SWAP2 ADD PUSH1 0x40 MLOAD DUP1 SWAP2 SUB SWAP1 LOG1 POP POP POP JUMP JUMPDEST PUSH0 DUP2 PUSH1 0x7 DUP2 GT ISZERO PUSH2 0x148B JUMPI PUSH2 0x148B PUSH2 0x2C28 JUMP JUMPDEST PUSH1 0x1 PUSH1 0xFF SWAP2 SWAP1 SWAP2 AND SHL SWAP3 SWAP2 POP POP JUMP JUMPDEST PUSH0 DUP1 PUSH2 0x14A5 DUP5 PUSH2 0xB43 JUMP JUMPDEST SWAP1 POP PUSH0 DUP4 PUSH2 0x14B2 DUP4 PUSH2 0x1478 JUMP JUMPDEST AND SUB PUSH2 0x139B JUMPI DUP4 DUP2 DUP5 PUSH1 0x40 MLOAD PUSH4 0x31B75E4D PUSH1 0xE0 SHL DUP2 MSTORE PUSH1 0x4 ADD PUSH2 0xBB3 SWAP4 SWAP3 SWAP2 SWAP1 PUSH2 0x341C JUMP JUMPDEST DUP2 SLOAD PUSH1 0x1 PUSH1 0x1 PUSH1 0x80 SHL SUB PUSH1 0x1 PUSH1 0x80 SHL DUP3 DIV DUP2 AND SWAP2 DUP2 AND PUSH1 0x1 DUP4 ADD SWAP1 SWAP2 AND SUB PUSH2 0x1512 JUMPI PUSH1 0x40 MLOAD PUSH4 0x8ACB5F27 PUSH1 0xE0 SHL DUP2 MSTORE PUSH1 0x4 ADD PUSH1 0x40 MLOAD DUP1 SWAP2 SUB SWAP1 REVERT JUMPDEST PUSH1 0x1 PUSH1 0x1 PUSH1 0x80 SHL SUB DUP1 DUP3 AND PUSH0 SWAP1 DUP2 MSTORE PUSH1 0x1 DUP1 DUP7 ADD PUSH1 0x20 MSTORE PUSH1 0x40 SWAP1 SWAP2 KECCAK256 SWAP4 SWAP1 SWAP4 SSTORE DUP4 SLOAD SWAP2 SWAP1 SWAP3 ADD DUP3 AND PUSH1 0x1 PUSH1 0x80 SHL MUL SWAP2 AND OR SWAP1 SSTORE JUMP JUMPDEST PUSH0 JUMPDEST DUP5 MLOAD DUP2 LT ISZERO PUSH2 0x1614 JUMPI PUSH0 DUP1 DUP7 DUP4 DUP2 MLOAD DUP2 LT PUSH2 0x1566 JUMPI PUSH2 0x1566 PUSH2 0x321A JUMP JUMPDEST PUSH1 0x20 MUL PUSH1 0x20 ADD ADD MLOAD PUSH1 0x1 PUSH1 0x1 PUSH1 0xA0 SHL SUB AND DUP7 DUP5 DUP2 MLOAD DUP2 LT PUSH2 0x1589 JUMPI PUSH2 0x1589 PUSH2 0x321A JUMP JUMPDEST PUSH1 0x20 MUL PUSH1 0x20 ADD ADD MLOAD DUP7 DUP6 DUP2 MLOAD DUP2 LT PUSH2 0x15A3 JUMPI PUSH2 0x15A3 PUSH2 0x321A JUMP JUMPDEST PUSH1 0x20 MUL PUSH1 0x20 ADD ADD MLOAD PUSH1 0x40 MLOAD PUSH2 0x15B8 SWAP2 SWAP1 PUSH2 0x343E JUMP JUMPDEST PUSH0 PUSH1 0x40 MLOAD DUP1 DUP4 SUB DUP2 DUP6 DUP8 GAS CALL SWAP3 POP POP POP RETURNDATASIZE DUP1 PUSH0 DUP2 EQ PUSH2 0x15F2 JUMPI PUSH1 0x40 MLOAD SWAP2 POP PUSH1 0x1F NOT PUSH1 0x3F RETURNDATASIZE ADD AND DUP3 ADD PUSH1 0x40 MSTORE RETURNDATASIZE DUP3 MSTORE RETURNDATASIZE PUSH0 PUSH1 0x20 DUP5 ADD RETURNDATACOPY PUSH2 0x15F7 JUMP JUMPDEST PUSH1 0x60 SWAP2 POP JUMPDEST POP SWAP2 POP SWAP2 POP PUSH2 0x1606 DUP3 DUP3 PUSH2 0x1D80 JUMP JUMPDEST POP POP POP DUP1 PUSH1 0x1 ADD SWAP1 POP PUSH2 0x1549 JUMP JUMPDEST POP POP POP POP POP POP JUMP JUMPDEST PUSH0 DUP2 DUP2 MSTORE PUSH1 0x7 PUSH1 0x20 MSTORE PUSH1 0x40 DUP2 KECCAK256 PUSH1 0x2 DUP2 ADD SLOAD PUSH1 0x1 DUP3 ADD SLOAD PUSH2 0x163D SWAP2 SWAP1 PUSH2 0x3454 JUMP JUMPDEST PUSH2 0x1649 PUSH2 0x891 DUP6 PUSH2 0xB23 JUMP JUMPDEST GT ISZERO SWAP4 SWAP3 POP POP POP JUMP JUMPDEST PUSH0 DUP1 PUSH2 0x1660 DUP7 DUP7 DUP7 DUP7 PUSH2 0x1343 JUMP JUMPDEST SWAP1 POP PUSH2 0x16AE DUP2 PUSH2 0x1670 PUSH1 0x7 PUSH2 0x1478 JUMP JUMPDEST PUSH2 0x167A PUSH1 0x6 PUSH2 0x1478 JUMP JUMPDEST PUSH2 0x1684 PUSH1 0x2 PUSH2 0x1478 JUMP JUMPDEST PUSH1 0x1 PUSH2 0x1691 PUSH1 0x7 DUP3 PUSH2 0x3467 JUMP JUMPDEST PUSH2 0x169C SWAP1 PUSH1 0x2 PUSH2 0x3560 JUMP JUMPDEST PUSH2 0x16A6 SWAP2 SWAP1 PUSH2 0x32C5 JUMP JUMPDEST XOR XOR XOR PUSH2 0x149A JUMP JUMPDEST POP PUSH0 DUP2 DUP2 MSTORE PUSH1 0x4 PUSH1 0x20 MSTORE PUSH1 0x40 SWAP1 DUP2 SWAP1 KECCAK256 DUP1 SLOAD PUSH1 0x1 PUSH1 0x1 PUSH1 0xF8 SHL SUB AND PUSH1 0x1 PUSH1 0xF8 SHL OR SWAP1 SSTORE MLOAD PUSH32 0x789CF55BE980739DAD1D0699B93B58E806B51C9D96619BFA8FE0A28ABAA7B30C SWAP1 PUSH2 0xB12 SWAP1 DUP4 DUP2 MSTORE PUSH1 0x20 ADD SWAP1 JUMP JUMPDEST PUSH0 PUSH2 0x1722 DUP6 DUP6 DUP6 DUP6 PUSH2 0x171D PUSH1 0x40 DUP1 MLOAD PUSH1 0x20 DUP2 ADD SWAP1 SWAP2 MSTORE PUSH0 DUP2 MSTORE SWAP1 JUMP JUMPDEST PUSH2 0x17AC JUMP JUMPDEST SWAP6 SWAP5 POP POP POP POP POP JUMP JUMPDEST PUSH0 PUSH2 0x913 PUSH2 0x1737 PUSH2 0x1F0C JUMP JUMPDEST DUP4 PUSH1 0x40 MLOAD PUSH2 0x1901 PUSH1 0xF0 SHL DUP2 MSTORE PUSH1 0x2 DUP2 ADD SWAP3 SWAP1 SWAP3 MSTORE PUSH1 0x22 DUP3 ADD MSTORE PUSH1 0x42 SWAP1 KECCAK256 SWAP1 JUMP JUMPDEST PUSH0 DUP1 PUSH0 PUSH2 0x1764 DUP6 DUP6 PUSH2 0x2035 JUMP JUMPDEST POP SWAP1 SWAP3 POP SWAP1 POP PUSH0 DUP2 PUSH1 0x3 DUP2 GT ISZERO PUSH2 0x177D JUMPI PUSH2 0x177D PUSH2 0x2C28 JUMP JUMPDEST EQ DUP1 ISZERO PUSH2 0x179B JUMPI POP DUP6 PUSH1 0x1 PUSH1 0x1 PUSH1 0xA0 SHL SUB AND DUP3 PUSH1 0x1 PUSH1 0x1 PUSH1 0xA0 SHL SUB AND EQ JUMPDEST DUP1 PUSH2 0xCDB JUMPI POP PUSH2 0xCDB DUP7 DUP7 DUP7 PUSH2 0x207E JUMP JUMPDEST PUSH0 PUSH2 0x17BB DUP7 PUSH2 0x9DB PUSH1 0x1 PUSH2 0x1478 JUMP JUMPDEST POP PUSH0 PUSH2 0x17D0 DUP7 PUSH2 0x17CA DUP10 PUSH2 0xB23 JUMP JUMPDEST DUP6 PUSH2 0x1CB6 JUMP JUMPDEST SWAP1 POP PUSH2 0x17DF DUP8 DUP8 DUP8 DUP5 DUP8 PUSH2 0x2154 JUMP JUMPDEST DUP3 MLOAD PUSH0 SUB PUSH2 0x1833 JUMPI DUP6 PUSH1 0x1 PUSH1 0x1 PUSH1 0xA0 SHL SUB AND PUSH32 0xB8E138887D0AA13BAB447E82DE9D5C1777041ECD21CA36BA824FF1E6C07DDDA4 DUP9 DUP8 DUP5 DUP9 PUSH1 0x40 MLOAD PUSH2 0x1826 SWAP5 SWAP4 SWAP3 SWAP2 SWAP1 PUSH2 0x356E JUMP JUMPDEST PUSH1 0x40 MLOAD DUP1 SWAP2 SUB SWAP1 LOG2 PUSH2 0xCDB JUMP JUMPDEST DUP6 PUSH1 0x1 PUSH1 0x1 PUSH1 0xA0 SHL SUB AND PUSH32 0xE2BABFBAC5889A709B63BB7F598B324E08BC5A4FB9EC647FB3CBC9EC07EB8712 DUP9 DUP8 DUP5 DUP9 DUP9 PUSH1 0x40 MLOAD PUSH2 0x1874 SWAP6 SWAP5 SWAP4 SWAP3 SWAP2 SWAP1 PUSH2 0x3595 JUMP JUMPDEST PUSH1 0x40 MLOAD DUP1 SWAP2 SUB SWAP1 LOG2 SWAP7 SWAP6 POP POP POP POP POP POP JUMP JUMPDEST PUSH0 PUSH6 0xFFFFFFFFFFFF DUP3 GT ISZERO PUSH2 0x18B8 JUMPI PUSH1 0x40 MLOAD PUSH4 0x6DFCC65 PUSH1 0xE4 SHL DUP2 MSTORE PUSH1 0x30 PUSH1 0x4 DUP3 ADD MSTORE PUSH1 0x24 DUP2 ADD DUP4 SWAP1 MSTORE PUSH1 0x44 ADD PUSH2 0xBB3 JUMP JUMPDEST POP SWAP1 JUMP JUMPDEST DUP2 SLOAD PUSH0 SWAP1 DUP2 DUP2 PUSH1 0x5 DUP2 GT ISZERO PUSH2 0x1918 JUMPI PUSH0 PUSH2 0x18D5 DUP5 PUSH2 0x2246 JUMP JUMPDEST PUSH2 0x18DF SWAP1 DUP6 PUSH2 0x32C5 JUMP JUMPDEST PUSH0 DUP9 DUP2 MSTORE PUSH1 0x20 SWAP1 KECCAK256 SWAP1 SWAP2 POP DUP2 ADD SLOAD PUSH6 0xFFFFFFFFFFFF SWAP1 DUP2 AND SWAP1 DUP8 AND LT ISZERO PUSH2 0x1908 JUMPI DUP1 SWAP2 POP PUSH2 0x1916 JUMP JUMPDEST PUSH2 0x1913 DUP2 PUSH1 0x1 PUSH2 0x3454 JUMP JUMPDEST SWAP3 POP JUMPDEST POP JUMPDEST PUSH0 PUSH2 0x1925 DUP8 DUP8 DUP6 DUP6 PUSH2 0x232A JUMP JUMPDEST SWAP1 POP DUP1 ISZERO PUSH2 0x195F JUMPI PUSH2 0x1949 DUP8 PUSH2 0x193C PUSH1 0x1 DUP5 PUSH2 0x32C5 JUMP JUMPDEST PUSH0 SWAP2 DUP3 MSTORE PUSH1 0x20 SWAP1 SWAP2 KECCAK256 ADD SWAP1 JUMP JUMPDEST SLOAD PUSH1 0x1 PUSH1 0x30 SHL SWAP1 DIV PUSH1 0x1 PUSH1 0x1 PUSH1 0xD0 SHL SUB AND PUSH2 0xF70 JUMP JUMPDEST PUSH0 SWAP8 SWAP7 POP POP POP POP POP POP POP JUMP JUMPDEST DUP1 MLOAD PUSH0 SWAP1 PUSH1 0x34 DUP2 LT ISZERO PUSH2 0x1982 JUMPI PUSH1 0x1 SWAP2 POP POP PUSH2 0x913 JUMP JUMPDEST DUP3 DUP2 ADD PUSH1 0x13 NOT ADD MLOAD PUSH1 0x1 PUSH1 0x1 PUSH1 0xA0 SHL SUB NOT DUP2 AND PUSH12 0x46E0E4DEE0DEE6CAE47A60F PUSH1 0xA3 SHL EQ PUSH2 0x19B5 JUMPI PUSH1 0x1 SWAP3 POP POP POP PUSH2 0x913 JUMP JUMPDEST PUSH0 DUP1 PUSH2 0x19C2 PUSH1 0x28 DUP6 PUSH2 0x32C5 JUMP JUMPDEST SWAP1 POP JUMPDEST DUP4 DUP2 LT ISZERO PUSH2 0x1A32 JUMPI PUSH0 DUP1 PUSH2 0x19F8 DUP9 DUP5 DUP2 MLOAD DUP2 LT PUSH2 0x19E4 JUMPI PUSH2 0x19E4 PUSH2 0x321A JUMP JUMPDEST ADD PUSH1 0x20 ADD MLOAD PUSH1 0x1 PUSH1 0x1 PUSH1 0xF8 SHL SUB NOT AND PUSH2 0x2389 JUMP JUMPDEST SWAP2 POP SWAP2 POP DUP2 PUSH2 0x1A10 JUMPI PUSH1 0x1 SWAP7 POP POP POP POP POP POP POP PUSH2 0x913 JUMP JUMPDEST DUP1 PUSH1 0xFF AND PUSH1 0x4 DUP6 PUSH1 0x1 PUSH1 0x1 PUSH1 0xA0 SHL SUB AND SWAP1 SHL OR SWAP4 POP POP POP DUP1 PUSH1 0x1 ADD SWAP1 POP PUSH2 0x19C5 JUMP JUMPDEST POP DUP6 PUSH1 0x1 PUSH1 0x1 PUSH1 0xA0 SHL SUB AND DUP2 PUSH1 0x1 PUSH1 0x1 PUSH1 0xA0 SHL SUB AND EQ SWAP4 POP POP POP POP SWAP3 SWAP2 POP POP JUMP JUMPDEST PUSH0 PUSH2 0x1A67 DUP7 DUP7 DUP7 DUP7 DUP1 MLOAD SWAP1 PUSH1 0x20 ADD KECCAK256 PUSH2 0x1343 JUMP JUMPDEST SWAP1 POP DUP5 MLOAD DUP7 MLOAD EQ ISZERO DUP1 PUSH2 0x1A7C JUMPI POP DUP4 MLOAD DUP7 MLOAD EQ ISZERO JUMPDEST DUP1 PUSH2 0x1A86 JUMPI POP DUP6 MLOAD ISZERO JUMPDEST ISZERO PUSH2 0x1ABB JUMPI DUP6 MLOAD DUP5 MLOAD DUP7 MLOAD PUSH1 0x40 MLOAD PUSH4 0x447B05D PUSH1 0xE4 SHL DUP2 MSTORE PUSH1 0x4 DUP2 ADD SWAP4 SWAP1 SWAP4 MSTORE PUSH1 0x24 DUP4 ADD SWAP2 SWAP1 SWAP2 MSTORE PUSH1 0x44 DUP3 ADD MSTORE PUSH1 0x64 ADD PUSH2 0xBB3 JUMP JUMPDEST PUSH0 DUP2 DUP2 MSTORE PUSH1 0x4 PUSH1 0x20 MSTORE PUSH1 0x40 SWAP1 KECCAK256 SLOAD PUSH1 0x1 PUSH1 0xA0 SHL SWAP1 DIV PUSH6 0xFFFFFFFFFFFF AND ISZERO PUSH2 0x1B04 JUMPI DUP1 PUSH2 0x1AE7 DUP3 PUSH2 0xB43 JUMP JUMPDEST PUSH1 0x40 MLOAD PUSH4 0x31B75E4D PUSH1 0xE0 SHL DUP2 MSTORE PUSH2 0xBB3 SWAP3 SWAP2 SWAP1 PUSH0 SWAP1 PUSH1 0x4 ADD PUSH2 0x341C JUMP JUMPDEST PUSH0 DUP1 PUSH2 0x1B0E PUSH2 0x11D4 JUMP JUMPDEST PUSH6 0xFFFFFFFFFFFF AND PUSH2 0x1B20 SWAP2 SWAP1 PUSH2 0x3454 JUMP JUMPDEST SWAP1 POP PUSH0 PUSH3 0x93A80 PUSH0 DUP5 DUP2 MSTORE PUSH1 0x4 PUSH1 0x20 MSTORE PUSH1 0x40 SWAP1 KECCAK256 DUP1 SLOAD PUSH1 0x1 PUSH1 0x1 PUSH1 0xA0 SHL SUB NOT AND PUSH1 0x1 PUSH1 0x1 PUSH1 0xA0 SHL SUB DUP8 AND OR DUP2 SSTORE SWAP1 SWAP2 POP PUSH2 0x1B59 DUP4 PUSH2 0x1886 JUMP JUMPDEST DUP2 SLOAD PUSH6 0xFFFFFFFFFFFF SWAP2 SWAP1 SWAP2 AND PUSH1 0x1 PUSH1 0xA0 SHL MUL PUSH6 0xFFFFFFFFFFFF PUSH1 0xA0 SHL NOT SWAP1 SWAP2 AND OR DUP2 SSTORE PUSH2 0x1B86 DUP3 PUSH2 0x2419 JUMP JUMPDEST DUP2 SLOAD PUSH4 0xFFFFFFFF SWAP2 SWAP1 SWAP2 AND PUSH1 0x1 PUSH1 0xD0 SHL MUL PUSH4 0xFFFFFFFF PUSH1 0xD0 SHL NOT SWAP1 SWAP2 AND OR DUP2 SSTORE DUP9 MLOAD PUSH32 0x7D84A6263AE0D98D3329BD7B46BB4E8D6F98CD35A7ADB45C274C8B7FD5EBD5E0 SWAP1 DUP6 SWAP1 DUP8 SWAP1 DUP13 SWAP1 DUP13 SWAP1 PUSH1 0x1 PUSH1 0x1 PUSH1 0x40 SHL SUB DUP2 GT ISZERO PUSH2 0x1BE9 JUMPI PUSH2 0x1BE9 PUSH2 0x2913 JUMP JUMPDEST PUSH1 0x40 MLOAD SWAP1 DUP1 DUP3 MSTORE DUP1 PUSH1 0x20 MUL PUSH1 0x20 ADD DUP3 ADD PUSH1 0x40 MSTORE DUP1 ISZERO PUSH2 0x1C1C JUMPI DUP2 PUSH1 0x20 ADD JUMPDEST PUSH1 0x60 DUP2 MSTORE PUSH1 0x20 ADD SWAP1 PUSH1 0x1 SWAP1 SUB SWAP1 DUP2 PUSH2 0x1C07 JUMPI SWAP1 POP JUMPDEST POP DUP13 DUP10 PUSH2 0x1C29 DUP11 DUP3 PUSH2 0x3454 JUMP JUMPDEST DUP15 PUSH1 0x40 MLOAD PUSH2 0x1C3F SWAP10 SWAP9 SWAP8 SWAP7 SWAP6 SWAP5 SWAP4 SWAP3 SWAP2 SWAP1 PUSH2 0x35CE JUMP JUMPDEST PUSH1 0x40 MLOAD DUP1 SWAP2 SUB SWAP1 LOG1 POP POP POP SWAP6 SWAP5 POP POP POP POP POP JUMP JUMPDEST PUSH1 0x60 PUSH2 0x125B PUSH32 0x0 PUSH0 PUSH2 0x2449 JUMP JUMPDEST PUSH1 0x60 PUSH2 0x125B PUSH32 0x0 PUSH1 0x1 PUSH2 0x2449 JUMP JUMPDEST PUSH0 PUSH2 0x125B NUMBER PUSH2 0x1886 JUMP JUMPDEST PUSH0 PUSH32 0x0 PUSH1 0x40 MLOAD PUSH4 0x748D635 PUSH1 0xE3 SHL DUP2 MSTORE PUSH1 0x1 PUSH1 0x1 PUSH1 0xA0 SHL SUB DUP7 DUP2 AND PUSH1 0x4 DUP4 ADD MSTORE PUSH1 0x24 DUP3 ADD DUP7 SWAP1 MSTORE SWAP2 SWAP1 SWAP2 AND SWAP1 PUSH4 0x3A46B1A8 SWAP1 PUSH1 0x44 ADD PUSH1 0x20 PUSH1 0x40 MLOAD DUP1 DUP4 SUB DUP2 DUP7 GAS STATICCALL ISZERO DUP1 ISZERO PUSH2 0x1D25 JUMPI RETURNDATASIZE PUSH0 DUP1 RETURNDATACOPY RETURNDATASIZE PUSH0 REVERT JUMPDEST POP POP POP POP PUSH1 0x40 MLOAD RETURNDATASIZE PUSH1 0x1F NOT PUSH1 0x1F DUP3 ADD AND DUP3 ADD DUP1 PUSH1 0x40 MSTORE POP DUP2 ADD SWAP1 PUSH2 0xDC4 SWAP2 SWAP1 PUSH2 0x36A3 JUMP JUMPDEST DUP1 SLOAD PUSH0 SWAP1 DUP1 ISZERO PUSH2 0x1D78 JUMPI PUSH2 0x1D62 DUP4 PUSH2 0x193C PUSH1 0x1 DUP5 PUSH2 0x32C5 JUMP JUMPDEST SLOAD PUSH1 0x1 PUSH1 0x30 SHL SWAP1 DIV PUSH1 0x1 PUSH1 0x1 PUSH1 0xD0 SHL SUB AND PUSH2 0x139B JUMP JUMPDEST PUSH0 SWAP4 SWAP3 POP POP POP JUMP JUMPDEST PUSH1 0x60 DUP3 PUSH2 0x1D95 JUMPI PUSH2 0x1D90 DUP3 PUSH2 0x24F2 JUMP JUMPDEST PUSH2 0x913 JUMP JUMPDEST POP DUP1 PUSH2 0x913 JUMP JUMPDEST PUSH0 PUSH1 0x64 PUSH2 0x1DA8 DUP4 PUSH2 0xF7B JUMP JUMPDEST PUSH1 0x40 MLOAD PUSH4 0x2394E7A3 PUSH1 0xE2 SHL DUP2 MSTORE PUSH1 0x4 DUP2 ADD DUP6 SWAP1 MSTORE PUSH1 0x1 PUSH1 0x1 PUSH1 0xA0 SHL SUB PUSH32 0x0 AND SWAP1 PUSH4 0x8E539E8C SWAP1 PUSH1 0x24 ADD PUSH1 0x20 PUSH1 0x40 MLOAD DUP1 DUP4 SUB DUP2 DUP7 GAS STATICCALL ISZERO DUP1 ISZERO PUSH2 0x1E0B JUMPI RETURNDATASIZE PUSH0 DUP1 RETURNDATACOPY RETURNDATASIZE PUSH0 REVERT JUMPDEST POP POP POP POP PUSH1 0x40 MLOAD RETURNDATASIZE PUSH1 0x1F NOT PUSH1 0x1F DUP3 ADD AND DUP3 ADD DUP1 PUSH1 0x40 MSTORE POP DUP2 ADD SWAP1 PUSH2 0x1E2F SWAP2 SWAP1 PUSH2 0x36A3 JUMP JUMPDEST PUSH2 0x1E39 SWAP2 SWAP1 PUSH2 0x36BA JUMP JUMPDEST PUSH2 0x913 SWAP2 SWAP1 PUSH2 0x36E5 JUMP JUMPDEST DUP1 SLOAD PUSH0 SWAP1 PUSH1 0x1 PUSH1 0x1 PUSH1 0x80 SHL SUB DUP1 DUP3 AND SWAP2 PUSH1 0x1 PUSH1 0x80 SHL SWAP1 DIV AND DUP2 SUB PUSH2 0x1E7A JUMPI PUSH1 0x40 MLOAD PUSH4 0x75E52F4F PUSH1 0xE0 SHL DUP2 MSTORE PUSH1 0x4 ADD PUSH1 0x40 MLOAD DUP1 SWAP2 SUB SWAP1 REVERT JUMPDEST PUSH1 0x1 PUSH1 0x1 PUSH1 0x80 SHL SUB DUP2 DUP2 AND PUSH0 SWAP1 DUP2 MSTORE PUSH1 0x1 DUP6 DUP2 ADD PUSH1 0x20 MSTORE PUSH1 0x40 DUP3 KECCAK256 DUP1 SLOAD SWAP3 SWAP1 SSTORE DUP6 SLOAD PUSH16 0xFFFFFFFFFFFFFFFFFFFFFFFFFFFFFFFF NOT AND SWAP4 ADD SWAP1 SWAP2 AND SWAP2 SWAP1 SWAP2 OR SWAP1 SWAP3 SSTORE POP SWAP1 JUMP JUMPDEST PUSH0 PUSH1 0x1 PUSH1 0x1 PUSH1 0xD0 SHL SUB DUP3 GT ISZERO PUSH2 0x18B8 JUMPI PUSH1 0x40 MLOAD PUSH4 0x6DFCC65 PUSH1 0xE4 SHL DUP2 MSTORE PUSH1 0xD0 PUSH1 0x4 DUP3 ADD MSTORE PUSH1 0x24 DUP2 ADD DUP4 SWAP1 MSTORE PUSH1 0x44 ADD PUSH2 0xBB3 JUMP JUMPDEST PUSH0 DUP1 PUSH2 0x1EFF DUP6 DUP6 DUP6 PUSH2 0x251B JUMP JUMPDEST SWAP2 POP SWAP2 POP JUMPDEST SWAP4 POP SWAP4 SWAP2 POP POP JUMP JUMPDEST PUSH0 ADDRESS PUSH1 0x1 PUSH1 0x1 PUSH1 0xA0 SHL SUB PUSH32 0x0 AND EQ DUP1 ISZERO PUSH2 0x1F64 JUMPI POP PUSH32 0x0 CHAINID EQ JUMPDEST ISZERO PUSH2 0x1F8E JUMPI POP PUSH32 0x0 SWAP1 JUMP JUMPDEST PUSH2 0x125B PUSH1 0x40 DUP1 MLOAD PUSH32 0x8B73C3C69BB8FE3D512ECC4CF759CC79239F7B179B0FFACAA9A75D522B39400F PUSH1 0x20 DUP3 ADD MSTORE PUSH32 0x0 SWAP2 DUP2 ADD SWAP2 SWAP1 SWAP2 MSTORE PUSH32 0x0 PUSH1 0x60 DUP3 ADD MSTORE CHAINID PUSH1 0x80 DUP3 ADD MSTORE ADDRESS PUSH1 0xA0 DUP3 ADD MSTORE PUSH0 SWAP1 PUSH1 0xC0 ADD PUSH1 0x40 MLOAD PUSH1 0x20 DUP2 DUP4 SUB SUB DUP2 MSTORE SWAP1 PUSH1 0x40 MSTORE DUP1 MLOAD SWAP1 PUSH1 0x20 ADD KECCAK256 SWAP1 POP SWAP1 JUMP JUMPDEST PUSH0 DUP1 PUSH0 DUP4 MLOAD PUSH1 0x41 SUB PUSH2 0x206C JUMPI PUSH1 0x20 DUP5 ADD MLOAD PUSH1 0x40 DUP6 ADD MLOAD PUSH1 0x60 DUP7 ADD MLOAD PUSH0 BYTE PUSH2 0x205E DUP9 DUP3 DUP6 DUP6 PUSH2 0x2691 JUMP JUMPDEST SWAP6 POP SWAP6 POP SWAP6 POP POP POP POP PUSH2 0x2077 JUMP JUMPDEST POP POP DUP2 MLOAD PUSH0 SWAP2 POP PUSH1 0x2 SWAP1 JUMPDEST SWAP3 POP SWAP3 POP SWAP3 JUMP JUMPDEST PUSH0 DUP1 PUSH0 DUP6 PUSH1 0x1 PUSH1 0x1 PUSH1 0xA0 SHL SUB AND DUP6 DUP6 PUSH1 0x40 MLOAD PUSH1 0x24 ADD PUSH2 0x209E SWAP3 SWAP2 SWAP1 PUSH2 0x3704 JUMP JUMPDEST PUSH1 0x40 DUP1 MLOAD PUSH1 0x1F NOT DUP2 DUP5 SUB ADD DUP2 MSTORE SWAP2 DUP2 MSTORE PUSH1 0x20 DUP3 ADD DUP1 MLOAD PUSH1 0x1 PUSH1 0x1 PUSH1 0xE0 SHL SUB AND PUSH4 0xB135D3F PUSH1 0xE1 SHL OR SWAP1 MSTORE MLOAD PUSH2 0x20D3 SWAP2 SWAP1 PUSH2 0x343E JUMP JUMPDEST PUSH0 PUSH1 0x40 MLOAD DUP1 DUP4 SUB DUP2 DUP6 GAS STATICCALL SWAP2 POP POP RETURNDATASIZE DUP1 PUSH0 DUP2 EQ PUSH2 0x210B JUMPI PUSH1 0x40 MLOAD SWAP2 POP PUSH1 0x1F NOT PUSH1 0x3F RETURNDATASIZE ADD AND DUP3 ADD PUSH1 0x40 MSTORE RETURNDATASIZE DUP3 MSTORE RETURNDATASIZE PUSH0 PUSH1 0x20 DUP5 ADD RETURNDATACOPY PUSH2 0x2110 JUMP JUMPDEST PUSH1 0x60 SWAP2 POP JUMPDEST POP SWAP2 POP SWAP2 POP DUP2 DUP1 ISZERO PUSH2 0x2124 JUMPI POP PUSH1 0x20 DUP2 MLOAD LT ISZERO JUMPDEST DUP1 ISZERO PUSH2 0xCDB JUMPI POP DUP1 MLOAD PUSH4 0xB135D3F PUSH1 0xE1 SHL SWAP1 PUSH2 0x2149 SWAP1 DUP4 ADD PUSH1 0x20 SWAP1 DUP2 ADD SWAP1 DUP5 ADD PUSH2 0x36A3 JUMP JUMPDEST EQ SWAP7 SWAP6 POP POP POP POP POP POP JUMP JUMPDEST PUSH0 DUP6 DUP2 MSTORE PUSH1 0x7 PUSH1 0x20 SWAP1 DUP2 MSTORE PUSH1 0x40 DUP1 DUP4 KECCAK256 PUSH1 0x1 PUSH1 0x1 PUSH1 0xA0 SHL SUB DUP9 AND DUP5 MSTORE PUSH1 0x3 DUP2 ADD SWAP1 SWAP3 MSTORE SWAP1 SWAP2 KECCAK256 SLOAD PUSH1 0xFF AND ISZERO PUSH2 0x21A7 JUMPI PUSH1 0x40 MLOAD PUSH4 0x71C6AF49 PUSH1 0xE0 SHL DUP2 MSTORE PUSH1 0x1 PUSH1 0x1 PUSH1 0xA0 SHL SUB DUP7 AND PUSH1 0x4 DUP3 ADD MSTORE PUSH1 0x24 ADD PUSH2 0xBB3 JUMP JUMPDEST PUSH1 0x1 PUSH1 0x1 PUSH1 0xA0 SHL SUB DUP6 AND PUSH0 SWAP1 DUP2 MSTORE PUSH1 0x3 DUP3 ADD PUSH1 0x20 MSTORE PUSH1 0x40 SWAP1 KECCAK256 DUP1 SLOAD PUSH1 0xFF NOT AND PUSH1 0x1 OR SWAP1 SSTORE PUSH1 0xFF DUP5 AND PUSH2 0x21F0 JUMPI DUP3 DUP2 PUSH0 ADD PUSH0 DUP3 DUP3 SLOAD PUSH2 0x21E5 SWAP2 SWAP1 PUSH2 0x3454 JUMP JUMPDEST SWAP1 SWAP2 SSTORE POP PUSH2 0x1614 SWAP1 POP JUMP JUMPDEST PUSH0 NOT PUSH1 0xFF DUP6 AND ADD PUSH2 0x220E JUMPI DUP3 DUP2 PUSH1 0x1 ADD PUSH0 DUP3 DUP3 SLOAD PUSH2 0x21E5 SWAP2 SWAP1 PUSH2 0x3454 JUMP JUMPDEST PUSH1 0x1 NOT PUSH1 0xFF DUP6 AND ADD PUSH2 0x222D JUMPI DUP3 DUP2 PUSH1 0x2 ADD PUSH0 DUP3 DUP3 SLOAD PUSH2 0x21E5 SWAP2 SWAP1 PUSH2 0x3454 JUMP JUMPDEST PUSH1 0x40 MLOAD PUSH4 0x3599BE1 PUSH1 0xE1 SHL DUP2 MSTORE PUSH1 0x4 ADD PUSH1 0x40 MLOAD DUP1 SWAP2 SUB SWAP1 REVERT JUMPDEST PUSH0 DUP2 PUSH0 SUB PUSH2 0x2255 JUMPI POP PUSH0 SWAP2 SWAP1 POP JUMP JUMPDEST PUSH0 PUSH1 0x1 PUSH2 0x2261 DUP5 PUSH2 0x2759 JUMP JUMPDEST SWAP1 SHR PUSH1 0x1 SWAP1 SHL SWAP1 POP PUSH1 0x1 DUP2 DUP5 DUP2 PUSH2 0x227A JUMPI PUSH2 0x227A PUSH2 0x36D1 JUMP JUMPDEST DIV DUP3 ADD SWAP1 SHR SWAP1 POP PUSH1 0x1 DUP2 DUP5 DUP2 PUSH2 0x2292 JUMPI PUSH2 0x2292 PUSH2 0x36D1 JUMP JUMPDEST DIV DUP3 ADD SWAP1 SHR SWAP1 POP PUSH1 0x1 DUP2 DUP5 DUP2 PUSH2 0x22AA JUMPI PUSH2 0x22AA PUSH2 0x36D1 JUMP JUMPDEST DIV DUP3 ADD SWAP1 SHR SWAP1 POP PUSH1 0x1 DUP2 DUP5 DUP2 PUSH2 0x22C2 JUMPI PUSH2 0x22C2 PUSH2 0x36D1 JUMP JUMPDEST DIV DUP3 ADD SWAP1 SHR SWAP1 POP PUSH1 0x1 DUP2 DUP5 DUP2 PUSH2 0x22DA JUMPI PUSH2 0x22DA PUSH2 0x36D1 JUMP JUMPDEST DIV DUP3 ADD SWAP1 SHR SWAP1 POP PUSH1 0x1 DUP2 DUP5 DUP2 PUSH2 0x22F2 JUMPI PUSH2 0x22F2 PUSH2 0x36D1 JUMP JUMPDEST DIV DUP3 ADD SWAP1 SHR SWAP1 POP PUSH1 0x1 DUP2 DUP5 DUP2 PUSH2 0x230A JUMPI PUSH2 0x230A PUSH2 0x36D1 JUMP JUMPDEST DIV DUP3 ADD SWAP1 SHR SWAP1 POP PUSH2 0x139B DUP2 DUP3 DUP6 DUP2 PUSH2 0x2324 JUMPI PUSH2 0x2324 PUSH2 0x36D1 JUMP JUMPDEST DIV PUSH2 0x27EC JUMP JUMPDEST PUSH0 JUMPDEST DUP2 DUP4 LT ISZERO PUSH2 0x2381 JUMPI PUSH0 PUSH2 0x233F DUP5 DUP5 PUSH2 0x2801 JUMP JUMPDEST PUSH0 DUP8 DUP2 MSTORE PUSH1 0x20 SWAP1 KECCAK256 SWAP1 SWAP2 POP PUSH6 0xFFFFFFFFFFFF DUP7 AND SWAP1 DUP3 ADD SLOAD PUSH6 0xFFFFFFFFFFFF AND GT ISZERO PUSH2 0x236D JUMPI DUP1 SWAP3 POP PUSH2 0x237B JUMP JUMPDEST PUSH2 0x2378 DUP2 PUSH1 0x1 PUSH2 0x3454 JUMP JUMPDEST SWAP4 POP JUMPDEST POP PUSH2 0x232C JUMP JUMPDEST POP SWAP4 SWAP3 POP POP POP JUMP JUMPDEST PUSH0 DUP1 PUSH1 0xF8 DUP4 SWAP1 SHR PUSH1 0x2F DUP2 GT DUP1 ISZERO PUSH2 0x23A3 JUMPI POP PUSH1 0x3A DUP2 PUSH1 0xFF AND LT JUMPDEST ISZERO PUSH2 0x23B8 JUMPI PUSH1 0x1 SWAP5 PUSH1 0x2F NOT SWAP1 SWAP2 ADD SWAP4 POP SWAP2 POP POP JUMP JUMPDEST DUP1 PUSH1 0xFF AND PUSH1 0x40 LT DUP1 ISZERO PUSH2 0x23CE JUMPI POP PUSH1 0x47 DUP2 PUSH1 0xFF AND LT JUMPDEST ISZERO PUSH2 0x23E3 JUMPI PUSH1 0x1 SWAP5 PUSH1 0x36 NOT SWAP1 SWAP2 ADD SWAP4 POP SWAP2 POP POP JUMP JUMPDEST DUP1 PUSH1 0xFF AND PUSH1 0x60 LT DUP1 ISZERO PUSH2 0x23F9 JUMPI POP PUSH1 0x67 DUP2 PUSH1 0xFF AND LT JUMPDEST ISZERO PUSH2 0x240E JUMPI PUSH1 0x1 SWAP5 PUSH1 0x56 NOT SWAP1 SWAP2 ADD SWAP4 POP SWAP2 POP POP JUMP JUMPDEST POP PUSH0 SWAP4 DUP5 SWAP4 POP SWAP2 POP POP JUMP JUMPDEST PUSH0 PUSH4 0xFFFFFFFF DUP3 GT ISZERO PUSH2 0x18B8 JUMPI PUSH1 0x40 MLOAD PUSH4 0x6DFCC65 PUSH1 0xE4 SHL DUP2 MSTORE PUSH1 0x20 PUSH1 0x4 DUP3 ADD MSTORE PUSH1 0x24 DUP2 ADD DUP4 SWAP1 MSTORE PUSH1 0x44 ADD PUSH2 0xBB3 JUMP JUMPDEST PUSH1 0x60 PUSH1 0xFF DUP4 EQ PUSH2 0x2463 JUMPI PUSH2 0x245C DUP4 PUSH2 0x281B JUMP JUMPDEST SWAP1 POP PUSH2 0x913 JUMP JUMPDEST DUP2 DUP1 SLOAD PUSH2 0x246F SWAP1 PUSH2 0x31E2 JUMP JUMPDEST DUP1 PUSH1 0x1F ADD PUSH1 0x20 DUP1 SWAP2 DIV MUL PUSH1 0x20 ADD PUSH1 0x40 MLOAD SWAP1 DUP2 ADD PUSH1 0x40 MSTORE DUP1 SWAP3 SWAP2 SWAP1 DUP2 DUP2 MSTORE PUSH1 0x20 ADD DUP3 DUP1 SLOAD PUSH2 0x249B SWAP1 PUSH2 0x31E2 JUMP JUMPDEST DUP1 ISZERO PUSH2 0x24E6 JUMPI DUP1 PUSH1 0x1F LT PUSH2 0x24BD JUMPI PUSH2 0x100 DUP1 DUP4 SLOAD DIV MUL DUP4 MSTORE SWAP2 PUSH1 0x20 ADD SWAP2 PUSH2 0x24E6 JUMP JUMPDEST DUP3 ADD SWAP2 SWAP1 PUSH0 MSTORE PUSH1 0x20 PUSH0 KECCAK256 SWAP1 JUMPDEST DUP2 SLOAD DUP2 MSTORE SWAP1 PUSH1 0x1 ADD SWAP1 PUSH1 0x20 ADD DUP1 DUP4 GT PUSH2 0x24C9 JUMPI DUP3 SWAP1 SUB PUSH1 0x1F AND DUP3 ADD SWAP2 JUMPDEST POP POP POP POP POP SWAP1 POP PUSH2 0x913 JUMP JUMPDEST DUP1 MLOAD ISZERO PUSH2 0x2502 JUMPI DUP1 MLOAD DUP1 DUP3 PUSH1 0x20 ADD REVERT JUMPDEST PUSH1 0x40 MLOAD PUSH4 0xA12F521 PUSH1 0xE1 SHL DUP2 MSTORE PUSH1 0x4 ADD PUSH1 0x40 MLOAD DUP1 SWAP2 SUB SWAP1 REVERT JUMPDEST DUP3 SLOAD PUSH0 SWAP1 DUP2 SWAP1 DUP1 ISZERO PUSH2 0x2637 JUMPI PUSH0 PUSH2 0x2537 DUP8 PUSH2 0x193C PUSH1 0x1 DUP6 PUSH2 0x32C5 JUMP JUMPDEST PUSH1 0x40 DUP1 MLOAD DUP1 DUP3 ADD SWAP1 SWAP2 MSTORE SWAP1 SLOAD PUSH6 0xFFFFFFFFFFFF DUP1 DUP3 AND DUP1 DUP5 MSTORE PUSH1 0x1 PUSH1 0x30 SHL SWAP1 SWAP3 DIV PUSH1 0x1 PUSH1 0x1 PUSH1 0xD0 SHL SUB AND PUSH1 0x20 DUP5 ADD MSTORE SWAP2 SWAP3 POP SWAP1 DUP8 AND LT ISZERO PUSH2 0x258B JUMPI PUSH1 0x40 MLOAD PUSH4 0x2520601D PUSH1 0xE0 SHL DUP2 MSTORE PUSH1 0x4 ADD PUSH1 0x40 MLOAD DUP1 SWAP2 SUB SWAP1 REVERT JUMPDEST DUP1 MLOAD PUSH6 0xFFFFFFFFFFFF DUP1 DUP9 AND SWAP2 AND SUB PUSH2 0x25D7 JUMPI DUP5 PUSH2 0x25AE DUP9 PUSH2 0x193C PUSH1 0x1 DUP7 PUSH2 0x32C5 JUMP JUMPDEST DUP1 SLOAD PUSH1 0x1 PUSH1 0x1 PUSH1 0xD0 SHL SUB SWAP3 SWAP1 SWAP3 AND PUSH1 0x1 PUSH1 0x30 SHL MUL PUSH6 0xFFFFFFFFFFFF SWAP1 SWAP3 AND SWAP2 SWAP1 SWAP2 OR SWAP1 SSTORE PUSH2 0x2627 JUMP JUMPDEST PUSH1 0x40 DUP1 MLOAD DUP1 DUP3 ADD SWAP1 SWAP2 MSTORE PUSH6 0xFFFFFFFFFFFF DUP1 DUP9 AND DUP3 MSTORE PUSH1 0x1 PUSH1 0x1 PUSH1 0xD0 SHL SUB DUP1 DUP9 AND PUSH1 0x20 DUP1 DUP6 ADD SWAP2 DUP3 MSTORE DUP12 SLOAD PUSH1 0x1 DUP2 ADD DUP14 SSTORE PUSH0 DUP14 DUP2 MSTORE SWAP2 SWAP1 SWAP2 KECCAK256 SWAP5 MLOAD SWAP2 MLOAD SWAP1 SWAP3 AND PUSH1 0x1 PUSH1 0x30 SHL MUL SWAP3 AND SWAP2 SWAP1 SWAP2 OR SWAP2 ADD SSTORE JUMPDEST PUSH1 0x20 ADD MLOAD SWAP3 POP DUP4 SWAP2 POP PUSH2 0x1F04 SWAP1 POP JUMP JUMPDEST POP POP PUSH1 0x40 DUP1 MLOAD DUP1 DUP3 ADD SWAP1 SWAP2 MSTORE PUSH6 0xFFFFFFFFFFFF DUP1 DUP6 AND DUP3 MSTORE PUSH1 0x1 PUSH1 0x1 PUSH1 0xD0 SHL SUB DUP1 DUP6 AND PUSH1 0x20 DUP1 DUP6 ADD SWAP2 DUP3 MSTORE DUP9 SLOAD PUSH1 0x1 DUP2 ADD DUP11 SSTORE PUSH0 DUP11 DUP2 MSTORE SWAP2 DUP3 KECCAK256 SWAP6 MLOAD SWAP3 MLOAD SWAP1 SWAP4 AND PUSH1 0x1 PUSH1 0x30 SHL MUL SWAP2 SWAP1 SWAP4 AND OR SWAP3 ADD SWAP2 SWAP1 SWAP2 SSTORE SWAP1 POP DUP2 PUSH2 0x1F04 JUMP JUMPDEST PUSH0 DUP1 DUP1 PUSH32 0x7FFFFFFFFFFFFFFFFFFFFFFFFFFFFFFF5D576E7357A4501DDFE92F46681B20A0 DUP5 GT ISZERO PUSH2 0x26CA JUMPI POP PUSH0 SWAP2 POP PUSH1 0x3 SWAP1 POP DUP3 PUSH2 0x274F JUMP JUMPDEST PUSH1 0x40 DUP1 MLOAD PUSH0 DUP1 DUP3 MSTORE PUSH1 0x20 DUP3 ADD DUP1 DUP5 MSTORE DUP11 SWAP1 MSTORE PUSH1 0xFF DUP10 AND SWAP3 DUP3 ADD SWAP3 SWAP1 SWAP3 MSTORE PUSH1 0x60 DUP2 ADD DUP8 SWAP1 MSTORE PUSH1 0x80 DUP2 ADD DUP7 SWAP1 MSTORE PUSH1 0x1 SWAP1 PUSH1 0xA0 ADD PUSH1 0x20 PUSH1 0x40 MLOAD PUSH1 0x20 DUP2 SUB SWAP1 DUP1 DUP5 SUB SWAP1 DUP6 GAS STATICCALL ISZERO DUP1 ISZERO PUSH2 0x271B JUMPI RETURNDATASIZE PUSH0 DUP1 RETURNDATACOPY RETURNDATASIZE PUSH0 REVERT JUMPDEST POP POP PUSH1 0x40 MLOAD PUSH1 0x1F NOT ADD MLOAD SWAP2 POP POP PUSH1 0x1 PUSH1 0x1 PUSH1 0xA0 SHL SUB DUP2 AND PUSH2 0x2746 JUMPI POP PUSH0 SWAP3 POP PUSH1 0x1 SWAP2 POP DUP3 SWAP1 POP PUSH2 0x274F JUMP JUMPDEST SWAP3 POP PUSH0 SWAP2 POP DUP2 SWAP1 POP JUMPDEST SWAP5 POP SWAP5 POP SWAP5 SWAP2 POP POP JUMP JUMPDEST PUSH0 DUP1 PUSH1 0x80 DUP4 SWAP1 SHR ISZERO PUSH2 0x276D JUMPI PUSH1 0x80 SWAP3 DUP4 SHR SWAP3 ADD JUMPDEST PUSH1 0x40 DUP4 SWAP1 SHR ISZERO PUSH2 0x277F JUMPI PUSH1 0x40 SWAP3 DUP4 SHR SWAP3 ADD JUMPDEST PUSH1 0x20 DUP4 SWAP1 SHR ISZERO PUSH2 0x2791 JUMPI PUSH1 0x20 SWAP3 DUP4 SHR SWAP3 ADD JUMPDEST PUSH1 0x10 DUP4 SWAP1 SHR ISZERO PUSH2 0x27A3 JUMPI PUSH1 0x10 SWAP3 DUP4 SHR SWAP3 ADD JUMPDEST PUSH1 0x8 DUP4 SWAP1 SHR ISZERO PUSH2 0x27B5 JUMPI PUSH1 0x8 SWAP3 DUP4 SHR SWAP3 ADD JUMPDEST PUSH1 0x4 DUP4 SWAP1 SHR ISZERO PUSH2 0x27C7 JUMPI PUSH1 0x4 SWAP3 DUP4 SHR SWAP3 ADD JUMPDEST PUSH1 0x2 DUP4 SWAP1 SHR ISZERO PUSH2 0x27D9 JUMPI PUSH1 0x2 SWAP3 DUP4 SHR SWAP3 ADD JUMPDEST PUSH1 0x1 DUP4 SWAP1 SHR ISZERO PUSH2 0x913 JUMPI PUSH1 0x1 ADD SWAP3 SWAP2 POP POP JUMP JUMPDEST PUSH0 DUP2 DUP4 LT PUSH2 0x27FA JUMPI DUP2 PUSH2 0x139B JUMP JUMPDEST POP SWAP1 SWAP2 SWAP1 POP JUMP JUMPDEST PUSH0 PUSH2 0x280F PUSH1 0x2 DUP5 DUP5 XOR PUSH2 0x36E5 JUMP JUMPDEST PUSH2 0x139B SWAP1 DUP5 DUP5 AND PUSH2 0x3454 JUMP JUMPDEST PUSH1 0x60 PUSH0 PUSH2 0x2827 DUP4 PUSH2 0x2858 JUMP JUMPDEST PUSH1 0x40 DUP1 MLOAD PUSH1 0x20 DUP1 DUP3 MSTORE DUP2 DUP4 ADD SWAP1 SWAP3 MSTORE SWAP2 SWAP3 POP PUSH0 SWAP2 SWAP1 PUSH1 0x20 DUP3 ADD DUP2 DUP1 CALLDATASIZE DUP4 CALLDATACOPY POP POP POP SWAP2 DUP3 MSTORE POP PUSH1 0x20 DUP2 ADD SWAP3 SWAP1 SWAP3 MSTORE POP SWAP1 JUMP JUMPDEST PUSH0 PUSH1 0xFF DUP3 AND PUSH1 0x1F DUP2 GT ISZERO PUSH2 0x913 JUMPI PUSH1 0x40 MLOAD PUSH4 0x2CD44AC3 PUSH1 0xE2 SHL DUP2 MSTORE PUSH1 0x4 ADD PUSH1 0x40 MLOAD DUP1 SWAP2 SUB SWAP1 REVERT JUMPDEST PUSH0 PUSH1 0x20 DUP3 DUP5 SUB SLT ISZERO PUSH2 0x288F JUMPI PUSH0 DUP1 REVERT JUMPDEST DUP2 CALLDATALOAD PUSH1 0x1 PUSH1 0x1 PUSH1 0xE0 SHL SUB NOT DUP2 AND DUP2 EQ PUSH2 0x139B JUMPI PUSH0 DUP1 REVERT JUMPDEST PUSH0 PUSH1 0x20 DUP3 DUP5 SUB SLT ISZERO PUSH2 0x28B6 JUMPI PUSH0 DUP1 REVERT JUMPDEST POP CALLDATALOAD SWAP2 SWAP1 POP JUMP JUMPDEST PUSH0 DUP2 MLOAD DUP1 DUP5 MSTORE DUP1 PUSH1 0x20 DUP5 ADD PUSH1 0x20 DUP7 ADD MCOPY PUSH0 PUSH1 0x20 DUP3 DUP7 ADD ADD MSTORE PUSH1 0x20 PUSH1 0x1F NOT PUSH1 0x1F DUP4 ADD AND DUP6 ADD ADD SWAP2 POP POP SWAP3 SWAP2 POP POP JUMP JUMPDEST PUSH1 0x20 DUP2 MSTORE PUSH0 PUSH2 0x139B PUSH1 0x20 DUP4 ADD DUP5 PUSH2 0x28BD JUMP JUMPDEST DUP1 CALLDATALOAD PUSH1 0x1 PUSH1 0x1 PUSH1 0xA0 SHL SUB DUP2 AND DUP2 EQ PUSH2 0xDA0 JUMPI PUSH0 DUP1 REVERT JUMPDEST PUSH4 0x4E487B71 PUSH1 0xE0 SHL PUSH0 MSTORE PUSH1 0x41 PUSH1 0x4 MSTORE PUSH1 0x24 PUSH0 REVERT JUMPDEST PUSH1 0x40 MLOAD PUSH1 0x1F DUP3 ADD PUSH1 0x1F NOT AND DUP2 ADD PUSH1 0x1 PUSH1 0x1 PUSH1 0x40 SHL SUB DUP2 GT DUP3 DUP3 LT OR ISZERO PUSH2 0x294F JUMPI PUSH2 0x294F PUSH2 0x2913 JUMP JUMPDEST PUSH1 0x40 MSTORE SWAP2 SWAP1 POP JUMP JUMPDEST PUSH0 PUSH1 0x1 PUSH1 0x1 PUSH1 0x40 SHL SUB DUP3 GT ISZERO PUSH2 0x296F JUMPI PUSH2 0x296F PUSH2 0x2913 JUMP JUMPDEST POP PUSH1 0x1F ADD PUSH1 0x1F NOT AND PUSH1 0x20 ADD SWAP1 JUMP JUMPDEST PUSH0 PUSH2 0x298F PUSH2 0x298A DUP5 PUSH2 0x2957 JUMP JUMPDEST PUSH2 0x2927 JUMP JUMPDEST SWAP1 POP DUP3 DUP2 MSTORE DUP4 DUP4 DUP4 ADD GT ISZERO PUSH2 0x29A2 JUMPI PUSH0 DUP1 REVERT JUMPDEST DUP3 DUP3 PUSH1 0x20 DUP4 ADD CALLDATACOPY PUSH0 PUSH1 0x20 DUP5 DUP4 ADD ADD MSTORE SWAP4 SWAP3 POP POP POP JUMP JUMPDEST PUSH0 DUP3 PUSH1 0x1F DUP4 ADD SLT PUSH2 0x29C7 JUMPI PUSH0 DUP1 REVERT JUMPDEST PUSH2 0x139B DUP4 DUP4 CALLDATALOAD PUSH1 0x20 DUP6 ADD PUSH2 0x297D JUMP JUMPDEST PUSH0 DUP1 PUSH0 DUP1 PUSH1 0x80 DUP6 DUP8 SUB SLT ISZERO PUSH2 0x29E9 JUMPI PUSH0 DUP1 REVERT JUMPDEST PUSH2 0x29F2 DUP6 PUSH2 0x28FD JUMP JUMPDEST SWAP4 POP PUSH2 0x2A00 PUSH1 0x20 DUP7 ADD PUSH2 0x28FD JUMP JUMPDEST SWAP3 POP PUSH1 0x40 DUP6 ADD CALLDATALOAD SWAP2 POP PUSH1 0x60 DUP6 ADD CALLDATALOAD PUSH1 0x1 PUSH1 0x1 PUSH1 0x40 SHL SUB DUP2 GT ISZERO PUSH2 0x2A21 JUMPI PUSH0 DUP1 REVERT JUMPDEST PUSH2 0x2A2D DUP8 DUP3 DUP9 ADD PUSH2 0x29B8 JUMP JUMPDEST SWAP2 POP POP SWAP3 SWAP6 SWAP2 SWAP5 POP SWAP3 POP JUMP JUMPDEST PUSH0 PUSH1 0x1 PUSH1 0x1 PUSH1 0x40 SHL SUB DUP3 GT ISZERO PUSH2 0x2A51 JUMPI PUSH2 0x2A51 PUSH2 0x2913 JUMP JUMPDEST POP PUSH1 0x5 SHL PUSH1 0x20 ADD SWAP1 JUMP JUMPDEST PUSH0 DUP3 PUSH1 0x1F DUP4 ADD SLT PUSH2 0x2A6A JUMPI PUSH0 DUP1 REVERT JUMPDEST DUP2 CALLDATALOAD PUSH1 0x20 PUSH2 0x2A7A PUSH2 0x298A DUP4 PUSH2 0x2A39 JUMP JUMPDEST DUP1 DUP4 DUP3 MSTORE PUSH1 0x20 DUP3 ADD SWAP2 POP PUSH1 0x20 DUP5 PUSH1 0x5 SHL DUP8 ADD ADD SWAP4 POP DUP7 DUP5 GT ISZERO PUSH2 0x2A9B JUMPI PUSH0 DUP1 REVERT JUMPDEST PUSH1 0x20 DUP7 ADD JUMPDEST DUP5 DUP2 LT ISZERO PUSH2 0x2ABE JUMPI PUSH2 0x2AB1 DUP2 PUSH2 0x28FD JUMP JUMPDEST DUP4 MSTORE SWAP2 DUP4 ADD SWAP2 DUP4 ADD PUSH2 0x2AA0 JUMP JUMPDEST POP SWAP7 SWAP6 POP POP POP POP POP POP JUMP JUMPDEST PUSH0 DUP3 PUSH1 0x1F DUP4 ADD SLT PUSH2 0x2AD8 JUMPI PUSH0 DUP1 REVERT JUMPDEST DUP2 CALLDATALOAD PUSH1 0x20 PUSH2 0x2AE8 PUSH2 0x298A DUP4 PUSH2 0x2A39 JUMP JUMPDEST DUP1 DUP4 DUP3 MSTORE PUSH1 0x20 DUP3 ADD SWAP2 POP PUSH1 0x20 DUP5 PUSH1 0x5 SHL DUP8 ADD ADD SWAP4 POP DUP7 DUP5 GT ISZERO PUSH2 0x2B09 JUMPI PUSH0 DUP1 REVERT JUMPDEST PUSH1 0x20 DUP7 ADD JUMPDEST DUP5 DUP2 LT ISZERO PUSH2 0x2ABE JUMPI DUP1 CALLDATALOAD DUP4 MSTORE SWAP2 DUP4 ADD SWAP2 DUP4 ADD PUSH2 0x2B0E JUMP JUMPDEST PUSH0 DUP3 PUSH1 0x1F DUP4 ADD SLT PUSH2 0x2B34 JUMPI PUSH0 DUP1 REVERT JUMPDEST DUP2 CALLDATALOAD PUSH1 0x20 PUSH2 0x2B44 PUSH2 0x298A DUP4 PUSH2 0x2A39 JUMP JUMPDEST DUP3 DUP2 MSTORE PUSH1 0x5 SWAP3 SWAP1 SWAP3 SHL DUP5 ADD DUP2 ADD SWAP2 DUP2 DUP2 ADD SWAP1 DUP7 DUP5 GT ISZERO PUSH2 0x2B62 JUMPI PUSH0 DUP1 REVERT JUMPDEST DUP3 DUP7 ADD JUMPDEST DUP5 DUP2 LT ISZERO PUSH2 0x2ABE JUMPI DUP1 CALLDATALOAD PUSH1 0x1 PUSH1 0x1 PUSH1 0x40 SHL SUB DUP2 GT ISZERO PUSH2 0x2B83 JUMPI PUSH0 DUP1 REVERT JUMPDEST PUSH2 0x2B91 DUP10 DUP7 DUP4 DUP12 ADD ADD PUSH2 0x29B8 JUMP JUMPDEST DUP5 MSTORE POP SWAP2 DUP4 ADD SWAP2 DUP4 ADD PUSH2 0x2B66 JUMP JUMPDEST PUSH0 DUP1 PUSH0 DUP1 PUSH1 0x80 DUP6 DUP8 SUB SLT ISZERO PUSH2 0x2BB2 JUMPI PUSH0 DUP1 REVERT JUMPDEST DUP5 CALLDATALOAD PUSH1 0x1 PUSH1 0x1 PUSH1 0x40 SHL SUB DUP1 DUP3 GT ISZERO PUSH2 0x2BC8 JUMPI PUSH0 DUP1 REVERT JUMPDEST PUSH2 0x2BD4 DUP9 DUP4 DUP10 ADD PUSH2 0x2A5B JUMP JUMPDEST SWAP6 POP PUSH1 0x20 DUP8 ADD CALLDATALOAD SWAP2 POP DUP1 DUP3 GT ISZERO PUSH2 0x2BE9 JUMPI PUSH0 DUP1 REVERT JUMPDEST PUSH2 0x2BF5 DUP9 DUP4 DUP10 ADD PUSH2 0x2AC9 JUMP JUMPDEST SWAP5 POP PUSH1 0x40 DUP8 ADD CALLDATALOAD SWAP2 POP DUP1 DUP3 GT ISZERO PUSH2 0x2C0A JUMPI PUSH0 DUP1 REVERT JUMPDEST POP PUSH2 0x2C17 DUP8 DUP3 DUP9 ADD PUSH2 0x2B25 JUMP JUMPDEST SWAP5 SWAP8 SWAP4 SWAP7 POP SWAP4 SWAP5 PUSH1 0x60 ADD CALLDATALOAD SWAP4 POP POP POP JUMP JUMPDEST PUSH4 0x4E487B71 PUSH1 0xE0 SHL PUSH0 MSTORE PUSH1 0x21 PUSH1 0x4 MSTORE PUSH1 0x24 PUSH0 REVERT JUMPDEST PUSH1 0x8 DUP2 LT PUSH2 0x2C58 JUMPI PUSH4 0x4E487B71 PUSH1 0xE0 SHL PUSH0 MSTORE PUSH1 0x21 PUSH1 0x4 MSTORE PUSH1 0x24 PUSH0 REVERT JUMPDEST SWAP1 MSTORE JUMP JUMPDEST PUSH1 0x20 DUP2 ADD PUSH2 0x913 DUP3 DUP5 PUSH2 0x2C3C JUMP JUMPDEST PUSH0 DUP1 PUSH1 0x40 DUP4 DUP6 SUB SLT ISZERO PUSH2 0x2C7B JUMPI PUSH0 DUP1 REVERT JUMPDEST DUP3 CALLDATALOAD SWAP2 POP PUSH2 0x2C8B PUSH1 0x20 DUP5 ADD PUSH2 0x28FD JUMP JUMPDEST SWAP1 POP SWAP3 POP SWAP3 SWAP1 POP JUMP JUMPDEST DUP1 CALLDATALOAD PUSH1 0xFF DUP2 AND DUP2 EQ PUSH2 0xDA0 JUMPI PUSH0 DUP1 REVERT JUMPDEST PUSH0 DUP1 PUSH1 0x40 DUP4 DUP6 SUB SLT ISZERO PUSH2 0x2CB5 JUMPI PUSH0 DUP1 REVERT JUMPDEST DUP3 CALLDATALOAD SWAP2 POP PUSH2 0x2C8B PUSH1 0x20 DUP5 ADD PUSH2 0x2C94 JUMP JUMPDEST PUSH0 DUP1 DUP4 PUSH1 0x1F DUP5 ADD SLT PUSH2 0x2CD5 JUMPI PUSH0 DUP1 REVERT JUMPDEST POP DUP2 CALLDATALOAD PUSH1 0x1 PUSH1 0x1 PUSH1 0x40 SHL SUB DUP2 GT ISZERO PUSH2 0x2CEB JUMPI PUSH0 DUP1 REVERT JUMPDEST PUSH1 0x20 DUP4 ADD SWAP2 POP DUP4 PUSH1 0x20 DUP3 DUP6 ADD ADD GT ISZERO PUSH2 0x2D02 JUMPI PUSH0 DUP1 REVERT JUMPDEST SWAP3 POP SWAP3 SWAP1 POP JUMP JUMPDEST PUSH0 DUP1 PUSH0 DUP1 PUSH0 DUP1 PUSH0 PUSH1 0xC0 DUP9 DUP11 SUB SLT ISZERO PUSH2 0x2D1F JUMPI PUSH0 DUP1 REVERT JUMPDEST DUP8 CALLDATALOAD SWAP7 POP PUSH2 0x2D2F PUSH1 0x20 DUP10 ADD PUSH2 0x2C94 JUMP JUMPDEST SWAP6 POP PUSH2 0x2D3D PUSH1 0x40 DUP10 ADD PUSH2 0x28FD JUMP JUMPDEST SWAP5 POP PUSH1 0x60 DUP9 ADD CALLDATALOAD PUSH1 0x1 PUSH1 0x1 PUSH1 0x40 SHL SUB DUP1 DUP3 GT ISZERO PUSH2 0x2D58 JUMPI PUSH0 DUP1 REVERT JUMPDEST PUSH2 0x2D64 DUP12 DUP4 DUP13 ADD PUSH2 0x2CC5 JUMP JUMPDEST SWAP1 SWAP7 POP SWAP5 POP PUSH1 0x80 DUP11 ADD CALLDATALOAD SWAP2 POP DUP1 DUP3 GT ISZERO PUSH2 0x2D7C JUMPI PUSH0 DUP1 REVERT JUMPDEST PUSH2 0x2D88 DUP12 DUP4 DUP13 ADD PUSH2 0x29B8 JUMP JUMPDEST SWAP4 POP PUSH1 0xA0 DUP11 ADD CALLDATALOAD SWAP2 POP DUP1 DUP3 GT ISZERO PUSH2 0x2D9D JUMPI PUSH0 DUP1 REVERT JUMPDEST POP PUSH2 0x2DAA DUP11 DUP3 DUP12 ADD PUSH2 0x29B8 JUMP JUMPDEST SWAP2 POP POP SWAP3 SWAP6 SWAP9 SWAP2 SWAP5 SWAP8 POP SWAP3 SWAP6 POP JUMP JUMPDEST PUSH0 DUP1 PUSH0 DUP1 PUSH0 PUSH1 0x80 DUP7 DUP9 SUB SLT ISZERO PUSH2 0x2DCD JUMPI PUSH0 DUP1 REVERT JUMPDEST DUP6 CALLDATALOAD SWAP5 POP PUSH2 0x2DDD PUSH1 0x20 DUP8 ADD PUSH2 0x2C94 JUMP JUMPDEST SWAP4 POP PUSH1 0x40 DUP7 ADD CALLDATALOAD PUSH1 0x1 PUSH1 0x1 PUSH1 0x40 SHL SUB DUP1 DUP3 GT ISZERO PUSH2 0x2DF8 JUMPI PUSH0 DUP1 REVERT JUMPDEST PUSH2 0x2E04 DUP10 DUP4 DUP11 ADD PUSH2 0x2CC5 JUMP JUMPDEST SWAP1 SWAP6 POP SWAP4 POP PUSH1 0x60 DUP9 ADD CALLDATALOAD SWAP2 POP DUP1 DUP3 GT ISZERO PUSH2 0x2E1C JUMPI PUSH0 DUP1 REVERT JUMPDEST POP PUSH2 0x2E29 DUP9 DUP3 DUP10 ADD PUSH2 0x29B8 JUMP JUMPDEST SWAP2 POP POP SWAP3 SWAP6 POP SWAP3 SWAP6 SWAP1 SWAP4 POP JUMP JUMPDEST PUSH0 DUP1 PUSH0 DUP1 PUSH1 0x60 DUP6 DUP8 SUB SLT ISZERO PUSH2 0x2E49 JUMPI PUSH0 DUP1 REVERT JUMPDEST DUP5 CALLDATALOAD SWAP4 POP PUSH2 0x2E59 PUSH1 0x20 DUP7 ADD PUSH2 0x2C94 JUMP JUMPDEST SWAP3 POP PUSH1 0x40 DUP6 ADD CALLDATALOAD PUSH1 0x1 PUSH1 0x1 PUSH1 0x40 SHL SUB DUP2 GT ISZERO PUSH2 0x2E73 JUMPI PUSH0 DUP1 REVERT JUMPDEST PUSH2 0x2E7F DUP8 DUP3 DUP9 ADD PUSH2 0x2CC5 JUMP JUMPDEST SWAP6 SWAP9 SWAP5 SWAP8 POP SWAP6 POP POP POP POP JUMP JUMPDEST PUSH0 DUP1 PUSH0 DUP1 PUSH1 0x80 DUP6 DUP8 SUB SLT ISZERO PUSH2 0x2E9E JUMPI PUSH0 DUP1 REVERT JUMPDEST DUP5 CALLDATALOAD PUSH1 0x1 PUSH1 0x1 PUSH1 0x40 SHL SUB DUP1 DUP3 GT ISZERO PUSH2 0x2EB4 JUMPI PUSH0 DUP1 REVERT JUMPDEST PUSH2 0x2EC0 DUP9 DUP4 DUP10 ADD PUSH2 0x2A5B JUMP JUMPDEST SWAP6 POP PUSH1 0x20 DUP8 ADD CALLDATALOAD SWAP2 POP DUP1 DUP3 GT ISZERO PUSH2 0x2ED5 JUMPI PUSH0 DUP1 REVERT JUMPDEST PUSH2 0x2EE1 DUP9 DUP4 DUP10 ADD PUSH2 0x2AC9 JUMP JUMPDEST SWAP5 POP PUSH1 0x40 DUP8 ADD CALLDATALOAD SWAP2 POP DUP1 DUP3 GT ISZERO PUSH2 0x2EF6 JUMPI PUSH0 DUP1 REVERT JUMPDEST PUSH2 0x2F02 DUP9 DUP4 DUP10 ADD PUSH2 0x2B25 JUMP JUMPDEST SWAP4 POP PUSH1 0x60 DUP8 ADD CALLDATALOAD SWAP2 POP DUP1 DUP3 GT ISZERO PUSH2 0x2F17 JUMPI PUSH0 DUP1 REVERT JUMPDEST POP DUP6 ADD PUSH1 0x1F DUP2 ADD DUP8 SGT PUSH2 0x2F28 JUMPI PUSH0 DUP1 REVERT JUMPDEST PUSH2 0x2A2D DUP8 DUP3 CALLDATALOAD PUSH1 0x20 DUP5 ADD PUSH2 0x297D JUMP JUMPDEST PUSH0 PUSH1 0x20 DUP3 DUP5 SUB SLT ISZERO PUSH2 0x2F47 JUMPI PUSH0 DUP1 REVERT JUMPDEST PUSH2 0x139B DUP3 PUSH2 0x28FD JUMP JUMPDEST PUSH0 DUP2 MLOAD DUP1 DUP5 MSTORE PUSH1 0x20 DUP1 DUP6 ADD SWAP5 POP PUSH1 0x20 DUP5 ADD PUSH0 JUMPDEST DUP4 DUP2 LT ISZERO PUSH2 0x2F7F JUMPI DUP2 MLOAD DUP8 MSTORE SWAP6 DUP3 ADD SWAP6 SWAP1 DUP3 ADD SWAP1 PUSH1 0x1 ADD PUSH2 0x2F63 JUMP JUMPDEST POP SWAP5 SWAP6 SWAP5 POP POP POP POP POP JUMP JUMPDEST PUSH1 0xFF PUSH1 0xF8 SHL DUP9 AND DUP2 MSTORE PUSH1 0xE0 PUSH1 0x20 DUP3 ADD MSTORE PUSH0 PUSH2 0x2FA8 PUSH1 0xE0 DUP4 ADD DUP10 PUSH2 0x28BD JUMP JUMPDEST DUP3 DUP2 SUB PUSH1 0x40 DUP5 ADD MSTORE PUSH2 0x2FBA DUP2 DUP10 PUSH2 0x28BD JUMP JUMPDEST PUSH1 0x60 DUP5 ADD DUP9 SWAP1 MSTORE PUSH1 0x1 PUSH1 0x1 PUSH1 0xA0 SHL SUB DUP8 AND PUSH1 0x80 DUP6 ADD MSTORE PUSH1 0xA0 DUP5 ADD DUP7 SWAP1 MSTORE DUP4 DUP2 SUB PUSH1 0xC0 DUP6 ADD MSTORE SWAP1 POP PUSH2 0x2FEB DUP2 DUP6 PUSH2 0x2F50 JUMP JUMPDEST SWAP11 SWAP10 POP POP POP POP POP POP POP POP POP POP JUMP JUMPDEST PUSH0 DUP1 PUSH0 DUP1 PUSH1 0x80 DUP6 DUP8 SUB SLT ISZERO PUSH2 0x300C JUMPI PUSH0 DUP1 REVERT JUMPDEST DUP5 CALLDATALOAD SWAP4 POP PUSH2 0x301C PUSH1 0x20 DUP7 ADD PUSH2 0x2C94 JUMP JUMPDEST SWAP3 POP PUSH2 0x302A PUSH1 0x40 DUP7 ADD PUSH2 0x28FD JUMP JUMPDEST SWAP2 POP PUSH1 0x60 DUP6 ADD CALLDATALOAD PUSH1 0x1 PUSH1 0x1 PUSH1 0x40 SHL SUB DUP2 GT ISZERO PUSH2 0x2A21 JUMPI PUSH0 DUP1 REVERT JUMPDEST PUSH0 DUP1 PUSH0 PUSH1 0x60 DUP5 DUP7 SUB SLT ISZERO PUSH2 0x3056 JUMPI PUSH0 DUP1 REVERT JUMPDEST PUSH2 0x305F DUP5 PUSH2 0x28FD JUMP JUMPDEST SWAP3 POP PUSH1 0x20 DUP5 ADD CALLDATALOAD SWAP2 POP PUSH1 0x40 DUP5 ADD CALLDATALOAD PUSH1 0x1 PUSH1 0x1 PUSH1 0x40 SHL SUB DUP2 GT ISZERO PUSH2 0x3080 JUMPI PUSH0 DUP1 REVERT JUMPDEST PUSH2 0x308C DUP7 DUP3 DUP8 ADD PUSH2 0x29B8 JUMP JUMPDEST SWAP2 POP POP SWAP3 POP SWAP3 POP SWAP3 JUMP JUMPDEST PUSH0 DUP1 PUSH0 DUP1 PUSH0 PUSH1 0xA0 DUP7 DUP9 SUB SLT ISZERO PUSH2 0x30AA JUMPI PUSH0 DUP1 REVERT JUMPDEST PUSH2 0x30B3 DUP7 PUSH2 0x28FD JUMP JUMPDEST SWAP5 POP PUSH2 0x30C1 PUSH1 0x20 DUP8 ADD PUSH2 0x28FD JUMP JUMPDEST SWAP4 POP PUSH1 0x40 DUP7 ADD CALLDATALOAD PUSH1 0x1 PUSH1 0x1 PUSH1 0x40 SHL SUB DUP1 DUP3 GT ISZERO PUSH2 0x30DC JUMPI PUSH0 DUP1 REVERT JUMPDEST PUSH2 0x30E8 DUP10 DUP4 DUP11 ADD PUSH2 0x2AC9 JUMP JUMPDEST SWAP5 POP PUSH1 0x60 DUP9 ADD CALLDATALOAD SWAP2 POP DUP1 DUP3 GT ISZERO PUSH2 0x30FD JUMPI PUSH0 DUP1 REVERT JUMPDEST PUSH2 0x3109 DUP10 DUP4 DUP11 ADD PUSH2 0x2AC9 JUMP JUMPDEST SWAP4 POP PUSH1 0x80 DUP9 ADD CALLDATALOAD SWAP2 POP DUP1 DUP3 GT ISZERO PUSH2 0x2E1C JUMPI PUSH0 DUP1 REVERT JUMPDEST PUSH0 DUP1 PUSH0 DUP1 PUSH1 0x60 DUP6 DUP8 SUB SLT ISZERO PUSH2 0x3131 JUMPI PUSH0 DUP1 REVERT JUMPDEST PUSH2 0x313A DUP6 PUSH2 0x28FD JUMP JUMPDEST SWAP4 POP PUSH1 0x20 DUP6 ADD CALLDATALOAD SWAP3 POP PUSH1 0x40 DUP6 ADD CALLDATALOAD PUSH1 0x1 PUSH1 0x1 PUSH1 0x40 SHL SUB DUP2 GT ISZERO PUSH2 0x2E73 JUMPI PUSH0 DUP1 REVERT JUMPDEST PUSH0 DUP1 PUSH1 0x40 DUP4 DUP6 SUB SLT ISZERO PUSH2 0x316C JUMPI PUSH0 DUP1 REVERT JUMPDEST PUSH2 0x3175 DUP4 PUSH2 0x28FD JUMP JUMPDEST SWAP5 PUSH1 0x20 SWAP4 SWAP1 SWAP4 ADD CALLDATALOAD SWAP4 POP POP POP JUMP JUMPDEST PUSH0 DUP1 PUSH0 DUP1 PUSH0 PUSH1 0xA0 DUP7 DUP9 SUB SLT ISZERO PUSH2 0x3197 JUMPI PUSH0 DUP1 REVERT JUMPDEST PUSH2 0x31A0 DUP7 PUSH2 0x28FD JUMP JUMPDEST SWAP5 POP PUSH2 0x31AE PUSH1 0x20 DUP8 ADD PUSH2 0x28FD JUMP JUMPDEST SWAP4 POP PUSH1 0x40 DUP7 ADD CALLDATALOAD SWAP3 POP PUSH1 0x60 DUP7 ADD CALLDATALOAD SWAP2 POP PUSH1 0x80 DUP7 ADD CALLDATALOAD PUSH1 0x1 PUSH1 0x1 PUSH1 0x40 SHL SUB DUP2 GT ISZERO PUSH2 0x31D6 JUMPI PUSH0 DUP1 REVERT JUMPDEST PUSH2 0x2E29 DUP9 DUP3 DUP10 ADD PUSH2 0x29B8 JUMP JUMPDEST PUSH1 0x1 DUP2 DUP2 SHR SWAP1 DUP3 AND DUP1 PUSH2 0x31F6 JUMPI PUSH1 0x7F DUP3 AND SWAP2 POP JUMPDEST PUSH1 0x20 DUP3 LT DUP2 SUB PUSH2 0x3214 JUMPI PUSH4 0x4E487B71 PUSH1 0xE0 SHL PUSH0 MSTORE PUSH1 0x22 PUSH1 0x4 MSTORE PUSH1 0x24 PUSH0 REVERT JUMPDEST POP SWAP2 SWAP1 POP JUMP JUMPDEST PUSH4 0x4E487B71 PUSH1 0xE0 SHL PUSH0 MSTORE PUSH1 0x32 PUSH1 0x4 MSTORE PUSH1 0x24 PUSH0 REVERT JUMPDEST PUSH0 PUSH1 0x20 DUP3 DUP5 SUB SLT ISZERO PUSH2 0x323E JUMPI PUSH0 DUP1 REVERT JUMPDEST DUP2 MLOAD PUSH1 0x1 PUSH1 0x1 PUSH1 0x40 SHL SUB DUP2 GT ISZERO PUSH2 0x3253 JUMPI PUSH0 DUP1 REVERT JUMPDEST DUP3 ADD PUSH1 0x1F DUP2 ADD DUP5 SGT PUSH2 0x3263 JUMPI PUSH0 DUP1 REVERT JUMPDEST DUP1 MLOAD PUSH2 0x3271 PUSH2 0x298A DUP3 PUSH2 0x2957 JUMP JUMPDEST DUP2 DUP2 MSTORE DUP6 PUSH1 0x20 DUP4 DUP6 ADD ADD GT ISZERO PUSH2 0x3285 JUMPI PUSH0 DUP1 REVERT JUMPDEST DUP2 PUSH1 0x20 DUP5 ADD PUSH1 0x20 DUP4 ADD MCOPY PUSH0 SWAP2 DUP2 ADD PUSH1 0x20 ADD SWAP2 SWAP1 SWAP2 MSTORE SWAP5 SWAP4 POP POP POP POP JUMP JUMPDEST DUP2 DUP4 DUP3 CALLDATACOPY PUSH0 SWAP2 ADD SWAP1 DUP2 MSTORE SWAP2 SWAP1 POP JUMP JUMPDEST PUSH4 0x4E487B71 PUSH1 0xE0 SHL PUSH0 MSTORE PUSH1 0x11 PUSH1 0x4 MSTORE PUSH1 0x24 PUSH0 REVERT JUMPDEST DUP2 DUP2 SUB DUP2 DUP2 GT ISZERO PUSH2 0x913 JUMPI PUSH2 0x913 PUSH2 0x32B1 JUMP JUMPDEST PUSH6 0xFFFFFFFFFFFF DUP3 DUP2 AND DUP3 DUP3 AND SUB SWAP1 DUP1 DUP3 GT ISZERO PUSH2 0x32F7 JUMPI PUSH2 0x32F7 PUSH2 0x32B1 JUMP JUMPDEST POP SWAP3 SWAP2 POP POP JUMP JUMPDEST PUSH0 PUSH1 0x20 DUP3 DUP5 SUB SLT ISZERO PUSH2 0x330E JUMPI PUSH0 DUP1 REVERT JUMPDEST DUP2 MLOAD PUSH6 0xFFFFFFFFFFFF DUP2 AND DUP2 EQ PUSH2 0x139B JUMPI PUSH0 DUP1 REVERT JUMPDEST PUSH6 0xFFFFFFFFFFFF DUP2 DUP2 AND DUP4 DUP3 AND ADD SWAP1 DUP1 DUP3 GT ISZERO PUSH2 0x32F7 JUMPI PUSH2 0x32F7 PUSH2 0x32B1 JUMP JUMPDEST PUSH0 DUP2 MLOAD DUP1 DUP5 MSTORE PUSH1 0x20 DUP1 DUP6 ADD SWAP5 POP PUSH1 0x20 DUP5 ADD PUSH0 JUMPDEST DUP4 DUP2 LT ISZERO PUSH2 0x2F7F JUMPI DUP2 MLOAD PUSH1 0x1 PUSH1 0x1 PUSH1 0xA0 SHL SUB AND DUP8 MSTORE SWAP6 DUP3 ADD SWAP6 SWAP1 DUP3 ADD SWAP1 PUSH1 0x1 ADD PUSH2 0x3355 JUMP JUMPDEST PUSH0 DUP3 DUP3 MLOAD DUP1 DUP6 MSTORE PUSH1 0x20 DUP1 DUP7 ADD SWAP6 POP PUSH1 0x20 DUP3 PUSH1 0x5 SHL DUP5 ADD ADD PUSH1 0x20 DUP7 ADD PUSH0 JUMPDEST DUP5 DUP2 LT ISZERO PUSH2 0x33C5 JUMPI PUSH1 0x1F NOT DUP7 DUP5 SUB ADD DUP10 MSTORE PUSH2 0x33B3 DUP4 DUP4 MLOAD PUSH2 0x28BD JUMP JUMPDEST SWAP9 DUP5 ADD SWAP9 SWAP3 POP SWAP1 DUP4 ADD SWAP1 PUSH1 0x1 ADD PUSH2 0x3397 JUMP JUMPDEST POP SWAP1 SWAP8 SWAP7 POP POP POP POP POP POP POP JUMP JUMPDEST PUSH1 0x80 DUP2 MSTORE PUSH0 PUSH2 0x33E4 PUSH1 0x80 DUP4 ADD DUP8 PUSH2 0x3342 JUMP JUMPDEST DUP3 DUP2 SUB PUSH1 0x20 DUP5 ADD MSTORE PUSH2 0x33F6 DUP2 DUP8 PUSH2 0x2F50 JUMP JUMPDEST SWAP1 POP DUP3 DUP2 SUB PUSH1 0x40 DUP5 ADD MSTORE PUSH2 0x340A DUP2 DUP7 PUSH2 0x337A JUMP JUMPDEST SWAP2 POP POP DUP3 PUSH1 0x60 DUP4 ADD MSTORE SWAP6 SWAP5 POP POP POP POP POP JUMP JUMPDEST DUP4 DUP2 MSTORE PUSH1 0x60 DUP2 ADD PUSH2 0x3430 PUSH1 0x20 DUP4 ADD DUP6 PUSH2 0x2C3C JUMP JUMPDEST DUP3 PUSH1 0x40 DUP4 ADD MSTORE SWAP5 SWAP4 POP POP POP POP JUMP JUMPDEST PUSH0 DUP3 MLOAD DUP1 PUSH1 0x20 DUP6 ADD DUP5 MCOPY PUSH0 SWAP3 ADD SWAP2 DUP3 MSTORE POP SWAP2 SWAP1 POP JUMP JUMPDEST DUP1 DUP3 ADD DUP1 DUP3 GT ISZERO PUSH2 0x913 JUMPI PUSH2 0x913 PUSH2 0x32B1 JUMP JUMPDEST PUSH1 0xFF DUP2 DUP2 AND DUP4 DUP3 AND ADD SWAP1 DUP2 GT ISZERO PUSH2 0x913 JUMPI PUSH2 0x913 PUSH2 0x32B1 JUMP JUMPDEST PUSH1 0x1 DUP2 DUP2 JUMPDEST DUP1 DUP6 GT ISZERO PUSH2 0x34BA JUMPI DUP2 PUSH0 NOT DIV DUP3 GT ISZERO PUSH2 0x34A0 JUMPI PUSH2 0x34A0 PUSH2 0x32B1 JUMP JUMPDEST DUP1 DUP6 AND ISZERO PUSH2 0x34AD JUMPI SWAP2 DUP2 MUL SWAP2 JUMPDEST SWAP4 DUP5 SHR SWAP4 SWAP1 DUP1 MUL SWAP1 PUSH2 0x3485 JUMP JUMPDEST POP SWAP3 POP SWAP3 SWAP1 POP JUMP JUMPDEST PUSH0 DUP3 PUSH2 0x34D0 JUMPI POP PUSH1 0x1 PUSH2 0x913 JUMP JUMPDEST DUP2 PUSH2 0x34DC JUMPI POP PUSH0 PUSH2 0x913 JUMP JUMPDEST DUP2 PUSH1 0x1 DUP2 EQ PUSH2 0x34F2 JUMPI PUSH1 0x2 DUP2 EQ PUSH2 0x34FC JUMPI PUSH2 0x3518 JUMP JUMPDEST PUSH1 0x1 SWAP2 POP POP PUSH2 0x913 JUMP JUMPDEST PUSH1 0xFF DUP5 GT ISZERO PUSH2 0x350D JUMPI PUSH2 0x350D PUSH2 0x32B1 JUMP JUMPDEST POP POP PUSH1 0x1 DUP3 SHL PUSH2 0x913 JUMP JUMPDEST POP PUSH1 0x20 DUP4 LT PUSH2 0x133 DUP4 LT AND PUSH1 0x4E DUP5 LT PUSH1 0xB DUP5 LT AND OR ISZERO PUSH2 0x353B JUMPI POP DUP2 DUP2 EXP PUSH2 0x913 JUMP JUMPDEST PUSH2 0x3545 DUP4 DUP4 PUSH2 0x3480 JUMP JUMPDEST DUP1 PUSH0 NOT DIV DUP3 GT ISZERO PUSH2 0x3558 JUMPI PUSH2 0x3558 PUSH2 0x32B1 JUMP JUMPDEST MUL SWAP4 SWAP3 POP POP POP JUMP JUMPDEST PUSH0 PUSH2 0x139B PUSH1 0xFF DUP5 AND DUP4 PUSH2 0x34C2 JUMP JUMPDEST DUP5 DUP2 MSTORE PUSH1 0xFF DUP5 AND PUSH1 0x20 DUP3 ADD MSTORE DUP3 PUSH1 0x40 DUP3 ADD MSTORE PUSH1 0x80 PUSH1 0x60 DUP3 ADD MSTORE PUSH0 PUSH2 0xCDB PUSH1 0x80 DUP4 ADD DUP5 PUSH2 0x28BD JUMP JUMPDEST DUP6 DUP2 MSTORE PUSH1 0xFF DUP6 AND PUSH1 0x20 DUP3 ADD MSTORE DUP4 PUSH1 0x40 DUP3 ADD MSTORE PUSH1 0xA0 PUSH1 0x60 DUP3 ADD MSTORE PUSH0 PUSH2 0x35BC PUSH1 0xA0 DUP4 ADD DUP6 PUSH2 0x28BD JUMP JUMPDEST DUP3 DUP2 SUB PUSH1 0x80 DUP5 ADD MSTORE PUSH2 0x10B7 DUP2 DUP6 PUSH2 0x28BD JUMP JUMPDEST PUSH0 PUSH2 0x120 DUP12 DUP4 MSTORE PUSH1 0x20 PUSH1 0x1 DUP1 PUSH1 0xA0 SHL SUB DUP13 AND DUP2 DUP6 ADD MSTORE DUP2 PUSH1 0x40 DUP6 ADD MSTORE PUSH2 0x35F6 DUP3 DUP6 ADD DUP13 PUSH2 0x3342 JUMP JUMPDEST SWAP2 POP DUP4 DUP3 SUB PUSH1 0x60 DUP6 ADD MSTORE PUSH2 0x360A DUP3 DUP12 PUSH2 0x2F50 JUMP JUMPDEST SWAP2 POP DUP4 DUP3 SUB PUSH1 0x80 DUP6 ADD MSTORE DUP2 DUP10 MLOAD DUP1 DUP5 MSTORE DUP3 DUP5 ADD SWAP2 POP DUP3 DUP2 PUSH1 0x5 SHL DUP6 ADD ADD DUP4 DUP13 ADD PUSH0 JUMPDEST DUP4 DUP2 LT ISZERO PUSH2 0x365A JUMPI PUSH1 0x1F NOT DUP8 DUP5 SUB ADD DUP6 MSTORE PUSH2 0x3648 DUP4 DUP4 MLOAD PUSH2 0x28BD JUMP JUMPDEST SWAP5 DUP7 ADD SWAP5 SWAP3 POP SWAP1 DUP6 ADD SWAP1 PUSH1 0x1 ADD PUSH2 0x362C JUMP JUMPDEST POP POP DUP7 DUP2 SUB PUSH1 0xA0 DUP9 ADD MSTORE PUSH2 0x366E DUP2 DUP13 PUSH2 0x337A JUMP JUMPDEST SWAP5 POP POP POP POP POP DUP6 PUSH1 0xC0 DUP5 ADD MSTORE DUP5 PUSH1 0xE0 DUP5 ADD MSTORE DUP3 DUP2 SUB PUSH2 0x100 DUP5 ADD MSTORE PUSH2 0x3693 DUP2 DUP6 PUSH2 0x28BD JUMP JUMPDEST SWAP13 SWAP12 POP POP POP POP POP POP POP POP POP POP POP POP JUMP JUMPDEST PUSH0 PUSH1 0x20 DUP3 DUP5 SUB SLT ISZERO PUSH2 0x36B3 JUMPI PUSH0 DUP1 REVERT JUMPDEST POP MLOAD SWAP2 SWAP1 POP JUMP JUMPDEST DUP1 DUP3 MUL DUP2 ISZERO DUP3 DUP3 DIV DUP5 EQ OR PUSH2 0x913 JUMPI PUSH2 0x913 PUSH2 0x32B1 JUMP JUMPDEST PUSH4 0x4E487B71 PUSH1 0xE0 SHL PUSH0 MSTORE PUSH1 0x12 PUSH1 0x4 MSTORE PUSH1 0x24 PUSH0 REVERT JUMPDEST PUSH0 DUP3 PUSH2 0x36FF JUMPI PUSH4 0x4E487B71 PUSH1 0xE0 SHL PUSH0 MSTORE PUSH1 0x12 PUSH1 0x4 MSTORE PUSH1 0x24 PUSH0 REVERT JUMPDEST POP DIV SWAP1 JUMP JUMPDEST DUP3 DUP2 MSTORE PUSH1 0x40 PUSH1 0x20 DUP3 ADD MSTORE PUSH0 PUSH2 0xDC4 PUSH1 0x40 DUP4 ADD DUP5 PUSH2 0x28BD JUMP INVALID LOG2 PUSH5 0x6970667358 0x22 SLT KECCAK256 0xF6 ADDRESS MCOPY 0xBC DUP2 JUMP SWAP8 MSIZE 0xFC 0xCA 0xF7 0xEE PUSH1 0xC8 0x2B DUP7 SWAP16 0xDC 0x4E 0x4C CALLVALUE PUSH25 0x3F62126E409118095E5164736F6C6343000819003300000000 "
		},
		"gasEstimates": {
			"creation": {
				"codeDepositCost": "2832400",
				"executionCost": "infinite",
				"totalCost": "infinite"
			},
			"external": {
				"BALLOT_TYPEHASH()": "260",
				"CLOCK_MODE()": "infinite",
				"COUNTING_MODE()": "infinite",
				"EXTENDED_BALLOT_TYPEHASH()": "328",
				"cancel(address[],uint256[],bytes[],bytes32)": "infinite",
				"castVote(uint256,uint8)": "infinite",
				"castVoteBySig(uint256,uint8,address,bytes)": "infinite",
				"castVoteWithReason(uint256,uint8,string)": "infinite",
				"castVoteWithReasonAndParams(uint256,uint8,string,bytes)": "infinite",
				"castVoteWithReasonAndParamsBySig(uint256,uint8,address,string,bytes,bytes)": "infinite",
				"clock()": "infinite",
				"eip712Domain()": "infinite",
				"execute(address[],uint256[],bytes[],bytes32)": "infinite",
				"getVotes(address,uint256)": "infinite",
				"getVotesWithParams(address,uint256,bytes)": "infinite",
				"hasVoted(uint256,address)": "2736",
				"hashProposal(address[],uint256[],bytes[],bytes32)": "infinite",
				"name()": "infinite",
				"nonces(address)": "2624",
				"onERC1155BatchReceived(address,address,uint256[],uint256[],bytes)": "infinite",
				"onERC1155Received(address,address,uint256,uint256,bytes)": "infinite",
				"onERC721Received(address,address,uint256,bytes)": "infinite",
				"proposalDeadline(uint256)": "2690",
				"proposalEta(uint256)": "2602",
				"proposalNeedsQueuing(uint256)": "399",
				"proposalProposer(uint256)": "2609",
				"proposalSnapshot(uint256)": "2582",
				"proposalThreshold()": "235",
				"proposalVotes(uint256)": "6749",
				"propose(address[],uint256[],bytes[],string)": "infinite",
				"queue(address[],uint256[],bytes[],bytes32)": "infinite",
				"quorum(uint256)": "infinite",
				"quorumDenominator()": "258",
				"quorumNumerator()": "4804",
				"quorumNumerator(uint256)": "infinite",
				"relay(address,uint256,bytes)": "infinite",
				"state(uint256)": "infinite",
				"supportsInterface(bytes4)": "525",
				"token()": "infinite",
				"updateQuorumNumerator(uint256)": "infinite",
				"version()": "infinite",
				"votingDelay()": "236",
				"votingPeriod()": "249"
			}
		},
		"methodIdentifiers": {
			"BALLOT_TYPEHASH()": "deaaa7cc",
			"CLOCK_MODE()": "4bf5d7e9",
			"COUNTING_MODE()": "dd4e2ba5",
			"EXTENDED_BALLOT_TYPEHASH()": "2fe3e261",
			"cancel(address[],uint256[],bytes[],bytes32)": "452115d6",
			"castVote(uint256,uint8)": "56781388",
			"castVoteBySig(uint256,uint8,address,bytes)": "8ff262e3",
			"castVoteWithReason(uint256,uint8,string)": "7b3c71d3",
			"castVoteWithReasonAndParams(uint256,uint8,string,bytes)": "5f398a14",
			"castVoteWithReasonAndParamsBySig(uint256,uint8,address,string,bytes,bytes)": "5b8d0e0d",
			"clock()": "91ddadf4",
			"eip712Domain()": "84b0196e",
			"execute(address[],uint256[],bytes[],bytes32)": "2656227d",
			"getVotes(address,uint256)": "eb9019d4",
			"getVotesWithParams(address,uint256,bytes)": "9a802a6d",
			"hasVoted(uint256,address)": "43859632",
			"hashProposal(address[],uint256[],bytes[],bytes32)": "c59057e4",
			"name()": "06fdde03",
			"nonces(address)": "7ecebe00",
			"onERC1155BatchReceived(address,address,uint256[],uint256[],bytes)": "bc197c81",
			"onERC1155Received(address,address,uint256,uint256,bytes)": "f23a6e61",
			"onERC721Received(address,address,uint256,bytes)": "150b7a02",
			"proposalDeadline(uint256)": "c01f9e37",
			"proposalEta(uint256)": "ab58fb8e",
			"proposalNeedsQueuing(uint256)": "a9a95294",
			"proposalProposer(uint256)": "143489d0",
			"proposalSnapshot(uint256)": "2d63f693",
			"proposalThreshold()": "b58131b0",
			"proposalVotes(uint256)": "544ffc9c",
			"propose(address[],uint256[],bytes[],string)": "7d5e81e2",
			"queue(address[],uint256[],bytes[],bytes32)": "160cbed7",
			"quorum(uint256)": "f8ce560a",
			"quorumDenominator()": "97c3d334",
			"quorumNumerator()": "a7713a70",
			"quorumNumerator(uint256)": "60c4247f",
			"relay(address,uint256,bytes)": "c28bc2fa",
			"state(uint256)": "3e4f49e6",
			"supportsInterface(bytes4)": "01ffc9a7",
			"token()": "fc0c546a",
			"updateQuorumNumerator(uint256)": "06f3f9e6",
			"version()": "54fd4d50",
			"votingDelay()": "3932abb1",
			"votingPeriod()": "02a251a3"
		}
	},
	"abi": [
		{
			"inputs": [
				{
					"internalType": "contract IVotes",
					"name": "_token",
					"type": "address"
				}
			],
			"stateMutability": "nonpayable",
			"type": "constructor"
		},
		{
			"inputs": [],
			"name": "CheckpointUnorderedInsertion",
			"type": "error"
		},
		{
			"inputs": [],
			"name": "FailedInnerCall",
			"type": "error"
		},
		{
			"inputs": [
				{
					"internalType": "address",
					"name": "voter",
					"type": "address"
				}
			],
			"name": "GovernorAlreadyCastVote",
			"type": "error"
		},
		{
			"inputs": [
				{
					"internalType": "uint256",
					"name": "proposalId",
					"type": "uint256"
				}
			],
			"name": "GovernorAlreadyQueuedProposal",
			"type": "error"
		},
		{
			"inputs": [],
			"name": "GovernorDisabledDeposit",
			"type": "error"
		},
		{
			"inputs": [
				{
					"internalType": "address",
					"name": "proposer",
					"type": "address"
				},
				{
					"internalType": "uint256",
					"name": "votes",
					"type": "uint256"
				},
				{
					"internalType": "uint256",
					"name": "threshold",
					"type": "uint256"
				}
			],
			"name": "GovernorInsufficientProposerVotes",
			"type": "error"
		},
		{
			"inputs": [
				{
					"internalType": "uint256",
					"name": "targets",
					"type": "uint256"
				},
				{
					"internalType": "uint256",
					"name": "calldatas",
					"type": "uint256"
				},
				{
					"internalType": "uint256",
					"name": "values",
					"type": "uint256"
				}
			],
			"name": "GovernorInvalidProposalLength",
			"type": "error"
		},
		{
			"inputs": [
				{
					"internalType": "uint256",
					"name": "quorumNumerator",
					"type": "uint256"
				},
				{
					"internalType": "uint256",
					"name": "quorumDenominator",
					"type": "uint256"
				}
			],
			"name": "GovernorInvalidQuorumFraction",
			"type": "error"
		},
		{
			"inputs": [
				{
					"internalType": "address",
					"name": "voter",
					"type": "address"
				}
			],
			"name": "GovernorInvalidSignature",
			"type": "error"
		},
		{
			"inputs": [],
			"name": "GovernorInvalidVoteType",
			"type": "error"
		},
		{
			"inputs": [
				{
					"internalType": "uint256",
					"name": "votingPeriod",
					"type": "uint256"
				}
			],
			"name": "GovernorInvalidVotingPeriod",
			"type": "error"
		},
		{
			"inputs": [
				{
					"internalType": "uint256",
					"name": "proposalId",
					"type": "uint256"
				}
			],
			"name": "GovernorNonexistentProposal",
			"type": "error"
		},
		{
			"inputs": [
				{
					"internalType": "uint256",
					"name": "proposalId",
					"type": "uint256"
				}
			],
			"name": "GovernorNotQueuedProposal",
			"type": "error"
		},
		{
			"inputs": [
				{
					"internalType": "address",
					"name": "account",
					"type": "address"
				}
			],
			"name": "GovernorOnlyExecutor",
			"type": "error"
		},
		{
			"inputs": [
				{
					"internalType": "address",
					"name": "account",
					"type": "address"
				}
			],
			"name": "GovernorOnlyProposer",
			"type": "error"
		},
		{
			"inputs": [],
			"name": "GovernorQueueNotImplemented",
			"type": "error"
		},
		{
			"inputs": [
				{
					"internalType": "address",
					"name": "proposer",
					"type": "address"
				}
			],
			"name": "GovernorRestrictedProposer",
			"type": "error"
		},
		{
			"inputs": [
				{
					"internalType": "uint256",
					"name": "proposalId",
					"type": "uint256"
				},
				{
					"internalType": "enum IGovernor.ProposalState",
					"name": "current",
					"type": "uint8"
				},
				{
					"internalType": "bytes32",
					"name": "expectedStates",
					"type": "bytes32"
				}
			],
			"name": "GovernorUnexpectedProposalState",
			"type": "error"
		},
		{
			"inputs": [
				{
					"internalType": "address",
					"name": "account",
					"type": "address"
				},
				{
					"internalType": "uint256",
					"name": "currentNonce",
					"type": "uint256"
				}
			],
			"name": "InvalidAccountNonce",
			"type": "error"
		},
		{
			"inputs": [],
			"name": "InvalidShortString",
			"type": "error"
		},
		{
			"inputs": [],
			"name": "QueueEmpty",
			"type": "error"
		},
		{
			"inputs": [],
			"name": "QueueFull",
			"type": "error"
		},
		{
			"inputs": [
				{
					"internalType": "uint8",
					"name": "bits",
					"type": "uint8"
				},
				{
					"internalType": "uint256",
					"name": "value",
					"type": "uint256"
				}
			],
			"name": "SafeCastOverflowedUintDowncast",
			"type": "error"
		},
		{
			"inputs": [
				{
					"internalType": "string",
					"name": "str",
					"type": "string"
				}
			],
			"name": "StringTooLong",
			"type": "error"
		},
		{
			"anonymous": false,
			"inputs": [],
			"name": "EIP712DomainChanged",
			"type": "event"
		},
		{
			"anonymous": false,
			"inputs": [
				{
					"indexed": false,
					"internalType": "uint256",
					"name": "proposalId",
					"type": "uint256"
				}
			],
			"name": "ProposalCanceled",
			"type": "event"
		},
		{
			"anonymous": false,
			"inputs": [
				{
					"indexed": false,
					"internalType": "uint256",
					"name": "proposalId",
					"type": "uint256"
				},
				{
					"indexed": false,
					"internalType": "address",
					"name": "proposer",
					"type": "address"
				},
				{
					"indexed": false,
					"internalType": "address[]",
					"name": "targets",
					"type": "address[]"
				},
				{
					"indexed": false,
					"internalType": "uint256[]",
					"name": "values",
					"type": "uint256[]"
				},
				{
					"indexed": false,
					"internalType": "string[]",
					"name": "signatures",
					"type": "string[]"
				},
				{
					"indexed": false,
					"internalType": "bytes[]",
					"name": "calldatas",
					"type": "bytes[]"
				},
				{
					"indexed": false,
					"internalType": "uint256",
					"name": "voteStart",
					"type": "uint256"
				},
				{
					"indexed": false,
					"internalType": "uint256",
					"name": "voteEnd",
					"type": "uint256"
				},
				{
					"indexed": false,
					"internalType": "string",
					"name": "description",
					"type": "string"
				}
			],
			"name": "ProposalCreated",
			"type": "event"
		},
		{
			"anonymous": false,
			"inputs": [
				{
					"indexed": false,
					"internalType": "uint256",
					"name": "proposalId",
					"type": "uint256"
				}
			],
			"name": "ProposalExecuted",
			"type": "event"
		},
		{
			"anonymous": false,
			"inputs": [
				{
					"indexed": false,
					"internalType": "uint256",
					"name": "proposalId",
					"type": "uint256"
				},
				{
					"indexed": false,
					"internalType": "uint256",
					"name": "etaSeconds",
					"type": "uint256"
				}
			],
			"name": "ProposalQueued",
			"type": "event"
		},
		{
			"anonymous": false,
			"inputs": [
				{
					"indexed": false,
					"internalType": "uint256",
					"name": "oldQuorumNumerator",
					"type": "uint256"
				},
				{
					"indexed": false,
					"internalType": "uint256",
					"name": "newQuorumNumerator",
					"type": "uint256"
				}
			],
			"name": "QuorumNumeratorUpdated",
			"type": "event"
		},
		{
			"anonymous": false,
			"inputs": [
				{
					"indexed": true,
					"internalType": "address",
					"name": "voter",
					"type": "address"
				},
				{
					"indexed": false,
					"internalType": "uint256",
					"name": "proposalId",
					"type": "uint256"
				},
				{
					"indexed": false,
					"internalType": "uint8",
					"name": "support",
					"type": "uint8"
				},
				{
					"indexed": false,
					"internalType": "uint256",
					"name": "weight",
					"type": "uint256"
				},
				{
					"indexed": false,
					"internalType": "string",
					"name": "reason",
					"type": "string"
				}
			],
			"name": "VoteCast",
			"type": "event"
		},
		{
			"anonymous": false,
			"inputs": [
				{
					"indexed": true,
					"internalType": "address",
					"name": "voter",
					"type": "address"
				},
				{
					"indexed": false,
					"internalType": "uint256",
					"name": "proposalId",
					"type": "uint256"
				},
				{
					"indexed": false,
					"internalType": "uint8",
					"name": "support",
					"type": "uint8"
				},
				{
					"indexed": false,
					"internalType": "uint256",
					"name": "weight",
					"type": "uint256"
				},
				{
					"indexed": false,
					"internalType": "string",
					"name": "reason",
					"type": "string"
				},
				{
					"indexed": false,
					"internalType": "bytes",
					"name": "params",
					"type": "bytes"
				}
			],
			"name": "VoteCastWithParams",
			"type": "event"
		},
		{
			"inputs": [],
			"name": "BALLOT_TYPEHASH",
			"outputs": [
				{
					"internalType": "bytes32",
					"name": "",
					"type": "bytes32"
				}
			],
			"stateMutability": "view",
			"type": "function"
		},
		{
			"inputs": [],
			"name": "CLOCK_MODE",
			"outputs": [
				{
					"internalType": "string",
					"name": "",
					"type": "string"
				}
			],
			"stateMutability": "view",
			"type": "function"
		},
		{
			"inputs": [],
			"name": "COUNTING_MODE",
			"outputs": [
				{
					"internalType": "string",
					"name": "",
					"type": "string"
				}
			],
			"stateMutability": "pure",
			"type": "function"
		},
		{
			"inputs": [],
			"name": "EXTENDED_BALLOT_TYPEHASH",
			"outputs": [
				{
					"internalType": "bytes32",
					"name": "",
					"type": "bytes32"
				}
			],
			"stateMutability": "view",
			"type": "function"
		},
		{
			"inputs": [
				{
					"internalType": "address[]",
					"name": "targets",
					"type": "address[]"
				},
				{
					"internalType": "uint256[]",
					"name": "values",
					"type": "uint256[]"
				},
				{
					"internalType": "bytes[]",
					"name": "calldatas",
					"type": "bytes[]"
				},
				{
					"internalType": "bytes32",
					"name": "descriptionHash",
					"type": "bytes32"
				}
			],
			"name": "cancel",
			"outputs": [
				{
					"internalType": "uint256",
					"name": "",
					"type": "uint256"
				}
			],
			"stateMutability": "nonpayable",
			"type": "function"
		},
		{
			"inputs": [
				{
					"internalType": "uint256",
					"name": "proposalId",
					"type": "uint256"
				},
				{
					"internalType": "uint8",
					"name": "support",
					"type": "uint8"
				}
			],
			"name": "castVote",
			"outputs": [
				{
					"internalType": "uint256",
					"name": "",
					"type": "uint256"
				}
			],
			"stateMutability": "nonpayable",
			"type": "function"
		},
		{
			"inputs": [
				{
					"internalType": "uint256",
					"name": "proposalId",
					"type": "uint256"
				},
				{
					"internalType": "uint8",
					"name": "support",
					"type": "uint8"
				},
				{
					"internalType": "address",
					"name": "voter",
					"type": "address"
				},
				{
					"internalType": "bytes",
					"name": "signature",
					"type": "bytes"
				}
			],
			"name": "castVoteBySig",
			"outputs": [
				{
					"internalType": "uint256",
					"name": "",
					"type": "uint256"
				}
			],
			"stateMutability": "nonpayable",
			"type": "function"
		},
		{
			"inputs": [
				{
					"internalType": "uint256",
					"name": "proposalId",
					"type": "uint256"
				},
				{
					"internalType": "uint8",
					"name": "support",
					"type": "uint8"
				},
				{
					"internalType": "string",
					"name": "reason",
					"type": "string"
				}
			],
			"name": "castVoteWithReason",
			"outputs": [
				{
					"internalType": "uint256",
					"name": "",
					"type": "uint256"
				}
			],
			"stateMutability": "nonpayable",
			"type": "function"
		},
		{
			"inputs": [
				{
					"internalType": "uint256",
					"name": "proposalId",
					"type": "uint256"
				},
				{
					"internalType": "uint8",
					"name": "support",
					"type": "uint8"
				},
				{
					"internalType": "string",
					"name": "reason",
					"type": "string"
				},
				{
					"internalType": "bytes",
					"name": "params",
					"type": "bytes"
				}
			],
			"name": "castVoteWithReasonAndParams",
			"outputs": [
				{
					"internalType": "uint256",
					"name": "",
					"type": "uint256"
				}
			],
			"stateMutability": "nonpayable",
			"type": "function"
		},
		{
			"inputs": [
				{
					"internalType": "uint256",
					"name": "proposalId",
					"type": "uint256"
				},
				{
					"internalType": "uint8",
					"name": "support",
					"type": "uint8"
				},
				{
					"internalType": "address",
					"name": "voter",
					"type": "address"
				},
				{
					"internalType": "string",
					"name": "reason",
					"type": "string"
				},
				{
					"internalType": "bytes",
					"name": "params",
					"type": "bytes"
				},
				{
					"internalType": "bytes",
					"name": "signature",
					"type": "bytes"
				}
			],
			"name": "castVoteWithReasonAndParamsBySig",
			"outputs": [
				{
					"internalType": "uint256",
					"name": "",
					"type": "uint256"
				}
			],
			"stateMutability": "nonpayable",
			"type": "function"
		},
		{
			"inputs": [],
			"name": "clock",
			"outputs": [
				{
					"internalType": "uint48",
					"name": "",
					"type": "uint48"
				}
			],
			"stateMutability": "view",
			"type": "function"
		},
		{
			"inputs": [],
			"name": "eip712Domain",
			"outputs": [
				{
					"internalType": "bytes1",
					"name": "fields",
					"type": "bytes1"
				},
				{
					"internalType": "string",
					"name": "name",
					"type": "string"
				},
				{
					"internalType": "string",
					"name": "version",
					"type": "string"
				},
				{
					"internalType": "uint256",
					"name": "chainId",
					"type": "uint256"
				},
				{
					"internalType": "address",
					"name": "verifyingContract",
					"type": "address"
				},
				{
					"internalType": "bytes32",
					"name": "salt",
					"type": "bytes32"
				},
				{
					"internalType": "uint256[]",
					"name": "extensions",
					"type": "uint256[]"
				}
			],
			"stateMutability": "view",
			"type": "function"
		},
		{
			"inputs": [
				{
					"internalType": "address[]",
					"name": "targets",
					"type": "address[]"
				},
				{
					"internalType": "uint256[]",
					"name": "values",
					"type": "uint256[]"
				},
				{
					"internalType": "bytes[]",
					"name": "calldatas",
					"type": "bytes[]"
				},
				{
					"internalType": "bytes32",
					"name": "descriptionHash",
					"type": "bytes32"
				}
			],
			"name": "execute",
			"outputs": [
				{
					"internalType": "uint256",
					"name": "",
					"type": "uint256"
				}
			],
			"stateMutability": "payable",
			"type": "function"
		},
		{
			"inputs": [
				{
					"internalType": "address",
					"name": "account",
					"type": "address"
				},
				{
					"internalType": "uint256",
					"name": "timepoint",
					"type": "uint256"
				}
			],
			"name": "getVotes",
			"outputs": [
				{
					"internalType": "uint256",
					"name": "",
					"type": "uint256"
				}
			],
			"stateMutability": "view",
			"type": "function"
		},
		{
			"inputs": [
				{
					"internalType": "address",
					"name": "account",
					"type": "address"
				},
				{
					"internalType": "uint256",
					"name": "timepoint",
					"type": "uint256"
				},
				{
					"internalType": "bytes",
					"name": "params",
					"type": "bytes"
				}
			],
			"name": "getVotesWithParams",
			"outputs": [
				{
					"internalType": "uint256",
					"name": "",
					"type": "uint256"
				}
			],
			"stateMutability": "view",
			"type": "function"
		},
		{
			"inputs": [
				{
					"internalType": "uint256",
					"name": "proposalId",
					"type": "uint256"
				},
				{
					"internalType": "address",
					"name": "account",
					"type": "address"
				}
			],
			"name": "hasVoted",
			"outputs": [
				{
					"internalType": "bool",
					"name": "",
					"type": "bool"
				}
			],
			"stateMutability": "view",
			"type": "function"
		},
		{
			"inputs": [
				{
					"internalType": "address[]",
					"name": "targets",
					"type": "address[]"
				},
				{
					"internalType": "uint256[]",
					"name": "values",
					"type": "uint256[]"
				},
				{
					"internalType": "bytes[]",
					"name": "calldatas",
					"type": "bytes[]"
				},
				{
					"internalType": "bytes32",
					"name": "descriptionHash",
					"type": "bytes32"
				}
			],
			"name": "hashProposal",
			"outputs": [
				{
					"internalType": "uint256",
					"name": "",
					"type": "uint256"
				}
			],
			"stateMutability": "pure",
			"type": "function"
		},
		{
			"inputs": [],
			"name": "name",
			"outputs": [
				{
					"internalType": "string",
					"name": "",
					"type": "string"
				}
			],
			"stateMutability": "view",
			"type": "function"
		},
		{
			"inputs": [
				{
					"internalType": "address",
					"name": "owner",
					"type": "address"
				}
			],
			"name": "nonces",
			"outputs": [
				{
					"internalType": "uint256",
					"name": "",
					"type": "uint256"
				}
			],
			"stateMutability": "view",
			"type": "function"
		},
		{
			"inputs": [
				{
					"internalType": "address",
					"name": "",
					"type": "address"
				},
				{
					"internalType": "address",
					"name": "",
					"type": "address"
				},
				{
					"internalType": "uint256[]",
					"name": "",
					"type": "uint256[]"
				},
				{
					"internalType": "uint256[]",
					"name": "",
					"type": "uint256[]"
				},
				{
					"internalType": "bytes",
					"name": "",
					"type": "bytes"
				}
			],
			"name": "onERC1155BatchReceived",
			"outputs": [
				{
					"internalType": "bytes4",
					"name": "",
					"type": "bytes4"
				}
			],
			"stateMutability": "nonpayable",
			"type": "function"
		},
		{
			"inputs": [
				{
					"internalType": "address",
					"name": "",
					"type": "address"
				},
				{
					"internalType": "address",
					"name": "",
					"type": "address"
				},
				{
					"internalType": "uint256",
					"name": "",
					"type": "uint256"
				},
				{
					"internalType": "uint256",
					"name": "",
					"type": "uint256"
				},
				{
					"internalType": "bytes",
					"name": "",
					"type": "bytes"
				}
			],
			"name": "onERC1155Received",
			"outputs": [
				{
					"internalType": "bytes4",
					"name": "",
					"type": "bytes4"
				}
			],
			"stateMutability": "nonpayable",
			"type": "function"
		},
		{
			"inputs": [
				{
					"internalType": "address",
					"name": "",
					"type": "address"
				},
				{
					"internalType": "address",
					"name": "",
					"type": "address"
				},
				{
					"internalType": "uint256",
					"name": "",
					"type": "uint256"
				},
				{
					"internalType": "bytes",
					"name": "",
					"type": "bytes"
				}
			],
			"name": "onERC721Received",
			"outputs": [
				{
					"internalType": "bytes4",
					"name": "",
					"type": "bytes4"
				}
			],
			"stateMutability": "nonpayable",
			"type": "function"
		},
		{
			"inputs": [
				{
					"internalType": "uint256",
					"name": "proposalId",
					"type": "uint256"
				}
			],
			"name": "proposalDeadline",
			"outputs": [
				{
					"internalType": "uint256",
					"name": "",
					"type": "uint256"
				}
			],
			"stateMutability": "view",
			"type": "function"
		},
		{
			"inputs": [
				{
					"internalType": "uint256",
					"name": "proposalId",
					"type": "uint256"
				}
			],
			"name": "proposalEta",
			"outputs": [
				{
					"internalType": "uint256",
					"name": "",
					"type": "uint256"
				}
			],
			"stateMutability": "view",
			"type": "function"
		},
		{
			"inputs": [
				{
					"internalType": "uint256",
					"name": "",
					"type": "uint256"
				}
			],
			"name": "proposalNeedsQueuing",
			"outputs": [
				{
					"internalType": "bool",
					"name": "",
					"type": "bool"
				}
			],
			"stateMutability": "view",
			"type": "function"
		},
		{
			"inputs": [
				{
					"internalType": "uint256",
					"name": "proposalId",
					"type": "uint256"
				}
			],
			"name": "proposalProposer",
			"outputs": [
				{
					"internalType": "address",
					"name": "",
					"type": "address"
				}
			],
			"stateMutability": "view",
			"type": "function"
		},
		{
			"inputs": [
				{
					"internalType": "uint256",
					"name": "proposalId",
					"type": "uint256"
				}
			],
			"name": "proposalSnapshot",
			"outputs": [
				{
					"internalType": "uint256",
					"name": "",
					"type": "uint256"
				}
			],
			"stateMutability": "view",
			"type": "function"
		},
		{
			"inputs": [],
			"name": "proposalThreshold",
			"outputs": [
				{
					"internalType": "uint256",
					"name": "",
					"type": "uint256"
				}
			],
			"stateMutability": "view",
			"type": "function"
		},
		{
			"inputs": [
				{
					"internalType": "uint256",
					"name": "proposalId",
					"type": "uint256"
				}
			],
			"name": "proposalVotes",
			"outputs": [
				{
					"internalType": "uint256",
					"name": "againstVotes",
					"type": "uint256"
				},
				{
					"internalType": "uint256",
					"name": "forVotes",
					"type": "uint256"
				},
				{
					"internalType": "uint256",
					"name": "abstainVotes",
					"type": "uint256"
				}
			],
			"stateMutability": "view",
			"type": "function"
		},
		{
			"inputs": [
				{
					"internalType": "address[]",
					"name": "targets",
					"type": "address[]"
				},
				{
					"internalType": "uint256[]",
					"name": "values",
					"type": "uint256[]"
				},
				{
					"internalType": "bytes[]",
					"name": "calldatas",
					"type": "bytes[]"
				},
				{
					"internalType": "string",
					"name": "description",
					"type": "string"
				}
			],
			"name": "propose",
			"outputs": [
				{
					"internalType": "uint256",
					"name": "",
					"type": "uint256"
				}
			],
			"stateMutability": "nonpayable",
			"type": "function"
		},
		{
			"inputs": [
				{
					"internalType": "address[]",
					"name": "targets",
					"type": "address[]"
				},
				{
					"internalType": "uint256[]",
					"name": "values",
					"type": "uint256[]"
				},
				{
					"internalType": "bytes[]",
					"name": "calldatas",
					"type": "bytes[]"
				},
				{
					"internalType": "bytes32",
					"name": "descriptionHash",
					"type": "bytes32"
				}
			],
			"name": "queue",
			"outputs": [
				{
					"internalType": "uint256",
					"name": "",
					"type": "uint256"
				}
			],
			"stateMutability": "nonpayable",
			"type": "function"
		},
		{
			"inputs": [
				{
					"internalType": "uint256",
					"name": "blockNumber",
					"type": "uint256"
				}
			],
			"name": "quorum",
			"outputs": [
				{
					"internalType": "uint256",
					"name": "",
					"type": "uint256"
				}
			],
			"stateMutability": "view",
			"type": "function"
		},
		{
			"inputs": [],
			"name": "quorumDenominator",
			"outputs": [
				{
					"internalType": "uint256",
					"name": "",
					"type": "uint256"
				}
			],
			"stateMutability": "view",
			"type": "function"
		},
		{
			"inputs": [
				{
					"internalType": "uint256",
					"name": "timepoint",
					"type": "uint256"
				}
			],
			"name": "quorumNumerator",
			"outputs": [
				{
					"internalType": "uint256",
					"name": "",
					"type": "uint256"
				}
			],
			"stateMutability": "view",
			"type": "function"
		},
		{
			"inputs": [],
			"name": "quorumNumerator",
			"outputs": [
				{
					"internalType": "uint256",
					"name": "",
					"type": "uint256"
				}
			],
			"stateMutability": "view",
			"type": "function"
		},
		{
			"inputs": [
				{
					"internalType": "address",
					"name": "target",
					"type": "address"
				},
				{
					"internalType": "uint256",
					"name": "value",
					"type": "uint256"
				},
				{
					"internalType": "bytes",
					"name": "data",
					"type": "bytes"
				}
			],
			"name": "relay",
			"outputs": [],
			"stateMutability": "payable",
			"type": "function"
		},
		{
			"inputs": [
				{
					"internalType": "uint256",
					"name": "proposalId",
					"type": "uint256"
				}
			],
			"name": "state",
			"outputs": [
				{
					"internalType": "enum IGovernor.ProposalState",
					"name": "",
					"type": "uint8"
				}
			],
			"stateMutability": "view",
			"type": "function"
		},
		{
			"inputs": [
				{
					"internalType": "bytes4",
					"name": "interfaceId",
					"type": "bytes4"
				}
			],
			"name": "supportsInterface",
			"outputs": [
				{
					"internalType": "bool",
					"name": "",
					"type": "bool"
				}
			],
			"stateMutability": "view",
			"type": "function"
		},
		{
			"inputs": [],
			"name": "token",
			"outputs": [
				{
					"internalType": "contract IERC5805",
					"name": "",
					"type": "address"
				}
			],
			"stateMutability": "view",
			"type": "function"
		},
		{
			"inputs": [
				{
					"internalType": "uint256",
					"name": "newQuorumNumerator",
					"type": "uint256"
				}
			],
			"name": "updateQuorumNumerator",
			"outputs": [],
			"stateMutability": "nonpayable",
			"type": "function"
		},
		{
			"inputs": [],
			"name": "version",
			"outputs": [
				{
					"internalType": "string",
					"name": "",
					"type": "string"
				}
			],
			"stateMutability": "view",
			"type": "function"
		},
		{
			"inputs": [],
			"name": "votingDelay",
			"outputs": [
				{
					"internalType": "uint256",
					"name": "",
					"type": "uint256"
				}
			],
			"stateMutability": "pure",
			"type": "function"
		},
		{
			"inputs": [],
			"name": "votingPeriod",
			"outputs": [
				{
					"internalType": "uint256",
					"name": "",
					"type": "uint256"
				}
			],
			"stateMutability": "pure",
			"type": "function"
		},
		{
			"stateMutability": "payable",
			"type": "receive"
		}
	]
}